{
  "transactions": [
    {
      "hash": "0xc8f597e79baf6072e38ec0a249cd13129ffced9ec058203ed8ef529ed6c08533",
      "transactionType": "CALL",
      "contractName": null,
      "contractAddress": "0x52fda3547389c0141523a98be00d6437dfd22ad6",
      "function": "createPool((address,address,uint8,address,string,uint8,address,string))",
      "arguments": [
        "(0xd368263978a16f053e4CA933c4410aba7654EfA2, 0x55953352477c57843549E087c3f9F3BAFE99d9D1, 0, 0x0000000000000000000000000000000000000000, , 0, 0x0000000000000000000000000000000000000000, )"
      ],
      "transaction": {
        "from": "0x92bc7d2305ec97e138a5c98f6f5fd69703fe0589",
        "to": "0x52fda3547389c0141523a98be00d6437dfd22ad6",
        "gas": "0x18fdcd",
        "value": "0x0",
        "input": "0xab0d433c0000000000000000000000000000000000000000000000000000000000000020000000000000000000000000d368263978a16f053e4ca933c4410aba7654efa200000000000000000000000055953352477c57843549e087c3f9f3bafe99d9d100000000000000000000000000000000000000000000000000000000000000000000000000000000000000000000000000000000000000000000000000000000000000000000000000000000000000000000000000000000000000000000010000000000000000000000000000000000000000000000000000000000000000000000000000000000000000000000000000000000000000000000000000000000000000000000000000000000000000000000000000000000000000000000012000000000000000000000000000000000000000000000000000000000000000000000000000000000000000000000000000000000000000000000000000000000",
        "nonce": "0xc",
        "chainId": "0x138c5"
      },
      "additionalContracts": [
        {
          "transactionType": "CREATE",
          "address": "0x5d06a3c390945bc0a272d61ddda6ffbafe1eb365",
          "initCode": "0x60a060405260405161057238038061057283398101604081905261002291610376565b61002c828261003e565b506001600160a01b031660805261046b565b610047826100fb565b6040516001600160a01b038316907f1cf3b03a6cf19fa2baba4df148e9dcabedea7f8a5c07840e207e5c089be95d3e905f90a28051156100ef576100ea826001600160a01b0316635c60da1b6040518163ffffffff1660e01b8152600401602060405180830381865afa1580156100c0573d5f5f3e3d5ffd5b505050506040513d601f19601f820116820180604052508101906100e49190610437565b82610209565b505050565b6100f761027c565b5050565b806001600160a01b03163b5f0361013557604051631933b43b60e21b81526001600160a01b03821660048201526024015b60405180910390fd5b807fa3f0ad74e5423aebfd80d3ef4346578335a9a72aeaee59ff6cb3582b35133d5080546001600160a01b0319166001600160a01b0392831617905560408051635c60da1b60e01b815290515f92841691635c60da1b9160048083019260209291908290030181865afa1580156101ae573d5f5f3e3d5ffd5b505050506040513d601f19601f820116820180604052508101906101d29190610437565b9050806001600160a01b03163b5f036100f757604051634c9c8ce360e01b81526001600160a01b038216600482015260240161012c565b60605f5f846001600160a01b0316846040516102259190610450565b5f60405180830381855af49150503d805f811461025d576040519150601f19603f3d011682016040523d82523d5f602084013e610262565b606091505b50909250905061027385838361029d565b95945050505050565b341561029b5760405163b398979f60e01b815260040160405180910390fd5b565b6060826102b2576102ad826102fc565b6102f5565b81511580156102c957506001600160a01b0384163b155b156102f257604051639996b31560e01b81526001600160a01b038516600482015260240161012c565b50805b9392505050565b80511561030c5780518082602001fd5b60405163d6bda27560e01b815260040160405180910390fd5b80516001600160a01b038116811461033b575f5ffd5b919050565b634e487b7160e01b5f52604160045260245ffd5b5f5b8381101561036e578181015183820152602001610356565b50505f910152565b5f5f60408385031215610387575f5ffd5b61039083610325565b60208401519092506001600160401b038111156103ab575f5ffd5b8301601f810185136103bb575f5ffd5b80516001600160401b038111156103d4576103d4610340565b604051601f8201601f19908116603f011681016001600160401b038111828210171561040257610402610340565b604052818152828201602001871015610419575f5ffd5b61042a826020830160208601610354565b8093505050509250929050565b5f60208284031215610447575f5ffd5b6102f582610325565b5f8251610461818460208701610354565b9190910192915050565b60805160f26104805f395f601d015260f25ff3fe6080604052600a600c565b005b60186014601a565b609d565b565b5f7f00000000000000000000000000000000000000000000000000000000000000006001600160a01b0316635c60da1b6040518163ffffffff1660e01b8152600401602060405180830381865afa1580156076573d5f5f3e3d5ffd5b505050506040513d601f19601f820116820180604052508101906098919060ba565b905090565b365f5f375f5f365f845af43d5f5f3e80801560b6573d5ff35b3d5ffd5b5f6020828403121560c9575f5ffd5b81516001600160a01b038116811460de575f5ffd5b939250505056fea164736f6c634300081c000a000000000000000000000000b72a3c3aab547b455dc4755b8207431fce118483000000000000000000000000000000000000000000000000000000000000004000000000000000000000000000000000000000000000000000000000000000c44cd88b7600000000000000000000000000000000000000000000000000000000000000400000000000000000000000000000000000000000000000000000000000000080000000000000000000000000000000000000000000000000000000000000001c53656c662050656767696e672041737365742055534443205553445400000000000000000000000000000000000000000000000000000000000000000000000d5350412d555344432d555344540000000000000000000000000000000000000000000000000000000000000000000000000000000000000000000000"
        },
        {
          "transactionType": "CREATE",
          "address": "0xe0d88694d2b57e0277baffb6d62670c37609a8db",
          "initCode": "0x60a060405260405161057238038061057283398101604081905261002291610376565b61002c828261003e565b506001600160a01b031660805261046b565b610047826100fb565b6040516001600160a01b038316907f1cf3b03a6cf19fa2baba4df148e9dcabedea7f8a5c07840e207e5c089be95d3e905f90a28051156100ef576100ea826001600160a01b0316635c60da1b6040518163ffffffff1660e01b8152600401602060405180830381865afa1580156100c0573d5f5f3e3d5ffd5b505050506040513d601f19601f820116820180604052508101906100e49190610437565b82610209565b505050565b6100f761027c565b5050565b806001600160a01b03163b5f0361013557604051631933b43b60e21b81526001600160a01b03821660048201526024015b60405180910390fd5b807fa3f0ad74e5423aebfd80d3ef4346578335a9a72aeaee59ff6cb3582b35133d5080546001600160a01b0319166001600160a01b0392831617905560408051635c60da1b60e01b815290515f92841691635c60da1b9160048083019260209291908290030181865afa1580156101ae573d5f5f3e3d5ffd5b505050506040513d601f19601f820116820180604052508101906101d29190610437565b9050806001600160a01b03163b5f036100f757604051634c9c8ce360e01b81526001600160a01b038216600482015260240161012c565b60605f5f846001600160a01b0316846040516102259190610450565b5f60405180830381855af49150503d805f811461025d576040519150601f19603f3d011682016040523d82523d5f602084013e610262565b606091505b50909250905061027385838361029d565b95945050505050565b341561029b5760405163b398979f60e01b815260040160405180910390fd5b565b6060826102b2576102ad826102fc565b6102f5565b81511580156102c957506001600160a01b0384163b155b156102f257604051639996b31560e01b81526001600160a01b038516600482015260240161012c565b50805b9392505050565b80511561030c5780518082602001fd5b60405163d6bda27560e01b815260040160405180910390fd5b80516001600160a01b038116811461033b575f5ffd5b919050565b634e487b7160e01b5f52604160045260245ffd5b5f5b8381101561036e578181015183820152602001610356565b50505f910152565b5f5f60408385031215610387575f5ffd5b61039083610325565b60208401519092506001600160401b038111156103ab575f5ffd5b8301601f810185136103bb575f5ffd5b80516001600160401b038111156103d4576103d4610340565b604051601f8201601f19908116603f011681016001600160401b038111828210171561040257610402610340565b604052818152828201602001871015610419575f5ffd5b61042a826020830160208601610354565b8093505050509250929050565b5f60208284031215610447575f5ffd5b6102f582610325565b5f8251610461818460208701610354565b9190910192915050565b60805160f26104805f395f601d015260f25ff3fe6080604052600a600c565b005b60186014601a565b609d565b565b5f7f00000000000000000000000000000000000000000000000000000000000000006001600160a01b0316635c60da1b6040518163ffffffff1660e01b8152600401602060405180830381865afa1580156076573d5f5f3e3d5ffd5b505050506040513d601f19601f820116820180604052508101906098919060ba565b905090565b365f5f375f5f365f845af43d5f5f3e80801560b6573d5ff35b3d5ffd5b5f6020828403121560c9575f5ffd5b81516001600160a01b038116811460de575f5ffd5b939250505056fea164736f6c634300081c000a0000000000000000000000000f7ff00ea98a13db7e8a77599745ff056c58cbeb00000000000000000000000000000000000000000000000000000000000000400000000000000000000000000000000000000000000000000000000000000264bf9dddad00000000000000000000000000000000000000000000000000000000000000c0000000000000000000000000000000000000000000000000000000000000012000000000000000000000000000000000000000000000000000000000000001800000000000000000000000005d06a3c390945bc0a272d61ddda6ffbafe1eb365000000000000000000000000000000000000000000000000000000000000006400000000000000000000000000000000000000000000000000000000000002000000000000000000000000000000000000000000000000000000000000000002000000000000000000000000d368263978a16f053e4ca933c4410aba7654efa200000000000000000000000055953352477c57843549e087c3f9f3bafe99d9d10000000000000000000000000000000000000000000000000000000000000002000000000000000000000000000000000000000000000000000000e8d4a51000000000000000000000000000000000000000000000000000000000e8d4a5100000000000000000000000000000000000000000000000000000000000000000030000000000000000000000000000000000000000000000000000000000000000000000000000000000000000000000000000000000000000000000000000000000000000000000000000000000000000000000000000000000000000000000000000000000000000000000000000000000000000000000000000000000000002000000000000000000000000a8801c51d02268b05cf1562e8c20fd1d3d6f24c3000000000000000000000000a8801c51d02268b05cf1562e8c20fd1d3d6f24c300000000000000000000000000000000000000000000000000000000"
        },
        {
          "transactionType": "CREATE",
          "address": "0x120661f5a323af62d0009bff00f2928f19a1f595",
          "initCode": "0x60a060405260405161057238038061057283398101604081905261002291610376565b61002c828261003e565b506001600160a01b031660805261046b565b610047826100fb565b6040516001600160a01b038316907f1cf3b03a6cf19fa2baba4df148e9dcabedea7f8a5c07840e207e5c089be95d3e905f90a28051156100ef576100ea826001600160a01b0316635c60da1b6040518163ffffffff1660e01b8152600401602060405180830381865afa1580156100c0573d5f5f3e3d5ffd5b505050506040513d601f19601f820116820180604052508101906100e49190610437565b82610209565b505050565b6100f761027c565b5050565b806001600160a01b03163b5f0361013557604051631933b43b60e21b81526001600160a01b03821660048201526024015b60405180910390fd5b807fa3f0ad74e5423aebfd80d3ef4346578335a9a72aeaee59ff6cb3582b35133d5080546001600160a01b0319166001600160a01b0392831617905560408051635c60da1b60e01b815290515f92841691635c60da1b9160048083019260209291908290030181865afa1580156101ae573d5f5f3e3d5ffd5b505050506040513d601f19601f820116820180604052508101906101d29190610437565b9050806001600160a01b03163b5f036100f757604051634c9c8ce360e01b81526001600160a01b038216600482015260240161012c565b60605f5f846001600160a01b0316846040516102259190610450565b5f60405180830381855af49150503d805f811461025d576040519150601f19603f3d011682016040523d82523d5f602084013e610262565b606091505b50909250905061027385838361029d565b95945050505050565b341561029b5760405163b398979f60e01b815260040160405180910390fd5b565b6060826102b2576102ad826102fc565b6102f5565b81511580156102c957506001600160a01b0384163b155b156102f257604051639996b31560e01b81526001600160a01b038516600482015260240161012c565b50805b9392505050565b80511561030c5780518082602001fd5b60405163d6bda27560e01b815260040160405180910390fd5b80516001600160a01b038116811461033b575f5ffd5b919050565b634e487b7160e01b5f52604160045260245ffd5b5f5b8381101561036e578181015183820152602001610356565b50505f910152565b5f5f60408385031215610387575f5ffd5b61039083610325565b60208401519092506001600160401b038111156103ab575f5ffd5b8301601f810185136103bb575f5ffd5b80516001600160401b038111156103d4576103d4610340565b604051601f8201601f19908116603f011681016001600160401b038111828210171561040257610402610340565b604052818152828201602001871015610419575f5ffd5b61042a826020830160208601610354565b8093505050509250929050565b5f60208284031215610447575f5ffd5b6102f582610325565b5f8251610461818460208701610354565b9190910192915050565b60805160f26104805f395f601d015260f25ff3fe6080604052600a600c565b005b60186014601a565b609d565b565b5f7f00000000000000000000000000000000000000000000000000000000000000006001600160a01b0316635c60da1b6040518163ffffffff1660e01b8152600401602060405180830381865afa1580156076573d5f5f3e3d5ffd5b505050506040513d601f19601f820116820180604052508101906098919060ba565b905090565b365f5f375f5f365f845af43d5f5f3e80801560b6573d5ff35b3d5ffd5b5f6020828403121560c9575f5ffd5b81516001600160a01b038116811460de575f5ffd5b939250505056fea164736f6c634300081c000a0000000000000000000000008737137431c31ad3533cbc14a399dd67e9f27d5d00000000000000000000000000000000000000000000000000000000000000400000000000000000000000000000000000000000000000000000000000000024c4d66de80000000000000000000000005d06a3c390945bc0a272d61ddda6ffbafe1eb36500000000000000000000000000000000000000000000000000000000"
        }
      ],
      "isFixedGasLimit": false
    },
    {
      "hash": "0x8c1d7e4b295373590011986b15bb854215886f50222d4b61caa4286077dda3de",
      "transactionType": "CALL",
      "contractName": null,
      "contractAddress": "0xd368263978a16f053e4ca933c4410aba7654efa2",
      "function": "mint(address,uint256)",
      "arguments": [
        "0x92Bc7D2305EC97E138a5c98F6f5FD69703fe0589",
        "10000000000000000000000"
      ],
      "transaction": {
        "from": "0x92bc7d2305ec97e138a5c98f6f5fd69703fe0589",
        "to": "0xd368263978a16f053e4ca933c4410aba7654efa2",
        "gas": "0x17142",
        "value": "0x0",
        "input": "0x40c10f1900000000000000000000000092bc7d2305ec97e138a5c98f6f5fd69703fe058900000000000000000000000000000000000000000000021e19e0c9bab2400000",
        "nonce": "0xd",
        "chainId": "0x138c5"
      },
      "additionalContracts": [],
      "isFixedGasLimit": false
    },
    {
      "hash": "0xdfb24e0d3c202abbf7773642bd50324aa5d056eb09bfc6749826ccb544db15d7",
      "transactionType": "CALL",
      "contractName": null,
      "contractAddress": "0x55953352477c57843549e087c3f9f3bafe99d9d1",
      "function": "mint(address,uint256)",
      "arguments": [
        "0x92Bc7D2305EC97E138a5c98F6f5FD69703fe0589",
        "10000000000000000000000"
      ],
      "transaction": {
        "from": "0x92bc7d2305ec97e138a5c98f6f5fd69703fe0589",
        "to": "0x55953352477c57843549e087c3f9f3bafe99d9d1",
        "gas": "0x17142",
        "value": "0x0",
        "input": "0x40c10f1900000000000000000000000092bc7d2305ec97e138a5c98f6f5fd69703fe058900000000000000000000000000000000000000000000021e19e0c9bab2400000",
        "nonce": "0xe",
        "chainId": "0x138c5"
      },
      "additionalContracts": [],
      "isFixedGasLimit": false
    },
    {
      "hash": "0xb7dbcd28e2bbe5aa40f957b7ef810f9d83916ffd495f179bb79bbeb75d80dce1",
      "transactionType": "CALL",
      "contractName": null,
      "contractAddress": "0xd368263978a16f053e4ca933c4410aba7654efa2",
      "function": "approve(address,uint256)",
      "arguments": [
        "0xE0D88694d2B57e0277BaFfb6d62670C37609a8dB",
        "10000000000000000000000"
      ],
      "transaction": {
        "from": "0x92bc7d2305ec97e138a5c98f6f5fd69703fe0589",
        "to": "0xd368263978a16f053e4ca933c4410aba7654efa2",
        "gas": "0xfa4b",
        "value": "0x0",
        "input": "0x095ea7b3000000000000000000000000e0d88694d2b57e0277baffb6d62670c37609a8db00000000000000000000000000000000000000000000021e19e0c9bab2400000",
        "nonce": "0xf",
        "chainId": "0x138c5"
      },
      "additionalContracts": [],
      "isFixedGasLimit": false
    },
    {
      "hash": "0xa8478809374a800feeb29f151444c568a179845e670b4c3ff8c24e7e7c94abbc",
      "transactionType": "CALL",
      "contractName": null,
      "contractAddress": "0x55953352477c57843549e087c3f9f3bafe99d9d1",
      "function": "approve(address,uint256)",
      "arguments": [
        "0xE0D88694d2B57e0277BaFfb6d62670C37609a8dB",
        "10000000000000000000000"
      ],
      "transaction": {
        "from": "0x92bc7d2305ec97e138a5c98f6f5fd69703fe0589",
        "to": "0x55953352477c57843549e087c3f9f3bafe99d9d1",
        "gas": "0xfa4b",
        "value": "0x0",
        "input": "0x095ea7b3000000000000000000000000e0d88694d2b57e0277baffb6d62670c37609a8db00000000000000000000000000000000000000000000021e19e0c9bab2400000",
        "nonce": "0x10",
        "chainId": "0x138c5"
      },
      "additionalContracts": [],
      "isFixedGasLimit": false
    },
    {
      "hash": "0x61c86d2cb308dd20585f79ee446ffa14e19a1b23d3d720e88ce40c6ab0392ebb",
      "transactionType": "CALL",
      "contractName": "BeaconProxy",
      "contractAddress": "0xe0d88694d2b57e0277baffb6d62670c37609a8db",
      "function": null,
      "arguments": null,
      "transaction": {
        "from": "0x92bc7d2305ec97e138a5c98f6f5fd69703fe0589",
        "to": "0xe0d88694d2b57e0277baffb6d62670c37609a8db",
        "gas": "0x680f4",
        "value": "0x0",
        "input": "0x0bd0624600000000000000000000000000000000000000000000000000000000000000400000000000000000000000000000000000000000000000000000000000000000000000000000000000000000000000000000000000000000000000000000000200000000000000000000000000000000000000000000021e19e0c9bab240000000000000000000000000000000000000000000000000021e19e0c9bab2400000",
        "nonce": "0x11",
        "chainId": "0x138c5"
      },
      "additionalContracts": [],
      "isFixedGasLimit": false
    }
  ],
  "receipts": [
    {
      "status": "0x1",
      "cumulativeGasUsed": "0x1e3617",
      "logs": [
        {
          "address": "0x5d06a3c390945bc0a272d61ddda6ffbafe1eb365",
          "topics": [
            "0x1cf3b03a6cf19fa2baba4df148e9dcabedea7f8a5c07840e207e5c089be95d3e",
            "0x000000000000000000000000b72a3c3aab547b455dc4755b8207431fce118483"
          ],
          "data": "0x",
          "blockHash": "0x6728c7ea5f67575018c893f8de4f3779ef5003895cc764f7b2bc7d2c0d273e00",
          "blockNumber": "0x108bdc",
          "blockTimestamp": "0x67d84884",
          "transactionHash": "0xc8f597e79baf6072e38ec0a249cd13129ffced9ec058203ed8ef529ed6c08533",
          "transactionIndex": "0x2",
          "logIndex": "0x22",
          "removed": false
        },
        {
          "address": "0x5d06a3c390945bc0a272d61ddda6ffbafe1eb365",
          "topics": [
            "0x8be0079c531659141344cd1fd0a4f28419497f9722a3daafe3b4186f6b6457e0",
            "0x0000000000000000000000000000000000000000000000000000000000000000",
            "0x00000000000000000000000052fda3547389c0141523a98be00d6437dfd22ad6"
          ],
          "data": "0x",
          "blockHash": "0x6728c7ea5f67575018c893f8de4f3779ef5003895cc764f7b2bc7d2c0d273e00",
          "blockNumber": "0x108bdc",
          "blockTimestamp": "0x67d84884",
          "transactionHash": "0xc8f597e79baf6072e38ec0a249cd13129ffced9ec058203ed8ef529ed6c08533",
          "transactionIndex": "0x2",
          "logIndex": "0x23",
          "removed": false
        },
        {
          "address": "0x5d06a3c390945bc0a272d61ddda6ffbafe1eb365",
          "topics": [
            "0xc7f505b2f371ae2175ee4913f4499e1f2633a7b5936321eed1cdaeb6115181d2"
          ],
          "data": "0x0000000000000000000000000000000000000000000000000000000000000001",
          "blockHash": "0x6728c7ea5f67575018c893f8de4f3779ef5003895cc764f7b2bc7d2c0d273e00",
          "blockNumber": "0x108bdc",
          "blockTimestamp": "0x67d84884",
          "transactionHash": "0xc8f597e79baf6072e38ec0a249cd13129ffced9ec058203ed8ef529ed6c08533",
          "transactionIndex": "0x2",
          "logIndex": "0x24",
          "removed": false
        },
        {
          "address": "0xe0d88694d2b57e0277baffb6d62670c37609a8db",
          "topics": [
            "0x1cf3b03a6cf19fa2baba4df148e9dcabedea7f8a5c07840e207e5c089be95d3e",
            "0x0000000000000000000000000f7ff00ea98a13db7e8a77599745ff056c58cbeb"
          ],
          "data": "0x",
          "blockHash": "0x6728c7ea5f67575018c893f8de4f3779ef5003895cc764f7b2bc7d2c0d273e00",
          "blockNumber": "0x108bdc",
          "blockTimestamp": "0x67d84884",
          "transactionHash": "0xc8f597e79baf6072e38ec0a249cd13129ffced9ec058203ed8ef529ed6c08533",
          "transactionIndex": "0x2",
          "logIndex": "0x25",
          "removed": false
        },
        {
          "address": "0xe0d88694d2b57e0277baffb6d62670c37609a8db",
          "topics": [
            "0x8be0079c531659141344cd1fd0a4f28419497f9722a3daafe3b4186f6b6457e0",
            "0x0000000000000000000000000000000000000000000000000000000000000000",
            "0x00000000000000000000000052fda3547389c0141523a98be00d6437dfd22ad6"
          ],
          "data": "0x",
          "blockHash": "0x6728c7ea5f67575018c893f8de4f3779ef5003895cc764f7b2bc7d2c0d273e00",
          "blockNumber": "0x108bdc",
          "blockTimestamp": "0x67d84884",
          "transactionHash": "0xc8f597e79baf6072e38ec0a249cd13129ffced9ec058203ed8ef529ed6c08533",
          "transactionIndex": "0x2",
          "logIndex": "0x26",
          "removed": false
        },
        {
          "address": "0xe0d88694d2b57e0277baffb6d62670c37609a8db",
          "topics": [
            "0xc7f505b2f371ae2175ee4913f4499e1f2633a7b5936321eed1cdaeb6115181d2"
          ],
          "data": "0x0000000000000000000000000000000000000000000000000000000000000001",
          "blockHash": "0x6728c7ea5f67575018c893f8de4f3779ef5003895cc764f7b2bc7d2c0d273e00",
          "blockNumber": "0x108bdc",
          "blockTimestamp": "0x67d84884",
          "transactionHash": "0xc8f597e79baf6072e38ec0a249cd13129ffced9ec058203ed8ef529ed6c08533",
          "transactionIndex": "0x2",
          "logIndex": "0x27",
          "removed": false
        },
        {
          "address": "0xe0d88694d2b57e0277baffb6d62670c37609a8db",
          "topics": [
            "0x8be0079c531659141344cd1fd0a4f28419497f9722a3daafe3b4186f6b6457e0",
            "0x00000000000000000000000052fda3547389c0141523a98be00d6437dfd22ad6",
            "0x00000000000000000000000092bc7d2305ec97e138a5c98f6f5fd69703fe0589"
          ],
          "data": "0x",
          "blockHash": "0x6728c7ea5f67575018c893f8de4f3779ef5003895cc764f7b2bc7d2c0d273e00",
          "blockNumber": "0x108bdc",
          "blockTimestamp": "0x67d84884",
          "transactionHash": "0xc8f597e79baf6072e38ec0a249cd13129ffced9ec058203ed8ef529ed6c08533",
          "transactionIndex": "0x2",
          "logIndex": "0x28",
          "removed": false
        },
        {
          "address": "0x5d06a3c390945bc0a272d61ddda6ffbafe1eb365",
          "topics": [
            "0x73cca62ab1b520c9715bf4e6c71e3e518c754e7148f65102f43289a7df0efea6",
            "0x000000000000000000000000e0d88694d2b57e0277baffb6d62670c37609a8db"
          ],
          "data": "0x",
          "blockHash": "0x6728c7ea5f67575018c893f8de4f3779ef5003895cc764f7b2bc7d2c0d273e00",
          "blockNumber": "0x108bdc",
          "blockTimestamp": "0x67d84884",
          "transactionHash": "0xc8f597e79baf6072e38ec0a249cd13129ffced9ec058203ed8ef529ed6c08533",
          "transactionIndex": "0x2",
          "logIndex": "0x29",
          "removed": false
        },
        {
          "address": "0x5d06a3c390945bc0a272d61ddda6ffbafe1eb365",
          "topics": [
            "0x8be0079c531659141344cd1fd0a4f28419497f9722a3daafe3b4186f6b6457e0",
            "0x00000000000000000000000052fda3547389c0141523a98be00d6437dfd22ad6",
            "0x00000000000000000000000092bc7d2305ec97e138a5c98f6f5fd69703fe0589"
          ],
          "data": "0x",
          "blockHash": "0x6728c7ea5f67575018c893f8de4f3779ef5003895cc764f7b2bc7d2c0d273e00",
          "blockNumber": "0x108bdc",
          "blockTimestamp": "0x67d84884",
          "transactionHash": "0xc8f597e79baf6072e38ec0a249cd13129ffced9ec058203ed8ef529ed6c08533",
          "transactionIndex": "0x2",
          "logIndex": "0x2a",
          "removed": false
        },
        {
          "address": "0x120661f5a323af62d0009bff00f2928f19a1f595",
          "topics": [
            "0x1cf3b03a6cf19fa2baba4df148e9dcabedea7f8a5c07840e207e5c089be95d3e",
            "0x0000000000000000000000008737137431c31ad3533cbc14a399dd67e9f27d5d"
          ],
          "data": "0x",
          "blockHash": "0x6728c7ea5f67575018c893f8de4f3779ef5003895cc764f7b2bc7d2c0d273e00",
          "blockNumber": "0x108bdc",
          "blockTimestamp": "0x67d84884",
          "transactionHash": "0xc8f597e79baf6072e38ec0a249cd13129ffced9ec058203ed8ef529ed6c08533",
          "transactionIndex": "0x2",
          "logIndex": "0x2b",
          "removed": false
        },
        {
          "address": "0x120661f5a323af62d0009bff00f2928f19a1f595",
          "topics": [
            "0xc7f505b2f371ae2175ee4913f4499e1f2633a7b5936321eed1cdaeb6115181d2"
          ],
          "data": "0x0000000000000000000000000000000000000000000000000000000000000001",
          "blockHash": "0x6728c7ea5f67575018c893f8de4f3779ef5003895cc764f7b2bc7d2c0d273e00",
          "blockNumber": "0x108bdc",
          "blockTimestamp": "0x67d84884",
          "transactionHash": "0xc8f597e79baf6072e38ec0a249cd13129ffced9ec058203ed8ef529ed6c08533",
          "transactionIndex": "0x2",
          "logIndex": "0x2c",
          "removed": false
        },
        {
          "address": "0x52fda3547389c0141523a98be00d6437dfd22ad6",
          "topics": [
            "0x9c5d829b9b23efc461f9aeef91979ec04bb903feb3bee4f26d22114abfc7335b"
          ],
          "data": "0x0000000000000000000000005d06a3c390945bc0a272d61ddda6ffbafe1eb365000000000000000000000000e0d88694d2b57e0277baffb6d62670c37609a8db000000000000000000000000120661f5a323af62d0009bff00f2928f19a1f595",
          "blockHash": "0x6728c7ea5f67575018c893f8de4f3779ef5003895cc764f7b2bc7d2c0d273e00",
          "blockNumber": "0x108bdc",
          "blockTimestamp": "0x67d84884",
          "transactionHash": "0xc8f597e79baf6072e38ec0a249cd13129ffced9ec058203ed8ef529ed6c08533",
          "transactionIndex": "0x2",
          "logIndex": "0x2d",
          "removed": false
        }
      ],
      "logsBloom": "0x02000000008000400000000000000000000000000000000010800000001000000110000000000000000400000000000008000000000010000000000000020200000000140000000000000000001400000001000000000002000000080000000001000000020000000000000400000801008000020000000000000000000000402000000000400000000800000000080000000000000080100000000000000000020000000000040000000000000000000000000400000000000000000100000000000000000000000800000000000000000000000004020000800040000020000000200000000000000000010000000000000004000000000000000000000000",
      "type": "0x2",
      "transactionHash": "0xc8f597e79baf6072e38ec0a249cd13129ffced9ec058203ed8ef529ed6c08533",
      "transactionIndex": "0x2",
      "blockHash": "0x6728c7ea5f67575018c893f8de4f3779ef5003895cc764f7b2bc7d2c0d273e00",
      "blockNumber": "0x108bdc",
      "gasUsed": "0x111691",
      "effectiveGasPrice": "0x77359407",
      "from": "0x92bc7d2305ec97e138a5c98f6f5fd69703fe0589",
      "to": "0x52fda3547389c0141523a98be00d6437dfd22ad6",
      "contractAddress": null
    },
    {
      "status": "0x1",
      "cumulativeGasUsed": "0x1f416e",
      "logs": [
        {
          "address": "0xd368263978a16f053e4ca933c4410aba7654efa2",
          "topics": [
            "0xddf252ad1be2c89b69c2b068fc378daa952ba7f163c4a11628f55a4df523b3ef",
            "0x0000000000000000000000000000000000000000000000000000000000000000",
            "0x00000000000000000000000092bc7d2305ec97e138a5c98f6f5fd69703fe0589"
          ],
          "data": "0x00000000000000000000000000000000000000000000021e19e0c9bab2400000",
          "blockHash": "0x6728c7ea5f67575018c893f8de4f3779ef5003895cc764f7b2bc7d2c0d273e00",
          "blockNumber": "0x108bdc",
          "blockTimestamp": "0x67d84884",
          "transactionHash": "0x8c1d7e4b295373590011986b15bb854215886f50222d4b61caa4286077dda3de",
          "transactionIndex": "0x3",
          "logIndex": "0x2e",
          "removed": false
        }
      ],
      "logsBloom": "0x00000000000000000000000000000000000000000000000000000000000000000000000000000000000000000000000000000000000000000000000000000000000000000000000000000008000000000000000000000000000000000000000001000000020000000000000000000800000000000000000000000010000000000000000000000000000000000000000000000000000000010000000000020000000000000000040000000000000000000000000000000000000000000000000000000002000000000000000000000000000000000000000000000200000020000000000000000000000000010000000000000000000000000000000000000000",
      "type": "0x2",
      "transactionHash": "0x8c1d7e4b295373590011986b15bb854215886f50222d4b61caa4286077dda3de",
      "transactionIndex": "0x3",
      "blockHash": "0x6728c7ea5f67575018c893f8de4f3779ef5003895cc764f7b2bc7d2c0d273e00",
      "blockNumber": "0x108bdc",
      "gasUsed": "0x10b57",
      "effectiveGasPrice": "0x77359407",
      "from": "0x92bc7d2305ec97e138a5c98f6f5fd69703fe0589",
      "to": "0xd368263978a16f053e4ca933c4410aba7654efa2",
      "contractAddress": null
    },
    {
      "status": "0x1",
      "cumulativeGasUsed": "0x204cc5",
      "logs": [
        {
          "address": "0x55953352477c57843549e087c3f9f3bafe99d9d1",
          "topics": [
            "0xddf252ad1be2c89b69c2b068fc378daa952ba7f163c4a11628f55a4df523b3ef",
            "0x0000000000000000000000000000000000000000000000000000000000000000",
            "0x00000000000000000000000092bc7d2305ec97e138a5c98f6f5fd69703fe0589"
          ],
          "data": "0x00000000000000000000000000000000000000000000021e19e0c9bab2400000",
          "blockHash": "0x6728c7ea5f67575018c893f8de4f3779ef5003895cc764f7b2bc7d2c0d273e00",
          "blockNumber": "0x108bdc",
          "blockTimestamp": "0x67d84884",
          "transactionHash": "0xdfb24e0d3c202abbf7773642bd50324aa5d056eb09bfc6749826ccb544db15d7",
          "transactionIndex": "0x4",
          "logIndex": "0x2f",
          "removed": false
        }
      ],
      "logsBloom": "0x00000000000000000000000000000000020000000000000000000000000000000000000000000000000000000000000000000000000000000000000000000000000000000000000000000008000000000000000000000000000000000000000001000000020000000000000000000800000000000000000000000010000000000000000000000000000000000000000000000000000000000000000000000000000000000000040000000000000000000000000000000000000000000000000000000202000000000000000000000000000000000000000000000000000020000000000010000000000000010000000000000000000000000000000000000000",
      "type": "0x2",
      "transactionHash": "0xdfb24e0d3c202abbf7773642bd50324aa5d056eb09bfc6749826ccb544db15d7",
      "transactionIndex": "0x4",
      "blockHash": "0x6728c7ea5f67575018c893f8de4f3779ef5003895cc764f7b2bc7d2c0d273e00",
      "blockNumber": "0x108bdc",
      "gasUsed": "0x10b57",
      "effectiveGasPrice": "0x77359407",
      "from": "0x92bc7d2305ec97e138a5c98f6f5fd69703fe0589",
      "to": "0x55953352477c57843549e087c3f9f3bafe99d9d1",
      "contractAddress": null
    },
    {
      "status": "0x1",
      "cumulativeGasUsed": "0x2101fb",
      "logs": [
        {
          "address": "0xd368263978a16f053e4ca933c4410aba7654efa2",
          "topics": [
            "0x8c5be1e5ebec7d5bd14f71427d1e84f3dd0314c0f7b2291e5b200ac8c7c3b925",
            "0x00000000000000000000000092bc7d2305ec97e138a5c98f6f5fd69703fe0589",
            "0x000000000000000000000000e0d88694d2b57e0277baffb6d62670c37609a8db"
          ],
          "data": "0x00000000000000000000000000000000000000000000021e19e0c9bab2400000",
          "blockHash": "0x6728c7ea5f67575018c893f8de4f3779ef5003895cc764f7b2bc7d2c0d273e00",
          "blockNumber": "0x108bdc",
          "blockTimestamp": "0x67d84884",
          "transactionHash": "0xb7dbcd28e2bbe5aa40f957b7ef810f9d83916ffd495f179bb79bbeb75d80dce1",
          "transactionIndex": "0x5",
          "logIndex": "0x30",
          "removed": false
        }
      ],
      "logsBloom": "0x00000000000000000000000000000000000000000000000000000000000000000100000000000000000000000000000000000000000000000000000000200200000000000000000000000000000000000000000000000000000000080000000001000000000000000000000000000000000000000000000000000000000000000000000000000000000000000000000000000000000000010000000000020000020000000000040000000000000000000000000000000000000000000000000000000000000000000000000000000000000000000000000000000200000000000010000000000000000000010000000000000000000000000000000000000000",
      "type": "0x2",
      "transactionHash": "0xb7dbcd28e2bbe5aa40f957b7ef810f9d83916ffd495f179bb79bbeb75d80dce1",
      "transactionIndex": "0x5",
      "blockHash": "0x6728c7ea5f67575018c893f8de4f3779ef5003895cc764f7b2bc7d2c0d273e00",
      "blockNumber": "0x108bdc",
      "gasUsed": "0xb536",
      "effectiveGasPrice": "0x77359407",
      "from": "0x92bc7d2305ec97e138a5c98f6f5fd69703fe0589",
      "to": "0xd368263978a16f053e4ca933c4410aba7654efa2",
      "contractAddress": null
    },
    {
      "status": "0x1",
      "cumulativeGasUsed": "0x21b731",
      "logs": [
        {
          "address": "0x55953352477c57843549e087c3f9f3bafe99d9d1",
          "topics": [
            "0x8c5be1e5ebec7d5bd14f71427d1e84f3dd0314c0f7b2291e5b200ac8c7c3b925",
            "0x00000000000000000000000092bc7d2305ec97e138a5c98f6f5fd69703fe0589",
            "0x000000000000000000000000e0d88694d2b57e0277baffb6d62670c37609a8db"
          ],
          "data": "0x00000000000000000000000000000000000000000000021e19e0c9bab2400000",
          "blockHash": "0x6728c7ea5f67575018c893f8de4f3779ef5003895cc764f7b2bc7d2c0d273e00",
          "blockNumber": "0x108bdc",
          "blockTimestamp": "0x67d84884",
          "transactionHash": "0xa8478809374a800feeb29f151444c568a179845e670b4c3ff8c24e7e7c94abbc",
          "transactionIndex": "0x6",
          "logIndex": "0x31",
          "removed": false
        }
      ],
      "logsBloom": "0x00000000000000000000000000000000020000000000000000000000000000000100000000000000000000000000000000000000000000000000000000200200000000000000000000000000000000000000000000000000000000080000000001000000000000000000000000000000000000000000000000000000000000000000000000000000000000000000000000000000000000000000000000000000020000000000040000000000000000000000000000000000000000000000000000000200000000000000000000000000000000000000000000000000000000000010000010000000000000010000000000000000000000000000000000000000",
      "type": "0x2",
      "transactionHash": "0xa8478809374a800feeb29f151444c568a179845e670b4c3ff8c24e7e7c94abbc",
      "transactionIndex": "0x6",
      "blockHash": "0x6728c7ea5f67575018c893f8de4f3779ef5003895cc764f7b2bc7d2c0d273e00",
      "blockNumber": "0x108bdc",
      "gasUsed": "0xb536",
      "effectiveGasPrice": "0x77359407",
      "from": "0x92bc7d2305ec97e138a5c98f6f5fd69703fe0589",
      "to": "0x55953352477c57843549e087c3f9f3bafe99d9d1",
      "contractAddress": null
    },
    {
      "status": "0x1",
      "cumulativeGasUsed": "0x266c97",
      "logs": [
        {
          "address": "0xd368263978a16f053e4ca933c4410aba7654efa2",
          "topics": [
            "0xddf252ad1be2c89b69c2b068fc378daa952ba7f163c4a11628f55a4df523b3ef",
            "0x00000000000000000000000092bc7d2305ec97e138a5c98f6f5fd69703fe0589",
            "0x000000000000000000000000e0d88694d2b57e0277baffb6d62670c37609a8db"
          ],
          "data": "0x00000000000000000000000000000000000000000000021e19e0c9bab2400000",
          "blockHash": "0x6728c7ea5f67575018c893f8de4f3779ef5003895cc764f7b2bc7d2c0d273e00",
          "blockNumber": "0x108bdc",
          "blockTimestamp": "0x67d84884",
          "transactionHash": "0x61c86d2cb308dd20585f79ee446ffa14e19a1b23d3d720e88ce40c6ab0392ebb",
          "transactionIndex": "0x7",
          "logIndex": "0x32",
          "removed": false
        },
        {
          "address": "0x55953352477c57843549e087c3f9f3bafe99d9d1",
          "topics": [
            "0xddf252ad1be2c89b69c2b068fc378daa952ba7f163c4a11628f55a4df523b3ef",
            "0x00000000000000000000000092bc7d2305ec97e138a5c98f6f5fd69703fe0589",
            "0x000000000000000000000000e0d88694d2b57e0277baffb6d62670c37609a8db"
          ],
          "data": "0x00000000000000000000000000000000000000000000021e19e0c9bab2400000",
          "blockHash": "0x6728c7ea5f67575018c893f8de4f3779ef5003895cc764f7b2bc7d2c0d273e00",
          "blockNumber": "0x108bdc",
          "blockTimestamp": "0x67d84884",
          "transactionHash": "0x61c86d2cb308dd20585f79ee446ffa14e19a1b23d3d720e88ce40c6ab0392ebb",
          "transactionIndex": "0x7",
          "logIndex": "0x33",
          "removed": false
        },
        {
          "address": "0x5d06a3c390945bc0a272d61ddda6ffbafe1eb365",
          "topics": [
            "0xd5103f333769455df788908e17b0f6f83838ebeae2cd1ed6f23ec20dad88c9a3",
            "0x00000000000000000000000092bc7d2305ec97e138a5c98f6f5fd69703fe0589"
          ],
          "data": "0x000000000000000000000000000000000003da137d5b0f806f1b1cc800000000000000000000000000000000000000000003da137d5b0f806f1b1cc800000000",
          "blockHash": "0x6728c7ea5f67575018c893f8de4f3779ef5003895cc764f7b2bc7d2c0d273e00",
          "blockNumber": "0x108bdc",
          "blockTimestamp": "0x67d84884",
          "transactionHash": "0x61c86d2cb308dd20585f79ee446ffa14e19a1b23d3d720e88ce40c6ab0392ebb",
          "transactionIndex": "0x7",
          "logIndex": "0x34",
          "removed": false
        },
        {
          "address": "0xe0d88694d2b57e0277baffb6d62670c37609a8db",
          "topics": [
            "0xc1258b6f224442b6aa30f317612f0920bb2f76d968200d28d9163ec6aee9ad00",
            "0x00000000000000000000000092bc7d2305ec97e138a5c98f6f5fd69703fe0589"
          ],
          "data": "0x000000000000000000000000000000000003da137d5b0f806f1b1cc80000000000000000000000000000000000000000000000000000000000000000000000600000000000000000000000000000000000000000000000000000000000000000000000000000000000000000000000000000000000000000000000000000000200000000000000000000000000000000000000000000021e19e0c9bab240000000000000000000000000000000000000000000000000021e19e0c9bab2400000",
          "blockHash": "0x6728c7ea5f67575018c893f8de4f3779ef5003895cc764f7b2bc7d2c0d273e00",
          "blockNumber": "0x108bdc",
          "blockTimestamp": "0x67d84884",
          "transactionHash": "0x61c86d2cb308dd20585f79ee446ffa14e19a1b23d3d720e88ce40c6ab0392ebb",
          "transactionIndex": "0x7",
          "logIndex": "0x35",
          "removed": false
        }
      ],
      "logsBloom": "0x02000000000000000000000000000000020000000200000000000000000000000100000000000000000400000000000000000000000010000000000000000200000000000000000000000008000000000000000000000002000000080000000001000000000000000000000400000001000000000000000000000010000000000000000000000000000000000000000000008000000000010080000000020000000000000000040000020000000000000000000000000000000000000000000000000202000000000000000000000000000000000000020000000200000000000000000010800000000000010000000000000000000000000000000000000000",
      "type": "0x2",
      "transactionHash": "0x61c86d2cb308dd20585f79ee446ffa14e19a1b23d3d720e88ce40c6ab0392ebb",
      "transactionIndex": "0x7",
      "blockHash": "0x6728c7ea5f67575018c893f8de4f3779ef5003895cc764f7b2bc7d2c0d273e00",
      "blockNumber": "0x108bdc",
      "gasUsed": "0x4b566",
      "effectiveGasPrice": "0x77359407",
      "from": "0x92bc7d2305ec97e138a5c98f6f5fd69703fe0589",
      "to": "0xe0d88694d2b57e0277baffb6d62670c37609a8db",
      "contractAddress": null
    }
  ],
  "libraries": [],
  "pending": [],
  "returns": {},
  "timestamp": 1742227589,
  "chain": 80069,
  "commit": "a91a17e"
}