{
  "transactions": [
    {
      "hash": "0xe841dd40fae8f9ac35c44432276ad913efe9ac93969b385e03818b732f00802c",
      "transactionType": "CALL",
      "contractName": null,
      "contractAddress": "0x462498e925b34fdee31b07f38a962e94ce600eab",
      "function": "createPool((address,address,uint8,address,string,uint8,address,string))",
      "arguments": [
        "(0x0B20B851320E526Caa804e4007135057275625a4, 0x31C6A16Ce96Ea8a4940C417144e2E1BC91a45Df2, 0, 0x0000000000000000000000000000000000000000, , 0, 0x0000000000000000000000000000000000000000, )"
      ],
      "transaction": {
        "from": "0x92bc7d2305ec97e138a5c98f6f5fd69703fe0589",
        "to": "0x462498e925b34fdee31b07f38a962e94ce600eab",
        "gas": "0x1903cb",
        "value": "0x0",
        "input": "0xab0d433c00000000000000000000000000000000000000000000000000000000000000200000000000000000000000000b20b851320e526caa804e4007135057275625a400000000000000000000000031c6a16ce96ea8a4940c417144e2e1bc91a45df200000000000000000000000000000000000000000000000000000000000000000000000000000000000000000000000000000000000000000000000000000000000000000000000000000000000000000000000000000000000000000000010000000000000000000000000000000000000000000000000000000000000000000000000000000000000000000000000000000000000000000000000000000000000000000000000000000000000000000000000000000000000000000000012000000000000000000000000000000000000000000000000000000000000000000000000000000000000000000000000000000000000000000000000000000000",
        "nonce": "0xe5",
        "chainId": "0x14a34"
      },
      "additionalContracts": [
        {
          "transactionType": "CREATE",
          "address": "0xcfa6fad32546c7f99cf0417075bc5c2d6a27c363",
          "initCode": "0x60a060405260405161057238038061057283398101604081905261002291610376565b61002c828261003e565b506001600160a01b031660805261046b565b610047826100fb565b6040516001600160a01b038316907f1cf3b03a6cf19fa2baba4df148e9dcabedea7f8a5c07840e207e5c089be95d3e905f90a28051156100ef576100ea826001600160a01b0316635c60da1b6040518163ffffffff1660e01b8152600401602060405180830381865afa1580156100c0573d5f5f3e3d5ffd5b505050506040513d601f19601f820116820180604052508101906100e49190610437565b82610209565b505050565b6100f761027c565b5050565b806001600160a01b03163b5f0361013557604051631933b43b60e21b81526001600160a01b03821660048201526024015b60405180910390fd5b807fa3f0ad74e5423aebfd80d3ef4346578335a9a72aeaee59ff6cb3582b35133d5080546001600160a01b0319166001600160a01b0392831617905560408051635c60da1b60e01b815290515f92841691635c60da1b9160048083019260209291908290030181865afa1580156101ae573d5f5f3e3d5ffd5b505050506040513d601f19601f820116820180604052508101906101d29190610437565b9050806001600160a01b03163b5f036100f757604051634c9c8ce360e01b81526001600160a01b038216600482015260240161012c565b60605f5f846001600160a01b0316846040516102259190610450565b5f60405180830381855af49150503d805f811461025d576040519150601f19603f3d011682016040523d82523d5f602084013e610262565b606091505b50909250905061027385838361029d565b95945050505050565b341561029b5760405163b398979f60e01b815260040160405180910390fd5b565b6060826102b2576102ad826102fc565b6102f5565b81511580156102c957506001600160a01b0384163b155b156102f257604051639996b31560e01b81526001600160a01b038516600482015260240161012c565b50805b9392505050565b80511561030c5780518082602001fd5b60405163d6bda27560e01b815260040160405180910390fd5b80516001600160a01b038116811461033b575f5ffd5b919050565b634e487b7160e01b5f52604160045260245ffd5b5f5b8381101561036e578181015183820152602001610356565b50505f910152565b5f5f60408385031215610387575f5ffd5b61039083610325565b60208401519092506001600160401b038111156103ab575f5ffd5b8301601f810185136103bb575f5ffd5b80516001600160401b038111156103d4576103d4610340565b604051601f8201601f19908116603f011681016001600160401b038111828210171561040257610402610340565b604052818152828201602001871015610419575f5ffd5b61042a826020830160208601610354565b8093505050509250929050565b5f60208284031215610447575f5ffd5b6102f582610325565b5f8251610461818460208701610354565b9190910192915050565b60805160f26104805f395f601d015260f25ff3fe6080604052600a600c565b005b60186014601a565b609d565b565b5f7f00000000000000000000000000000000000000000000000000000000000000006001600160a01b0316635c60da1b6040518163ffffffff1660e01b8152600401602060405180830381865afa1580156076573d5f5f3e3d5ffd5b505050506040513d601f19601f820116820180604052508101906098919060ba565b905090565b365f5f375f5f365f845af43d5f5f3e80801560b6573d5ff35b3d5ffd5b5f6020828403121560c9575f5ffd5b81516001600160a01b038116811460de575f5ffd5b939250505056fea164736f6c634300081c000a000000000000000000000000012c02f4cc645c16bcbcac3d65fc599fcd4ac0de000000000000000000000000000000000000000000000000000000000000004000000000000000000000000000000000000000000000000000000000000000c44cd88b7600000000000000000000000000000000000000000000000000000000000000400000000000000000000000000000000000000000000000000000000000000080000000000000000000000000000000000000000000000000000000000000001c53656c662050656767696e672041737365742055534443205553445400000000000000000000000000000000000000000000000000000000000000000000000d5350412d555344432d555344540000000000000000000000000000000000000000000000000000000000000000000000000000000000000000000000"
        },
        {
          "transactionType": "CREATE",
          "address": "0x373af176094e37a161cda61b3fe295b330977188",
          "initCode": "0x60a060405260405161057238038061057283398101604081905261002291610376565b61002c828261003e565b506001600160a01b031660805261046b565b610047826100fb565b6040516001600160a01b038316907f1cf3b03a6cf19fa2baba4df148e9dcabedea7f8a5c07840e207e5c089be95d3e905f90a28051156100ef576100ea826001600160a01b0316635c60da1b6040518163ffffffff1660e01b8152600401602060405180830381865afa1580156100c0573d5f5f3e3d5ffd5b505050506040513d601f19601f820116820180604052508101906100e49190610437565b82610209565b505050565b6100f761027c565b5050565b806001600160a01b03163b5f0361013557604051631933b43b60e21b81526001600160a01b03821660048201526024015b60405180910390fd5b807fa3f0ad74e5423aebfd80d3ef4346578335a9a72aeaee59ff6cb3582b35133d5080546001600160a01b0319166001600160a01b0392831617905560408051635c60da1b60e01b815290515f92841691635c60da1b9160048083019260209291908290030181865afa1580156101ae573d5f5f3e3d5ffd5b505050506040513d601f19601f820116820180604052508101906101d29190610437565b9050806001600160a01b03163b5f036100f757604051634c9c8ce360e01b81526001600160a01b038216600482015260240161012c565b60605f5f846001600160a01b0316846040516102259190610450565b5f60405180830381855af49150503d805f811461025d576040519150601f19603f3d011682016040523d82523d5f602084013e610262565b606091505b50909250905061027385838361029d565b95945050505050565b341561029b5760405163b398979f60e01b815260040160405180910390fd5b565b6060826102b2576102ad826102fc565b6102f5565b81511580156102c957506001600160a01b0384163b155b156102f257604051639996b31560e01b81526001600160a01b038516600482015260240161012c565b50805b9392505050565b80511561030c5780518082602001fd5b60405163d6bda27560e01b815260040160405180910390fd5b80516001600160a01b038116811461033b575f5ffd5b919050565b634e487b7160e01b5f52604160045260245ffd5b5f5b8381101561036e578181015183820152602001610356565b50505f910152565b5f5f60408385031215610387575f5ffd5b61039083610325565b60208401519092506001600160401b038111156103ab575f5ffd5b8301601f810185136103bb575f5ffd5b80516001600160401b038111156103d4576103d4610340565b604051601f8201601f19908116603f011681016001600160401b038111828210171561040257610402610340565b604052818152828201602001871015610419575f5ffd5b61042a826020830160208601610354565b8093505050509250929050565b5f60208284031215610447575f5ffd5b6102f582610325565b5f8251610461818460208701610354565b9190910192915050565b60805160f26104805f395f601d015260f25ff3fe6080604052600a600c565b005b60186014601a565b609d565b565b5f7f00000000000000000000000000000000000000000000000000000000000000006001600160a01b0316635c60da1b6040518163ffffffff1660e01b8152600401602060405180830381865afa1580156076573d5f5f3e3d5ffd5b505050506040513d601f19601f820116820180604052508101906098919060ba565b905090565b365f5f375f5f365f845af43d5f5f3e80801560b6573d5ff35b3d5ffd5b5f6020828403121560c9575f5ffd5b81516001600160a01b038116811460de575f5ffd5b939250505056fea164736f6c634300081c000a00000000000000000000000044d3dded46e4d14e9f0a1c3159e908da4bd9908400000000000000000000000000000000000000000000000000000000000000400000000000000000000000000000000000000000000000000000000000000264bf9dddad00000000000000000000000000000000000000000000000000000000000000c000000000000000000000000000000000000000000000000000000000000001200000000000000000000000000000000000000000000000000000000000000180000000000000000000000000cfa6fad32546c7f99cf0417075bc5c2d6a27c3630000000000000000000000000000000000000000000000000000000000000064000000000000000000000000000000000000000000000000000000000000020000000000000000000000000000000000000000000000000000000000000000020000000000000000000000000b20b851320e526caa804e4007135057275625a400000000000000000000000031c6a16ce96ea8a4940c417144e2e1bc91a45df20000000000000000000000000000000000000000000000000000000000000002000000000000000000000000000000000000000000000000000000e8d4a51000000000000000000000000000000000000000000000000000000000e8d4a5100000000000000000000000000000000000000000000000000000000000000000030000000000000000000000000000000000000000000000000000000000000000000000000000000000000000000000000000000000000000000000000000000000000000000000000000000000000000000000000000000000000000000000000000000000000000000000000000000000000000000000000000000000000002000000000000000000000000eb47d13e805c64d00e9ea0b3eee5a02a69df8138000000000000000000000000eb47d13e805c64d00e9ea0b3eee5a02a69df813800000000000000000000000000000000000000000000000000000000"
        },
        {
          "transactionType": "CREATE",
          "address": "0x854a2867272f0108b5d5ded9dba03ec50739a2fe",
          "initCode": "0x60a060405260405161057238038061057283398101604081905261002291610376565b61002c828261003e565b506001600160a01b031660805261046b565b610047826100fb565b6040516001600160a01b038316907f1cf3b03a6cf19fa2baba4df148e9dcabedea7f8a5c07840e207e5c089be95d3e905f90a28051156100ef576100ea826001600160a01b0316635c60da1b6040518163ffffffff1660e01b8152600401602060405180830381865afa1580156100c0573d5f5f3e3d5ffd5b505050506040513d601f19601f820116820180604052508101906100e49190610437565b82610209565b505050565b6100f761027c565b5050565b806001600160a01b03163b5f0361013557604051631933b43b60e21b81526001600160a01b03821660048201526024015b60405180910390fd5b807fa3f0ad74e5423aebfd80d3ef4346578335a9a72aeaee59ff6cb3582b35133d5080546001600160a01b0319166001600160a01b0392831617905560408051635c60da1b60e01b815290515f92841691635c60da1b9160048083019260209291908290030181865afa1580156101ae573d5f5f3e3d5ffd5b505050506040513d601f19601f820116820180604052508101906101d29190610437565b9050806001600160a01b03163b5f036100f757604051634c9c8ce360e01b81526001600160a01b038216600482015260240161012c565b60605f5f846001600160a01b0316846040516102259190610450565b5f60405180830381855af49150503d805f811461025d576040519150601f19603f3d011682016040523d82523d5f602084013e610262565b606091505b50909250905061027385838361029d565b95945050505050565b341561029b5760405163b398979f60e01b815260040160405180910390fd5b565b6060826102b2576102ad826102fc565b6102f5565b81511580156102c957506001600160a01b0384163b155b156102f257604051639996b31560e01b81526001600160a01b038516600482015260240161012c565b50805b9392505050565b80511561030c5780518082602001fd5b60405163d6bda27560e01b815260040160405180910390fd5b80516001600160a01b038116811461033b575f5ffd5b919050565b634e487b7160e01b5f52604160045260245ffd5b5f5b8381101561036e578181015183820152602001610356565b50505f910152565b5f5f60408385031215610387575f5ffd5b61039083610325565b60208401519092506001600160401b038111156103ab575f5ffd5b8301601f810185136103bb575f5ffd5b80516001600160401b038111156103d4576103d4610340565b604051601f8201601f19908116603f011681016001600160401b038111828210171561040257610402610340565b604052818152828201602001871015610419575f5ffd5b61042a826020830160208601610354565b8093505050509250929050565b5f60208284031215610447575f5ffd5b6102f582610325565b5f8251610461818460208701610354565b9190910192915050565b60805160f26104805f395f601d015260f25ff3fe6080604052600a600c565b005b60186014601a565b609d565b565b5f7f00000000000000000000000000000000000000000000000000000000000000006001600160a01b0316635c60da1b6040518163ffffffff1660e01b8152600401602060405180830381865afa1580156076573d5f5f3e3d5ffd5b505050506040513d601f19601f820116820180604052508101906098919060ba565b905090565b365f5f375f5f365f845af43d5f5f3e80801560b6573d5ff35b3d5ffd5b5f6020828403121560c9575f5ffd5b81516001600160a01b038116811460de575f5ffd5b939250505056fea164736f6c634300081c000a000000000000000000000000455ac9bf52507951e7e64abc512bb0f2c6e13cee00000000000000000000000000000000000000000000000000000000000000400000000000000000000000000000000000000000000000000000000000000024c4d66de8000000000000000000000000cfa6fad32546c7f99cf0417075bc5c2d6a27c36300000000000000000000000000000000000000000000000000000000"
        }
      ],
      "isFixedGasLimit": false
    },
    {
      "hash": "0xab197bc16bc1cb8b452ff78811facc318ce2472c5f7f01339d54a31b31eff69c",
      "transactionType": "CALL",
      "contractName": null,
      "contractAddress": "0x0b20b851320e526caa804e4007135057275625a4",
      "function": "mint(address,uint256)",
      "arguments": [
        "0x92Bc7D2305EC97E138a5c98F6f5FD69703fe0589",
        "10000000000000000000000"
      ],
      "transaction": {
        "from": "0x92bc7d2305ec97e138a5c98f6f5fd69703fe0589",
        "to": "0x0b20b851320e526caa804e4007135057275625a4",
        "gas": "0x17142",
        "value": "0x0",
        "input": "0x40c10f1900000000000000000000000092bc7d2305ec97e138a5c98f6f5fd69703fe058900000000000000000000000000000000000000000000021e19e0c9bab2400000",
        "nonce": "0xe6",
        "chainId": "0x14a34"
      },
      "additionalContracts": [],
      "isFixedGasLimit": false
    },
    {
      "hash": "0x88447a6a08ceb64751ec6e4770f5a71834d0b76a73a7971b6df4f3d1248c733f",
      "transactionType": "CALL",
      "contractName": null,
      "contractAddress": "0x31c6a16ce96ea8a4940c417144e2e1bc91a45df2",
      "function": "mint(address,uint256)",
      "arguments": [
        "0x92Bc7D2305EC97E138a5c98F6f5FD69703fe0589",
        "10000000000000000000000"
      ],
      "transaction": {
        "from": "0x92bc7d2305ec97e138a5c98f6f5fd69703fe0589",
        "to": "0x31c6a16ce96ea8a4940c417144e2e1bc91a45df2",
        "gas": "0x17142",
        "value": "0x0",
        "input": "0x40c10f1900000000000000000000000092bc7d2305ec97e138a5c98f6f5fd69703fe058900000000000000000000000000000000000000000000021e19e0c9bab2400000",
        "nonce": "0xe7",
        "chainId": "0x14a34"
      },
      "additionalContracts": [],
      "isFixedGasLimit": false
    },
    {
      "hash": "0x2260961112c7a0bdc91e2aca855b4467526ebb9334889ab15966862fe65eee12",
      "transactionType": "CALL",
      "contractName": null,
      "contractAddress": "0x0b20b851320e526caa804e4007135057275625a4",
      "function": "approve(address,uint256)",
      "arguments": [
        "0x373af176094e37A161cdA61b3Fe295B330977188",
        "10000000000000000000000"
      ],
      "transaction": {
        "from": "0x92bc7d2305ec97e138a5c98f6f5fd69703fe0589",
        "to": "0x0b20b851320e526caa804e4007135057275625a4",
        "gas": "0xfa4b",
        "value": "0x0",
        "input": "0x095ea7b3000000000000000000000000373af176094e37a161cda61b3fe295b33097718800000000000000000000000000000000000000000000021e19e0c9bab2400000",
        "nonce": "0xe8",
        "chainId": "0x14a34"
      },
      "additionalContracts": [],
      "isFixedGasLimit": false
    },
    {
      "hash": "0xfc547d0bdc984dd0f4ac91a663f2843a09c0da9d6e804031517b91c0ca699fbb",
      "transactionType": "CALL",
      "contractName": null,
      "contractAddress": "0x31c6a16ce96ea8a4940c417144e2e1bc91a45df2",
      "function": "approve(address,uint256)",
      "arguments": [
        "0x373af176094e37A161cdA61b3Fe295B330977188",
        "10000000000000000000000"
      ],
      "transaction": {
        "from": "0x92bc7d2305ec97e138a5c98f6f5fd69703fe0589",
        "to": "0x31c6a16ce96ea8a4940c417144e2e1bc91a45df2",
        "gas": "0xfa4b",
        "value": "0x0",
        "input": "0x095ea7b3000000000000000000000000373af176094e37a161cda61b3fe295b33097718800000000000000000000000000000000000000000000021e19e0c9bab2400000",
        "nonce": "0xe9",
        "chainId": "0x14a34"
      },
      "additionalContracts": [],
      "isFixedGasLimit": false
    },
    {
      "hash": "0x3d2f8146b81a19a216c1cf4207c06601326f4b139db67062f9f27851e8491168",
      "transactionType": "CALL",
      "contractName": "BeaconProxy",
      "contractAddress": "0x373af176094e37a161cda61b3fe295b330977188",
      "function": null,
      "arguments": null,
      "transaction": {
        "from": "0x92bc7d2305ec97e138a5c98f6f5fd69703fe0589",
        "to": "0x373af176094e37a161cda61b3fe295b330977188",
        "gas": "0x68e42",
        "value": "0x0",
        "input": "0x0bd0624600000000000000000000000000000000000000000000000000000000000000400000000000000000000000000000000000000000000000000000000000000000000000000000000000000000000000000000000000000000000000000000000200000000000000000000000000000000000000000000021e19e0c9bab240000000000000000000000000000000000000000000000000021e19e0c9bab2400000",
        "nonce": "0xea",
        "chainId": "0x14a34"
      },
      "additionalContracts": [],
      "isFixedGasLimit": false
    }
  ],
  "receipts": [
    {
      "status": "0x1",
      "cumulativeGasUsed": "0x42d488",
      "logs": [
        {
          "address": "0xcfa6fad32546c7f99cf0417075bc5c2d6a27c363",
          "topics": [
            "0x1cf3b03a6cf19fa2baba4df148e9dcabedea7f8a5c07840e207e5c089be95d3e",
            "0x000000000000000000000000012c02f4cc645c16bcbcac3d65fc599fcd4ac0de"
          ],
          "data": "0x",
          "blockHash": "0x3a7ff186fe7d7ca7171d784c594590e2a48611aacf2b137abf2f255cec0be12c",
          "blockNumber": "0x12f6f77",
          "transactionHash": "0xe841dd40fae8f9ac35c44432276ad913efe9ac93969b385e03818b732f00802c",
          "transactionIndex": "0x17",
          "logIndex": "0x41",
          "removed": false
        },
        {
          "address": "0xcfa6fad32546c7f99cf0417075bc5c2d6a27c363",
          "topics": [
            "0x8be0079c531659141344cd1fd0a4f28419497f9722a3daafe3b4186f6b6457e0",
            "0x0000000000000000000000000000000000000000000000000000000000000000",
            "0x000000000000000000000000462498e925b34fdee31b07f38a962e94ce600eab"
          ],
          "data": "0x",
          "blockHash": "0x3a7ff186fe7d7ca7171d784c594590e2a48611aacf2b137abf2f255cec0be12c",
          "blockNumber": "0x12f6f77",
          "transactionHash": "0xe841dd40fae8f9ac35c44432276ad913efe9ac93969b385e03818b732f00802c",
          "transactionIndex": "0x17",
          "logIndex": "0x42",
          "removed": false
        },
        {
          "address": "0xcfa6fad32546c7f99cf0417075bc5c2d6a27c363",
          "topics": [
            "0xc7f505b2f371ae2175ee4913f4499e1f2633a7b5936321eed1cdaeb6115181d2"
          ],
          "data": "0x0000000000000000000000000000000000000000000000000000000000000001",
          "blockHash": "0x3a7ff186fe7d7ca7171d784c594590e2a48611aacf2b137abf2f255cec0be12c",
          "blockNumber": "0x12f6f77",
          "transactionHash": "0xe841dd40fae8f9ac35c44432276ad913efe9ac93969b385e03818b732f00802c",
          "transactionIndex": "0x17",
          "logIndex": "0x43",
          "removed": false
        },
        {
          "address": "0x373af176094e37a161cda61b3fe295b330977188",
          "topics": [
            "0x1cf3b03a6cf19fa2baba4df148e9dcabedea7f8a5c07840e207e5c089be95d3e",
            "0x00000000000000000000000044d3dded46e4d14e9f0a1c3159e908da4bd99084"
          ],
          "data": "0x",
          "blockHash": "0x3a7ff186fe7d7ca7171d784c594590e2a48611aacf2b137abf2f255cec0be12c",
          "blockNumber": "0x12f6f77",
          "transactionHash": "0xe841dd40fae8f9ac35c44432276ad913efe9ac93969b385e03818b732f00802c",
          "transactionIndex": "0x17",
          "logIndex": "0x44",
          "removed": false
        },
        {
          "address": "0x373af176094e37a161cda61b3fe295b330977188",
          "topics": [
            "0x8be0079c531659141344cd1fd0a4f28419497f9722a3daafe3b4186f6b6457e0",
            "0x0000000000000000000000000000000000000000000000000000000000000000",
            "0x000000000000000000000000462498e925b34fdee31b07f38a962e94ce600eab"
          ],
          "data": "0x",
          "blockHash": "0x3a7ff186fe7d7ca7171d784c594590e2a48611aacf2b137abf2f255cec0be12c",
          "blockNumber": "0x12f6f77",
          "transactionHash": "0xe841dd40fae8f9ac35c44432276ad913efe9ac93969b385e03818b732f00802c",
          "transactionIndex": "0x17",
          "logIndex": "0x45",
          "removed": false
        },
        {
          "address": "0x373af176094e37a161cda61b3fe295b330977188",
          "topics": [
            "0xc7f505b2f371ae2175ee4913f4499e1f2633a7b5936321eed1cdaeb6115181d2"
          ],
          "data": "0x0000000000000000000000000000000000000000000000000000000000000001",
          "blockHash": "0x3a7ff186fe7d7ca7171d784c594590e2a48611aacf2b137abf2f255cec0be12c",
          "blockNumber": "0x12f6f77",
          "transactionHash": "0xe841dd40fae8f9ac35c44432276ad913efe9ac93969b385e03818b732f00802c",
          "transactionIndex": "0x17",
          "logIndex": "0x46",
          "removed": false
        },
        {
          "address": "0x373af176094e37a161cda61b3fe295b330977188",
          "topics": [
            "0x8be0079c531659141344cd1fd0a4f28419497f9722a3daafe3b4186f6b6457e0",
            "0x000000000000000000000000462498e925b34fdee31b07f38a962e94ce600eab",
            "0x00000000000000000000000092bc7d2305ec97e138a5c98f6f5fd69703fe0589"
          ],
          "data": "0x",
          "blockHash": "0x3a7ff186fe7d7ca7171d784c594590e2a48611aacf2b137abf2f255cec0be12c",
          "blockNumber": "0x12f6f77",
          "transactionHash": "0xe841dd40fae8f9ac35c44432276ad913efe9ac93969b385e03818b732f00802c",
          "transactionIndex": "0x17",
          "logIndex": "0x47",
          "removed": false
        },
        {
          "address": "0xcfa6fad32546c7f99cf0417075bc5c2d6a27c363",
          "topics": [
            "0x73cca62ab1b520c9715bf4e6c71e3e518c754e7148f65102f43289a7df0efea6",
            "0x000000000000000000000000373af176094e37a161cda61b3fe295b330977188"
          ],
          "data": "0x",
          "blockHash": "0x3a7ff186fe7d7ca7171d784c594590e2a48611aacf2b137abf2f255cec0be12c",
          "blockNumber": "0x12f6f77",
          "transactionHash": "0xe841dd40fae8f9ac35c44432276ad913efe9ac93969b385e03818b732f00802c",
          "transactionIndex": "0x17",
          "logIndex": "0x48",
          "removed": false
        },
        {
          "address": "0xcfa6fad32546c7f99cf0417075bc5c2d6a27c363",
          "topics": [
            "0x8be0079c531659141344cd1fd0a4f28419497f9722a3daafe3b4186f6b6457e0",
            "0x000000000000000000000000462498e925b34fdee31b07f38a962e94ce600eab",
            "0x00000000000000000000000092bc7d2305ec97e138a5c98f6f5fd69703fe0589"
          ],
          "data": "0x",
          "blockHash": "0x3a7ff186fe7d7ca7171d784c594590e2a48611aacf2b137abf2f255cec0be12c",
          "blockNumber": "0x12f6f77",
          "transactionHash": "0xe841dd40fae8f9ac35c44432276ad913efe9ac93969b385e03818b732f00802c",
          "transactionIndex": "0x17",
          "logIndex": "0x49",
          "removed": false
        },
        {
          "address": "0x854a2867272f0108b5d5ded9dba03ec50739a2fe",
          "topics": [
            "0x1cf3b03a6cf19fa2baba4df148e9dcabedea7f8a5c07840e207e5c089be95d3e",
            "0x000000000000000000000000455ac9bf52507951e7e64abc512bb0f2c6e13cee"
          ],
          "data": "0x",
          "blockHash": "0x3a7ff186fe7d7ca7171d784c594590e2a48611aacf2b137abf2f255cec0be12c",
          "blockNumber": "0x12f6f77",
          "transactionHash": "0xe841dd40fae8f9ac35c44432276ad913efe9ac93969b385e03818b732f00802c",
          "transactionIndex": "0x17",
          "logIndex": "0x4a",
          "removed": false
        },
        {
          "address": "0x854a2867272f0108b5d5ded9dba03ec50739a2fe",
          "topics": [
            "0xc7f505b2f371ae2175ee4913f4499e1f2633a7b5936321eed1cdaeb6115181d2"
          ],
          "data": "0x0000000000000000000000000000000000000000000000000000000000000001",
          "blockHash": "0x3a7ff186fe7d7ca7171d784c594590e2a48611aacf2b137abf2f255cec0be12c",
          "blockNumber": "0x12f6f77",
          "transactionHash": "0xe841dd40fae8f9ac35c44432276ad913efe9ac93969b385e03818b732f00802c",
          "transactionIndex": "0x17",
          "logIndex": "0x4b",
          "removed": false
        },
        {
          "address": "0x462498e925b34fdee31b07f38a962e94ce600eab",
          "topics": [
            "0x9c5d829b9b23efc461f9aeef91979ec04bb903feb3bee4f26d22114abfc7335b"
          ],
          "data": "0x000000000000000000000000cfa6fad32546c7f99cf0417075bc5c2d6a27c363000000000000000000000000373af176094e37a161cda61b3fe295b330977188000000000000000000000000854a2867272f0108b5d5ded9dba03ec50739a2fe",
          "blockHash": "0x3a7ff186fe7d7ca7171d784c594590e2a48611aacf2b137abf2f255cec0be12c",
          "blockNumber": "0x12f6f77",
          "transactionHash": "0xe841dd40fae8f9ac35c44432276ad913efe9ac93969b385e03818b732f00802c",
          "transactionIndex": "0x17",
          "logIndex": "0x4c",
          "removed": false
        }
      ],
      "logsBloom": "0x00000800008000400000000000000000000100000000000000800000000200000000000000000100000101400000000000000810000000000000000000000000000000140000000002000400001000000005000000000000400000000201000001000000020100000000000000000800000000000000000002000000000000400000000000000000000800001000080000000002000080000000000080000000020000000000040000000000000000000040000000000000000000000000000000000000040000000800000000000200000000000004000000800000000020010000000000000000000000010000002000000000000000080000020000000000",
      "type": "0x2",
      "transactionHash": "0xe841dd40fae8f9ac35c44432276ad913efe9ac93969b385e03818b732f00802c",
      "transactionIndex": "0x17",
      "blockHash": "0x3a7ff186fe7d7ca7171d784c594590e2a48611aacf2b137abf2f255cec0be12c",
      "blockNumber": "0x12f6f77",
      "gasUsed": "0x121c3c",
      "effectiveGasPrice": "0xdefd",
      "from": "0x92bc7d2305ec97e138a5c98f6f5fd69703fe0589",
      "to": "0x462498e925b34fdee31b07f38a962e94ce600eab",
      "contractAddress": null,
      "l1BaseFeeScalar": "0x44d",
      "l1BlobBaseFee": "0x6",
      "l1BlobBaseFeeScalar": "0xa118b",
      "l1Fee": "0xe43bbba0f",
      "l1GasPrice": "0x694c4fbe8",
      "l1GasUsed": "0x7b0"
    },
    {
      "status": "0x1",
      "cumulativeGasUsed": "0x43dfdf",
      "logs": [
        {
          "address": "0x0b20b851320e526caa804e4007135057275625a4",
          "topics": [
            "0xddf252ad1be2c89b69c2b068fc378daa952ba7f163c4a11628f55a4df523b3ef",
            "0x0000000000000000000000000000000000000000000000000000000000000000",
            "0x00000000000000000000000092bc7d2305ec97e138a5c98f6f5fd69703fe0589"
          ],
          "data": "0x00000000000000000000000000000000000000000000021e19e0c9bab2400000",
          "blockHash": "0x3a7ff186fe7d7ca7171d784c594590e2a48611aacf2b137abf2f255cec0be12c",
          "blockNumber": "0x12f6f77",
          "transactionHash": "0xab197bc16bc1cb8b452ff78811facc318ce2472c5f7f01339d54a31b31eff69c",
          "transactionIndex": "0x18",
          "logIndex": "0x4d",
          "removed": false
        }
      ],
      "logsBloom": "0x00000000000000000000000000000000000000000000000000000000000000000000000000000000000000000000000000000000000000000000000000000000100000800000000000000008000001000000000000000000000000000000000001000000020000000000000000000800000000000000000000000010000000000000000000000000000000000000000000000000000000000000000000000000000000000000040000000000000000000000000000000000000000000000000000000002000000000000000000000000000000000000000000000000000020000000000000000000000000010000000000000000000000000000000000000000",
      "type": "0x2",
      "transactionHash": "0xab197bc16bc1cb8b452ff78811facc318ce2472c5f7f01339d54a31b31eff69c",
      "transactionIndex": "0x18",
      "blockHash": "0x3a7ff186fe7d7ca7171d784c594590e2a48611aacf2b137abf2f255cec0be12c",
      "blockNumber": "0x12f6f77",
      "gasUsed": "0x10b57",
      "effectiveGasPrice": "0xdefd",
      "from": "0x92bc7d2305ec97e138a5c98f6f5fd69703fe0589",
      "to": "0x0b20b851320e526caa804e4007135057275625a4",
      "contractAddress": null,
      "l1BaseFeeScalar": "0x44d",
      "l1BlobBaseFee": "0x6",
      "l1BlobBaseFeeScalar": "0xa118b",
      "l1Fee": "0xb97e3d1c8",
      "l1GasPrice": "0x694c4fbe8",
      "l1GasUsed": "0x640"
    },
    {
      "status": "0x1",
      "cumulativeGasUsed": "0x44eb36",
      "logs": [
        {
          "address": "0x31c6a16ce96ea8a4940c417144e2e1bc91a45df2",
          "topics": [
            "0xddf252ad1be2c89b69c2b068fc378daa952ba7f163c4a11628f55a4df523b3ef",
            "0x0000000000000000000000000000000000000000000000000000000000000000",
            "0x00000000000000000000000092bc7d2305ec97e138a5c98f6f5fd69703fe0589"
          ],
          "data": "0x00000000000000000000000000000000000000000000021e19e0c9bab2400000",
          "blockHash": "0x3a7ff186fe7d7ca7171d784c594590e2a48611aacf2b137abf2f255cec0be12c",
          "blockNumber": "0x12f6f77",
          "transactionHash": "0x88447a6a08ceb64751ec6e4770f5a71834d0b76a73a7971b6df4f3d1248c733f",
          "transactionIndex": "0x19",
          "logIndex": "0x4e",
          "removed": false
        }
      ],
      "logsBloom": "0x00000000000000000000000000000000000000000000000000000000000000000000000000000000000000000000000000000000000000000000000000000000000000040000000000000008000000000000000000000000000000000000000001000000020000000000000000000800000000000000000000000010000000000000080000000000004000000000000000000000000000000000000000000000000000000000040000000000000000000000000000000000000000000000000000000002000000000000000000000000000000000000000000000000000020000000000000000000000000010000000000000000000000000000000000000000",
      "type": "0x2",
      "transactionHash": "0x88447a6a08ceb64751ec6e4770f5a71834d0b76a73a7971b6df4f3d1248c733f",
      "transactionIndex": "0x19",
      "blockHash": "0x3a7ff186fe7d7ca7171d784c594590e2a48611aacf2b137abf2f255cec0be12c",
      "blockNumber": "0x12f6f77",
      "gasUsed": "0x10b57",
      "effectiveGasPrice": "0xdefd",
      "from": "0x92bc7d2305ec97e138a5c98f6f5fd69703fe0589",
      "to": "0x31c6a16ce96ea8a4940c417144e2e1bc91a45df2",
      "contractAddress": null,
      "l1BaseFeeScalar": "0x44d",
      "l1BlobBaseFee": "0x6",
      "l1BlobBaseFeeScalar": "0xa118b",
      "l1Fee": "0xb97e3d1c8",
      "l1GasPrice": "0x694c4fbe8",
      "l1GasUsed": "0x640"
    },
    {
      "status": "0x1",
      "cumulativeGasUsed": "0x45a06c",
      "logs": [
        {
          "address": "0x0b20b851320e526caa804e4007135057275625a4",
          "topics": [
            "0x8c5be1e5ebec7d5bd14f71427d1e84f3dd0314c0f7b2291e5b200ac8c7c3b925",
            "0x00000000000000000000000092bc7d2305ec97e138a5c98f6f5fd69703fe0589",
            "0x000000000000000000000000373af176094e37a161cda61b3fe295b330977188"
          ],
          "data": "0x00000000000000000000000000000000000000000000021e19e0c9bab2400000",
          "blockHash": "0x3a7ff186fe7d7ca7171d784c594590e2a48611aacf2b137abf2f255cec0be12c",
          "blockNumber": "0x12f6f77",
          "transactionHash": "0x2260961112c7a0bdc91e2aca855b4467526ebb9334889ab15966862fe65eee12",
          "transactionIndex": "0x1a",
          "logIndex": "0x4f",
          "removed": false
        }
      ],
      "logsBloom": "0x00000000000000000000000000000000000000000000000000000000000000000000000000000000000000400000000000000000000000000000000000200000100000800000000000000000000001000000000000000000000000000000000001000000000000000000000000000000000000000000000000000000000000000000000000000000000000000000000000000000000000000000000000000000020000000000040000000000000000000000000000000000000000000000000000000000040000000000000000000000000000000000000000000000000000000010000000000000000000010000002000000000000000000000000000000000",
      "type": "0x2",
      "transactionHash": "0x2260961112c7a0bdc91e2aca855b4467526ebb9334889ab15966862fe65eee12",
      "transactionIndex": "0x1a",
      "blockHash": "0x3a7ff186fe7d7ca7171d784c594590e2a48611aacf2b137abf2f255cec0be12c",
      "blockNumber": "0x12f6f77",
      "gasUsed": "0xb536",
      "effectiveGasPrice": "0xdefd",
      "from": "0x92bc7d2305ec97e138a5c98f6f5fd69703fe0589",
      "to": "0x0b20b851320e526caa804e4007135057275625a4",
      "contractAddress": null,
      "l1BaseFeeScalar": "0x44d",
      "l1BlobBaseFee": "0x6",
      "l1BlobBaseFeeScalar": "0xa118b",
      "l1Fee": "0xb97e3d1c8",
      "l1GasPrice": "0x694c4fbe8",
      "l1GasUsed": "0x640"
    },
    {
      "status": "0x1",
      "cumulativeGasUsed": "0x4655a2",
      "logs": [
        {
          "address": "0x31c6a16ce96ea8a4940c417144e2e1bc91a45df2",
          "topics": [
            "0x8c5be1e5ebec7d5bd14f71427d1e84f3dd0314c0f7b2291e5b200ac8c7c3b925",
            "0x00000000000000000000000092bc7d2305ec97e138a5c98f6f5fd69703fe0589",
            "0x000000000000000000000000373af176094e37a161cda61b3fe295b330977188"
          ],
          "data": "0x00000000000000000000000000000000000000000000021e19e0c9bab2400000",
          "blockHash": "0x3a7ff186fe7d7ca7171d784c594590e2a48611aacf2b137abf2f255cec0be12c",
          "blockNumber": "0x12f6f77",
          "transactionHash": "0xfc547d0bdc984dd0f4ac91a663f2843a09c0da9d6e804031517b91c0ca699fbb",
          "transactionIndex": "0x1b",
          "logIndex": "0x50",
          "removed": false
        }
      ],
      "logsBloom": "0x00000000000000000000000000000000000000000000000000000000000000000000000000000000000000400000000000000000000000000000000000200000000000040000000000000000000000000000000000000000000000000000000001000000000000000000000000000000000000000000000000000000000000000000080000000000004000000000000000000000000000000000000000000000020000000000040000000000000000000000000000000000000000000000000000000000040000000000000000000000000000000000000000000000000000000010000000000000000000010000002000000000000000000000000000000000",
      "type": "0x2",
      "transactionHash": "0xfc547d0bdc984dd0f4ac91a663f2843a09c0da9d6e804031517b91c0ca699fbb",
      "transactionIndex": "0x1b",
      "blockHash": "0x3a7ff186fe7d7ca7171d784c594590e2a48611aacf2b137abf2f255cec0be12c",
      "blockNumber": "0x12f6f77",
      "gasUsed": "0xb536",
      "effectiveGasPrice": "0xdefd",
      "from": "0x92bc7d2305ec97e138a5c98f6f5fd69703fe0589",
      "to": "0x31c6a16ce96ea8a4940c417144e2e1bc91a45df2",
      "contractAddress": null,
      "l1BaseFeeScalar": "0x44d",
      "l1BlobBaseFee": "0x6",
      "l1BlobBaseFeeScalar": "0xa118b",
      "l1Fee": "0xb97e3d1c8",
      "l1GasPrice": "0x694c4fbe8",
      "l1GasUsed": "0x640"
    },
    {
      "status": "0x1",
      "cumulativeGasUsed": "0x4b14aa",
      "logs": [
        {
          "address": "0x0b20b851320e526caa804e4007135057275625a4",
          "topics": [
            "0xddf252ad1be2c89b69c2b068fc378daa952ba7f163c4a11628f55a4df523b3ef",
            "0x00000000000000000000000092bc7d2305ec97e138a5c98f6f5fd69703fe0589",
            "0x000000000000000000000000373af176094e37a161cda61b3fe295b330977188"
          ],
          "data": "0x00000000000000000000000000000000000000000000021e19e0c9bab2400000",
          "blockHash": "0x3a7ff186fe7d7ca7171d784c594590e2a48611aacf2b137abf2f255cec0be12c",
          "blockNumber": "0x12f6f77",
          "transactionHash": "0x3d2f8146b81a19a216c1cf4207c06601326f4b139db67062f9f27851e8491168",
          "transactionIndex": "0x1c",
          "logIndex": "0x51",
          "removed": false
        },
        {
          "address": "0x31c6a16ce96ea8a4940c417144e2e1bc91a45df2",
          "topics": [
            "0xddf252ad1be2c89b69c2b068fc378daa952ba7f163c4a11628f55a4df523b3ef",
            "0x00000000000000000000000092bc7d2305ec97e138a5c98f6f5fd69703fe0589",
            "0x000000000000000000000000373af176094e37a161cda61b3fe295b330977188"
          ],
          "data": "0x00000000000000000000000000000000000000000000021e19e0c9bab2400000",
          "blockHash": "0x3a7ff186fe7d7ca7171d784c594590e2a48611aacf2b137abf2f255cec0be12c",
          "blockNumber": "0x12f6f77",
          "transactionHash": "0x3d2f8146b81a19a216c1cf4207c06601326f4b139db67062f9f27851e8491168",
          "transactionIndex": "0x1c",
          "logIndex": "0x52",
          "removed": false
        },
        {
          "address": "0xcfa6fad32546c7f99cf0417075bc5c2d6a27c363",
          "topics": [
            "0xd5103f333769455df788908e17b0f6f83838ebeae2cd1ed6f23ec20dad88c9a3",
            "0x00000000000000000000000092bc7d2305ec97e138a5c98f6f5fd69703fe0589"
          ],
          "data": "0x000000000000000000000000000000000003da137d5b0f806f1b1cc800000000000000000000000000000000000000000003da137d5b0f806f1b1cc800000000",
          "blockHash": "0x3a7ff186fe7d7ca7171d784c594590e2a48611aacf2b137abf2f255cec0be12c",
          "blockNumber": "0x12f6f77",
          "transactionHash": "0x3d2f8146b81a19a216c1cf4207c06601326f4b139db67062f9f27851e8491168",
          "transactionIndex": "0x1c",
          "logIndex": "0x53",
          "removed": false
        },
        {
          "address": "0x373af176094e37a161cda61b3fe295b330977188",
          "topics": [
            "0xc1258b6f224442b6aa30f317612f0920bb2f76d968200d28d9163ec6aee9ad00",
            "0x00000000000000000000000092bc7d2305ec97e138a5c98f6f5fd69703fe0589"
          ],
          "data": "0x000000000000000000000000000000000003da137d5b0f806f1b1cc80000000000000000000000000000000000000000000000000000000000000000000000600000000000000000000000000000000000000000000000000000000000000000000000000000000000000000000000000000000000000000000000000000000200000000000000000000000000000000000000000000021e19e0c9bab240000000000000000000000000000000000000000000000000021e19e0c9bab2400000",
          "blockHash": "0x3a7ff186fe7d7ca7171d784c594590e2a48611aacf2b137abf2f255cec0be12c",
          "blockNumber": "0x12f6f77",
          "transactionHash": "0x3d2f8146b81a19a216c1cf4207c06601326f4b139db67062f9f27851e8491168",
          "transactionIndex": "0x1c",
          "logIndex": "0x54",
          "removed": false
        }
      ],
      "logsBloom": "0x00000000000000000000000000000000000100000200000000000000000000000000000000000000000500400000000000000800000000000000000000000000100000840000000002000008000001000004000000000000000000000001000001000000000000000000000000000000000000000000000000000010000000000000080000000000004000000000000000008000000000000080000000000000000000000000040000020000000000000000000000000000000000000000000000000002040000000000000000000000000000000000000000000000000000000000000000800000000000010000002000000000000000000000000000000000",
      "type": "0x2",
      "transactionHash": "0x3d2f8146b81a19a216c1cf4207c06601326f4b139db67062f9f27851e8491168",
      "transactionIndex": "0x1c",
      "blockHash": "0x3a7ff186fe7d7ca7171d784c594590e2a48611aacf2b137abf2f255cec0be12c",
      "blockNumber": "0x12f6f77",
      "gasUsed": "0x4bf08",
      "effectiveGasPrice": "0xdefd",
      "from": "0x92bc7d2305ec97e138a5c98f6f5fd69703fe0589",
      "to": "0x373af176094e37a161cda61b3fe295b330977188",
      "contractAddress": null,
      "l1BaseFeeScalar": "0x44d",
      "l1BlobBaseFee": "0x6",
      "l1BlobBaseFeeScalar": "0xa118b",
      "l1Fee": "0xb97e3d1c8",
      "l1GasPrice": "0x694c4fbe8",
      "l1GasUsed": "0x640"
    }
  ],
  "libraries": [],
  "pending": [],
  "returns": {},
  "timestamp": 1735540175,
  "chain": 84532,
  "commit": "1a28658"
}