{
  "transactions": [
    {
      "hash": "0x4add5047770a1a8d03e4a6066eb6d532e6f95fb72a38a93cf42a621a1c8a06a2",
      "transactionType": "CREATE",
      "contractName": "MockExchangeRateProvider",
      "contractAddress": "0x301e5d7077b75c12f53ddbfd49d5919a73fd280c",
      "function": null,
      "arguments": [
        "1190000000000000000",
        "18"
      ],
      "transaction": {
        "from": "0x92bc7d2305ec97e138a5c98f6f5fd69703fe0589",
        "gas": "0x29432",
        "value": "0x0",
        "input": "0x6080604052348015600e575f5ffd5b5060405160ef38038060ef8339810160408190526029916035565b5f919091556001556056565b5f5f604083850312156045575f5ffd5b505080516020909101519092909150565b608e8060615f395ff3fe6080604052348015600e575f5ffd5b5060043610603a575f3560e01c80631ff19b0314603e5780632b51360114604f5780633ba0b9a9146065575b5f5ffd5b604d6049366004606b565b5f55565b005b6001545b60405190815260200160405180910390f35b5f546053565b5f60208284031215607a575f5ffd5b503591905056fea164736f6c634300081c000a0000000000000000000000000000000000000000000000001083bab1f2b700000000000000000000000000000000000000000000000000000000000000000012",
        "nonce": "0x1e0",
        "chainId": "0x14a34"
      },
      "additionalContracts": [],
      "isFixedGasLimit": false
    },
    {
      "hash": "0x3855485e00aeeba2ade02824bf8c7e1fb904c31d39ec48bd4272378249505928",
      "transactionType": "CALL",
      "contractName": null,
      "contractAddress": "0x669c864169cf8ba8e7e1cf9a4d4a2c979e456dc8",
      "function": "createPool((address,address,uint8,address,bytes,bytes,uint8,address,bytes,bytes))",
      "arguments": [
        "(0x235607Cb9D758c19c42fdDF4DeeaEeaC4AE7e5bE, 0xFfC07DAfC9D3e07d093eD73B580537E1799E76B2, 0, 0x0000000000000000000000000000000000000000, 0x, 0x, 1, 0x301e5D7077B75C12f53ddBFd49D5919a73FD280C, 0x3ba0b9a9, 0x2b513601)"
      ],
      "transaction": {
        "from": "0x92bc7d2305ec97e138a5c98f6f5fd69703fe0589",
        "to": "0x669c864169cf8ba8e7e1cf9a4d4a2c979e456dc8",
        "gas": "0x1e963d",
        "value": "0x0",
        "input": "0xe9910c8e0000000000000000000000000000000000000000000000000000000000000020000000000000000000000000235607cb9d758c19c42fddf4deeaeeac4ae7e5be000000000000000000000000ffc07dafc9d3e07d093ed73b580537e1799e76b200000000000000000000000000000000000000000000000000000000000000000000000000000000000000000000000000000000000000000000000000000000000000000000000000000000000000000000000000000000000000000000014000000000000000000000000000000000000000000000000000000000000001600000000000000000000000000000000000000000000000000000000000000001000000000000000000000000301e5d7077b75c12f53ddbfd49d5919a73fd280c000000000000000000000000000000000000000000000000000000000000018000000000000000000000000000000000000000000000000000000000000001c00000000000000000000000000000000000000000000000000000000000000000000000000000000000000000000000000000000000000000000000000000000000000000000000000000000000000000000000000000000000000000000000043ba0b9a90000000000000000000000000000000000000000000000000000000000000000000000000000000000000000000000000000000000000000000000042b51360100000000000000000000000000000000000000000000000000000000",
        "nonce": "0x1e1",
        "chainId": "0x14a34"
      },
      "additionalContracts": [
        {
          "transactionType": "CREATE",
          "address": "0x2a2500fac9f44adc52570dfea4909ccc80269409",
          "initCode": "0x60a060405260405161057238038061057283398101604081905261002291610376565b61002c828261003e565b506001600160a01b031660805261046b565b610047826100fb565b6040516001600160a01b038316907f1cf3b03a6cf19fa2baba4df148e9dcabedea7f8a5c07840e207e5c089be95d3e905f90a28051156100ef576100ea826001600160a01b0316635c60da1b6040518163ffffffff1660e01b8152600401602060405180830381865afa1580156100c0573d5f5f3e3d5ffd5b505050506040513d601f19601f820116820180604052508101906100e49190610437565b82610209565b505050565b6100f761027c565b5050565b806001600160a01b03163b5f0361013557604051631933b43b60e21b81526001600160a01b03821660048201526024015b60405180910390fd5b807fa3f0ad74e5423aebfd80d3ef4346578335a9a72aeaee59ff6cb3582b35133d5080546001600160a01b0319166001600160a01b0392831617905560408051635c60da1b60e01b815290515f92841691635c60da1b9160048083019260209291908290030181865afa1580156101ae573d5f5f3e3d5ffd5b505050506040513d601f19601f820116820180604052508101906101d29190610437565b9050806001600160a01b03163b5f036100f757604051634c9c8ce360e01b81526001600160a01b038216600482015260240161012c565b60605f5f846001600160a01b0316846040516102259190610450565b5f60405180830381855af49150503d805f811461025d576040519150601f19603f3d011682016040523d82523d5f602084013e610262565b606091505b50909250905061027385838361029d565b95945050505050565b341561029b5760405163b398979f60e01b815260040160405180910390fd5b565b6060826102b2576102ad826102fc565b6102f5565b81511580156102c957506001600160a01b0384163b155b156102f257604051639996b31560e01b81526001600160a01b038516600482015260240161012c565b50805b9392505050565b80511561030c5780518082602001fd5b60405163d6bda27560e01b815260040160405180910390fd5b80516001600160a01b038116811461033b575f5ffd5b919050565b634e487b7160e01b5f52604160045260245ffd5b5f5b8381101561036e578181015183820152602001610356565b50505f910152565b5f5f60408385031215610387575f5ffd5b61039083610325565b60208401519092506001600160401b038111156103ab575f5ffd5b8301601f810185136103bb575f5ffd5b80516001600160401b038111156103d4576103d4610340565b604051601f8201601f19908116603f011681016001600160401b038111828210171561040257610402610340565b604052818152828201602001871015610419575f5ffd5b61042a826020830160208601610354565b8093505050509250929050565b5f60208284031215610447575f5ffd5b6102f582610325565b5f8251610461818460208701610354565b9190910192915050565b60805160f26104805f395f601d015260f25ff3fe6080604052600a600c565b005b60186014601a565b609d565b565b5f7f00000000000000000000000000000000000000000000000000000000000000006001600160a01b0316635c60da1b6040518163ffffffff1660e01b8152600401602060405180830381865afa1580156076573d5f5f3e3d5ffd5b505050506040513d601f19601f820116820180604052508101906098919060ba565b905090565b365f5f375f5f365f845af43d5f5f3e80801560b6573d5ff35b3d5ffd5b5f6020828403121560c9575f5ffd5b81516001600160a01b038116811460de575f5ffd5b939250505056fea164736f6c634300081c000a000000000000000000000000b09006b96020099e0d06601748984a6e1440e077000000000000000000000000000000000000000000000000000000000000004000000000000000000000000000000000000000000000000000000000000000c44cd88b7600000000000000000000000000000000000000000000000000000000000000400000000000000000000000000000000000000000000000000000000000000080000000000000000000000000000000000000000000000000000000000000001e53656c662050656767696e672041737365742057455448207773744554480000000000000000000000000000000000000000000000000000000000000000000f5350412d574554482d777374455448000000000000000000000000000000000000000000000000000000000000000000000000000000000000000000"
        },
        {
          "transactionType": "CREATE",
          "address": "0xb54ba2f7518dd4ba826027dc58ef7082f6e1c4f1",
          "initCode": "0x608060405234801561000f575f5ffd5b5060405161064938038061064983398101604081905261002e9161011c565b5f80546001600160a01b0319166001600160a01b03851617905560016100548382610222565b5060026100618282610222565b505050506102dc565b634e487b7160e01b5f52604160045260245ffd5b5f82601f83011261008d575f5ffd5b81516001600160401b038111156100a6576100a661006a565b604051601f8201601f19908116603f011681016001600160401b03811182821017156100d4576100d461006a565b6040528181528382016020018510156100eb575f5ffd5b5f5b82811015610109576020818601810151838301820152016100ed565b505f918101602001919091529392505050565b5f5f5f6060848603121561012e575f5ffd5b83516001600160a01b0381168114610144575f5ffd5b60208501519093506001600160401b0381111561015f575f5ffd5b61016b8682870161007e565b604086015190935090506001600160401b03811115610188575f5ffd5b6101948682870161007e565b9150509250925092565b600181811c908216806101b257607f821691505b6020821081036101d057634e487b7160e01b5f52602260045260245ffd5b50919050565b601f82111561021d57805f5260205f20601f840160051c810160208510156101fb5750805b601f840160051c820191505b8181101561021a575f8155600101610207565b50505b505050565b81516001600160401b0381111561023b5761023b61006a565b61024f81610249845461019e565b846101d6565b6020601f821160018114610281575f831561026a5750848201515b5f19600385901b1c1916600184901b17845561021a565b5f84815260208120601f198516915b828110156102b05787850151825560209485019460019092019101610290565b50848210156102cd57868401515f19600387901b60f8161c191681555b50505050600190811b01905550565b610360806102e95f395ff3fe608060405234801561000f575f5ffd5b5060043610610055575f3560e01c80632b513601146100595780633ba0b9a914610074578063675f0fcf1461007c5780637dc0d1d0146100915780639929031a146100bb575b5f5ffd5b6100616100c3565b6040519081526020015b60405180910390f35b610061610162565b610084610184565b60405161006b919061021d565b5f546100a3906001600160a01b031681565b6040516001600160a01b03909116815260200161006b565b610084610210565b5f8054604051829182916001600160a01b03909116906100e5906002906102a0565b5f60405180830381855afa9150503d805f811461011d576040519150601f19603f3d011682016040523d82523d5f602084013e610122565b606091505b509150915081610145576040516352760cdd60e01b815260040160405180910390fd5b5f8180602001905181019061015a919061033c565b949350505050565b5f8054604051829182916001600160a01b03909116906100e5906001906102a0565b6001805461019190610268565b80601f01602080910402602001604051908101604052809291908181526020018280546101bd90610268565b80156102085780601f106101df57610100808354040283529160200191610208565b820191905f5260205f20905b8154815290600101906020018083116101eb57829003601f168201915b505050505081565b6002805461019190610268565b602081525f82518060208401525f5b81811015610249576020818601810151604086840101520161022c565b505f604082850101526040601f19601f83011684010191505092915050565b600181811c9082168061027c57607f821691505b60208210810361029a57634e487b7160e01b5f52602260045260245ffd5b50919050565b5f5f83545f8160011c905060018216806102bb57607f821691505b6020821081036102d957634e487b7160e01b5f52602260045260245ffd5b8080156102ed576001811461030257610330565b60ff1984168752821515830287019450610330565b5f888152602090205f5b848110156103285781548982015260019091019060200161030c565b505082870194505b50929695505050505050565b5f6020828403121561034c575f5ffd5b505191905056fea164736f6c634300081c000a000000000000000000000000301e5d7077b75c12f53ddbfd49d5919a73fd280c000000000000000000000000000000000000000000000000000000000000006000000000000000000000000000000000000000000000000000000000000000a000000000000000000000000000000000000000000000000000000000000000043ba0b9a90000000000000000000000000000000000000000000000000000000000000000000000000000000000000000000000000000000000000000000000042b51360100000000000000000000000000000000000000000000000000000000"
        },
        {
          "transactionType": "CREATE",
          "address": "0xd4343e849fee510b025e3d5f396d3cd807912f50",
          "initCode": "0x60a060405260405161057238038061057283398101604081905261002291610376565b61002c828261003e565b506001600160a01b031660805261046b565b610047826100fb565b6040516001600160a01b038316907f1cf3b03a6cf19fa2baba4df148e9dcabedea7f8a5c07840e207e5c089be95d3e905f90a28051156100ef576100ea826001600160a01b0316635c60da1b6040518163ffffffff1660e01b8152600401602060405180830381865afa1580156100c0573d5f5f3e3d5ffd5b505050506040513d601f19601f820116820180604052508101906100e49190610437565b82610209565b505050565b6100f761027c565b5050565b806001600160a01b03163b5f0361013557604051631933b43b60e21b81526001600160a01b03821660048201526024015b60405180910390fd5b807fa3f0ad74e5423aebfd80d3ef4346578335a9a72aeaee59ff6cb3582b35133d5080546001600160a01b0319166001600160a01b0392831617905560408051635c60da1b60e01b815290515f92841691635c60da1b9160048083019260209291908290030181865afa1580156101ae573d5f5f3e3d5ffd5b505050506040513d601f19601f820116820180604052508101906101d29190610437565b9050806001600160a01b03163b5f036100f757604051634c9c8ce360e01b81526001600160a01b038216600482015260240161012c565b60605f5f846001600160a01b0316846040516102259190610450565b5f60405180830381855af49150503d805f811461025d576040519150601f19603f3d011682016040523d82523d5f602084013e610262565b606091505b50909250905061027385838361029d565b95945050505050565b341561029b5760405163b398979f60e01b815260040160405180910390fd5b565b6060826102b2576102ad826102fc565b6102f5565b81511580156102c957506001600160a01b0384163b155b156102f257604051639996b31560e01b81526001600160a01b038516600482015260240161012c565b50805b9392505050565b80511561030c5780518082602001fd5b60405163d6bda27560e01b815260040160405180910390fd5b80516001600160a01b038116811461033b575f5ffd5b919050565b634e487b7160e01b5f52604160045260245ffd5b5f5b8381101561036e578181015183820152602001610356565b50505f910152565b5f5f60408385031215610387575f5ffd5b61039083610325565b60208401519092506001600160401b038111156103ab575f5ffd5b8301601f810185136103bb575f5ffd5b80516001600160401b038111156103d4576103d4610340565b604051601f8201601f19908116603f011681016001600160401b038111828210171561040257610402610340565b604052818152828201602001871015610419575f5ffd5b61042a826020830160208601610354565b8093505050509250929050565b5f60208284031215610447575f5ffd5b6102f582610325565b5f8251610461818460208701610354565b9190910192915050565b60805160f26104805f395f601d015260f25ff3fe6080604052600a600c565b005b60186014601a565b609d565b565b5f7f00000000000000000000000000000000000000000000000000000000000000006001600160a01b0316635c60da1b6040518163ffffffff1660e01b8152600401602060405180830381865afa1580156076573d5f5f3e3d5ffd5b505050506040513d601f19601f820116820180604052508101906098919060ba565b905090565b365f5f375f5f365f845af43d5f5f3e80801560b6573d5ff35b3d5ffd5b5f6020828403121560c9575f5ffd5b81516001600160a01b038116811460de575f5ffd5b939250505056fea164736f6c634300081c000a00000000000000000000000040774535ea1c22291c2dc77e74f47f64d3aadb900000000000000000000000000000000000000000000000000000000000000040000000000000000000000000000000000000000000000000000000000000028491797e3100000000000000000000000000000000000000000000000000000000000000e0000000000000000000000000000000000000000000000000000000000000014000000000000000000000000000000000000000000000000000000000000001a000000000000000000000000000000000000000000000000000000000000000000000000000000000000000002a2500fac9f44adc52570dfea4909ccc80269409000000000000000000000000000000000000000000000000000000000000006400000000000000000000000000000000000000000000000000000000000002200000000000000000000000000000000000000000000000000000000000000002000000000000000000000000235607cb9d758c19c42fddf4deeaeeac4ae7e5be000000000000000000000000ffc07dafc9d3e07d093ed73b580537e1799e76b200000000000000000000000000000000000000000000000000000000000000020000000000000000000000000000000000000000000000000000000000000001000000000000000000000000000000000000000000000000000000000000000100000000000000000000000000000000000000000000000000000000000000030000000000000000000000000000000000000000000000000000000000000000000000000000000000000000000000000000000000000000000000000000000000000000000000000000000000000000000000000000000000000000000000000000000000000000000000000000000000000000000000000000000000000002000000000000000000000000a4f6b313716b095fbd4fba46b7251f875619efab000000000000000000000000b54ba2f7518dd4ba826027dc58ef7082f6e1c4f100000000000000000000000000000000000000000000000000000000"
        },
        {
          "transactionType": "CREATE",
          "address": "0x7753dde995ff320b7f9cf75011af5d5863b1363e",
          "initCode": "0x60a060405260405161057238038061057283398101604081905261002291610376565b61002c828261003e565b506001600160a01b031660805261046b565b610047826100fb565b6040516001600160a01b038316907f1cf3b03a6cf19fa2baba4df148e9dcabedea7f8a5c07840e207e5c089be95d3e905f90a28051156100ef576100ea826001600160a01b0316635c60da1b6040518163ffffffff1660e01b8152600401602060405180830381865afa1580156100c0573d5f5f3e3d5ffd5b505050506040513d601f19601f820116820180604052508101906100e49190610437565b82610209565b505050565b6100f761027c565b5050565b806001600160a01b03163b5f0361013557604051631933b43b60e21b81526001600160a01b03821660048201526024015b60405180910390fd5b807fa3f0ad74e5423aebfd80d3ef4346578335a9a72aeaee59ff6cb3582b35133d5080546001600160a01b0319166001600160a01b0392831617905560408051635c60da1b60e01b815290515f92841691635c60da1b9160048083019260209291908290030181865afa1580156101ae573d5f5f3e3d5ffd5b505050506040513d601f19601f820116820180604052508101906101d29190610437565b9050806001600160a01b03163b5f036100f757604051634c9c8ce360e01b81526001600160a01b038216600482015260240161012c565b60605f5f846001600160a01b0316846040516102259190610450565b5f60405180830381855af49150503d805f811461025d576040519150601f19603f3d011682016040523d82523d5f602084013e610262565b606091505b50909250905061027385838361029d565b95945050505050565b341561029b5760405163b398979f60e01b815260040160405180910390fd5b565b6060826102b2576102ad826102fc565b6102f5565b81511580156102c957506001600160a01b0384163b155b156102f257604051639996b31560e01b81526001600160a01b038516600482015260240161012c565b50805b9392505050565b80511561030c5780518082602001fd5b60405163d6bda27560e01b815260040160405180910390fd5b80516001600160a01b038116811461033b575f5ffd5b919050565b634e487b7160e01b5f52604160045260245ffd5b5f5b8381101561036e578181015183820152602001610356565b50505f910152565b5f5f60408385031215610387575f5ffd5b61039083610325565b60208401519092506001600160401b038111156103ab575f5ffd5b8301601f810185136103bb575f5ffd5b80516001600160401b038111156103d4576103d4610340565b604051601f8201601f19908116603f011681016001600160401b038111828210171561040257610402610340565b604052818152828201602001871015610419575f5ffd5b61042a826020830160208601610354565b8093505050509250929050565b5f60208284031215610447575f5ffd5b6102f582610325565b5f8251610461818460208701610354565b9190910192915050565b60805160f26104805f395f601d015260f25ff3fe6080604052600a600c565b005b60186014601a565b609d565b565b5f7f00000000000000000000000000000000000000000000000000000000000000006001600160a01b0316635c60da1b6040518163ffffffff1660e01b8152600401602060405180830381865afa1580156076573d5f5f3e3d5ffd5b505050506040513d601f19601f820116820180604052508101906098919060ba565b905090565b365f5f375f5f365f845af43d5f5f3e80801560b6573d5ff35b3d5ffd5b5f6020828403121560c9575f5ffd5b81516001600160a01b038116811460de575f5ffd5b939250505056fea164736f6c634300081c000a0000000000000000000000002308eb176b706b0e8047e93340ffd20c0e5db5ed00000000000000000000000000000000000000000000000000000000000000400000000000000000000000000000000000000000000000000000000000000024c4d66de80000000000000000000000002a2500fac9f44adc52570dfea4909ccc8026940900000000000000000000000000000000000000000000000000000000"
        }
      ],
      "isFixedGasLimit": false
    },
    {
      "hash": "0x9845338dea6e695c56ba6de4696c634b0986086897677339fdf4d8dc44bf395b",
      "transactionType": "CALL",
      "contractName": null,
      "contractAddress": "0x235607cb9d758c19c42fddf4deeaeeac4ae7e5be",
      "function": "mint(address,uint256)",
      "arguments": [
        "0x92Bc7D2305EC97E138a5c98F6f5FD69703fe0589",
        "100000000000000000000"
      ],
      "transaction": {
        "from": "0x92bc7d2305ec97e138a5c98f6f5fd69703fe0589",
        "to": "0x235607cb9d758c19c42fddf4deeaeeac4ae7e5be",
        "gas": "0x186ea",
        "value": "0x0",
        "input": "0x40c10f1900000000000000000000000092bc7d2305ec97e138a5c98f6f5fd69703fe05890000000000000000000000000000000000000000000000056bc75e2d63100000",
        "nonce": "0x1e2",
        "chainId": "0x14a34"
      },
      "additionalContracts": [],
      "isFixedGasLimit": false
    },
    {
      "hash": "0x1f0bc11aea59f5135d1c3f9cbfd1aaffaae0eaba5e72659be6ee6a5b6598cb20",
      "transactionType": "CALL",
      "contractName": null,
      "contractAddress": "0xffc07dafc9d3e07d093ed73b580537e1799e76b2",
      "function": "mint(address,uint256)",
      "arguments": [
        "0x92Bc7D2305EC97E138a5c98F6f5FD69703fe0589",
        "100000000000000000000"
      ],
      "transaction": {
        "from": "0x92bc7d2305ec97e138a5c98f6f5fd69703fe0589",
        "to": "0xffc07dafc9d3e07d093ed73b580537e1799e76b2",
        "gas": "0x186ea",
        "value": "0x0",
        "input": "0x40c10f1900000000000000000000000092bc7d2305ec97e138a5c98f6f5fd69703fe05890000000000000000000000000000000000000000000000056bc75e2d63100000",
        "nonce": "0x1e3",
        "chainId": "0x14a34"
      },
      "additionalContracts": [],
      "isFixedGasLimit": false
    },
    {
      "hash": "0xb85ba7a29da58c2c3d73ebfb837bfe0f7de34f51a4be8751fbb4314ca823d4a6",
      "transactionType": "CALL",
      "contractName": null,
      "contractAddress": "0x235607cb9d758c19c42fddf4deeaeeac4ae7e5be",
      "function": "approve(address,uint256)",
      "arguments": [
        "0xd4343e849Fee510B025e3D5f396D3CD807912f50",
        "100000000000000000000"
      ],
      "transaction": {
        "from": "0x92bc7d2305ec97e138a5c98f6f5fd69703fe0589",
        "to": "0x235607cb9d758c19c42fddf4deeaeeac4ae7e5be",
        "gas": "0x108f3",
        "value": "0x0",
        "input": "0x095ea7b3000000000000000000000000d4343e849fee510b025e3d5f396d3cd807912f500000000000000000000000000000000000000000000000056bc75e2d63100000",
        "nonce": "0x1e4",
        "chainId": "0x14a34"
      },
      "additionalContracts": [],
      "isFixedGasLimit": false
    },
    {
      "hash": "0x979cb158742fb1880b8e433a32b15f70b711925d678789a5cdd9d2840cb58f92",
      "transactionType": "CALL",
      "contractName": null,
      "contractAddress": "0xffc07dafc9d3e07d093ed73b580537e1799e76b2",
      "function": "approve(address,uint256)",
      "arguments": [
        "0xd4343e849Fee510B025e3D5f396D3CD807912f50",
        "100000000000000000000"
      ],
      "transaction": {
        "from": "0x92bc7d2305ec97e138a5c98f6f5fd69703fe0589",
        "to": "0xffc07dafc9d3e07d093ed73b580537e1799e76b2",
        "gas": "0x108f3",
        "value": "0x0",
        "input": "0x095ea7b3000000000000000000000000d4343e849fee510b025e3d5f396d3cd807912f500000000000000000000000000000000000000000000000056bc75e2d63100000",
        "nonce": "0x1e5",
        "chainId": "0x14a34"
      },
      "additionalContracts": [],
      "isFixedGasLimit": false
    },
    {
      "hash": "0x5b5741e7840ce0c82131380b426e6e25aa4bdc3fb5ac8df2da8eb08984bd33b3",
      "transactionType": "CALL",
      "contractName": "BeaconProxy",
      "contractAddress": "0xd4343e849fee510b025e3d5f396d3cd807912f50",
      "function": null,
      "arguments": null,
      "transaction": {
        "from": "0x92bc7d2305ec97e138a5c98f6f5fd69703fe0589",
        "to": "0xd4343e849fee510b025e3d5f396d3cd807912f50",
        "gas": "0x79095",
        "value": "0x0",
        "input": "0x0bd062460000000000000000000000000000000000000000000000000000000000000040000000000000000000000000000000000000000000000000000000000000000000000000000000000000000000000000000000000000000000000000000000020000000000000000000000000000000000000000000000056bc75e2d631000000000000000000000000000000000000000000000000000056bc75e2d63100000",
        "nonce": "0x1e6",
        "chainId": "0x14a34"
      },
      "additionalContracts": [],
      "isFixedGasLimit": false
    }
  ],
  "receipts": [
    {
      "status": "0x1",
      "cumulativeGasUsed": "0x843c94",
      "logs": [],
      "logsBloom": "0x00000000000000000000000000000000000000000000000000000000000000000000000000000000000000000000000000000000000000000000000000000000000000000000000000000000000000000000000000000000000000000000000000000000000000000000000000000000000000000000000000000000000000000000000000000000000000000000000000000000000000000000000000000000000000000000000000000000000000000000000000000000000000000000000000000000000000000000000000000000000000000000000000000000000000000000000000000000000000000000000000000000000000000000000000000000",
      "type": "0x2",
      "transactionHash": "0x4add5047770a1a8d03e4a6066eb6d532e6f95fb72a38a93cf42a621a1c8a06a2",
      "transactionIndex": "0x35",
      "blockHash": "0x2f3237f793b2d0732a895522b09f536a0b7ee11109795f06d4ec4a69c3582bb5",
      "blockNumber": "0x151b6fe",
      "gasUsed": "0x1fbd8",
      "effectiveGasPrice": "0xf7ce6",
      "from": "0x92bc7d2305ec97e138a5c98f6f5fd69703fe0589",
      "to": null,
      "contractAddress": "0x301e5d7077b75c12f53ddbfd49d5919a73fd280c",
      "l1BaseFeeScalar": "0x44d",
      "l1BlobBaseFee": "0x47ed349",
      "l1BlobBaseFeeScalar": "0xa118b",
      "l1Fee": "0x468da7d55",
      "l1GasPrice": "0x6185ff8f",
      "l1GasUsed": "0xf0f"
    },
    {
      "status": "0x1",
      "cumulativeGasUsed": "0x9a6188",
      "logs": [
        {
          "address": "0x2a2500fac9f44adc52570dfea4909ccc80269409",
          "topics": [
            "0x1cf3b03a6cf19fa2baba4df148e9dcabedea7f8a5c07840e207e5c089be95d3e",
            "0x000000000000000000000000b09006b96020099e0d06601748984a6e1440e077"
          ],
          "data": "0x",
          "blockHash": "0x2f3237f793b2d0732a895522b09f536a0b7ee11109795f06d4ec4a69c3582bb5",
          "blockNumber": "0x151b6fe",
          "transactionHash": "0x3855485e00aeeba2ade02824bf8c7e1fb904c31d39ec48bd4272378249505928",
          "transactionIndex": "0x36",
          "logIndex": "0xb5",
          "removed": false
        },
        {
          "address": "0x2a2500fac9f44adc52570dfea4909ccc80269409",
          "topics": [
            "0x8be0079c531659141344cd1fd0a4f28419497f9722a3daafe3b4186f6b6457e0",
            "0x0000000000000000000000000000000000000000000000000000000000000000",
            "0x000000000000000000000000669c864169cf8ba8e7e1cf9a4d4a2c979e456dc8"
          ],
          "data": "0x",
          "blockHash": "0x2f3237f793b2d0732a895522b09f536a0b7ee11109795f06d4ec4a69c3582bb5",
          "blockNumber": "0x151b6fe",
          "transactionHash": "0x3855485e00aeeba2ade02824bf8c7e1fb904c31d39ec48bd4272378249505928",
          "transactionIndex": "0x36",
          "logIndex": "0xb6",
          "removed": false
        },
        {
          "address": "0x2a2500fac9f44adc52570dfea4909ccc80269409",
          "topics": [
            "0xc7f505b2f371ae2175ee4913f4499e1f2633a7b5936321eed1cdaeb6115181d2"
          ],
          "data": "0x0000000000000000000000000000000000000000000000000000000000000001",
          "blockHash": "0x2f3237f793b2d0732a895522b09f536a0b7ee11109795f06d4ec4a69c3582bb5",
          "blockNumber": "0x151b6fe",
          "transactionHash": "0x3855485e00aeeba2ade02824bf8c7e1fb904c31d39ec48bd4272378249505928",
          "transactionIndex": "0x36",
          "logIndex": "0xb7",
          "removed": false
        },
        {
          "address": "0xd4343e849fee510b025e3d5f396d3cd807912f50",
          "topics": [
            "0x1cf3b03a6cf19fa2baba4df148e9dcabedea7f8a5c07840e207e5c089be95d3e",
            "0x00000000000000000000000040774535ea1c22291c2dc77e74f47f64d3aadb90"
          ],
          "data": "0x",
          "blockHash": "0x2f3237f793b2d0732a895522b09f536a0b7ee11109795f06d4ec4a69c3582bb5",
          "blockNumber": "0x151b6fe",
          "transactionHash": "0x3855485e00aeeba2ade02824bf8c7e1fb904c31d39ec48bd4272378249505928",
          "transactionIndex": "0x36",
          "logIndex": "0xb8",
          "removed": false
        },
        {
          "address": "0xd4343e849fee510b025e3d5f396d3cd807912f50",
          "topics": [
            "0x8be0079c531659141344cd1fd0a4f28419497f9722a3daafe3b4186f6b6457e0",
            "0x0000000000000000000000000000000000000000000000000000000000000000",
            "0x000000000000000000000000669c864169cf8ba8e7e1cf9a4d4a2c979e456dc8"
          ],
          "data": "0x",
          "blockHash": "0x2f3237f793b2d0732a895522b09f536a0b7ee11109795f06d4ec4a69c3582bb5",
          "blockNumber": "0x151b6fe",
          "transactionHash": "0x3855485e00aeeba2ade02824bf8c7e1fb904c31d39ec48bd4272378249505928",
          "transactionIndex": "0x36",
          "logIndex": "0xb9",
          "removed": false
        },
        {
          "address": "0xd4343e849fee510b025e3d5f396d3cd807912f50",
          "topics": [
            "0xc7f505b2f371ae2175ee4913f4499e1f2633a7b5936321eed1cdaeb6115181d2"
          ],
          "data": "0x0000000000000000000000000000000000000000000000000000000000000001",
          "blockHash": "0x2f3237f793b2d0732a895522b09f536a0b7ee11109795f06d4ec4a69c3582bb5",
          "blockNumber": "0x151b6fe",
          "transactionHash": "0x3855485e00aeeba2ade02824bf8c7e1fb904c31d39ec48bd4272378249505928",
          "transactionIndex": "0x36",
          "logIndex": "0xba",
          "removed": false
        },
        {
          "address": "0xd4343e849fee510b025e3d5f396d3cd807912f50",
          "topics": [
            "0x8be0079c531659141344cd1fd0a4f28419497f9722a3daafe3b4186f6b6457e0",
            "0x000000000000000000000000669c864169cf8ba8e7e1cf9a4d4a2c979e456dc8",
            "0x00000000000000000000000092bc7d2305ec97e138a5c98f6f5fd69703fe0589"
          ],
          "data": "0x",
          "blockHash": "0x2f3237f793b2d0732a895522b09f536a0b7ee11109795f06d4ec4a69c3582bb5",
          "blockNumber": "0x151b6fe",
          "transactionHash": "0x3855485e00aeeba2ade02824bf8c7e1fb904c31d39ec48bd4272378249505928",
          "transactionIndex": "0x36",
          "logIndex": "0xbb",
          "removed": false
        },
        {
          "address": "0x2a2500fac9f44adc52570dfea4909ccc80269409",
          "topics": [
            "0x73cca62ab1b520c9715bf4e6c71e3e518c754e7148f65102f43289a7df0efea6",
            "0x000000000000000000000000d4343e849fee510b025e3d5f396d3cd807912f50"
          ],
          "data": "0x",
          "blockHash": "0x2f3237f793b2d0732a895522b09f536a0b7ee11109795f06d4ec4a69c3582bb5",
          "blockNumber": "0x151b6fe",
          "transactionHash": "0x3855485e00aeeba2ade02824bf8c7e1fb904c31d39ec48bd4272378249505928",
          "transactionIndex": "0x36",
          "logIndex": "0xbc",
          "removed": false
        },
        {
          "address": "0x2a2500fac9f44adc52570dfea4909ccc80269409",
          "topics": [
            "0x8be0079c531659141344cd1fd0a4f28419497f9722a3daafe3b4186f6b6457e0",
            "0x000000000000000000000000669c864169cf8ba8e7e1cf9a4d4a2c979e456dc8",
            "0x00000000000000000000000092bc7d2305ec97e138a5c98f6f5fd69703fe0589"
          ],
          "data": "0x",
          "blockHash": "0x2f3237f793b2d0732a895522b09f536a0b7ee11109795f06d4ec4a69c3582bb5",
          "blockNumber": "0x151b6fe",
          "transactionHash": "0x3855485e00aeeba2ade02824bf8c7e1fb904c31d39ec48bd4272378249505928",
          "transactionIndex": "0x36",
          "logIndex": "0xbd",
          "removed": false
        },
        {
          "address": "0x7753dde995ff320b7f9cf75011af5d5863b1363e",
          "topics": [
            "0x1cf3b03a6cf19fa2baba4df148e9dcabedea7f8a5c07840e207e5c089be95d3e",
            "0x0000000000000000000000002308eb176b706b0e8047e93340ffd20c0e5db5ed"
          ],
          "data": "0x",
          "blockHash": "0x2f3237f793b2d0732a895522b09f536a0b7ee11109795f06d4ec4a69c3582bb5",
          "blockNumber": "0x151b6fe",
          "transactionHash": "0x3855485e00aeeba2ade02824bf8c7e1fb904c31d39ec48bd4272378249505928",
          "transactionIndex": "0x36",
          "logIndex": "0xbe",
          "removed": false
        },
        {
          "address": "0x7753dde995ff320b7f9cf75011af5d5863b1363e",
          "topics": [
            "0xc7f505b2f371ae2175ee4913f4499e1f2633a7b5936321eed1cdaeb6115181d2"
          ],
          "data": "0x0000000000000000000000000000000000000000000000000000000000000001",
          "blockHash": "0x2f3237f793b2d0732a895522b09f536a0b7ee11109795f06d4ec4a69c3582bb5",
          "blockNumber": "0x151b6fe",
          "transactionHash": "0x3855485e00aeeba2ade02824bf8c7e1fb904c31d39ec48bd4272378249505928",
          "transactionIndex": "0x36",
          "logIndex": "0xbf",
          "removed": false
        },
        {
          "address": "0x669c864169cf8ba8e7e1cf9a4d4a2c979e456dc8",
          "topics": [
            "0x9c5d829b9b23efc461f9aeef91979ec04bb903feb3bee4f26d22114abfc7335b"
          ],
          "data": "0x0000000000000000000000002a2500fac9f44adc52570dfea4909ccc80269409000000000000000000000000d4343e849fee510b025e3d5f396d3cd807912f500000000000000000000000007753dde995ff320b7f9cf75011af5d5863b1363e",
          "blockHash": "0x2f3237f793b2d0732a895522b09f536a0b7ee11109795f06d4ec4a69c3582bb5",
          "blockNumber": "0x151b6fe",
          "transactionHash": "0x3855485e00aeeba2ade02824bf8c7e1fb904c31d39ec48bd4272378249505928",
          "transactionIndex": "0x36",
          "logIndex": "0xc0",
          "removed": false
        }
      ],
      "logsBloom": "0x20000000008000400000000100080008000000000000080000800000000000000000000002000000000000000000000000000001000000000000000000000000000000140000000000000000001000210001000000000000000008000000000001000000020000000000080000000800000000000000000000000020000000400000008100000001040800000000080000000000000080000000000000000000020000000000040000000000000000000000000000000104100000000000000000000000000000000800000000000000000000000004000000800000000020000020000008000000000000012000000000000000000100000881000000000004",
      "type": "0x2",
      "transactionHash": "0x3855485e00aeeba2ade02824bf8c7e1fb904c31d39ec48bd4272378249505928",
      "transactionIndex": "0x36",
      "blockHash": "0x2f3237f793b2d0732a895522b09f536a0b7ee11109795f06d4ec4a69c3582bb5",
      "blockNumber": "0x151b6fe",
      "gasUsed": "0x1624f4",
      "effectiveGasPrice": "0xf7ce6",
      "from": "0x92bc7d2305ec97e138a5c98f6f5fd69703fe0589",
      "to": "0x669c864169cf8ba8e7e1cf9a4d4a2c979e456dc8",
      "contractAddress": null,
      "l1BaseFeeScalar": "0x44d",
      "l1BlobBaseFee": "0x47ed349",
      "l1BlobBaseFeeScalar": "0xa118b",
      "l1Fee": "0x35a7bf309",
      "l1GasPrice": "0x6185ff8f",
      "l1GasUsed": "0xb74"
    },
    {
      "status": "0x1",
      "cumulativeGasUsed": "0x9b6cd3",
      "logs": [
        {
          "address": "0x235607cb9d758c19c42fddf4deeaeeac4ae7e5be",
          "topics": [
            "0xddf252ad1be2c89b69c2b068fc378daa952ba7f163c4a11628f55a4df523b3ef",
            "0x0000000000000000000000000000000000000000000000000000000000000000",
            "0x00000000000000000000000092bc7d2305ec97e138a5c98f6f5fd69703fe0589"
          ],
          "data": "0x0000000000000000000000000000000000000000000000056bc75e2d63100000",
          "blockHash": "0x2f3237f793b2d0732a895522b09f536a0b7ee11109795f06d4ec4a69c3582bb5",
          "blockNumber": "0x151b6fe",
          "transactionHash": "0x9845338dea6e695c56ba6de4696c634b0986086897677339fdf4d8dc44bf395b",
          "transactionIndex": "0x37",
          "logIndex": "0xc1",
          "removed": false
        }
      ],
      "logsBloom": "0x00000000000000000000000000000000000000000000000000000000000000000000000000000000000000000000000000000000000000000000000040000000000000000000000000000008000000000000000000000000000000000000000001000000020000000080000000000800000000000000000000000010000000000000000000000000000000000000000000000000000000000000000000000000000000000000040010000000000000000000000000000000000000000000000000000002000000000000000000000000000000000000000000000000000020000000000000000000000000010000000000000000000000000000000000000000",
      "type": "0x2",
      "transactionHash": "0x9845338dea6e695c56ba6de4696c634b0986086897677339fdf4d8dc44bf395b",
      "transactionIndex": "0x37",
      "blockHash": "0x2f3237f793b2d0732a895522b09f536a0b7ee11109795f06d4ec4a69c3582bb5",
      "blockNumber": "0x151b6fe",
      "gasUsed": "0x10b4b",
      "effectiveGasPrice": "0xf7ce6",
      "from": "0x92bc7d2305ec97e138a5c98f6f5fd69703fe0589",
      "to": "0x235607cb9d758c19c42fddf4deeaeeac4ae7e5be",
      "contractAddress": null,
      "l1BaseFeeScalar": "0x44d",
      "l1BlobBaseFee": "0x47ed349",
      "l1BlobBaseFeeScalar": "0xa118b",
      "l1Fee": "0x1d46d6d5e",
      "l1GasPrice": "0x6185ff8f",
      "l1GasUsed": "0x640"
    },
    {
      "status": "0x1",
      "cumulativeGasUsed": "0x9c781e",
      "logs": [
        {
          "address": "0xffc07dafc9d3e07d093ed73b580537e1799e76b2",
          "topics": [
            "0xddf252ad1be2c89b69c2b068fc378daa952ba7f163c4a11628f55a4df523b3ef",
            "0x0000000000000000000000000000000000000000000000000000000000000000",
            "0x00000000000000000000000092bc7d2305ec97e138a5c98f6f5fd69703fe0589"
          ],
          "data": "0x0000000000000000000000000000000000000000000000056bc75e2d63100000",
          "blockHash": "0x2f3237f793b2d0732a895522b09f536a0b7ee11109795f06d4ec4a69c3582bb5",
          "blockNumber": "0x151b6fe",
          "transactionHash": "0x1f0bc11aea59f5135d1c3f9cbfd1aaffaae0eaba5e72659be6ee6a5b6598cb20",
          "transactionIndex": "0x38",
          "logIndex": "0xc2",
          "removed": false
        }
      ],
      "logsBloom": "0x00000000000000000000000000000000000000000000000000000000000000000000000000004000000000000000000000000000000000000000000000000000000000000000000000000008000000000000000000000000000000000000000001000000020000100000000000000800000000000000000000000010000000000000000000000000000000000000000000000000000000000000000000000000000000000000040000000000000000000000000000000000000000000000000000000002000000000000000000000000000000000000000000000000000020000000000000000000000000010000000000000800000000000000000000000000",
      "type": "0x2",
      "transactionHash": "0x1f0bc11aea59f5135d1c3f9cbfd1aaffaae0eaba5e72659be6ee6a5b6598cb20",
      "transactionIndex": "0x38",
      "blockHash": "0x2f3237f793b2d0732a895522b09f536a0b7ee11109795f06d4ec4a69c3582bb5",
      "blockNumber": "0x151b6fe",
      "gasUsed": "0x10b4b",
      "effectiveGasPrice": "0xf7ce6",
      "from": "0x92bc7d2305ec97e138a5c98f6f5fd69703fe0589",
      "to": "0xffc07dafc9d3e07d093ed73b580537e1799e76b2",
      "contractAddress": null,
      "l1BaseFeeScalar": "0x44d",
      "l1BlobBaseFee": "0x47ed349",
      "l1BlobBaseFeeScalar": "0xa118b",
      "l1Fee": "0x1d46d6d5e",
      "l1GasPrice": "0x6185ff8f",
      "l1GasUsed": "0x640"
    },
    {
      "status": "0x1",
      "cumulativeGasUsed": "0x9d2d48",
      "logs": [
        {
          "address": "0x235607cb9d758c19c42fddf4deeaeeac4ae7e5be",
          "topics": [
            "0x8c5be1e5ebec7d5bd14f71427d1e84f3dd0314c0f7b2291e5b200ac8c7c3b925",
            "0x00000000000000000000000092bc7d2305ec97e138a5c98f6f5fd69703fe0589",
            "0x000000000000000000000000d4343e849fee510b025e3d5f396d3cd807912f50"
          ],
          "data": "0x0000000000000000000000000000000000000000000000056bc75e2d63100000",
          "blockHash": "0x2f3237f793b2d0732a895522b09f536a0b7ee11109795f06d4ec4a69c3582bb5",
          "blockNumber": "0x151b6fe",
          "transactionHash": "0xb85ba7a29da58c2c3d73ebfb837bfe0f7de34f51a4be8751fbb4314ca823d4a6",
          "transactionIndex": "0x39",
          "logIndex": "0xc3",
          "removed": false
        }
      ],
      "logsBloom": "0x00000000000000000000000000080000000000000000000000000000000000000000000000000000000000000000000000000000000000000000000040200000000000000000000000000000000000000000000000000000000000000000000001000000000000000080000000000000000000000000000000000000000000000000000100000000000000000000000000000000000000000000000000000000020000000000040010000000000000000000000000000000000000000000000000000000000000000000000000000000000000000000000000000000000000000010000000000000000000010000000000000000000000000080000000000000",
      "type": "0x2",
      "transactionHash": "0xb85ba7a29da58c2c3d73ebfb837bfe0f7de34f51a4be8751fbb4314ca823d4a6",
      "transactionIndex": "0x39",
      "blockHash": "0x2f3237f793b2d0732a895522b09f536a0b7ee11109795f06d4ec4a69c3582bb5",
      "blockNumber": "0x151b6fe",
      "gasUsed": "0xb52a",
      "effectiveGasPrice": "0xf7ce6",
      "from": "0x92bc7d2305ec97e138a5c98f6f5fd69703fe0589",
      "to": "0x235607cb9d758c19c42fddf4deeaeeac4ae7e5be",
      "contractAddress": null,
      "l1BaseFeeScalar": "0x44d",
      "l1BlobBaseFee": "0x47ed349",
      "l1BlobBaseFeeScalar": "0xa118b",
      "l1Fee": "0x1d46d6d5e",
      "l1GasPrice": "0x6185ff8f",
      "l1GasUsed": "0x640"
    },
    {
      "status": "0x1",
      "cumulativeGasUsed": "0x9de272",
      "logs": [
        {
          "address": "0xffc07dafc9d3e07d093ed73b580537e1799e76b2",
          "topics": [
            "0x8c5be1e5ebec7d5bd14f71427d1e84f3dd0314c0f7b2291e5b200ac8c7c3b925",
            "0x00000000000000000000000092bc7d2305ec97e138a5c98f6f5fd69703fe0589",
            "0x000000000000000000000000d4343e849fee510b025e3d5f396d3cd807912f50"
          ],
          "data": "0x0000000000000000000000000000000000000000000000056bc75e2d63100000",
          "blockHash": "0x2f3237f793b2d0732a895522b09f536a0b7ee11109795f06d4ec4a69c3582bb5",
          "blockNumber": "0x151b6fe",
          "transactionHash": "0x979cb158742fb1880b8e433a32b15f70b711925d678789a5cdd9d2840cb58f92",
          "transactionIndex": "0x3a",
          "logIndex": "0xc4",
          "removed": false
        }
      ],
      "logsBloom": "0x00000000000000000000000000080000000000000000000000000000000000000000000000004000000000000000000000000000000000000000000000200000000000000000000000000000000000000000000000000000000000000000000001000000000000100000000000000000000000000000000000000000000000000000000100000000000000000000000000000000000000000000000000000000020000000000040000000000000000000000000000000000000000000000000000000000000000000000000000000000000000000000000000000000000000000010000000000000000000010000000000000800000000000080000000000000",
      "type": "0x2",
      "transactionHash": "0x979cb158742fb1880b8e433a32b15f70b711925d678789a5cdd9d2840cb58f92",
      "transactionIndex": "0x3a",
      "blockHash": "0x2f3237f793b2d0732a895522b09f536a0b7ee11109795f06d4ec4a69c3582bb5",
      "blockNumber": "0x151b6fe",
      "gasUsed": "0xb52a",
      "effectiveGasPrice": "0xf7ce6",
      "from": "0x92bc7d2305ec97e138a5c98f6f5fd69703fe0589",
      "to": "0xffc07dafc9d3e07d093ed73b580537e1799e76b2",
      "contractAddress": null,
      "l1BaseFeeScalar": "0x44d",
      "l1BlobBaseFee": "0x47ed349",
      "l1BlobBaseFeeScalar": "0xa118b",
      "l1Fee": "0x1d46d6d5e",
      "l1GasPrice": "0x6185ff8f",
      "l1GasUsed": "0x640"
    },
    {
      "status": "0x1",
      "cumulativeGasUsed": "0xa35c80",
      "logs": [
        {
          "address": "0x235607cb9d758c19c42fddf4deeaeeac4ae7e5be",
          "topics": [
            "0xddf252ad1be2c89b69c2b068fc378daa952ba7f163c4a11628f55a4df523b3ef",
            "0x00000000000000000000000092bc7d2305ec97e138a5c98f6f5fd69703fe0589",
            "0x000000000000000000000000d4343e849fee510b025e3d5f396d3cd807912f50"
          ],
          "data": "0x0000000000000000000000000000000000000000000000056bc75e2d63100000",
          "blockHash": "0x2f3237f793b2d0732a895522b09f536a0b7ee11109795f06d4ec4a69c3582bb5",
          "blockNumber": "0x151b6fe",
          "transactionHash": "0x5b5741e7840ce0c82131380b426e6e25aa4bdc3fb5ac8df2da8eb08984bd33b3",
          "transactionIndex": "0x3b",
          "logIndex": "0xc5",
          "removed": false
        },
        {
          "address": "0xffc07dafc9d3e07d093ed73b580537e1799e76b2",
          "topics": [
            "0xddf252ad1be2c89b69c2b068fc378daa952ba7f163c4a11628f55a4df523b3ef",
            "0x00000000000000000000000092bc7d2305ec97e138a5c98f6f5fd69703fe0589",
            "0x000000000000000000000000d4343e849fee510b025e3d5f396d3cd807912f50"
          ],
          "data": "0x0000000000000000000000000000000000000000000000056bc75e2d63100000",
          "blockHash": "0x2f3237f793b2d0732a895522b09f536a0b7ee11109795f06d4ec4a69c3582bb5",
          "blockNumber": "0x151b6fe",
          "transactionHash": "0x5b5741e7840ce0c82131380b426e6e25aa4bdc3fb5ac8df2da8eb08984bd33b3",
          "transactionIndex": "0x3b",
          "logIndex": "0xc6",
          "removed": false
        },
        {
          "address": "0x2a2500fac9f44adc52570dfea4909ccc80269409",
          "topics": [
            "0xd5103f333769455df788908e17b0f6f83838ebeae2cd1ed6f23ec20dad88c9a3",
            "0x00000000000000000000000092bc7d2305ec97e138a5c98f6f5fd69703fe0589"
          ],
          "data": "0x00000000000000000000000000000000000000000000000bdf2d9e3b5257883f00000000000000000000000000000000000000000000000bdf2d9e3b52578457",
          "blockHash": "0x2f3237f793b2d0732a895522b09f536a0b7ee11109795f06d4ec4a69c3582bb5",
          "blockNumber": "0x151b6fe",
          "transactionHash": "0x5b5741e7840ce0c82131380b426e6e25aa4bdc3fb5ac8df2da8eb08984bd33b3",
          "transactionIndex": "0x3b",
          "logIndex": "0xc7",
          "removed": false
        },
        {
          "address": "0xd4343e849fee510b025e3d5f396d3cd807912f50",
          "topics": [
            "0xc1258b6f224442b6aa30f317612f0920bb2f76d968200d28d9163ec6aee9ad00",
            "0x00000000000000000000000092bc7d2305ec97e138a5c98f6f5fd69703fe0589"
          ],
          "data": "0x00000000000000000000000000000000000000000000000bdf2d9e3b5257883f0000000000000000000000000000000000000000000000000000000000000060000000000000000000000000000000000000000000000000000000000000000000000000000000000000000000000000000000000000000000000000000000020000000000000000000000000000000000000000000000056bc75e2d631000000000000000000000000000000000000000000000000000056bc75e2d63100000",
          "blockHash": "0x2f3237f793b2d0732a895522b09f536a0b7ee11109795f06d4ec4a69c3582bb5",
          "blockNumber": "0x151b6fe",
          "transactionHash": "0x5b5741e7840ce0c82131380b426e6e25aa4bdc3fb5ac8df2da8eb08984bd33b3",
          "transactionIndex": "0x3b",
          "logIndex": "0xc8",
          "removed": false
        }
      ],
      "logsBloom": "0x20000000000000000000000000080008000000000200000000000000000000000000000000004000000400000000000000000000000000000000000040000000000000000000000000000008000000000000000000000000000000000000000001000000000000100080080000000000000000000000000000000010000000000000000100000001000000000000000000008000000000000080000000000000000000000000040010020000000000000000000000000000000000000000000000000002000000000000000000000000000000000000000000000000000000000020000000800000000000010000000000000800000000000880000000000000",
      "type": "0x2",
      "transactionHash": "0x5b5741e7840ce0c82131380b426e6e25aa4bdc3fb5ac8df2da8eb08984bd33b3",
      "transactionIndex": "0x3b",
      "blockHash": "0x2f3237f793b2d0732a895522b09f536a0b7ee11109795f06d4ec4a69c3582bb5",
      "blockNumber": "0x151b6fe",
      "gasUsed": "0x57a0e",
      "effectiveGasPrice": "0xf7ce6",
      "from": "0x92bc7d2305ec97e138a5c98f6f5fd69703fe0589",
      "to": "0xd4343e849fee510b025e3d5f396d3cd807912f50",
      "contractAddress": null,
      "l1BaseFeeScalar": "0x44d",
      "l1BlobBaseFee": "0x47ed349",
      "l1BlobBaseFeeScalar": "0xa118b",
      "l1Fee": "0x1d46d6d5e",
      "l1GasPrice": "0x6185ff8f",
      "l1GasUsed": "0x640"
    }
  ],
  "libraries": [],
  "pending": [],
  "returns": {},
  "timestamp": 1740033246,
  "chain": 84532,
  "commit": "297de21"
}