{
  "transactions": [
    {
      "hash": "0x069d2fd7aa6ecde2e25c67041a9bc980de5c3ca2780b3eb7ee14a554e130031e",
      "transactionType": "CREATE",
      "contractName": "MockToken",
      "contractAddress": "0xf8d9278af8b9812ab3171b8f812fb4ea13be3181",
      "function": null,
      "arguments": [
        "WETH",
        "WETH",
        "18"
      ],
      "transaction": {
        "from": "0x92bc7d2305ec97e138a5c98f6f5fd69703fe0589",
        "gas": "0xab0f1",
        "value": "0x0",
        "input": "0x60806040523461033057610b058038038061001981610334565b9283398101906060818303126103305780516001600160401b0381116103305782610045918301610359565b60208201519092906001600160401b03811161033057604091610069918401610359565b91015160ff81168091036103305782516001600160401b03811161024157600354600181811c91168015610326575b602082101461022357601f81116102c3575b506020601f821160011461026057819293945f92610255575b50508160011b915f199060031b1c1916176003555b81516001600160401b03811161024157600454600181811c91168015610237575b602082101461022357601f81116101c0575b50602092601f821160011461015f57928192935f92610154575b50508160011b915f199060031b1c1916176004555b60ff19600554161760055560405161074290816103c38239f35b015190505f80610125565b601f1982169360045f52805f20915f5b8681106101a85750836001959610610190575b505050811b0160045561013a565b01515f1960f88460031b161c191690555f8080610182565b9192602060018192868501518155019401920161016f565b60045f527f8a35acfbc15ff81a39ae7d344fd709f28e8600b4aa8c65c6b64bfe7fe36bd19b601f830160051c81019160208410610219575b601f0160051c01905b81811061020e575061010b565b5f8155600101610201565b90915081906101f8565b634e487b7160e01b5f52602260045260245ffd5b90607f16906100f9565b634e487b7160e01b5f52604160045260245ffd5b015190505f806100c3565b601f1982169060035f52805f20915f5b8181106102ab57509583600195969710610293575b505050811b016003556100d8565b01515f1960f88460031b161c191690555f8080610285565b9192602060018192868b015181550194019201610270565b60035f527fc2575a0e9e593c00f959f8c92f12db2869c3395a3b0502d05e2516446f71f85b601f830160051c8101916020841061031c575b601f0160051c01905b81811061031157506100aa565b5f8155600101610304565b90915081906102fb565b90607f1690610098565b5f80fd5b6040519190601f01601f191682016001600160401b0381118382101761024157604052565b81601f82011215610330578051906001600160401b03821161024157610388601f8301601f1916602001610334565b9282845260208383010111610330575f5b8281106103ad57505060205f918301015290565b8060208092840101518282870101520161039956fe6080806040526004361015610012575f80fd5b5f3560e01c90816306fdde031461055c57508063095ea7b3146104da57806318160ddd146104bd57806323b872dd146103dd578063313ce567146103bd57806340c10f191461031b57806370a08231146102e457806395d89b41146101c95780639dc29fac1461011a578063a9059cbb146100e95763dd62ed3e14610095575f80fd5b346100e55760403660031901126100e5576100ae610672565b6100b6610688565b6001600160a01b039182165f908152600160209081526040808320949093168252928352819020549051908152f35b5f80fd5b346100e55760403660031901126100e55761010f610105610672565b602435903361069e565b602060405160018152f35b346100e55760403660031901126100e557610133610672565b602435906001600160a01b031680156101b657805f525f60205260405f205482811061019d576020835f947fddf252ad1be2c89b69c2b068fc378daa952ba7f163c4a11628f55a4df523b3ef938587528684520360408620558060025403600255604051908152a3005b9063391434e360e21b5f5260045260245260445260645ffd5b634b637e8f60e11b5f525f60045260245ffd5b346100e5575f3660031901126100e5576040515f6004548060011c906001811680156102da575b6020831081146102c6578285529081156102aa5750600114610255575b50819003601f01601f191681019067ffffffffffffffff8211818310176102415761023d8291826040528261062b565b0390f35b634e487b7160e01b5f52604160045260245ffd5b905060045f527f8a35acfbc15ff81a39ae7d344fd709f28e8600b4aa8c65c6b64bfe7fe36bd19b5f905b8282106102945750602091508201018261020d565b600181602092548385880101520191019061027f565b90506020925060ff191682840152151560051b8201018261020d565b634e487b7160e01b5f52602260045260245ffd5b91607f16916101f0565b346100e55760203660031901126100e5576001600160a01b03610305610672565b165f525f602052602060405f2054604051908152f35b346100e55760403660031901126100e557610334610672565b6001600160a01b031660243581156103aa57600254908082018092116103965760207fddf252ad1be2c89b69c2b068fc378daa952ba7f163c4a11628f55a4df523b3ef915f9360025584845283825260408420818154019055604051908152a3005b634e487b7160e01b5f52601160045260245ffd5b63ec442f0560e01b5f525f60045260245ffd5b346100e5575f3660031901126100e557602060ff60055416604051908152f35b346100e55760603660031901126100e5576103f6610672565b6103fe610688565b6001600160a01b0382165f81815260016020818152604080842033855290915290912054919360443593929091810161043d575b5061010f935061069e565b8381106104a257841561048f57331561047c5761010f945f52600160205260405f2060018060a01b0333165f526020528360405f209103905584610432565b634a1406b160e11b5f525f60045260245ffd5b63e602df0560e01b5f525f60045260245ffd5b8390637dc7a0d960e11b5f523360045260245260445260645ffd5b346100e5575f3660031901126100e5576020600254604051908152f35b346100e55760403660031901126100e5576104f3610672565b60243590331561048f576001600160a01b031690811561047c57335f52600160205260405f20825f526020528060405f20556040519081527f8c5be1e5ebec7d5bd14f71427d1e84f3dd0314c0f7b2291e5b200ac8c7c3b92560203392a3602060405160018152f35b346100e5575f3660031901126100e5575f6003548060011c90600181168015610621575b6020831081146102c6578285529081156102aa57506001146105cc5750819003601f01601f191681019067ffffffffffffffff8211818310176102415761023d8291826040528261062b565b905060035f527fc2575a0e9e593c00f959f8c92f12db2869c3395a3b0502d05e2516446f71f85b5f905b82821061060b5750602091508201018261020d565b60018160209254838588010152019101906105f6565b91607f1691610580565b9190916020815282518060208301525f5b81811061065c575060409293505f838284010152601f8019910116010190565b806020809287010151604082860101520161063c565b600435906001600160a01b03821682036100e557565b602435906001600160a01b03821682036100e557565b6001600160a01b03169081156101b6576001600160a01b03169182156103aa57815f525f60205260405f205481811061071c57817fddf252ad1be2c89b69c2b068fc378daa952ba7f163c4a11628f55a4df523b3ef92602092855f525f84520360405f2055845f525f825260405f20818154019055604051908152a3565b8263391434e360e21b5f5260045260245260445260645ffdfea164736f6c634300081c000a000000000000000000000000000000000000000000000000000000000000006000000000000000000000000000000000000000000000000000000000000000a000000000000000000000000000000000000000000000000000000000000000120000000000000000000000000000000000000000000000000000000000000004574554480000000000000000000000000000000000000000000000000000000000000000000000000000000000000000000000000000000000000000000000045745544800000000000000000000000000000000000000000000000000000000",
        "nonce": "0x3eb",
        "chainId": "0x14a34"
      },
      "additionalContracts": [],
      "isFixedGasLimit": false
    },
    {
      "hash": "0xddfe5e78f128c1c672a52999e67a8932ecd60c1935b71c9b1d9e5e4d44ed242b",
      "transactionType": "CREATE",
      "contractName": "MockToken",
      "contractAddress": "0x6f52da580a2d26b987cac8a8f2fdc8d72941af5e",
      "function": null,
      "arguments": [
        "wstETH",
        "wstETH",
        "18"
      ],
      "transaction": {
        "from": "0x92bc7d2305ec97e138a5c98f6f5fd69703fe0589",
        "gas": "0xab12f",
        "value": "0x0",
        "input": "0x60806040523461033057610b058038038061001981610334565b9283398101906060818303126103305780516001600160401b0381116103305782610045918301610359565b60208201519092906001600160401b03811161033057604091610069918401610359565b91015160ff81168091036103305782516001600160401b03811161024157600354600181811c91168015610326575b602082101461022357601f81116102c3575b506020601f821160011461026057819293945f92610255575b50508160011b915f199060031b1c1916176003555b81516001600160401b03811161024157600454600181811c91168015610237575b602082101461022357601f81116101c0575b50602092601f821160011461015f57928192935f92610154575b50508160011b915f199060031b1c1916176004555b60ff19600554161760055560405161074290816103c38239f35b015190505f80610125565b601f1982169360045f52805f20915f5b8681106101a85750836001959610610190575b505050811b0160045561013a565b01515f1960f88460031b161c191690555f8080610182565b9192602060018192868501518155019401920161016f565b60045f527f8a35acfbc15ff81a39ae7d344fd709f28e8600b4aa8c65c6b64bfe7fe36bd19b601f830160051c81019160208410610219575b601f0160051c01905b81811061020e575061010b565b5f8155600101610201565b90915081906101f8565b634e487b7160e01b5f52602260045260245ffd5b90607f16906100f9565b634e487b7160e01b5f52604160045260245ffd5b015190505f806100c3565b601f1982169060035f52805f20915f5b8181106102ab57509583600195969710610293575b505050811b016003556100d8565b01515f1960f88460031b161c191690555f8080610285565b9192602060018192868b015181550194019201610270565b60035f527fc2575a0e9e593c00f959f8c92f12db2869c3395a3b0502d05e2516446f71f85b601f830160051c8101916020841061031c575b601f0160051c01905b81811061031157506100aa565b5f8155600101610304565b90915081906102fb565b90607f1690610098565b5f80fd5b6040519190601f01601f191682016001600160401b0381118382101761024157604052565b81601f82011215610330578051906001600160401b03821161024157610388601f8301601f1916602001610334565b9282845260208383010111610330575f5b8281106103ad57505060205f918301015290565b8060208092840101518282870101520161039956fe6080806040526004361015610012575f80fd5b5f3560e01c90816306fdde031461055c57508063095ea7b3146104da57806318160ddd146104bd57806323b872dd146103dd578063313ce567146103bd57806340c10f191461031b57806370a08231146102e457806395d89b41146101c95780639dc29fac1461011a578063a9059cbb146100e95763dd62ed3e14610095575f80fd5b346100e55760403660031901126100e5576100ae610672565b6100b6610688565b6001600160a01b039182165f908152600160209081526040808320949093168252928352819020549051908152f35b5f80fd5b346100e55760403660031901126100e55761010f610105610672565b602435903361069e565b602060405160018152f35b346100e55760403660031901126100e557610133610672565b602435906001600160a01b031680156101b657805f525f60205260405f205482811061019d576020835f947fddf252ad1be2c89b69c2b068fc378daa952ba7f163c4a11628f55a4df523b3ef938587528684520360408620558060025403600255604051908152a3005b9063391434e360e21b5f5260045260245260445260645ffd5b634b637e8f60e11b5f525f60045260245ffd5b346100e5575f3660031901126100e5576040515f6004548060011c906001811680156102da575b6020831081146102c6578285529081156102aa5750600114610255575b50819003601f01601f191681019067ffffffffffffffff8211818310176102415761023d8291826040528261062b565b0390f35b634e487b7160e01b5f52604160045260245ffd5b905060045f527f8a35acfbc15ff81a39ae7d344fd709f28e8600b4aa8c65c6b64bfe7fe36bd19b5f905b8282106102945750602091508201018261020d565b600181602092548385880101520191019061027f565b90506020925060ff191682840152151560051b8201018261020d565b634e487b7160e01b5f52602260045260245ffd5b91607f16916101f0565b346100e55760203660031901126100e5576001600160a01b03610305610672565b165f525f602052602060405f2054604051908152f35b346100e55760403660031901126100e557610334610672565b6001600160a01b031660243581156103aa57600254908082018092116103965760207fddf252ad1be2c89b69c2b068fc378daa952ba7f163c4a11628f55a4df523b3ef915f9360025584845283825260408420818154019055604051908152a3005b634e487b7160e01b5f52601160045260245ffd5b63ec442f0560e01b5f525f60045260245ffd5b346100e5575f3660031901126100e557602060ff60055416604051908152f35b346100e55760603660031901126100e5576103f6610672565b6103fe610688565b6001600160a01b0382165f81815260016020818152604080842033855290915290912054919360443593929091810161043d575b5061010f935061069e565b8381106104a257841561048f57331561047c5761010f945f52600160205260405f2060018060a01b0333165f526020528360405f209103905584610432565b634a1406b160e11b5f525f60045260245ffd5b63e602df0560e01b5f525f60045260245ffd5b8390637dc7a0d960e11b5f523360045260245260445260645ffd5b346100e5575f3660031901126100e5576020600254604051908152f35b346100e55760403660031901126100e5576104f3610672565b60243590331561048f576001600160a01b031690811561047c57335f52600160205260405f20825f526020528060405f20556040519081527f8c5be1e5ebec7d5bd14f71427d1e84f3dd0314c0f7b2291e5b200ac8c7c3b92560203392a3602060405160018152f35b346100e5575f3660031901126100e5575f6003548060011c90600181168015610621575b6020831081146102c6578285529081156102aa57506001146105cc5750819003601f01601f191681019067ffffffffffffffff8211818310176102415761023d8291826040528261062b565b905060035f527fc2575a0e9e593c00f959f8c92f12db2869c3395a3b0502d05e2516446f71f85b5f905b82821061060b5750602091508201018261020d565b60018160209254838588010152019101906105f6565b91607f1691610580565b9190916020815282518060208301525f5b81811061065c575060409293505f838284010152601f8019910116010190565b806020809287010151604082860101520161063c565b600435906001600160a01b03821682036100e557565b602435906001600160a01b03821682036100e557565b6001600160a01b03169081156101b6576001600160a01b03169182156103aa57815f525f60205260405f205481811061071c57817fddf252ad1be2c89b69c2b068fc378daa952ba7f163c4a11628f55a4df523b3ef92602092855f525f84520360405f2055845f525f825260405f20818154019055604051908152a3565b8263391434e360e21b5f5260045260245260445260645ffdfea164736f6c634300081c000a000000000000000000000000000000000000000000000000000000000000006000000000000000000000000000000000000000000000000000000000000000a000000000000000000000000000000000000000000000000000000000000000120000000000000000000000000000000000000000000000000000000000000006777374455448000000000000000000000000000000000000000000000000000000000000000000000000000000000000000000000000000000000000000000067773744554480000000000000000000000000000000000000000000000000000",
        "nonce": "0x3ec",
        "chainId": "0x14a34"
      },
      "additionalContracts": [],
      "isFixedGasLimit": false
    },
    {
      "hash": "0x5240aab1e12dbf04f7c8426f5165de8d49e017d00c7defd7c8f2db2c139ebf3b",
      "transactionType": "CREATE",
      "contractName": "MockToken",
      "contractAddress": "0x951eeb7a777eb4a82c4bea91eff8f173b865bb35",
      "function": null,
      "arguments": [
        "weETH",
        "weETH",
        "18"
      ],
      "transaction": {
        "from": "0x92bc7d2305ec97e138a5c98f6f5fd69703fe0589",
        "gas": "0xab110",
        "value": "0x0",
        "input": "0x60806040523461033057610b058038038061001981610334565b9283398101906060818303126103305780516001600160401b0381116103305782610045918301610359565b60208201519092906001600160401b03811161033057604091610069918401610359565b91015160ff81168091036103305782516001600160401b03811161024157600354600181811c91168015610326575b602082101461022357601f81116102c3575b506020601f821160011461026057819293945f92610255575b50508160011b915f199060031b1c1916176003555b81516001600160401b03811161024157600454600181811c91168015610237575b602082101461022357601f81116101c0575b50602092601f821160011461015f57928192935f92610154575b50508160011b915f199060031b1c1916176004555b60ff19600554161760055560405161074290816103c38239f35b015190505f80610125565b601f1982169360045f52805f20915f5b8681106101a85750836001959610610190575b505050811b0160045561013a565b01515f1960f88460031b161c191690555f8080610182565b9192602060018192868501518155019401920161016f565b60045f527f8a35acfbc15ff81a39ae7d344fd709f28e8600b4aa8c65c6b64bfe7fe36bd19b601f830160051c81019160208410610219575b601f0160051c01905b81811061020e575061010b565b5f8155600101610201565b90915081906101f8565b634e487b7160e01b5f52602260045260245ffd5b90607f16906100f9565b634e487b7160e01b5f52604160045260245ffd5b015190505f806100c3565b601f1982169060035f52805f20915f5b8181106102ab57509583600195969710610293575b505050811b016003556100d8565b01515f1960f88460031b161c191690555f8080610285565b9192602060018192868b015181550194019201610270565b60035f527fc2575a0e9e593c00f959f8c92f12db2869c3395a3b0502d05e2516446f71f85b601f830160051c8101916020841061031c575b601f0160051c01905b81811061031157506100aa565b5f8155600101610304565b90915081906102fb565b90607f1690610098565b5f80fd5b6040519190601f01601f191682016001600160401b0381118382101761024157604052565b81601f82011215610330578051906001600160401b03821161024157610388601f8301601f1916602001610334565b9282845260208383010111610330575f5b8281106103ad57505060205f918301015290565b8060208092840101518282870101520161039956fe6080806040526004361015610012575f80fd5b5f3560e01c90816306fdde031461055c57508063095ea7b3146104da57806318160ddd146104bd57806323b872dd146103dd578063313ce567146103bd57806340c10f191461031b57806370a08231146102e457806395d89b41146101c95780639dc29fac1461011a578063a9059cbb146100e95763dd62ed3e14610095575f80fd5b346100e55760403660031901126100e5576100ae610672565b6100b6610688565b6001600160a01b039182165f908152600160209081526040808320949093168252928352819020549051908152f35b5f80fd5b346100e55760403660031901126100e55761010f610105610672565b602435903361069e565b602060405160018152f35b346100e55760403660031901126100e557610133610672565b602435906001600160a01b031680156101b657805f525f60205260405f205482811061019d576020835f947fddf252ad1be2c89b69c2b068fc378daa952ba7f163c4a11628f55a4df523b3ef938587528684520360408620558060025403600255604051908152a3005b9063391434e360e21b5f5260045260245260445260645ffd5b634b637e8f60e11b5f525f60045260245ffd5b346100e5575f3660031901126100e5576040515f6004548060011c906001811680156102da575b6020831081146102c6578285529081156102aa5750600114610255575b50819003601f01601f191681019067ffffffffffffffff8211818310176102415761023d8291826040528261062b565b0390f35b634e487b7160e01b5f52604160045260245ffd5b905060045f527f8a35acfbc15ff81a39ae7d344fd709f28e8600b4aa8c65c6b64bfe7fe36bd19b5f905b8282106102945750602091508201018261020d565b600181602092548385880101520191019061027f565b90506020925060ff191682840152151560051b8201018261020d565b634e487b7160e01b5f52602260045260245ffd5b91607f16916101f0565b346100e55760203660031901126100e5576001600160a01b03610305610672565b165f525f602052602060405f2054604051908152f35b346100e55760403660031901126100e557610334610672565b6001600160a01b031660243581156103aa57600254908082018092116103965760207fddf252ad1be2c89b69c2b068fc378daa952ba7f163c4a11628f55a4df523b3ef915f9360025584845283825260408420818154019055604051908152a3005b634e487b7160e01b5f52601160045260245ffd5b63ec442f0560e01b5f525f60045260245ffd5b346100e5575f3660031901126100e557602060ff60055416604051908152f35b346100e55760603660031901126100e5576103f6610672565b6103fe610688565b6001600160a01b0382165f81815260016020818152604080842033855290915290912054919360443593929091810161043d575b5061010f935061069e565b8381106104a257841561048f57331561047c5761010f945f52600160205260405f2060018060a01b0333165f526020528360405f209103905584610432565b634a1406b160e11b5f525f60045260245ffd5b63e602df0560e01b5f525f60045260245ffd5b8390637dc7a0d960e11b5f523360045260245260445260645ffd5b346100e5575f3660031901126100e5576020600254604051908152f35b346100e55760403660031901126100e5576104f3610672565b60243590331561048f576001600160a01b031690811561047c57335f52600160205260405f20825f526020528060405f20556040519081527f8c5be1e5ebec7d5bd14f71427d1e84f3dd0314c0f7b2291e5b200ac8c7c3b92560203392a3602060405160018152f35b346100e5575f3660031901126100e5575f6003548060011c90600181168015610621575b6020831081146102c6578285529081156102aa57506001146105cc5750819003601f01601f191681019067ffffffffffffffff8211818310176102415761023d8291826040528261062b565b905060035f527fc2575a0e9e593c00f959f8c92f12db2869c3395a3b0502d05e2516446f71f85b5f905b82821061060b5750602091508201018261020d565b60018160209254838588010152019101906105f6565b91607f1691610580565b9190916020815282518060208301525f5b81811061065c575060409293505f838284010152601f8019910116010190565b806020809287010151604082860101520161063c565b600435906001600160a01b03821682036100e557565b602435906001600160a01b03821682036100e557565b6001600160a01b03169081156101b6576001600160a01b03169182156103aa57815f525f60205260405f205481811061071c57817fddf252ad1be2c89b69c2b068fc378daa952ba7f163c4a11628f55a4df523b3ef92602092855f525f84520360405f2055845f525f825260405f20818154019055604051908152a3565b8263391434e360e21b5f5260045260245260445260645ffdfea164736f6c634300081c000a000000000000000000000000000000000000000000000000000000000000006000000000000000000000000000000000000000000000000000000000000000a000000000000000000000000000000000000000000000000000000000000000120000000000000000000000000000000000000000000000000000000000000005776545544800000000000000000000000000000000000000000000000000000000000000000000000000000000000000000000000000000000000000000000057765455448000000000000000000000000000000000000000000000000000000",
        "nonce": "0x3ed",
        "chainId": "0x14a34"
      },
      "additionalContracts": [],
      "isFixedGasLimit": false
    },
    {
      "hash": "0x963cebbcf99956f8dff3517dec35e60c6d44bf5e756eb8bde53fafde757a43a8",
      "transactionType": "CALL",
      "contractName": "MockToken",
      "contractAddress": "0xf8d9278af8b9812ab3171b8f812fb4ea13be3181",
      "function": "mint(address,uint256)",
      "arguments": [
        "0x92Bc7D2305EC97E138a5c98F6f5FD69703fe0589",
        "2600000000000000"
      ],
      "transaction": {
        "from": "0x92bc7d2305ec97e138a5c98f6f5fd69703fe0589",
        "to": "0xf8d9278af8b9812ab3171b8f812fb4ea13be3181",
        "gas": "0x18507",
        "value": "0x0",
        "input": "0x40c10f1900000000000000000000000092bc7d2305ec97e138a5c98f6f5fd69703fe058900000000000000000000000000000000000000000000000000093cafac6a8000",
        "nonce": "0x3ee",
        "chainId": "0x14a34"
      },
      "additionalContracts": [],
      "isFixedGasLimit": false
    },
    {
      "hash": "0x2735a52546bac931279d20fa97b4128ad50caba457f8c3f37d8bb6f5268f1125",
      "transactionType": "CALL",
      "contractName": "MockToken",
      "contractAddress": "0x6f52da580a2d26b987cac8a8f2fdc8d72941af5e",
      "function": "mint(address,uint256)",
      "arguments": [
        "0x92Bc7D2305EC97E138a5c98F6f5FD69703fe0589",
        "5200000000000000"
      ],
      "transaction": {
        "from": "0x92bc7d2305ec97e138a5c98f6f5fd69703fe0589",
        "to": "0x6f52da580a2d26b987cac8a8f2fdc8d72941af5e",
        "gas": "0x16f5a",
        "value": "0x0",
        "input": "0x40c10f1900000000000000000000000092bc7d2305ec97e138a5c98f6f5fd69703fe05890000000000000000000000000000000000000000000000000012795f58d50000",
        "nonce": "0x3ef",
        "chainId": "0x14a34"
      },
      "additionalContracts": [],
      "isFixedGasLimit": false
    },
    {
      "hash": "0x4411edf23de0487883ba4b439b8c059329e58585bd5a3020593213f0548cce6e",
      "transactionType": "CALL",
      "contractName": "MockToken",
      "contractAddress": "0x951eeb7a777eb4a82c4bea91eff8f173b865bb35",
      "function": "mint(address,uint256)",
      "arguments": [
        "0x92Bc7D2305EC97E138a5c98F6f5FD69703fe0589",
        "2600000000000000"
      ],
      "transaction": {
        "from": "0x92bc7d2305ec97e138a5c98f6f5fd69703fe0589",
        "to": "0x951eeb7a777eb4a82c4bea91eff8f173b865bb35",
        "gas": "0x18507",
        "value": "0x0",
        "input": "0x40c10f1900000000000000000000000092bc7d2305ec97e138a5c98f6f5fd69703fe058900000000000000000000000000000000000000000000000000093cafac6a8000",
        "nonce": "0x3f0",
        "chainId": "0x14a34"
      },
      "additionalContracts": [],
      "isFixedGasLimit": false
    },
    {
      "hash": "0xf2fd0a18909ec8ac216fe857c149d61bb7b778bb72bc49ed23d1436c3b2765be",
      "transactionType": "CREATE",
      "contractName": "MockExchangeRateProvider",
      "contractAddress": "0x708a6d3c55d7ff0784b3c16ab248ea7e4bda1471",
      "function": null,
      "arguments": [
        "1000000000000000000",
        "18"
      ],
      "transaction": {
        "from": "0x92bc7d2305ec97e138a5c98f6f5fd69703fe0589",
        "gas": "0x2a8f7",
        "value": "0x0",
        "input": "0x608034605557601f61010e38819003918201601f19168301916001600160401b03831184841017605957808492604094855283398101031260555760208151910151905f5560015560405160a0908161006e8239f35b5f80fd5b634e487b7160e01b5f52604160045260245ffdfe60808060405260043610156011575f80fd5b5f3560e01c9081631ff19b0314607d5781632b513601146065575080633ba0b9a91460475763db068e0e146043575f80fd5b607d565b346061575f36600319011260615760205f54604051908152f35b5f80fd5b346061575f3660031901126061576020906001548152f35b3460615760203660031901126061576004355f5500fea164736f6c634300081c000a0000000000000000000000000000000000000000000000000de0b6b3a76400000000000000000000000000000000000000000000000000000000000000000012",
        "nonce": "0x3f1",
        "chainId": "0x14a34"
      },
      "additionalContracts": [],
      "isFixedGasLimit": false
    },
    {
      "hash": "0xf808a2bbdb5422be7ddb9e423f21ea8ecf7788682d46e45ea5fb3cddbc038575",
      "transactionType": "CREATE",
      "contractName": "MockExchangeRateProvider",
      "contractAddress": "0x54d6af4e0386d89d329987aaf3ddffbfd5fc2e30",
      "function": null,
      "arguments": [
        "1100000000000000000",
        "18"
      ],
      "transaction": {
        "from": "0x92bc7d2305ec97e138a5c98f6f5fd69703fe0589",
        "gas": "0x2a8f7",
        "value": "0x0",
        "input": "0x608034605557601f61010e38819003918201601f19168301916001600160401b03831184841017605957808492604094855283398101031260555760208151910151905f5560015560405160a0908161006e8239f35b5f80fd5b634e487b7160e01b5f52604160045260245ffdfe60808060405260043610156011575f80fd5b5f3560e01c9081631ff19b0314607d5781632b513601146065575080633ba0b9a91460475763db068e0e146043575f80fd5b607d565b346061575f36600319011260615760205f54604051908152f35b5f80fd5b346061575f3660031901126061576020906001548152f35b3460615760203660031901126061576004355f5500fea164736f6c634300081c000a0000000000000000000000000000000000000000000000000f43fc2c04ee00000000000000000000000000000000000000000000000000000000000000000012",
        "nonce": "0x3f2",
        "chainId": "0x14a34"
      },
      "additionalContracts": [],
      "isFixedGasLimit": false
    },
    {
      "hash": "0xd338ce4bb4f2f9a18f2a83bb6582d27cafb08dcbe06ce29d6ccf7b7e85d553ed",
      "transactionType": "CREATE",
      "contractName": "MockExchangeRateProvider",
      "contractAddress": "0xed8df8c1515011e65309373ad8a5b7a8eca00e5a",
      "function": null,
      "arguments": [
        "1200000000000000000",
        "18"
      ],
      "transaction": {
        "from": "0x92bc7d2305ec97e138a5c98f6f5fd69703fe0589",
        "gas": "0x2a8f7",
        "value": "0x0",
        "input": "0x608034605557601f61010e38819003918201601f19168301916001600160401b03831184841017605957808492604094855283398101031260555760208151910151905f5560015560405160a0908161006e8239f35b5f80fd5b634e487b7160e01b5f52604160045260245ffdfe60808060405260043610156011575f80fd5b5f3560e01c9081631ff19b0314607d5781632b513601146065575080633ba0b9a91460475763db068e0e146043575f80fd5b607d565b346061575f36600319011260615760205f54604051908152f35b5f80fd5b346061575f3660031901126061576020906001548152f35b3460615760203660031901126061576004355f5500fea164736f6c634300081c000a00000000000000000000000000000000000000000000000010a741a4627800000000000000000000000000000000000000000000000000000000000000000012",
        "nonce": "0x3f3",
        "chainId": "0x14a34"
      },
      "additionalContracts": [],
      "isFixedGasLimit": false
    },
    {
      "hash": "0x7b97d99ce0e1c545d54ffb619a8b68194ae343e68739f3bcbabe4ac93a5fad0d",
      "transactionType": "CALL",
      "contractName": "ERC1967Proxy",
      "contractAddress": "0x85f17a7eb2a5b9c76530b44fd33fbcf59110a0d8",
      "function": null,
      "arguments": null,
      "transaction": {
        "from": "0x92bc7d2305ec97e138a5c98f6f5fd69703fe0589",
        "to": "0x85f17a7eb2a5b9c76530b44fd33fbcf59110a0d8",
        "gas": "0x31d8e9",
        "value": "0x0",
        "input": "0xe9910c8e0000000000000000000000000000000000000000000000000000000000000020000000000000000000000000f8d9278af8b9812ab3171b8f812fb4ea13be31810000000000000000000000006f52da580a2d26b987cac8a8f2fdc8d72941af5e0000000000000000000000000000000000000000000000000000000000000001000000000000000000000000708a6d3c55d7ff0784b3c16ab248ea7e4bda147100000000000000000000000000000000000000000000000000000000000001400000000000000000000000000000000000000000000000000000000000000180000000000000000000000000000000000000000000000000000000000000000100000000000000000000000054d6af4e0386d89d329987aaf3ddffbfd5fc2e3000000000000000000000000000000000000000000000000000000000000001c0000000000000000000000000000000000000000000000000000000000000020000000000000000000000000000000000000000000000000000000000000000043ba0b9a90000000000000000000000000000000000000000000000000000000000000000000000000000000000000000000000000000000000000000000000042b5136010000000000000000000000000000000000000000000000000000000000000000000000000000000000000000000000000000000000000000000000043ba0b9a90000000000000000000000000000000000000000000000000000000000000000000000000000000000000000000000000000000000000000000000042b51360100000000000000000000000000000000000000000000000000000000",
        "nonce": "0x3f4",
        "chainId": "0x14a34"
      },
      "additionalContracts": [
        {
          "transactionType": "CREATE",
          "address": "0xb0c9e004c0f0e73d1970dec49957bd4dd4b85222",
          "initCode": "0x60a080604052610467803803809161001782856102a8565b833981016040828203126101ea5761002e826102df565b602083015190926001600160401b0382116101ea570181601f820112156101ea5780519061005b826102f3565b9261006960405194856102a8565b828452602083830101116101ea575f5b82811061029357505060205f9183010152813b15610272577fa3f0ad74e5423aebfd80d3ef4346578335a9a72aeaee59ff6cb3582b35133d5080546001600160a01b0319166001600160a01b038416908117909155604051635c60da1b60e01b8152909190602081600481865afa9081156101f6575f91610238575b50803b156102185750817f1cf3b03a6cf19fa2baba4df148e9dcabedea7f8a5c07840e207e5c089be95d3e5f80a280511561020157602060049260405193848092635c60da1b60e01b82525afa9182156101f6575f926101b1575b50905f8083602061018e95519101845af43d156101a9573d91610172836102f3565b9261018060405194856102a8565b83523d5f602085013e61030e565b505b60805260405160fa908161036d82396080518160180152f35b60609161030e565b91506020823d6020116101ee575b816101cc602093836102a8565b810103126101ea575f806101e261018e946102df565b935050610150565b5f80fd5b3d91506101bf565b6040513d5f823e3d90fd5b505034156101905763b398979f60e01b5f5260045ffd5b634c9c8ce360e01b5f9081526001600160a01b0391909116600452602490fd5b90506020813d60201161026a575b81610253602093836102a8565b810103126101ea57610264906102df565b5f6100f5565b3d9150610246565b50631933b43b60e21b5f9081526001600160a01b0391909116600452602490fd5b80602080928401015182828701015201610079565b601f909101601f19168101906001600160401b038211908210176102cb57604052565b634e487b7160e01b5f52604160045260245ffd5b51906001600160a01b03821682036101ea57565b6001600160401b0381116102cb57601f01601f191660200190565b90610332575080511561032357805190602001fd5b63d6bda27560e01b5f5260045ffd5b81511580610363575b610343575090565b639996b31560e01b5f9081526001600160a01b0391909116600452602490fd5b50803b1561033b56fe60806040819052635c60da1b60e01b81526020906004817f00000000000000000000000000000000000000000000000000000000000000006001600160a01b03165afa801560a2575f901560d1575060203d602011609c575b601f19601f820116608001906080821067ffffffffffffffff83111760885760849160405260800160ad565b60d1565b634e487b7160e01b5f52604160045260245ffd5b503d6058565b6040513d5f823e3d90fd5b602090607f19011260cd576080516001600160a01b038116810360cd5790565b5f80fd5b5f8091368280378136915af43d5f803e1560e9573d5ff35b3d5ffdfea164736f6c634300081c000a000000000000000000000000ab6f89d9561dd9831c0f2740390ec7393e10ae69000000000000000000000000000000000000000000000000000000000000004000000000000000000000000000000000000000000000000000000000000000c44cd88b7600000000000000000000000000000000000000000000000000000000000000400000000000000000000000000000000000000000000000000000000000000080000000000000000000000000000000000000000000000000000000000000001e53656c662050656767696e672041737365742057455448207773744554480000000000000000000000000000000000000000000000000000000000000000000f5350412d574554482d777374455448000000000000000000000000000000000000000000000000000000000000000000000000000000000000000000"
        },
        {
          "transactionType": "CREATE",
          "address": "0xbf8c885ce7449f216956ffbe6e13843463de045b",
          "initCode": "0x60806040523461033b57610857803803806100198161033f565b92833981019060608183031261033b5780516001600160a01b038116919082900361033b5760208101516001600160401b03811161033b578361005d918301610364565b60408201519093906001600160401b03811161033b5761007d9201610364565b5f80546001600160a01b03191690921790915581516001600160401b03811161024e57600154600181811c91168015610331575b602082101461023057601f81116102ce575b50602092601f821160011461026d57928192935f92610262575b50508160011b915f199060031b1c1916176001555b80516001600160401b03811161024e57600254600181811c91168015610244575b602082101461023057601f81116101cd575b50602091601f821160011461016d579181925f92610162575b50508160011b915f199060031b1c1916176002555b60405161048990816103ce8239f35b015190505f8061013e565b601f1982169260025f52805f20915f5b8581106101b55750836001951061019d575b505050811b01600255610153565b01515f1960f88460031b161c191690555f808061018f565b9192602060018192868501518155019401920161017d565b60025f527f405787fa12a823e0f2b7631cc41b3ba8828b3321ca811111fa75cd3aa3bb5ace601f830160051c81019160208410610226575b601f0160051c01905b81811061021b5750610125565b5f815560010161020e565b9091508190610205565b634e487b7160e01b5f52602260045260245ffd5b90607f1690610113565b634e487b7160e01b5f52604160045260245ffd5b015190505f806100dd565b601f1982169360015f52805f20915f5b8681106102b6575083600195961061029e575b505050811b016001556100f2565b01515f1960f88460031b161c191690555f8080610290565b9192602060018192868501518155019401920161027d565b60015f527fb10e2d527612073b26eecdfd717e6a320cf44b4afac2b0732d9fcbe2b7fa0cf6601f830160051c81019160208410610327575b601f0160051c01905b81811061031c57506100c3565b5f815560010161030f565b9091508190610306565b90607f16906100b1565b5f80fd5b6040519190601f01601f191682016001600160401b0381118382101761024e57604052565b81601f8201121561033b578051906001600160401b03821161024e57610393601f8301601f191660200161033f565b928284526020838301011161033b575f5b8281106103b857505060205f918301015290565b806020809284010151828287010152016103a456fe6080806040526004361015610012575f80fd5b5f3560e01c9081632b513601146102ea575080633ba0b9a9146101fd578063675f0fcf146101585780637dc0d1d01461013157639929031a14610053575f80fd5b3461012d575f36600319011261012d576040515f60025461007381610388565b808452906001811690811561010957506001146100ab575b6100a78361009b818503826103c0565b604051918291826103f6565b0390f35b60025f9081527f405787fa12a823e0f2b7631cc41b3ba8828b3321ca811111fa75cd3aa3bb5ace939250905b8082106100ef5750909150810160200161009b61008b565b9192600181602092548385880101520191019092916100d7565b60ff191660208086019190915291151560051b8401909101915061009b905061008b565b5f80fd5b3461012d575f36600319011261012d575f546040516001600160a01b039091168152602090f35b3461012d575f36600319011261012d576040515f60015461017881610388565b8084529060018116908115610109575060011461019f576100a78361009b818503826103c0565b60015f9081527fb10e2d527612073b26eecdfd717e6a320cf44b4afac2b0732d9fcbe2b7fa0cf6939250905b8082106101e35750909150810160200161009b61008b565b9192600181602092548385880101520191019092916101cb565b3461012d575f36600319011261012d5760018060a01b035f5416604051905f60015461022881610388565b90600181169081156102d55750600114610285575b5090825f93849303915afa61025061043d565b9015610276576020815191818082019384920101031261012d5760209051604051908152f35b6352760cdd60e01b5f5260045ffd5b60015f9081529091507fb10e2d527612073b26eecdfd717e6a320cf44b4afac2b0732d9fcbe2b7fa0cf65b8282106102c157505082018261023d565b6001816020925484880152019101906102b0565b60ff191685525080151502830190508261023d565b3461012d575f36600319011261012d5760018060a01b035f54165f60025461031181610388565b90600181169081156102d55750600114610338575090825f93849303915afa61025061043d565b60025f9081529091507f405787fa12a823e0f2b7631cc41b3ba8828b3321ca811111fa75cd3aa3bb5ace5b82821061037457505082018261023d565b600181602092548488015201910190610363565b90600182811c921680156103b6575b60208310146103a257565b634e487b7160e01b5f52602260045260245ffd5b91607f1691610397565b90601f8019910116810190811067ffffffffffffffff8211176103e257604052565b634e487b7160e01b5f52604160045260245ffd5b9190916020815282518060208301525f5b818110610427575060409293505f838284010152601f8019910116010190565b8060208092870101516040828601015201610407565b3d15610477573d9067ffffffffffffffff82116103e2576040519161046c601f8201601f1916602001846103c0565b82523d5f602084013e565b60609056fea164736f6c634300081c000a000000000000000000000000708a6d3c55d7ff0784b3c16ab248ea7e4bda1471000000000000000000000000000000000000000000000000000000000000006000000000000000000000000000000000000000000000000000000000000000a000000000000000000000000000000000000000000000000000000000000000043ba0b9a90000000000000000000000000000000000000000000000000000000000000000000000000000000000000000000000000000000000000000000000042b51360100000000000000000000000000000000000000000000000000000000"
        },
        {
          "transactionType": "CREATE",
          "address": "0x366473f5bd9e173013fb88a76df204e5b16fa5b7",
          "initCode": "0x60806040523461033b57610857803803806100198161033f565b92833981019060608183031261033b5780516001600160a01b038116919082900361033b5760208101516001600160401b03811161033b578361005d918301610364565b60408201519093906001600160401b03811161033b5761007d9201610364565b5f80546001600160a01b03191690921790915581516001600160401b03811161024e57600154600181811c91168015610331575b602082101461023057601f81116102ce575b50602092601f821160011461026d57928192935f92610262575b50508160011b915f199060031b1c1916176001555b80516001600160401b03811161024e57600254600181811c91168015610244575b602082101461023057601f81116101cd575b50602091601f821160011461016d579181925f92610162575b50508160011b915f199060031b1c1916176002555b60405161048990816103ce8239f35b015190505f8061013e565b601f1982169260025f52805f20915f5b8581106101b55750836001951061019d575b505050811b01600255610153565b01515f1960f88460031b161c191690555f808061018f565b9192602060018192868501518155019401920161017d565b60025f527f405787fa12a823e0f2b7631cc41b3ba8828b3321ca811111fa75cd3aa3bb5ace601f830160051c81019160208410610226575b601f0160051c01905b81811061021b5750610125565b5f815560010161020e565b9091508190610205565b634e487b7160e01b5f52602260045260245ffd5b90607f1690610113565b634e487b7160e01b5f52604160045260245ffd5b015190505f806100dd565b601f1982169360015f52805f20915f5b8681106102b6575083600195961061029e575b505050811b016001556100f2565b01515f1960f88460031b161c191690555f8080610290565b9192602060018192868501518155019401920161027d565b60015f527fb10e2d527612073b26eecdfd717e6a320cf44b4afac2b0732d9fcbe2b7fa0cf6601f830160051c81019160208410610327575b601f0160051c01905b81811061031c57506100c3565b5f815560010161030f565b9091508190610306565b90607f16906100b1565b5f80fd5b6040519190601f01601f191682016001600160401b0381118382101761024e57604052565b81601f8201121561033b578051906001600160401b03821161024e57610393601f8301601f191660200161033f565b928284526020838301011161033b575f5b8281106103b857505060205f918301015290565b806020809284010151828287010152016103a456fe6080806040526004361015610012575f80fd5b5f3560e01c9081632b513601146102ea575080633ba0b9a9146101fd578063675f0fcf146101585780637dc0d1d01461013157639929031a14610053575f80fd5b3461012d575f36600319011261012d576040515f60025461007381610388565b808452906001811690811561010957506001146100ab575b6100a78361009b818503826103c0565b604051918291826103f6565b0390f35b60025f9081527f405787fa12a823e0f2b7631cc41b3ba8828b3321ca811111fa75cd3aa3bb5ace939250905b8082106100ef5750909150810160200161009b61008b565b9192600181602092548385880101520191019092916100d7565b60ff191660208086019190915291151560051b8401909101915061009b905061008b565b5f80fd5b3461012d575f36600319011261012d575f546040516001600160a01b039091168152602090f35b3461012d575f36600319011261012d576040515f60015461017881610388565b8084529060018116908115610109575060011461019f576100a78361009b818503826103c0565b60015f9081527fb10e2d527612073b26eecdfd717e6a320cf44b4afac2b0732d9fcbe2b7fa0cf6939250905b8082106101e35750909150810160200161009b61008b565b9192600181602092548385880101520191019092916101cb565b3461012d575f36600319011261012d5760018060a01b035f5416604051905f60015461022881610388565b90600181169081156102d55750600114610285575b5090825f93849303915afa61025061043d565b9015610276576020815191818082019384920101031261012d5760209051604051908152f35b6352760cdd60e01b5f5260045ffd5b60015f9081529091507fb10e2d527612073b26eecdfd717e6a320cf44b4afac2b0732d9fcbe2b7fa0cf65b8282106102c157505082018261023d565b6001816020925484880152019101906102b0565b60ff191685525080151502830190508261023d565b3461012d575f36600319011261012d5760018060a01b035f54165f60025461031181610388565b90600181169081156102d55750600114610338575090825f93849303915afa61025061043d565b60025f9081529091507f405787fa12a823e0f2b7631cc41b3ba8828b3321ca811111fa75cd3aa3bb5ace5b82821061037457505082018261023d565b600181602092548488015201910190610363565b90600182811c921680156103b6575b60208310146103a257565b634e487b7160e01b5f52602260045260245ffd5b91607f1691610397565b90601f8019910116810190811067ffffffffffffffff8211176103e257604052565b634e487b7160e01b5f52604160045260245ffd5b9190916020815282518060208301525f5b818110610427575060409293505f838284010152601f8019910116010190565b8060208092870101516040828601015201610407565b3d15610477573d9067ffffffffffffffff82116103e2576040519161046c601f8201601f1916602001846103c0565b82523d5f602084013e565b60609056fea164736f6c634300081c000a00000000000000000000000054d6af4e0386d89d329987aaf3ddffbfd5fc2e30000000000000000000000000000000000000000000000000000000000000006000000000000000000000000000000000000000000000000000000000000000a000000000000000000000000000000000000000000000000000000000000000043ba0b9a90000000000000000000000000000000000000000000000000000000000000000000000000000000000000000000000000000000000000000000000042b51360100000000000000000000000000000000000000000000000000000000"
        },
        {
          "transactionType": "CREATE",
          "address": "0xf3f45d91624b6c3ae4c78ee69b490d0b508e1685",
          "initCode": "0x60a080604052610467803803809161001782856102a8565b833981016040828203126101ea5761002e826102df565b602083015190926001600160401b0382116101ea570181601f820112156101ea5780519061005b826102f3565b9261006960405194856102a8565b828452602083830101116101ea575f5b82811061029357505060205f9183010152813b15610272577fa3f0ad74e5423aebfd80d3ef4346578335a9a72aeaee59ff6cb3582b35133d5080546001600160a01b0319166001600160a01b038416908117909155604051635c60da1b60e01b8152909190602081600481865afa9081156101f6575f91610238575b50803b156102185750817f1cf3b03a6cf19fa2baba4df148e9dcabedea7f8a5c07840e207e5c089be95d3e5f80a280511561020157602060049260405193848092635c60da1b60e01b82525afa9182156101f6575f926101b1575b50905f8083602061018e95519101845af43d156101a9573d91610172836102f3565b9261018060405194856102a8565b83523d5f602085013e61030e565b505b60805260405160fa908161036d82396080518160180152f35b60609161030e565b91506020823d6020116101ee575b816101cc602093836102a8565b810103126101ea575f806101e261018e946102df565b935050610150565b5f80fd5b3d91506101bf565b6040513d5f823e3d90fd5b505034156101905763b398979f60e01b5f5260045ffd5b634c9c8ce360e01b5f9081526001600160a01b0391909116600452602490fd5b90506020813d60201161026a575b81610253602093836102a8565b810103126101ea57610264906102df565b5f6100f5565b3d9150610246565b50631933b43b60e21b5f9081526001600160a01b0391909116600452602490fd5b80602080928401015182828701015201610079565b601f909101601f19168101906001600160401b038211908210176102cb57604052565b634e487b7160e01b5f52604160045260245ffd5b51906001600160a01b03821682036101ea57565b6001600160401b0381116102cb57601f01601f191660200190565b90610332575080511561032357805190602001fd5b63d6bda27560e01b5f5260045ffd5b81511580610363575b610343575090565b639996b31560e01b5f9081526001600160a01b0391909116600452602490fd5b50803b1561033b56fe60806040819052635c60da1b60e01b81526020906004817f00000000000000000000000000000000000000000000000000000000000000006001600160a01b03165afa801560a2575f901560d1575060203d602011609c575b601f19601f820116608001906080821067ffffffffffffffff83111760885760849160405260800160ad565b60d1565b634e487b7160e01b5f52604160045260245ffd5b503d6058565b6040513d5f823e3d90fd5b602090607f19011260cd576080516001600160a01b038116810360cd5790565b5f80fd5b5f8091368280378136915af43d5f803e1560e9573d5ff35b3d5ffdfea164736f6c634300081c000a000000000000000000000000aa9f9a11a613f73829e5e16c53ed661caca8520a00000000000000000000000000000000000000000000000000000000000000400000000000000000000000000000000000000000000000000000000000000044e4a301160000000000000000000000000000000000000000000000000000000000000064000000000000000000000000000000000000000000000000000000000000070800000000000000000000000000000000000000000000000000000000"
        },
        {
          "transactionType": "CREATE",
          "address": "0xf25b22c175f0029fcd3bf5276f7bc60c5a8100e2",
          "initCode": "0x60a080604052610467803803809161001782856102a8565b833981016040828203126101ea5761002e826102df565b602083015190926001600160401b0382116101ea570181601f820112156101ea5780519061005b826102f3565b9261006960405194856102a8565b828452602083830101116101ea575f5b82811061029357505060205f9183010152813b15610272577fa3f0ad74e5423aebfd80d3ef4346578335a9a72aeaee59ff6cb3582b35133d5080546001600160a01b0319166001600160a01b038416908117909155604051635c60da1b60e01b8152909190602081600481865afa9081156101f6575f91610238575b50803b156102185750817f1cf3b03a6cf19fa2baba4df148e9dcabedea7f8a5c07840e207e5c089be95d3e5f80a280511561020157602060049260405193848092635c60da1b60e01b82525afa9182156101f6575f926101b1575b50905f8083602061018e95519101845af43d156101a9573d91610172836102f3565b9261018060405194856102a8565b83523d5f602085013e61030e565b505b60805260405160fa908161036d82396080518160180152f35b60609161030e565b91506020823d6020116101ee575b816101cc602093836102a8565b810103126101ea575f806101e261018e946102df565b935050610150565b5f80fd5b3d91506101bf565b6040513d5f823e3d90fd5b505034156101905763b398979f60e01b5f5260045ffd5b634c9c8ce360e01b5f9081526001600160a01b0391909116600452602490fd5b90506020813d60201161026a575b81610253602093836102a8565b810103126101ea57610264906102df565b5f6100f5565b3d9150610246565b50631933b43b60e21b5f9081526001600160a01b0391909116600452602490fd5b80602080928401015182828701015201610079565b601f909101601f19168101906001600160401b038211908210176102cb57604052565b634e487b7160e01b5f52604160045260245ffd5b51906001600160a01b03821682036101ea57565b6001600160401b0381116102cb57601f01601f191660200190565b90610332575080511561032357805190602001fd5b63d6bda27560e01b5f5260045ffd5b81511580610363575b610343575090565b639996b31560e01b5f9081526001600160a01b0391909116600452602490fd5b50803b1561033b56fe60806040819052635c60da1b60e01b81526020906004817f00000000000000000000000000000000000000000000000000000000000000006001600160a01b03165afa801560a2575f901560d1575060203d602011609c575b601f19601f820116608001906080821067ffffffffffffffff83111760885760849160405260800160ad565b60d1565b634e487b7160e01b5f52604160045260245ffd5b503d6058565b6040513d5f823e3d90fd5b602090607f19011260cd576080516001600160a01b038116810360cd5790565b5f80fd5b5f8091368280378136915af43d5f803e1560e9573d5ff35b3d5ffdfea164736f6c634300081c000a00000000000000000000000083fc837efdbb4e7d18e12cb39ce493ceb70f9778000000000000000000000000000000000000000000000000000000000000004000000000000000000000000000000000000000000000000000000000000002a425a400590000000000000000000000000000000000000000000000000000000000000100000000000000000000000000000000000000000000000000000000000000016000000000000000000000000000000000000000000000000000000000000001c00000000000000000000000000000000000000000000000000000000000000000000000000000000000000000b0c9e004c0f0e73d1970dec49957bd4dd4b8522200000000000000000000000000000000000000000000000000000000000000640000000000000000000000000000000000000000000000000000000000000240000000000000000000000000f3f45d91624b6c3ae4c78ee69b490d0b508e16850000000000000000000000000000000000000000000000000000000000000002000000000000000000000000f8d9278af8b9812ab3171b8f812fb4ea13be31810000000000000000000000006f52da580a2d26b987cac8a8f2fdc8d72941af5e00000000000000000000000000000000000000000000000000000000000000020000000000000000000000000000000000000000000000000000000000000001000000000000000000000000000000000000000000000000000000000000000100000000000000000000000000000000000000000000000000000000000000030000000000000000000000000000000000000000000000000000000000000000000000000000000000000000000000000000000000000000000000000000000000000000000000000000000000000000000000000000000000000000000000000000000000000000000000000000000000000000000000000000000000000002000000000000000000000000bf8c885ce7449f216956ffbe6e13843463de045b000000000000000000000000366473f5bd9e173013fb88a76df204e5b16fa5b700000000000000000000000000000000000000000000000000000000"
        },
        {
          "transactionType": "CREATE",
          "address": "0x7055e80d95dddd7eb7104735d7e4e017ee18e7f2",
          "initCode": "0x60a080604052610467803803809161001782856102a8565b833981016040828203126101ea5761002e826102df565b602083015190926001600160401b0382116101ea570181601f820112156101ea5780519061005b826102f3565b9261006960405194856102a8565b828452602083830101116101ea575f5b82811061029357505060205f9183010152813b15610272577fa3f0ad74e5423aebfd80d3ef4346578335a9a72aeaee59ff6cb3582b35133d5080546001600160a01b0319166001600160a01b038416908117909155604051635c60da1b60e01b8152909190602081600481865afa9081156101f6575f91610238575b50803b156102185750817f1cf3b03a6cf19fa2baba4df148e9dcabedea7f8a5c07840e207e5c089be95d3e5f80a280511561020157602060049260405193848092635c60da1b60e01b82525afa9182156101f6575f926101b1575b50905f8083602061018e95519101845af43d156101a9573d91610172836102f3565b9261018060405194856102a8565b83523d5f602085013e61030e565b505b60805260405160fa908161036d82396080518160180152f35b60609161030e565b91506020823d6020116101ee575b816101cc602093836102a8565b810103126101ea575f806101e261018e946102df565b935050610150565b5f80fd5b3d91506101bf565b6040513d5f823e3d90fd5b505034156101905763b398979f60e01b5f5260045ffd5b634c9c8ce360e01b5f9081526001600160a01b0391909116600452602490fd5b90506020813d60201161026a575b81610253602093836102a8565b810103126101ea57610264906102df565b5f6100f5565b3d9150610246565b50631933b43b60e21b5f9081526001600160a01b0391909116600452602490fd5b80602080928401015182828701015201610079565b601f909101601f19168101906001600160401b038211908210176102cb57604052565b634e487b7160e01b5f52604160045260245ffd5b51906001600160a01b03821682036101ea57565b6001600160401b0381116102cb57601f01601f191660200190565b90610332575080511561032357805190602001fd5b63d6bda27560e01b5f5260045ffd5b81511580610363575b610343575090565b639996b31560e01b5f9081526001600160a01b0391909116600452602490fd5b50803b1561033b56fe60806040819052635c60da1b60e01b81526020906004817f00000000000000000000000000000000000000000000000000000000000000006001600160a01b03165afa801560a2575f901560d1575060203d602011609c575b601f19601f820116608001906080821067ffffffffffffffff83111760885760849160405260800160ad565b60d1565b634e487b7160e01b5f52604160045260245ffd5b503d6058565b6040513d5f823e3d90fd5b602090607f19011260cd576080516001600160a01b038116810360cd5790565b5f80fd5b5f8091368280378136915af43d5f803e1560e9573d5ff35b3d5ffdfea164736f6c634300081c000a000000000000000000000000669b2c27928f6f6991b39629140abd5af6a2394e00000000000000000000000000000000000000000000000000000000000000400000000000000000000000000000000000000000000000000000000000000024c4d66de8000000000000000000000000b0c9e004c0f0e73d1970dec49957bd4dd4b8522200000000000000000000000000000000000000000000000000000000"
        }
      ],
      "isFixedGasLimit": false
    },
    {
      "hash": "0x82d94e144c9e4d9dce2c971054dd4a17f7827886c40c3176a62eecf0caf1f863",
      "transactionType": "CALL",
      "contractName": "MockToken",
      "contractAddress": "0xf8d9278af8b9812ab3171b8f812fb4ea13be3181",
      "function": "approve(address,uint256)",
      "arguments": [
        "0xf25B22c175f0029fCD3BF5276f7BC60c5A8100e2",
        "2600000000000000"
      ],
      "transaction": {
        "from": "0x92bc7d2305ec97e138a5c98f6f5fd69703fe0589",
        "to": "0xf8d9278af8b9812ab3171b8f812fb4ea13be3181",
        "gas": "0x1067a",
        "value": "0x0",
        "input": "0x095ea7b3000000000000000000000000f25b22c175f0029fcd3bf5276f7bc60c5a8100e200000000000000000000000000000000000000000000000000093cafac6a8000",
        "nonce": "0x3f5",
        "chainId": "0x14a34"
      },
      "additionalContracts": [],
      "isFixedGasLimit": false
    },
    {
      "hash": "0x953767905a438cbb44bebaef3c00b367deab1528ce2e81bf5dc5f4ad54bba8e6",
      "transactionType": "CALL",
      "contractName": "MockToken",
      "contractAddress": "0x6f52da580a2d26b987cac8a8f2fdc8d72941af5e",
      "function": "approve(address,uint256)",
      "arguments": [
        "0xf25B22c175f0029fCD3BF5276f7BC60c5A8100e2",
        "2600000000000000"
      ],
      "transaction": {
        "from": "0x92bc7d2305ec97e138a5c98f6f5fd69703fe0589",
        "to": "0x6f52da580a2d26b987cac8a8f2fdc8d72941af5e",
        "gas": "0x1067a",
        "value": "0x0",
        "input": "0x095ea7b3000000000000000000000000f25b22c175f0029fcd3bf5276f7bc60c5a8100e200000000000000000000000000000000000000000000000000093cafac6a8000",
        "nonce": "0x3f6",
        "chainId": "0x14a34"
      },
      "additionalContracts": [],
      "isFixedGasLimit": false
    },
    {
      "hash": "0x87d47547dab32e2904dc24119e38bf738d78563040b73da50adae005fe4e41c5",
      "transactionType": "CALL",
      "contractName": "BeaconProxy",
      "contractAddress": "0xf25b22c175f0029fcd3bf5276f7bc60c5a8100e2",
      "function": null,
      "arguments": null,
      "transaction": {
        "from": "0x92bc7d2305ec97e138a5c98f6f5fd69703fe0589",
        "to": "0xf25b22c175f0029fcd3bf5276f7bc60c5a8100e2",
        "gas": "0x84dfe",
        "value": "0x0",
        "input": "0x0bd0624600000000000000000000000000000000000000000000000000000000000000400000000000000000000000000000000000000000000000000000000000000000000000000000000000000000000000000000000000000000000000000000000200000000000000000000000000000000000000000000000000093cafac6a800000000000000000000000000000000000000000000000000000093cafac6a8000",
        "nonce": "0x3f7",
        "chainId": "0x14a34"
      },
      "additionalContracts": [],
      "isFixedGasLimit": false
    },
    {
      "hash": "0x879e3795df8c1748a5ce05caf20d4ca10de6ee11857bc5ba65d9dce6abcad5f7",
      "transactionType": "CALL",
      "contractName": "ERC1967Proxy",
      "contractAddress": "0x85f17a7eb2a5b9c76530b44fd33fbcf59110a0d8",
      "function": null,
      "arguments": null,
      "transaction": {
        "from": "0x92bc7d2305ec97e138a5c98f6f5fd69703fe0589",
        "to": "0x85f17a7eb2a5b9c76530b44fd33fbcf59110a0d8",
        "gas": "0x31d8e9",
        "value": "0x0",
        "input": "0xe9910c8e00000000000000000000000000000000000000000000000000000000000000200000000000000000000000006f52da580a2d26b987cac8a8f2fdc8d72941af5e000000000000000000000000951eeb7a777eb4a82c4bea91eff8f173b865bb35000000000000000000000000000000000000000000000000000000000000000100000000000000000000000054d6af4e0386d89d329987aaf3ddffbfd5fc2e30000000000000000000000000000000000000000000000000000000000000014000000000000000000000000000000000000000000000000000000000000001800000000000000000000000000000000000000000000000000000000000000001000000000000000000000000ed8df8c1515011e65309373ad8a5b7a8eca00e5a00000000000000000000000000000000000000000000000000000000000001c0000000000000000000000000000000000000000000000000000000000000020000000000000000000000000000000000000000000000000000000000000000043ba0b9a90000000000000000000000000000000000000000000000000000000000000000000000000000000000000000000000000000000000000000000000042b5136010000000000000000000000000000000000000000000000000000000000000000000000000000000000000000000000000000000000000000000000043ba0b9a90000000000000000000000000000000000000000000000000000000000000000000000000000000000000000000000000000000000000000000000042b51360100000000000000000000000000000000000000000000000000000000",
        "nonce": "0x3f8",
        "chainId": "0x14a34"
      },
      "additionalContracts": [
        {
          "transactionType": "CREATE",
          "address": "0x0c982f176fef2be8587670ceb0019137ce9b207c",
          "initCode": "0x60a080604052610467803803809161001782856102a8565b833981016040828203126101ea5761002e826102df565b602083015190926001600160401b0382116101ea570181601f820112156101ea5780519061005b826102f3565b9261006960405194856102a8565b828452602083830101116101ea575f5b82811061029357505060205f9183010152813b15610272577fa3f0ad74e5423aebfd80d3ef4346578335a9a72aeaee59ff6cb3582b35133d5080546001600160a01b0319166001600160a01b038416908117909155604051635c60da1b60e01b8152909190602081600481865afa9081156101f6575f91610238575b50803b156102185750817f1cf3b03a6cf19fa2baba4df148e9dcabedea7f8a5c07840e207e5c089be95d3e5f80a280511561020157602060049260405193848092635c60da1b60e01b82525afa9182156101f6575f926101b1575b50905f8083602061018e95519101845af43d156101a9573d91610172836102f3565b9261018060405194856102a8565b83523d5f602085013e61030e565b505b60805260405160fa908161036d82396080518160180152f35b60609161030e565b91506020823d6020116101ee575b816101cc602093836102a8565b810103126101ea575f806101e261018e946102df565b935050610150565b5f80fd5b3d91506101bf565b6040513d5f823e3d90fd5b505034156101905763b398979f60e01b5f5260045ffd5b634c9c8ce360e01b5f9081526001600160a01b0391909116600452602490fd5b90506020813d60201161026a575b81610253602093836102a8565b810103126101ea57610264906102df565b5f6100f5565b3d9150610246565b50631933b43b60e21b5f9081526001600160a01b0391909116600452602490fd5b80602080928401015182828701015201610079565b601f909101601f19168101906001600160401b038211908210176102cb57604052565b634e487b7160e01b5f52604160045260245ffd5b51906001600160a01b03821682036101ea57565b6001600160401b0381116102cb57601f01601f191660200190565b90610332575080511561032357805190602001fd5b63d6bda27560e01b5f5260045ffd5b81511580610363575b610343575090565b639996b31560e01b5f9081526001600160a01b0391909116600452602490fd5b50803b1561033b56fe60806040819052635c60da1b60e01b81526020906004817f00000000000000000000000000000000000000000000000000000000000000006001600160a01b03165afa801560a2575f901560d1575060203d602011609c575b601f19601f820116608001906080821067ffffffffffffffff83111760885760849160405260800160ad565b60d1565b634e487b7160e01b5f52604160045260245ffd5b503d6058565b6040513d5f823e3d90fd5b602090607f19011260cd576080516001600160a01b038116810360cd5790565b5f80fd5b5f8091368280378136915af43d5f803e1560e9573d5ff35b3d5ffdfea164736f6c634300081c000a000000000000000000000000ab6f89d9561dd9831c0f2740390ec7393e10ae69000000000000000000000000000000000000000000000000000000000000004000000000000000000000000000000000000000000000000000000000000000c44cd88b7600000000000000000000000000000000000000000000000000000000000000400000000000000000000000000000000000000000000000000000000000000080000000000000000000000000000000000000000000000000000000000000001f53656c662050656767696e67204173736574207773744554482077654554480000000000000000000000000000000000000000000000000000000000000000105350412d7773744554482d77654554480000000000000000000000000000000000000000000000000000000000000000000000000000000000000000"
        },
        {
          "transactionType": "CREATE",
          "address": "0xc0cd7a7eef28ecabd6b9ef136e8ec5ece110aff7",
          "initCode": "0x60806040523461033b57610857803803806100198161033f565b92833981019060608183031261033b5780516001600160a01b038116919082900361033b5760208101516001600160401b03811161033b578361005d918301610364565b60408201519093906001600160401b03811161033b5761007d9201610364565b5f80546001600160a01b03191690921790915581516001600160401b03811161024e57600154600181811c91168015610331575b602082101461023057601f81116102ce575b50602092601f821160011461026d57928192935f92610262575b50508160011b915f199060031b1c1916176001555b80516001600160401b03811161024e57600254600181811c91168015610244575b602082101461023057601f81116101cd575b50602091601f821160011461016d579181925f92610162575b50508160011b915f199060031b1c1916176002555b60405161048990816103ce8239f35b015190505f8061013e565b601f1982169260025f52805f20915f5b8581106101b55750836001951061019d575b505050811b01600255610153565b01515f1960f88460031b161c191690555f808061018f565b9192602060018192868501518155019401920161017d565b60025f527f405787fa12a823e0f2b7631cc41b3ba8828b3321ca811111fa75cd3aa3bb5ace601f830160051c81019160208410610226575b601f0160051c01905b81811061021b5750610125565b5f815560010161020e565b9091508190610205565b634e487b7160e01b5f52602260045260245ffd5b90607f1690610113565b634e487b7160e01b5f52604160045260245ffd5b015190505f806100dd565b601f1982169360015f52805f20915f5b8681106102b6575083600195961061029e575b505050811b016001556100f2565b01515f1960f88460031b161c191690555f8080610290565b9192602060018192868501518155019401920161027d565b60015f527fb10e2d527612073b26eecdfd717e6a320cf44b4afac2b0732d9fcbe2b7fa0cf6601f830160051c81019160208410610327575b601f0160051c01905b81811061031c57506100c3565b5f815560010161030f565b9091508190610306565b90607f16906100b1565b5f80fd5b6040519190601f01601f191682016001600160401b0381118382101761024e57604052565b81601f8201121561033b578051906001600160401b03821161024e57610393601f8301601f191660200161033f565b928284526020838301011161033b575f5b8281106103b857505060205f918301015290565b806020809284010151828287010152016103a456fe6080806040526004361015610012575f80fd5b5f3560e01c9081632b513601146102ea575080633ba0b9a9146101fd578063675f0fcf146101585780637dc0d1d01461013157639929031a14610053575f80fd5b3461012d575f36600319011261012d576040515f60025461007381610388565b808452906001811690811561010957506001146100ab575b6100a78361009b818503826103c0565b604051918291826103f6565b0390f35b60025f9081527f405787fa12a823e0f2b7631cc41b3ba8828b3321ca811111fa75cd3aa3bb5ace939250905b8082106100ef5750909150810160200161009b61008b565b9192600181602092548385880101520191019092916100d7565b60ff191660208086019190915291151560051b8401909101915061009b905061008b565b5f80fd5b3461012d575f36600319011261012d575f546040516001600160a01b039091168152602090f35b3461012d575f36600319011261012d576040515f60015461017881610388565b8084529060018116908115610109575060011461019f576100a78361009b818503826103c0565b60015f9081527fb10e2d527612073b26eecdfd717e6a320cf44b4afac2b0732d9fcbe2b7fa0cf6939250905b8082106101e35750909150810160200161009b61008b565b9192600181602092548385880101520191019092916101cb565b3461012d575f36600319011261012d5760018060a01b035f5416604051905f60015461022881610388565b90600181169081156102d55750600114610285575b5090825f93849303915afa61025061043d565b9015610276576020815191818082019384920101031261012d5760209051604051908152f35b6352760cdd60e01b5f5260045ffd5b60015f9081529091507fb10e2d527612073b26eecdfd717e6a320cf44b4afac2b0732d9fcbe2b7fa0cf65b8282106102c157505082018261023d565b6001816020925484880152019101906102b0565b60ff191685525080151502830190508261023d565b3461012d575f36600319011261012d5760018060a01b035f54165f60025461031181610388565b90600181169081156102d55750600114610338575090825f93849303915afa61025061043d565b60025f9081529091507f405787fa12a823e0f2b7631cc41b3ba8828b3321ca811111fa75cd3aa3bb5ace5b82821061037457505082018261023d565b600181602092548488015201910190610363565b90600182811c921680156103b6575b60208310146103a257565b634e487b7160e01b5f52602260045260245ffd5b91607f1691610397565b90601f8019910116810190811067ffffffffffffffff8211176103e257604052565b634e487b7160e01b5f52604160045260245ffd5b9190916020815282518060208301525f5b818110610427575060409293505f838284010152601f8019910116010190565b8060208092870101516040828601015201610407565b3d15610477573d9067ffffffffffffffff82116103e2576040519161046c601f8201601f1916602001846103c0565b82523d5f602084013e565b60609056fea164736f6c634300081c000a00000000000000000000000054d6af4e0386d89d329987aaf3ddffbfd5fc2e30000000000000000000000000000000000000000000000000000000000000006000000000000000000000000000000000000000000000000000000000000000a000000000000000000000000000000000000000000000000000000000000000043ba0b9a90000000000000000000000000000000000000000000000000000000000000000000000000000000000000000000000000000000000000000000000042b51360100000000000000000000000000000000000000000000000000000000"
        },
        {
          "transactionType": "CREATE",
          "address": "0xe23afa3fbf3075470f8e62f0ad6ddbcf3827e226",
          "initCode": "0x60806040523461033b57610857803803806100198161033f565b92833981019060608183031261033b5780516001600160a01b038116919082900361033b5760208101516001600160401b03811161033b578361005d918301610364565b60408201519093906001600160401b03811161033b5761007d9201610364565b5f80546001600160a01b03191690921790915581516001600160401b03811161024e57600154600181811c91168015610331575b602082101461023057601f81116102ce575b50602092601f821160011461026d57928192935f92610262575b50508160011b915f199060031b1c1916176001555b80516001600160401b03811161024e57600254600181811c91168015610244575b602082101461023057601f81116101cd575b50602091601f821160011461016d579181925f92610162575b50508160011b915f199060031b1c1916176002555b60405161048990816103ce8239f35b015190505f8061013e565b601f1982169260025f52805f20915f5b8581106101b55750836001951061019d575b505050811b01600255610153565b01515f1960f88460031b161c191690555f808061018f565b9192602060018192868501518155019401920161017d565b60025f527f405787fa12a823e0f2b7631cc41b3ba8828b3321ca811111fa75cd3aa3bb5ace601f830160051c81019160208410610226575b601f0160051c01905b81811061021b5750610125565b5f815560010161020e565b9091508190610205565b634e487b7160e01b5f52602260045260245ffd5b90607f1690610113565b634e487b7160e01b5f52604160045260245ffd5b015190505f806100dd565b601f1982169360015f52805f20915f5b8681106102b6575083600195961061029e575b505050811b016001556100f2565b01515f1960f88460031b161c191690555f8080610290565b9192602060018192868501518155019401920161027d565b60015f527fb10e2d527612073b26eecdfd717e6a320cf44b4afac2b0732d9fcbe2b7fa0cf6601f830160051c81019160208410610327575b601f0160051c01905b81811061031c57506100c3565b5f815560010161030f565b9091508190610306565b90607f16906100b1565b5f80fd5b6040519190601f01601f191682016001600160401b0381118382101761024e57604052565b81601f8201121561033b578051906001600160401b03821161024e57610393601f8301601f191660200161033f565b928284526020838301011161033b575f5b8281106103b857505060205f918301015290565b806020809284010151828287010152016103a456fe6080806040526004361015610012575f80fd5b5f3560e01c9081632b513601146102ea575080633ba0b9a9146101fd578063675f0fcf146101585780637dc0d1d01461013157639929031a14610053575f80fd5b3461012d575f36600319011261012d576040515f60025461007381610388565b808452906001811690811561010957506001146100ab575b6100a78361009b818503826103c0565b604051918291826103f6565b0390f35b60025f9081527f405787fa12a823e0f2b7631cc41b3ba8828b3321ca811111fa75cd3aa3bb5ace939250905b8082106100ef5750909150810160200161009b61008b565b9192600181602092548385880101520191019092916100d7565b60ff191660208086019190915291151560051b8401909101915061009b905061008b565b5f80fd5b3461012d575f36600319011261012d575f546040516001600160a01b039091168152602090f35b3461012d575f36600319011261012d576040515f60015461017881610388565b8084529060018116908115610109575060011461019f576100a78361009b818503826103c0565b60015f9081527fb10e2d527612073b26eecdfd717e6a320cf44b4afac2b0732d9fcbe2b7fa0cf6939250905b8082106101e35750909150810160200161009b61008b565b9192600181602092548385880101520191019092916101cb565b3461012d575f36600319011261012d5760018060a01b035f5416604051905f60015461022881610388565b90600181169081156102d55750600114610285575b5090825f93849303915afa61025061043d565b9015610276576020815191818082019384920101031261012d5760209051604051908152f35b6352760cdd60e01b5f5260045ffd5b60015f9081529091507fb10e2d527612073b26eecdfd717e6a320cf44b4afac2b0732d9fcbe2b7fa0cf65b8282106102c157505082018261023d565b6001816020925484880152019101906102b0565b60ff191685525080151502830190508261023d565b3461012d575f36600319011261012d5760018060a01b035f54165f60025461031181610388565b90600181169081156102d55750600114610338575090825f93849303915afa61025061043d565b60025f9081529091507f405787fa12a823e0f2b7631cc41b3ba8828b3321ca811111fa75cd3aa3bb5ace5b82821061037457505082018261023d565b600181602092548488015201910190610363565b90600182811c921680156103b6575b60208310146103a257565b634e487b7160e01b5f52602260045260245ffd5b91607f1691610397565b90601f8019910116810190811067ffffffffffffffff8211176103e257604052565b634e487b7160e01b5f52604160045260245ffd5b9190916020815282518060208301525f5b818110610427575060409293505f838284010152601f8019910116010190565b8060208092870101516040828601015201610407565b3d15610477573d9067ffffffffffffffff82116103e2576040519161046c601f8201601f1916602001846103c0565b82523d5f602084013e565b60609056fea164736f6c634300081c000a000000000000000000000000ed8df8c1515011e65309373ad8a5b7a8eca00e5a000000000000000000000000000000000000000000000000000000000000006000000000000000000000000000000000000000000000000000000000000000a000000000000000000000000000000000000000000000000000000000000000043ba0b9a90000000000000000000000000000000000000000000000000000000000000000000000000000000000000000000000000000000000000000000000042b51360100000000000000000000000000000000000000000000000000000000"
        },
        {
          "transactionType": "CREATE",
          "address": "0x0c0d491e99d2de2bb67348548cebcd8bf5a5d034",
          "initCode": "0x60a080604052610467803803809161001782856102a8565b833981016040828203126101ea5761002e826102df565b602083015190926001600160401b0382116101ea570181601f820112156101ea5780519061005b826102f3565b9261006960405194856102a8565b828452602083830101116101ea575f5b82811061029357505060205f9183010152813b15610272577fa3f0ad74e5423aebfd80d3ef4346578335a9a72aeaee59ff6cb3582b35133d5080546001600160a01b0319166001600160a01b038416908117909155604051635c60da1b60e01b8152909190602081600481865afa9081156101f6575f91610238575b50803b156102185750817f1cf3b03a6cf19fa2baba4df148e9dcabedea7f8a5c07840e207e5c089be95d3e5f80a280511561020157602060049260405193848092635c60da1b60e01b82525afa9182156101f6575f926101b1575b50905f8083602061018e95519101845af43d156101a9573d91610172836102f3565b9261018060405194856102a8565b83523d5f602085013e61030e565b505b60805260405160fa908161036d82396080518160180152f35b60609161030e565b91506020823d6020116101ee575b816101cc602093836102a8565b810103126101ea575f806101e261018e946102df565b935050610150565b5f80fd5b3d91506101bf565b6040513d5f823e3d90fd5b505034156101905763b398979f60e01b5f5260045ffd5b634c9c8ce360e01b5f9081526001600160a01b0391909116600452602490fd5b90506020813d60201161026a575b81610253602093836102a8565b810103126101ea57610264906102df565b5f6100f5565b3d9150610246565b50631933b43b60e21b5f9081526001600160a01b0391909116600452602490fd5b80602080928401015182828701015201610079565b601f909101601f19168101906001600160401b038211908210176102cb57604052565b634e487b7160e01b5f52604160045260245ffd5b51906001600160a01b03821682036101ea57565b6001600160401b0381116102cb57601f01601f191660200190565b90610332575080511561032357805190602001fd5b63d6bda27560e01b5f5260045ffd5b81511580610363575b610343575090565b639996b31560e01b5f9081526001600160a01b0391909116600452602490fd5b50803b1561033b56fe60806040819052635c60da1b60e01b81526020906004817f00000000000000000000000000000000000000000000000000000000000000006001600160a01b03165afa801560a2575f901560d1575060203d602011609c575b601f19601f820116608001906080821067ffffffffffffffff83111760885760849160405260800160ad565b60d1565b634e487b7160e01b5f52604160045260245ffd5b503d6058565b6040513d5f823e3d90fd5b602090607f19011260cd576080516001600160a01b038116810360cd5790565b5f80fd5b5f8091368280378136915af43d5f803e1560e9573d5ff35b3d5ffdfea164736f6c634300081c000a000000000000000000000000aa9f9a11a613f73829e5e16c53ed661caca8520a00000000000000000000000000000000000000000000000000000000000000400000000000000000000000000000000000000000000000000000000000000044e4a301160000000000000000000000000000000000000000000000000000000000000064000000000000000000000000000000000000000000000000000000000000070800000000000000000000000000000000000000000000000000000000"
        },
        {
          "transactionType": "CREATE",
          "address": "0x295d678109a0abb2ab936095899c72087e46eb9f",
          "initCode": "0x60a080604052610467803803809161001782856102a8565b833981016040828203126101ea5761002e826102df565b602083015190926001600160401b0382116101ea570181601f820112156101ea5780519061005b826102f3565b9261006960405194856102a8565b828452602083830101116101ea575f5b82811061029357505060205f9183010152813b15610272577fa3f0ad74e5423aebfd80d3ef4346578335a9a72aeaee59ff6cb3582b35133d5080546001600160a01b0319166001600160a01b038416908117909155604051635c60da1b60e01b8152909190602081600481865afa9081156101f6575f91610238575b50803b156102185750817f1cf3b03a6cf19fa2baba4df148e9dcabedea7f8a5c07840e207e5c089be95d3e5f80a280511561020157602060049260405193848092635c60da1b60e01b82525afa9182156101f6575f926101b1575b50905f8083602061018e95519101845af43d156101a9573d91610172836102f3565b9261018060405194856102a8565b83523d5f602085013e61030e565b505b60805260405160fa908161036d82396080518160180152f35b60609161030e565b91506020823d6020116101ee575b816101cc602093836102a8565b810103126101ea575f806101e261018e946102df565b935050610150565b5f80fd5b3d91506101bf565b6040513d5f823e3d90fd5b505034156101905763b398979f60e01b5f5260045ffd5b634c9c8ce360e01b5f9081526001600160a01b0391909116600452602490fd5b90506020813d60201161026a575b81610253602093836102a8565b810103126101ea57610264906102df565b5f6100f5565b3d9150610246565b50631933b43b60e21b5f9081526001600160a01b0391909116600452602490fd5b80602080928401015182828701015201610079565b601f909101601f19168101906001600160401b038211908210176102cb57604052565b634e487b7160e01b5f52604160045260245ffd5b51906001600160a01b03821682036101ea57565b6001600160401b0381116102cb57601f01601f191660200190565b90610332575080511561032357805190602001fd5b63d6bda27560e01b5f5260045ffd5b81511580610363575b610343575090565b639996b31560e01b5f9081526001600160a01b0391909116600452602490fd5b50803b1561033b56fe60806040819052635c60da1b60e01b81526020906004817f00000000000000000000000000000000000000000000000000000000000000006001600160a01b03165afa801560a2575f901560d1575060203d602011609c575b601f19601f820116608001906080821067ffffffffffffffff83111760885760849160405260800160ad565b60d1565b634e487b7160e01b5f52604160045260245ffd5b503d6058565b6040513d5f823e3d90fd5b602090607f19011260cd576080516001600160a01b038116810360cd5790565b5f80fd5b5f8091368280378136915af43d5f803e1560e9573d5ff35b3d5ffdfea164736f6c634300081c000a00000000000000000000000083fc837efdbb4e7d18e12cb39ce493ceb70f9778000000000000000000000000000000000000000000000000000000000000004000000000000000000000000000000000000000000000000000000000000002a425a400590000000000000000000000000000000000000000000000000000000000000100000000000000000000000000000000000000000000000000000000000000016000000000000000000000000000000000000000000000000000000000000001c000000000000000000000000000000000000000000000000000000000000000000000000000000000000000000c982f176fef2be8587670ceb0019137ce9b207c000000000000000000000000000000000000000000000000000000000000006400000000000000000000000000000000000000000000000000000000000002400000000000000000000000000c0d491e99d2de2bb67348548cebcd8bf5a5d03400000000000000000000000000000000000000000000000000000000000000020000000000000000000000006f52da580a2d26b987cac8a8f2fdc8d72941af5e000000000000000000000000951eeb7a777eb4a82c4bea91eff8f173b865bb3500000000000000000000000000000000000000000000000000000000000000020000000000000000000000000000000000000000000000000000000000000001000000000000000000000000000000000000000000000000000000000000000100000000000000000000000000000000000000000000000000000000000000030000000000000000000000000000000000000000000000000000000000000000000000000000000000000000000000000000000000000000000000000000000000000000000000000000000000000000000000000000000000000000000000000000000000000000000000000000000000000000000000000000000000000002000000000000000000000000c0cd7a7eef28ecabd6b9ef136e8ec5ece110aff7000000000000000000000000e23afa3fbf3075470f8e62f0ad6ddbcf3827e22600000000000000000000000000000000000000000000000000000000"
        },
        {
          "transactionType": "CREATE",
          "address": "0x145f9a3c30e3f608ff92b49879f5f531ea8e71ac",
          "initCode": "0x60a080604052610467803803809161001782856102a8565b833981016040828203126101ea5761002e826102df565b602083015190926001600160401b0382116101ea570181601f820112156101ea5780519061005b826102f3565b9261006960405194856102a8565b828452602083830101116101ea575f5b82811061029357505060205f9183010152813b15610272577fa3f0ad74e5423aebfd80d3ef4346578335a9a72aeaee59ff6cb3582b35133d5080546001600160a01b0319166001600160a01b038416908117909155604051635c60da1b60e01b8152909190602081600481865afa9081156101f6575f91610238575b50803b156102185750817f1cf3b03a6cf19fa2baba4df148e9dcabedea7f8a5c07840e207e5c089be95d3e5f80a280511561020157602060049260405193848092635c60da1b60e01b82525afa9182156101f6575f926101b1575b50905f8083602061018e95519101845af43d156101a9573d91610172836102f3565b9261018060405194856102a8565b83523d5f602085013e61030e565b505b60805260405160fa908161036d82396080518160180152f35b60609161030e565b91506020823d6020116101ee575b816101cc602093836102a8565b810103126101ea575f806101e261018e946102df565b935050610150565b5f80fd5b3d91506101bf565b6040513d5f823e3d90fd5b505034156101905763b398979f60e01b5f5260045ffd5b634c9c8ce360e01b5f9081526001600160a01b0391909116600452602490fd5b90506020813d60201161026a575b81610253602093836102a8565b810103126101ea57610264906102df565b5f6100f5565b3d9150610246565b50631933b43b60e21b5f9081526001600160a01b0391909116600452602490fd5b80602080928401015182828701015201610079565b601f909101601f19168101906001600160401b038211908210176102cb57604052565b634e487b7160e01b5f52604160045260245ffd5b51906001600160a01b03821682036101ea57565b6001600160401b0381116102cb57601f01601f191660200190565b90610332575080511561032357805190602001fd5b63d6bda27560e01b5f5260045ffd5b81511580610363575b610343575090565b639996b31560e01b5f9081526001600160a01b0391909116600452602490fd5b50803b1561033b56fe60806040819052635c60da1b60e01b81526020906004817f00000000000000000000000000000000000000000000000000000000000000006001600160a01b03165afa801560a2575f901560d1575060203d602011609c575b601f19601f820116608001906080821067ffffffffffffffff83111760885760849160405260800160ad565b60d1565b634e487b7160e01b5f52604160045260245ffd5b503d6058565b6040513d5f823e3d90fd5b602090607f19011260cd576080516001600160a01b038116810360cd5790565b5f80fd5b5f8091368280378136915af43d5f803e1560e9573d5ff35b3d5ffdfea164736f6c634300081c000a000000000000000000000000669b2c27928f6f6991b39629140abd5af6a2394e00000000000000000000000000000000000000000000000000000000000000400000000000000000000000000000000000000000000000000000000000000024c4d66de80000000000000000000000000c982f176fef2be8587670ceb0019137ce9b207c00000000000000000000000000000000000000000000000000000000"
        }
      ],
      "isFixedGasLimit": false
    },
    {
      "hash": "0xb20fb5f2e6bc41b2172ab8c4b6879d1ff2268fc3a72aae3211a2b23c570671bc",
      "transactionType": "CALL",
      "contractName": "MockToken",
      "contractAddress": "0x6f52da580a2d26b987cac8a8f2fdc8d72941af5e",
      "function": "approve(address,uint256)",
      "arguments": [
        "0x295D678109a0aBb2aB936095899c72087E46Eb9F",
        "2600000000000000"
      ],
      "transaction": {
        "from": "0x92bc7d2305ec97e138a5c98f6f5fd69703fe0589",
        "to": "0x6f52da580a2d26b987cac8a8f2fdc8d72941af5e",
        "gas": "0xf7f5",
        "value": "0x0",
        "input": "0x095ea7b3000000000000000000000000295d678109a0abb2ab936095899c72087e46eb9f00000000000000000000000000000000000000000000000000093cafac6a8000",
        "nonce": "0x3f9",
        "chainId": "0x14a34"
      },
      "additionalContracts": [],
      "isFixedGasLimit": false
    },
    {
      "hash": "0xd9bf3f67c97cd015468700a864d9e75bc94706a25bf2acb4c95dbda190c095ac",
      "transactionType": "CALL",
      "contractName": "MockToken",
      "contractAddress": "0x951eeb7a777eb4a82c4bea91eff8f173b865bb35",
      "function": "approve(address,uint256)",
      "arguments": [
        "0x295D678109a0aBb2aB936095899c72087E46Eb9F",
        "2600000000000000"
      ],
      "transaction": {
        "from": "0x92bc7d2305ec97e138a5c98f6f5fd69703fe0589",
        "to": "0x951eeb7a777eb4a82c4bea91eff8f173b865bb35",
        "gas": "0xf7f5",
        "value": "0x0",
        "input": "0x095ea7b3000000000000000000000000295d678109a0abb2ab936095899c72087e46eb9f00000000000000000000000000000000000000000000000000093cafac6a8000",
        "nonce": "0x3fa",
        "chainId": "0x14a34"
      },
      "additionalContracts": [],
      "isFixedGasLimit": false
    },
    {
      "hash": "0x0eef53962d58f3c0d606c5852a0850a18617ab92f1fb7ff6da2e0e4e1fa0b8ad",
      "transactionType": "CALL",
      "contractName": "BeaconProxy",
      "contractAddress": "0x295d678109a0abb2ab936095899c72087e46eb9f",
      "function": null,
      "arguments": null,
      "transaction": {
        "from": "0x92bc7d2305ec97e138a5c98f6f5fd69703fe0589",
        "to": "0x295d678109a0abb2ab936095899c72087e46eb9f",
        "gas": "0x83418",
        "value": "0x0",
        "input": "0x0bd0624600000000000000000000000000000000000000000000000000000000000000400000000000000000000000000000000000000000000000000000000000000000000000000000000000000000000000000000000000000000000000000000000200000000000000000000000000000000000000000000000000093cafac6a800000000000000000000000000000000000000000000000000000093cafac6a8000",
        "nonce": "0x3fb",
        "chainId": "0x14a34"
      },
      "additionalContracts": [],
      "isFixedGasLimit": false
    }
  ],
  "receipts": [
    {
      "status": "0x1",
      "cumulativeGasUsed": "0x323084",
      "logs": [],
      "logsBloom": "0x00000000000000000000000000000000000000000000000000000000000000000000000000000000000000000000000000000000000000000000000000000000000000000000000000000000000000000000000000000000000000000000000000000000000000000000000000000000000000000000000000000000000000000000000000000000000000000000000000000000000000000000000000000000000000000000000000000000000000000000000000000000000000000000000000000000000000000000000000000000000000000000000000000000000000000000000000000000000000000000000000000000000000000000000000000000",
      "type": "0x2",
      "transactionHash": "0x069d2fd7aa6ecde2e25c67041a9bc980de5c3ca2780b3eb7ee14a554e130031e",
      "transactionIndex": "0xf",
      "blockHash": "0x32778b29f5307f6edb29d89a578bc8d491bd748e4dfc3f272cd251359e9c6afb",
      "blockNumber": "0x174c82a",
      "gasUsed": "0x83957",
      "effectiveGasPrice": "0xf4400",
      "from": "0x92bc7d2305ec97e138a5c98f6f5fd69703fe0589",
      "to": null,
      "contractAddress": "0xf8d9278af8b9812ab3171b8f812fb4ea13be3181",
      "l1BaseFeeScalar": "0x44d",
      "l1BlobBaseFee": "0x1",
      "l1BlobBaseFeeScalar": "0xa118b",
      "l1Fee": "0x7529fa464",
      "l1GasPrice": "0x3f724563",
      "l1GasUsed": "0x68d4"
    },
    {
      "status": "0x1",
      "cumulativeGasUsed": "0x42ae0e",
      "logs": [],
      "logsBloom": "0x00000000000000000000000000000000000000000000000000000000000000000000000000000000000000000000000000000000000000000000000000000000000000000000000000000000000000000000000000000000000000000000000000000000000000000000000000000000000000000000000000000000000000000000000000000000000000000000000000000000000000000000000000000000000000000000000000000000000000000000000000000000000000000000000000000000000000000000000000000000000000000000000000000000000000000000000000000000000000000000000000000000000000000000000000000000",
      "type": "0x2",
      "transactionHash": "0xddfe5e78f128c1c672a52999e67a8932ecd60c1935b71c9b1d9e5e4d44ed242b",
      "transactionIndex": "0x12",
      "blockHash": "0x32778b29f5307f6edb29d89a578bc8d491bd748e4dfc3f272cd251359e9c6afb",
      "blockNumber": "0x174c82a",
      "gasUsed": "0x83987",
      "effectiveGasPrice": "0xf4400",
      "from": "0x92bc7d2305ec97e138a5c98f6f5fd69703fe0589",
      "to": null,
      "contractAddress": "0x6f52da580a2d26b987cac8a8f2fdc8d72941af5e",
      "l1BaseFeeScalar": "0x44d",
      "l1BlobBaseFee": "0x1",
      "l1BlobBaseFeeScalar": "0xa118b",
      "l1Fee": "0x7547e53ce",
      "l1GasPrice": "0x3f724563",
      "l1GasUsed": "0x68ee"
    },
    {
      "status": "0x1",
      "cumulativeGasUsed": "0x5c4aa2",
      "logs": [],
      "logsBloom": "0x00000000000000000000000000000000000000000000000000000000000000000000000000000000000000000000000000000000000000000000000000000000000000000000000000000000000000000000000000000000000000000000000000000000000000000000000000000000000000000000000000000000000000000000000000000000000000000000000000000000000000000000000000000000000000000000000000000000000000000000000000000000000000000000000000000000000000000000000000000000000000000000000000000000000000000000000000000000000000000000000000000000000000000000000000000000",
      "type": "0x2",
      "transactionHash": "0x5240aab1e12dbf04f7c8426f5165de8d49e017d00c7defd7c8f2db2c139ebf3b",
      "transactionIndex": "0x16",
      "blockHash": "0x32778b29f5307f6edb29d89a578bc8d491bd748e4dfc3f272cd251359e9c6afb",
      "blockNumber": "0x174c82a",
      "gasUsed": "0x8396f",
      "effectiveGasPrice": "0xf4400",
      "from": "0x92bc7d2305ec97e138a5c98f6f5fd69703fe0589",
      "to": null,
      "contractAddress": "0x951eeb7a777eb4a82c4bea91eff8f173b865bb35",
      "l1BaseFeeScalar": "0x44d",
      "l1BlobBaseFee": "0x1",
      "l1BlobBaseFeeScalar": "0xa118b",
      "l1Fee": "0x7538efc19",
      "l1GasPrice": "0x3f724563",
      "l1GasUsed": "0x68e1"
    },
    {
      "status": "0x1",
      "cumulativeGasUsed": "0x5d54a3",
      "logs": [
        {
          "address": "0xf8d9278af8b9812ab3171b8f812fb4ea13be3181",
          "topics": [
            "0xddf252ad1be2c89b69c2b068fc378daa952ba7f163c4a11628f55a4df523b3ef",
            "0x0000000000000000000000000000000000000000000000000000000000000000",
            "0x00000000000000000000000092bc7d2305ec97e138a5c98f6f5fd69703fe0589"
          ],
          "data": "0x00000000000000000000000000000000000000000000000000093cafac6a8000",
          "blockHash": "0x32778b29f5307f6edb29d89a578bc8d491bd748e4dfc3f272cd251359e9c6afb",
          "blockNumber": "0x174c82a",
          "transactionHash": "0x963cebbcf99956f8dff3517dec35e60c6d44bf5e756eb8bde53fafde757a43a8",
          "transactionIndex": "0x17",
          "logIndex": "0x69",
          "removed": false
        }
      ],
      "logsBloom": "0x00000000000000000000000000000000000000000000000000000000000000000000000000000000000000000000000000000000000000000000000000000000000000000000000000000008000000000000000000000000000000000000000001000000020000000000000000800800000000000000000000000010000000010000000000000000000000000000000000000000000000000000000000000000000000000000040000000000000000000000000000000000000000000000000000000002000000000000000000020000000000000000000000000000000020000000000000000000000000010000000000000000000000000000000000000000",
      "type": "0x2",
      "transactionHash": "0x963cebbcf99956f8dff3517dec35e60c6d44bf5e756eb8bde53fafde757a43a8",
      "transactionIndex": "0x17",
      "blockHash": "0x32778b29f5307f6edb29d89a578bc8d491bd748e4dfc3f272cd251359e9c6afb",
      "blockNumber": "0x174c82a",
      "gasUsed": "0x10a01",
      "effectiveGasPrice": "0xf4400",
      "from": "0x92bc7d2305ec97e138a5c98f6f5fd69703fe0589",
      "to": "0xf8d9278af8b9812ab3171b8f812fb4ea13be3181",
      "contractAddress": null,
      "l1BaseFeeScalar": "0x44d",
      "l1BlobBaseFee": "0x1",
      "l1BlobBaseFeeScalar": "0xa118b",
      "l1Fee": "0x6fc462bb",
      "l1GasPrice": "0x3f724563",
      "l1GasUsed": "0x640"
    },
    {
      "status": "0x1",
      "cumulativeGasUsed": "0x5e5e98",
      "logs": [
        {
          "address": "0x6f52da580a2d26b987cac8a8f2fdc8d72941af5e",
          "topics": [
            "0xddf252ad1be2c89b69c2b068fc378daa952ba7f163c4a11628f55a4df523b3ef",
            "0x0000000000000000000000000000000000000000000000000000000000000000",
            "0x00000000000000000000000092bc7d2305ec97e138a5c98f6f5fd69703fe0589"
          ],
          "data": "0x0000000000000000000000000000000000000000000000000012795f58d50000",
          "blockHash": "0x32778b29f5307f6edb29d89a578bc8d491bd748e4dfc3f272cd251359e9c6afb",
          "blockNumber": "0x174c82a",
          "transactionHash": "0x2735a52546bac931279d20fa97b4128ad50caba457f8c3f37d8bb6f5268f1125",
          "transactionIndex": "0x18",
          "logIndex": "0x6a",
          "removed": false
        }
      ],
      "logsBloom": "0x00000000000000000000000000000000000000000000000000000000000002000000000000000000000000000000000000000000000000000000000000000000000000000000000000000008000000000000000000000000000000000000000001000000020000000100000000000800000000000000000000000010000000000000000000008000000000000000000000000000000000000000000000000000000000000000040000000000000000000000000000000000000000000000000000000002000000000000000000000000000000000000000000000000000020000000000000000000000000010000000000000000000000000000000000000000",
      "type": "0x2",
      "transactionHash": "0x2735a52546bac931279d20fa97b4128ad50caba457f8c3f37d8bb6f5268f1125",
      "transactionIndex": "0x18",
      "blockHash": "0x32778b29f5307f6edb29d89a578bc8d491bd748e4dfc3f272cd251359e9c6afb",
      "blockNumber": "0x174c82a",
      "gasUsed": "0x109f5",
      "effectiveGasPrice": "0xf4400",
      "from": "0x92bc7d2305ec97e138a5c98f6f5fd69703fe0589",
      "to": "0x6f52da580a2d26b987cac8a8f2fdc8d72941af5e",
      "contractAddress": null,
      "l1BaseFeeScalar": "0x44d",
      "l1BlobBaseFee": "0x1",
      "l1BlobBaseFeeScalar": "0xa118b",
      "l1Fee": "0x6fc462bb",
      "l1GasPrice": "0x3f724563",
      "l1GasUsed": "0x640"
    },
    {
      "status": "0x1",
      "cumulativeGasUsed": "0x5f6899",
      "logs": [
        {
          "address": "0x951eeb7a777eb4a82c4bea91eff8f173b865bb35",
          "topics": [
            "0xddf252ad1be2c89b69c2b068fc378daa952ba7f163c4a11628f55a4df523b3ef",
            "0x0000000000000000000000000000000000000000000000000000000000000000",
            "0x00000000000000000000000092bc7d2305ec97e138a5c98f6f5fd69703fe0589"
          ],
          "data": "0x00000000000000000000000000000000000000000000000000093cafac6a8000",
          "blockHash": "0x32778b29f5307f6edb29d89a578bc8d491bd748e4dfc3f272cd251359e9c6afb",
          "blockNumber": "0x174c82a",
          "transactionHash": "0x4411edf23de0487883ba4b439b8c059329e58585bd5a3020593213f0548cce6e",
          "transactionIndex": "0x19",
          "logIndex": "0x6b",
          "removed": false
        }
      ],
      "logsBloom": "0x00000000000000000000000000000000000000000000000000000000000000000000000000000000000000000000000000000000000000000000000000000000000000000000000000000008000000000000000000000000000000000000000001000000020000000000000000000800000000000000000000000010000000000000000000000000000000000000000000000000000000000000000000010000000000000000040000000000000000000000000000000000000000000000000000000002000000000000000000000000000000000000000000080000000020000000000000000000100000010000000000000000000000000000000000000000",
      "type": "0x2",
      "transactionHash": "0x4411edf23de0487883ba4b439b8c059329e58585bd5a3020593213f0548cce6e",
      "transactionIndex": "0x19",
      "blockHash": "0x32778b29f5307f6edb29d89a578bc8d491bd748e4dfc3f272cd251359e9c6afb",
      "blockNumber": "0x174c82a",
      "gasUsed": "0x10a01",
      "effectiveGasPrice": "0xf4400",
      "from": "0x92bc7d2305ec97e138a5c98f6f5fd69703fe0589",
      "to": "0x951eeb7a777eb4a82c4bea91eff8f173b865bb35",
      "contractAddress": null,
      "l1BaseFeeScalar": "0x44d",
      "l1BlobBaseFee": "0x1",
      "l1BlobBaseFeeScalar": "0xa118b",
      "l1Fee": "0x6fc462bb",
      "l1GasPrice": "0x3f724563",
      "l1GasUsed": "0x640"
    },
    {
      "status": "0x1",
      "cumulativeGasUsed": "0x61746b",
      "logs": [],
      "logsBloom": "0x00000000000000000000000000000000000000000000000000000000000000000000000000000000000000000000000000000000000000000000000000000000000000000000000000000000000000000000000000000000000000000000000000000000000000000000000000000000000000000000000000000000000000000000000000000000000000000000000000000000000000000000000000000000000000000000000000000000000000000000000000000000000000000000000000000000000000000000000000000000000000000000000000000000000000000000000000000000000000000000000000000000000000000000000000000000",
      "type": "0x2",
      "transactionHash": "0xf2fd0a18909ec8ac216fe857c149d61bb7b778bb72bc49ed23d1436c3b2765be",
      "transactionIndex": "0x1a",
      "blockHash": "0x32778b29f5307f6edb29d89a578bc8d491bd748e4dfc3f272cd251359e9c6afb",
      "blockNumber": "0x174c82a",
      "gasUsed": "0x20bd2",
      "effectiveGasPrice": "0xf4400",
      "from": "0x92bc7d2305ec97e138a5c98f6f5fd69703fe0589",
      "to": null,
      "contractAddress": "0x708a6d3c55d7ff0784b3c16ab248ea7e4bda1471",
      "l1BaseFeeScalar": "0x44d",
      "l1BlobBaseFee": "0x1",
      "l1BlobBaseFeeScalar": "0xa118b",
      "l1Fee": "0x122d9446e",
      "l1GasPrice": "0x3f724563",
      "l1GasUsed": "0x1043"
    },
    {
      "status": "0x1",
      "cumulativeGasUsed": "0x63803d",
      "logs": [],
      "logsBloom": "0x00000000000000000000000000000000000000000000000000000000000000000000000000000000000000000000000000000000000000000000000000000000000000000000000000000000000000000000000000000000000000000000000000000000000000000000000000000000000000000000000000000000000000000000000000000000000000000000000000000000000000000000000000000000000000000000000000000000000000000000000000000000000000000000000000000000000000000000000000000000000000000000000000000000000000000000000000000000000000000000000000000000000000000000000000000000",
      "type": "0x2",
      "transactionHash": "0xf808a2bbdb5422be7ddb9e423f21ea8ecf7788682d46e45ea5fb3cddbc038575",
      "transactionIndex": "0x1b",
      "blockHash": "0x32778b29f5307f6edb29d89a578bc8d491bd748e4dfc3f272cd251359e9c6afb",
      "blockNumber": "0x174c82a",
      "gasUsed": "0x20bd2",
      "effectiveGasPrice": "0xf4400",
      "from": "0x92bc7d2305ec97e138a5c98f6f5fd69703fe0589",
      "to": null,
      "contractAddress": "0x54d6af4e0386d89d329987aaf3ddffbfd5fc2e30",
      "l1BaseFeeScalar": "0x44d",
      "l1BlobBaseFee": "0x1",
      "l1BlobBaseFeeScalar": "0xa118b",
      "l1Fee": "0x122d9446e",
      "l1GasPrice": "0x3f724563",
      "l1GasUsed": "0x1043"
    },
    {
      "status": "0x1",
      "cumulativeGasUsed": "0x76dc97",
      "logs": [],
      "logsBloom": "0x00000000000000000000000000000000000000000000000000000000000000000000000000000000000000000000000000000000000000000000000000000000000000000000000000000000000000000000000000000000000000000000000000000000000000000000000000000000000000000000000000000000000000000000000000000000000000000000000000000000000000000000000000000000000000000000000000000000000000000000000000000000000000000000000000000000000000000000000000000000000000000000000000000000000000000000000000000000000000000000000000000000000000000000000000000000",
      "type": "0x2",
      "transactionHash": "0xd338ce4bb4f2f9a18f2a83bb6582d27cafb08dcbe06ce29d6ccf7b7e85d553ed",
      "transactionIndex": "0x20",
      "blockHash": "0x32778b29f5307f6edb29d89a578bc8d491bd748e4dfc3f272cd251359e9c6afb",
      "blockNumber": "0x174c82a",
      "gasUsed": "0x20bd2",
      "effectiveGasPrice": "0xf4400",
      "from": "0x92bc7d2305ec97e138a5c98f6f5fd69703fe0589",
      "to": null,
      "contractAddress": "0xed8df8c1515011e65309373ad8a5b7a8eca00e5a",
      "l1BaseFeeScalar": "0x44d",
      "l1BlobBaseFee": "0x1",
      "l1BlobBaseFeeScalar": "0xa118b",
      "l1Fee": "0x122d9446e",
      "l1GasPrice": "0x3f724563",
      "l1GasUsed": "0x1043"
    },
    {
      "status": "0x1",
      "cumulativeGasUsed": "0xaca2ab",
      "logs": [
        {
          "address": "0xb0c9e004c0f0e73d1970dec49957bd4dd4b85222",
          "topics": [
            "0x1cf3b03a6cf19fa2baba4df148e9dcabedea7f8a5c07840e207e5c089be95d3e",
            "0x000000000000000000000000ab6f89d9561dd9831c0f2740390ec7393e10ae69"
          ],
          "data": "0x",
          "blockHash": "0x32778b29f5307f6edb29d89a578bc8d491bd748e4dfc3f272cd251359e9c6afb",
          "blockNumber": "0x174c82a",
          "transactionHash": "0x7b97d99ce0e1c545d54ffb619a8b68194ae343e68739f3bcbabe4ac93a5fad0d",
          "transactionIndex": "0x2b",
          "logIndex": "0xa8",
          "removed": false
        },
        {
          "address": "0xb0c9e004c0f0e73d1970dec49957bd4dd4b85222",
          "topics": [
            "0x8be0079c531659141344cd1fd0a4f28419497f9722a3daafe3b4186f6b6457e0",
            "0x0000000000000000000000000000000000000000000000000000000000000000",
            "0x00000000000000000000000085f17a7eb2a5b9c76530b44fd33fbcf59110a0d8"
          ],
          "data": "0x",
          "blockHash": "0x32778b29f5307f6edb29d89a578bc8d491bd748e4dfc3f272cd251359e9c6afb",
          "blockNumber": "0x174c82a",
          "transactionHash": "0x7b97d99ce0e1c545d54ffb619a8b68194ae343e68739f3bcbabe4ac93a5fad0d",
          "transactionIndex": "0x2b",
          "logIndex": "0xa9",
          "removed": false
        },
        {
          "address": "0xb0c9e004c0f0e73d1970dec49957bd4dd4b85222",
          "topics": [
            "0xc7f505b2f371ae2175ee4913f4499e1f2633a7b5936321eed1cdaeb6115181d2"
          ],
          "data": "0x0000000000000000000000000000000000000000000000000000000000000001",
          "blockHash": "0x32778b29f5307f6edb29d89a578bc8d491bd748e4dfc3f272cd251359e9c6afb",
          "blockNumber": "0x174c82a",
          "transactionHash": "0x7b97d99ce0e1c545d54ffb619a8b68194ae343e68739f3bcbabe4ac93a5fad0d",
          "transactionIndex": "0x2b",
          "logIndex": "0xaa",
          "removed": false
        },
        {
          "address": "0xf3f45d91624b6c3ae4c78ee69b490d0b508e1685",
          "topics": [
            "0x1cf3b03a6cf19fa2baba4df148e9dcabedea7f8a5c07840e207e5c089be95d3e",
            "0x000000000000000000000000aa9f9a11a613f73829e5e16c53ed661caca8520a"
          ],
          "data": "0x",
          "blockHash": "0x32778b29f5307f6edb29d89a578bc8d491bd748e4dfc3f272cd251359e9c6afb",
          "blockNumber": "0x174c82a",
          "transactionHash": "0x7b97d99ce0e1c545d54ffb619a8b68194ae343e68739f3bcbabe4ac93a5fad0d",
          "transactionIndex": "0x2b",
          "logIndex": "0xab",
          "removed": false
        },
        {
          "address": "0xf3f45d91624b6c3ae4c78ee69b490d0b508e1685",
          "topics": [
            "0x8be0079c531659141344cd1fd0a4f28419497f9722a3daafe3b4186f6b6457e0",
            "0x0000000000000000000000000000000000000000000000000000000000000000",
            "0x00000000000000000000000085f17a7eb2a5b9c76530b44fd33fbcf59110a0d8"
          ],
          "data": "0x",
          "blockHash": "0x32778b29f5307f6edb29d89a578bc8d491bd748e4dfc3f272cd251359e9c6afb",
          "blockNumber": "0x174c82a",
          "transactionHash": "0x7b97d99ce0e1c545d54ffb619a8b68194ae343e68739f3bcbabe4ac93a5fad0d",
          "transactionIndex": "0x2b",
          "logIndex": "0xac",
          "removed": false
        },
        {
          "address": "0xf3f45d91624b6c3ae4c78ee69b490d0b508e1685",
          "topics": [
            "0x7a62cf7b9006cf6d98e74e54f87f7921ebbab2259658cb564284f4ce348cfbbe"
          ],
          "data": "0x00000000000000000000000000000000000000000000000000000000000000000000000000000000000000000000000000000000000000000000000000000708",
          "blockHash": "0x32778b29f5307f6edb29d89a578bc8d491bd748e4dfc3f272cd251359e9c6afb",
          "blockNumber": "0x174c82a",
          "transactionHash": "0x7b97d99ce0e1c545d54ffb619a8b68194ae343e68739f3bcbabe4ac93a5fad0d",
          "transactionIndex": "0x2b",
          "logIndex": "0xad",
          "removed": false
        },
        {
          "address": "0xf3f45d91624b6c3ae4c78ee69b490d0b508e1685",
          "topics": [
            "0xc7f505b2f371ae2175ee4913f4499e1f2633a7b5936321eed1cdaeb6115181d2"
          ],
          "data": "0x0000000000000000000000000000000000000000000000000000000000000001",
          "blockHash": "0x32778b29f5307f6edb29d89a578bc8d491bd748e4dfc3f272cd251359e9c6afb",
          "blockNumber": "0x174c82a",
          "transactionHash": "0x7b97d99ce0e1c545d54ffb619a8b68194ae343e68739f3bcbabe4ac93a5fad0d",
          "transactionIndex": "0x2b",
          "logIndex": "0xae",
          "removed": false
        },
        {
          "address": "0xf25b22c175f0029fcd3bf5276f7bc60c5a8100e2",
          "topics": [
            "0x1cf3b03a6cf19fa2baba4df148e9dcabedea7f8a5c07840e207e5c089be95d3e",
            "0x00000000000000000000000083fc837efdbb4e7d18e12cb39ce493ceb70f9778"
          ],
          "data": "0x",
          "blockHash": "0x32778b29f5307f6edb29d89a578bc8d491bd748e4dfc3f272cd251359e9c6afb",
          "blockNumber": "0x174c82a",
          "transactionHash": "0x7b97d99ce0e1c545d54ffb619a8b68194ae343e68739f3bcbabe4ac93a5fad0d",
          "transactionIndex": "0x2b",
          "logIndex": "0xaf",
          "removed": false
        },
        {
          "address": "0xf25b22c175f0029fcd3bf5276f7bc60c5a8100e2",
          "topics": [
            "0x8be0079c531659141344cd1fd0a4f28419497f9722a3daafe3b4186f6b6457e0",
            "0x0000000000000000000000000000000000000000000000000000000000000000",
            "0x00000000000000000000000085f17a7eb2a5b9c76530b44fd33fbcf59110a0d8"
          ],
          "data": "0x",
          "blockHash": "0x32778b29f5307f6edb29d89a578bc8d491bd748e4dfc3f272cd251359e9c6afb",
          "blockNumber": "0x174c82a",
          "transactionHash": "0x7b97d99ce0e1c545d54ffb619a8b68194ae343e68739f3bcbabe4ac93a5fad0d",
          "transactionIndex": "0x2b",
          "logIndex": "0xb0",
          "removed": false
        },
        {
          "address": "0xf25b22c175f0029fcd3bf5276f7bc60c5a8100e2",
          "topics": [
            "0xc7f505b2f371ae2175ee4913f4499e1f2633a7b5936321eed1cdaeb6115181d2"
          ],
          "data": "0x0000000000000000000000000000000000000000000000000000000000000001",
          "blockHash": "0x32778b29f5307f6edb29d89a578bc8d491bd748e4dfc3f272cd251359e9c6afb",
          "blockNumber": "0x174c82a",
          "transactionHash": "0x7b97d99ce0e1c545d54ffb619a8b68194ae343e68739f3bcbabe4ac93a5fad0d",
          "transactionIndex": "0x2b",
          "logIndex": "0xb1",
          "removed": false
        },
        {
          "address": "0xf25b22c175f0029fcd3bf5276f7bc60c5a8100e2",
          "topics": [
            "0x8be0079c531659141344cd1fd0a4f28419497f9722a3daafe3b4186f6b6457e0",
            "0x00000000000000000000000085f17a7eb2a5b9c76530b44fd33fbcf59110a0d8",
            "0x00000000000000000000000092bc7d2305ec97e138a5c98f6f5fd69703fe0589"
          ],
          "data": "0x",
          "blockHash": "0x32778b29f5307f6edb29d89a578bc8d491bd748e4dfc3f272cd251359e9c6afb",
          "blockNumber": "0x174c82a",
          "transactionHash": "0x7b97d99ce0e1c545d54ffb619a8b68194ae343e68739f3bcbabe4ac93a5fad0d",
          "transactionIndex": "0x2b",
          "logIndex": "0xb2",
          "removed": false
        },
        {
          "address": "0xb0c9e004c0f0e73d1970dec49957bd4dd4b85222",
          "topics": [
            "0x73cca62ab1b520c9715bf4e6c71e3e518c754e7148f65102f43289a7df0efea6",
            "0x000000000000000000000000f25b22c175f0029fcd3bf5276f7bc60c5a8100e2"
          ],
          "data": "0x",
          "blockHash": "0x32778b29f5307f6edb29d89a578bc8d491bd748e4dfc3f272cd251359e9c6afb",
          "blockNumber": "0x174c82a",
          "transactionHash": "0x7b97d99ce0e1c545d54ffb619a8b68194ae343e68739f3bcbabe4ac93a5fad0d",
          "transactionIndex": "0x2b",
          "logIndex": "0xb3",
          "removed": false
        },
        {
          "address": "0xb0c9e004c0f0e73d1970dec49957bd4dd4b85222",
          "topics": [
            "0x8be0079c531659141344cd1fd0a4f28419497f9722a3daafe3b4186f6b6457e0",
            "0x00000000000000000000000085f17a7eb2a5b9c76530b44fd33fbcf59110a0d8",
            "0x00000000000000000000000092bc7d2305ec97e138a5c98f6f5fd69703fe0589"
          ],
          "data": "0x",
          "blockHash": "0x32778b29f5307f6edb29d89a578bc8d491bd748e4dfc3f272cd251359e9c6afb",
          "blockNumber": "0x174c82a",
          "transactionHash": "0x7b97d99ce0e1c545d54ffb619a8b68194ae343e68739f3bcbabe4ac93a5fad0d",
          "transactionIndex": "0x2b",
          "logIndex": "0xb4",
          "removed": false
        },
        {
          "address": "0xf3f45d91624b6c3ae4c78ee69b490d0b508e1685",
          "topics": [
            "0x8be0079c531659141344cd1fd0a4f28419497f9722a3daafe3b4186f6b6457e0",
            "0x00000000000000000000000085f17a7eb2a5b9c76530b44fd33fbcf59110a0d8",
            "0x00000000000000000000000092bc7d2305ec97e138a5c98f6f5fd69703fe0589"
          ],
          "data": "0x",
          "blockHash": "0x32778b29f5307f6edb29d89a578bc8d491bd748e4dfc3f272cd251359e9c6afb",
          "blockNumber": "0x174c82a",
          "transactionHash": "0x7b97d99ce0e1c545d54ffb619a8b68194ae343e68739f3bcbabe4ac93a5fad0d",
          "transactionIndex": "0x2b",
          "logIndex": "0xb5",
          "removed": false
        },
        {
          "address": "0x7055e80d95dddd7eb7104735d7e4e017ee18e7f2",
          "topics": [
            "0x1cf3b03a6cf19fa2baba4df148e9dcabedea7f8a5c07840e207e5c089be95d3e",
            "0x000000000000000000000000669b2c27928f6f6991b39629140abd5af6a2394e"
          ],
          "data": "0x",
          "blockHash": "0x32778b29f5307f6edb29d89a578bc8d491bd748e4dfc3f272cd251359e9c6afb",
          "blockNumber": "0x174c82a",
          "transactionHash": "0x7b97d99ce0e1c545d54ffb619a8b68194ae343e68739f3bcbabe4ac93a5fad0d",
          "transactionIndex": "0x2b",
          "logIndex": "0xb6",
          "removed": false
        },
        {
          "address": "0x7055e80d95dddd7eb7104735d7e4e017ee18e7f2",
          "topics": [
            "0xc7f505b2f371ae2175ee4913f4499e1f2633a7b5936321eed1cdaeb6115181d2"
          ],
          "data": "0x0000000000000000000000000000000000000000000000000000000000000001",
          "blockHash": "0x32778b29f5307f6edb29d89a578bc8d491bd748e4dfc3f272cd251359e9c6afb",
          "blockNumber": "0x174c82a",
          "transactionHash": "0x7b97d99ce0e1c545d54ffb619a8b68194ae343e68739f3bcbabe4ac93a5fad0d",
          "transactionIndex": "0x2b",
          "logIndex": "0xb7",
          "removed": false
        },
        {
          "address": "0x85f17a7eb2a5b9c76530b44fd33fbcf59110a0d8",
          "topics": [
            "0x55b6e041bb1679bf2b32c9252ad372f3459868b982e77a0ae577d59c947e3757"
          ],
          "data": "0x000000000000000000000000b0c9e004c0f0e73d1970dec49957bd4dd4b85222000000000000000000000000f25b22c175f0029fcd3bf5276f7bc60c5a8100e20000000000000000000000007055e80d95dddd7eb7104735d7e4e017ee18e7f2000000000000000000000000f3f45d91624b6c3ae4c78ee69b490d0b508e1685",
          "blockHash": "0x32778b29f5307f6edb29d89a578bc8d491bd748e4dfc3f272cd251359e9c6afb",
          "blockNumber": "0x174c82a",
          "transactionHash": "0x7b97d99ce0e1c545d54ffb619a8b68194ae343e68739f3bcbabe4ac93a5fad0d",
          "transactionIndex": "0x2b",
          "logIndex": "0xb8",
          "removed": false
        }
      ],
      "logsBloom": "0x1420000000c000400000000000000000000000000001000040802000000000000000000000000000000400000000000009100000000000000000000000000000000000100000000000000004221000001001000000000040000000000000000001000000028000040000000010010800020000000000000000000000000000402000000000000000080800000000080000000000000090000000000000000000000010000000040000004000000000000000800000000000000000000040000100000010000000000000000000000000002000000004000000800010000220020000000000000080040000010000000000000000000002000000004000000800",
      "type": "0x2",
      "transactionHash": "0x7b97d99ce0e1c545d54ffb619a8b68194ae343e68739f3bcbabe4ac93a5fad0d",
      "transactionIndex": "0x2b",
      "blockHash": "0x32778b29f5307f6edb29d89a578bc8d491bd748e4dfc3f272cd251359e9c6afb",
      "blockNumber": "0x174c82a",
      "gasUsed": "0x221569",
      "effectiveGasPrice": "0xf4400",
      "from": "0x92bc7d2305ec97e138a5c98f6f5fd69703fe0589",
      "to": "0x85f17a7eb2a5b9c76530b44fd33fbcf59110a0d8",
      "contractAddress": null,
      "l1BaseFeeScalar": "0x44d",
      "l1BlobBaseFee": "0x1",
      "l1BlobBaseFeeScalar": "0xa118b",
      "l1Fee": "0xee7e14d4",
      "l1GasPrice": "0x3f724563",
      "l1GasUsed": "0xd56"
    },
    {
      "status": "0x1",
      "cumulativeGasUsed": "0xad5624",
      "logs": [
        {
          "address": "0xf8d9278af8b9812ab3171b8f812fb4ea13be3181",
          "topics": [
            "0x8c5be1e5ebec7d5bd14f71427d1e84f3dd0314c0f7b2291e5b200ac8c7c3b925",
            "0x00000000000000000000000092bc7d2305ec97e138a5c98f6f5fd69703fe0589",
            "0x000000000000000000000000f25b22c175f0029fcd3bf5276f7bc60c5a8100e2"
          ],
          "data": "0x00000000000000000000000000000000000000000000000000093cafac6a8000",
          "blockHash": "0x32778b29f5307f6edb29d89a578bc8d491bd748e4dfc3f272cd251359e9c6afb",
          "blockNumber": "0x174c82a",
          "transactionHash": "0x82d94e144c9e4d9dce2c971054dd4a17f7827886c40c3176a62eecf0caf1f863",
          "transactionIndex": "0x2c",
          "logIndex": "0xb9",
          "removed": false
        }
      ],
      "logsBloom": "0x00000000000000000000000000000000000000000000000000000000000000000000000000000000000000000000000000000000000000000000000000200000000000000000000000000000000000000000000000000000000000000000000001000000008000000000000000800000000000000000000000000000000000010000000000000000000000000000000000000000000000000000000000000000020000000000040000000000000000000000000000000000000000000000000000000000000000000000000000020000000000000000000000000000000000020010000000000000000000010000000000000000000002000000000000000000",
      "type": "0x2",
      "transactionHash": "0x82d94e144c9e4d9dce2c971054dd4a17f7827886c40c3176a62eecf0caf1f863",
      "transactionIndex": "0x2c",
      "blockHash": "0x32778b29f5307f6edb29d89a578bc8d491bd748e4dfc3f272cd251359e9c6afb",
      "blockNumber": "0x174c82a",
      "gasUsed": "0xb379",
      "effectiveGasPrice": "0xf4400",
      "from": "0x92bc7d2305ec97e138a5c98f6f5fd69703fe0589",
      "to": "0xf8d9278af8b9812ab3171b8f812fb4ea13be3181",
      "contractAddress": null,
      "l1BaseFeeScalar": "0x44d",
      "l1BlobBaseFee": "0x1",
      "l1BlobBaseFeeScalar": "0xa118b",
      "l1Fee": "0x6fc462bb",
      "l1GasPrice": "0x3f724563",
      "l1GasUsed": "0x640"
    },
    {
      "status": "0x1",
      "cumulativeGasUsed": "0xae099d",
      "logs": [
        {
          "address": "0x6f52da580a2d26b987cac8a8f2fdc8d72941af5e",
          "topics": [
            "0x8c5be1e5ebec7d5bd14f71427d1e84f3dd0314c0f7b2291e5b200ac8c7c3b925",
            "0x00000000000000000000000092bc7d2305ec97e138a5c98f6f5fd69703fe0589",
            "0x000000000000000000000000f25b22c175f0029fcd3bf5276f7bc60c5a8100e2"
          ],
          "data": "0x00000000000000000000000000000000000000000000000000093cafac6a8000",
          "blockHash": "0x32778b29f5307f6edb29d89a578bc8d491bd748e4dfc3f272cd251359e9c6afb",
          "blockNumber": "0x174c82a",
          "transactionHash": "0x953767905a438cbb44bebaef3c00b367deab1528ce2e81bf5dc5f4ad54bba8e6",
          "transactionIndex": "0x2d",
          "logIndex": "0xba",
          "removed": false
        }
      ],
      "logsBloom": "0x00000000000000000000000000000000000000000000000000000000000002000000000000000000000000000000000000000000000000000000000000200000000000000000000000000000000000000000000000000000000000000000000001000000008000000100000000000000000000000000000000000000000000000000000000008000000000000000000000000000000000000000000000000000020000000000040000000000000000000000000000000000000000000000000000000000000000000000000000000000000000000000000000000000000000020010000000000000000000010000000000000000000002000000000000000000",
      "type": "0x2",
      "transactionHash": "0x953767905a438cbb44bebaef3c00b367deab1528ce2e81bf5dc5f4ad54bba8e6",
      "transactionIndex": "0x2d",
      "blockHash": "0x32778b29f5307f6edb29d89a578bc8d491bd748e4dfc3f272cd251359e9c6afb",
      "blockNumber": "0x174c82a",
      "gasUsed": "0xb379",
      "effectiveGasPrice": "0xf4400",
      "from": "0x92bc7d2305ec97e138a5c98f6f5fd69703fe0589",
      "to": "0x6f52da580a2d26b987cac8a8f2fdc8d72941af5e",
      "contractAddress": null,
      "l1BaseFeeScalar": "0x44d",
      "l1BlobBaseFee": "0x1",
      "l1BlobBaseFeeScalar": "0xa118b",
      "l1Fee": "0x6fc462bb",
      "l1GasPrice": "0x3f724563",
      "l1GasUsed": "0x640"
    },
    {
      "status": "0x1",
      "cumulativeGasUsed": "0xb40ccc",
      "logs": [
        {
          "address": "0xf8d9278af8b9812ab3171b8f812fb4ea13be3181",
          "topics": [
            "0xddf252ad1be2c89b69c2b068fc378daa952ba7f163c4a11628f55a4df523b3ef",
            "0x00000000000000000000000092bc7d2305ec97e138a5c98f6f5fd69703fe0589",
            "0x000000000000000000000000f25b22c175f0029fcd3bf5276f7bc60c5a8100e2"
          ],
          "data": "0x00000000000000000000000000000000000000000000000000093cafac6a8000",
          "blockHash": "0x32778b29f5307f6edb29d89a578bc8d491bd748e4dfc3f272cd251359e9c6afb",
          "blockNumber": "0x174c82a",
          "transactionHash": "0x87d47547dab32e2904dc24119e38bf738d78563040b73da50adae005fe4e41c5",
          "transactionIndex": "0x2e",
          "logIndex": "0xbb",
          "removed": false
        },
        {
          "address": "0x6f52da580a2d26b987cac8a8f2fdc8d72941af5e",
          "topics": [
            "0xddf252ad1be2c89b69c2b068fc378daa952ba7f163c4a11628f55a4df523b3ef",
            "0x00000000000000000000000092bc7d2305ec97e138a5c98f6f5fd69703fe0589",
            "0x000000000000000000000000f25b22c175f0029fcd3bf5276f7bc60c5a8100e2"
          ],
          "data": "0x00000000000000000000000000000000000000000000000000093cafac6a8000",
          "blockHash": "0x32778b29f5307f6edb29d89a578bc8d491bd748e4dfc3f272cd251359e9c6afb",
          "blockNumber": "0x174c82a",
          "transactionHash": "0x87d47547dab32e2904dc24119e38bf738d78563040b73da50adae005fe4e41c5",
          "transactionIndex": "0x2e",
          "logIndex": "0xbc",
          "removed": false
        },
        {
          "address": "0xb0c9e004c0f0e73d1970dec49957bd4dd4b85222",
          "topics": [
            "0xddf252ad1be2c89b69c2b068fc378daa952ba7f163c4a11628f55a4df523b3ef",
            "0x0000000000000000000000000000000000000000000000000000000000000000",
            "0x00000000000000000000000092bc7d2305ec97e138a5c98f6f5fd69703fe0589"
          ],
          "data": "0x000000000000000000000000000000000000000000000000001365d0209b05cf",
          "blockHash": "0x32778b29f5307f6edb29d89a578bc8d491bd748e4dfc3f272cd251359e9c6afb",
          "blockNumber": "0x174c82a",
          "transactionHash": "0x87d47547dab32e2904dc24119e38bf738d78563040b73da50adae005fe4e41c5",
          "transactionIndex": "0x2e",
          "logIndex": "0xbd",
          "removed": false
        },
        {
          "address": "0xb0c9e004c0f0e73d1970dec49957bd4dd4b85222",
          "topics": [
            "0x9d9c909296d9c674451c0c24f02cb64981eb3b727f99865939192f880a755dcb",
            "0x0000000000000000000000000000000000000000000000000000000000000000",
            "0x00000000000000000000000092bc7d2305ec97e138a5c98f6f5fd69703fe0589"
          ],
          "data": "0x000000000000000000000000000000000000000000000000001365d0209b05cf",
          "blockHash": "0x32778b29f5307f6edb29d89a578bc8d491bd748e4dfc3f272cd251359e9c6afb",
          "blockNumber": "0x174c82a",
          "transactionHash": "0x87d47547dab32e2904dc24119e38bf738d78563040b73da50adae005fe4e41c5",
          "transactionIndex": "0x2e",
          "logIndex": "0xbe",
          "removed": false
        },
        {
          "address": "0xf25b22c175f0029fcd3bf5276f7bc60c5a8100e2",
          "topics": [
            "0xc1258b6f224442b6aa30f317612f0920bb2f76d968200d28d9163ec6aee9ad00",
            "0x00000000000000000000000092bc7d2305ec97e138a5c98f6f5fd69703fe0589"
          ],
          "data": "0x000000000000000000000000000000000000000000000000001365d0209b09b700000000000000000000000000000000000000000000000000000000000000600000000000000000000000000000000000000000000000000000000000000000000000000000000000000000000000000000000000000000000000000000000200000000000000000000000000000000000000000000000000093cafac6a800000000000000000000000000000000000000000000000000000093cafac6a8000",
          "blockHash": "0x32778b29f5307f6edb29d89a578bc8d491bd748e4dfc3f272cd251359e9c6afb",
          "blockNumber": "0x174c82a",
          "transactionHash": "0x87d47547dab32e2904dc24119e38bf738d78563040b73da50adae005fe4e41c5",
          "transactionIndex": "0x2e",
          "logIndex": "0xbf",
          "removed": false
        }
      ],
      "logsBloom": "0x00000000000000000000000000000000000000000200000000002000000002000000000000000000000000000000000008000000000000000000000000000000000200000000000000000008000000000000000000000000000000000000000001000000028000000100008000800800020000000000000000000010000000010000000000008000000000000000000000008000000000800000000000000000000000000000040000000000000000000000800000000000000000000000000000000002000000000000000000020000000000000000000000000010000220020000000000800000000000010000000000000000000002000000000000000000",
      "type": "0x2",
      "transactionHash": "0x87d47547dab32e2904dc24119e38bf738d78563040b73da50adae005fe4e41c5",
      "transactionIndex": "0x2e",
      "blockHash": "0x32778b29f5307f6edb29d89a578bc8d491bd748e4dfc3f272cd251359e9c6afb",
      "blockNumber": "0x174c82a",
      "gasUsed": "0x6032f",
      "effectiveGasPrice": "0xf4400",
      "from": "0x92bc7d2305ec97e138a5c98f6f5fd69703fe0589",
      "to": "0xf25b22c175f0029fcd3bf5276f7bc60c5a8100e2",
      "contractAddress": null,
      "l1BaseFeeScalar": "0x44d",
      "l1BlobBaseFee": "0x1",
      "l1BlobBaseFeeScalar": "0xa118b",
      "l1Fee": "0x6fc462bb",
      "l1GasPrice": "0x3f724563",
      "l1GasUsed": "0x640"
    },
    {
      "status": "0x1",
      "cumulativeGasUsed": "0xd62235",
      "logs": [
        {
          "address": "0x0c982f176fef2be8587670ceb0019137ce9b207c",
          "topics": [
            "0x1cf3b03a6cf19fa2baba4df148e9dcabedea7f8a5c07840e207e5c089be95d3e",
            "0x000000000000000000000000ab6f89d9561dd9831c0f2740390ec7393e10ae69"
          ],
          "data": "0x",
          "blockHash": "0x32778b29f5307f6edb29d89a578bc8d491bd748e4dfc3f272cd251359e9c6afb",
          "blockNumber": "0x174c82a",
          "transactionHash": "0x879e3795df8c1748a5ce05caf20d4ca10de6ee11857bc5ba65d9dce6abcad5f7",
          "transactionIndex": "0x2f",
          "logIndex": "0xc0",
          "removed": false
        },
        {
          "address": "0x0c982f176fef2be8587670ceb0019137ce9b207c",
          "topics": [
            "0x8be0079c531659141344cd1fd0a4f28419497f9722a3daafe3b4186f6b6457e0",
            "0x0000000000000000000000000000000000000000000000000000000000000000",
            "0x00000000000000000000000085f17a7eb2a5b9c76530b44fd33fbcf59110a0d8"
          ],
          "data": "0x",
          "blockHash": "0x32778b29f5307f6edb29d89a578bc8d491bd748e4dfc3f272cd251359e9c6afb",
          "blockNumber": "0x174c82a",
          "transactionHash": "0x879e3795df8c1748a5ce05caf20d4ca10de6ee11857bc5ba65d9dce6abcad5f7",
          "transactionIndex": "0x2f",
          "logIndex": "0xc1",
          "removed": false
        },
        {
          "address": "0x0c982f176fef2be8587670ceb0019137ce9b207c",
          "topics": [
            "0xc7f505b2f371ae2175ee4913f4499e1f2633a7b5936321eed1cdaeb6115181d2"
          ],
          "data": "0x0000000000000000000000000000000000000000000000000000000000000001",
          "blockHash": "0x32778b29f5307f6edb29d89a578bc8d491bd748e4dfc3f272cd251359e9c6afb",
          "blockNumber": "0x174c82a",
          "transactionHash": "0x879e3795df8c1748a5ce05caf20d4ca10de6ee11857bc5ba65d9dce6abcad5f7",
          "transactionIndex": "0x2f",
          "logIndex": "0xc2",
          "removed": false
        },
        {
          "address": "0x0c0d491e99d2de2bb67348548cebcd8bf5a5d034",
          "topics": [
            "0x1cf3b03a6cf19fa2baba4df148e9dcabedea7f8a5c07840e207e5c089be95d3e",
            "0x000000000000000000000000aa9f9a11a613f73829e5e16c53ed661caca8520a"
          ],
          "data": "0x",
          "blockHash": "0x32778b29f5307f6edb29d89a578bc8d491bd748e4dfc3f272cd251359e9c6afb",
          "blockNumber": "0x174c82a",
          "transactionHash": "0x879e3795df8c1748a5ce05caf20d4ca10de6ee11857bc5ba65d9dce6abcad5f7",
          "transactionIndex": "0x2f",
          "logIndex": "0xc3",
          "removed": false
        },
        {
          "address": "0x0c0d491e99d2de2bb67348548cebcd8bf5a5d034",
          "topics": [
            "0x8be0079c531659141344cd1fd0a4f28419497f9722a3daafe3b4186f6b6457e0",
            "0x0000000000000000000000000000000000000000000000000000000000000000",
            "0x00000000000000000000000085f17a7eb2a5b9c76530b44fd33fbcf59110a0d8"
          ],
          "data": "0x",
          "blockHash": "0x32778b29f5307f6edb29d89a578bc8d491bd748e4dfc3f272cd251359e9c6afb",
          "blockNumber": "0x174c82a",
          "transactionHash": "0x879e3795df8c1748a5ce05caf20d4ca10de6ee11857bc5ba65d9dce6abcad5f7",
          "transactionIndex": "0x2f",
          "logIndex": "0xc4",
          "removed": false
        },
        {
          "address": "0x0c0d491e99d2de2bb67348548cebcd8bf5a5d034",
          "topics": [
            "0x7a62cf7b9006cf6d98e74e54f87f7921ebbab2259658cb564284f4ce348cfbbe"
          ],
          "data": "0x00000000000000000000000000000000000000000000000000000000000000000000000000000000000000000000000000000000000000000000000000000708",
          "blockHash": "0x32778b29f5307f6edb29d89a578bc8d491bd748e4dfc3f272cd251359e9c6afb",
          "blockNumber": "0x174c82a",
          "transactionHash": "0x879e3795df8c1748a5ce05caf20d4ca10de6ee11857bc5ba65d9dce6abcad5f7",
          "transactionIndex": "0x2f",
          "logIndex": "0xc5",
          "removed": false
        },
        {
          "address": "0x0c0d491e99d2de2bb67348548cebcd8bf5a5d034",
          "topics": [
            "0xc7f505b2f371ae2175ee4913f4499e1f2633a7b5936321eed1cdaeb6115181d2"
          ],
          "data": "0x0000000000000000000000000000000000000000000000000000000000000001",
          "blockHash": "0x32778b29f5307f6edb29d89a578bc8d491bd748e4dfc3f272cd251359e9c6afb",
          "blockNumber": "0x174c82a",
          "transactionHash": "0x879e3795df8c1748a5ce05caf20d4ca10de6ee11857bc5ba65d9dce6abcad5f7",
          "transactionIndex": "0x2f",
          "logIndex": "0xc6",
          "removed": false
        },
        {
          "address": "0x295d678109a0abb2ab936095899c72087e46eb9f",
          "topics": [
            "0x1cf3b03a6cf19fa2baba4df148e9dcabedea7f8a5c07840e207e5c089be95d3e",
            "0x00000000000000000000000083fc837efdbb4e7d18e12cb39ce493ceb70f9778"
          ],
          "data": "0x",
          "blockHash": "0x32778b29f5307f6edb29d89a578bc8d491bd748e4dfc3f272cd251359e9c6afb",
          "blockNumber": "0x174c82a",
          "transactionHash": "0x879e3795df8c1748a5ce05caf20d4ca10de6ee11857bc5ba65d9dce6abcad5f7",
          "transactionIndex": "0x2f",
          "logIndex": "0xc7",
          "removed": false
        },
        {
          "address": "0x295d678109a0abb2ab936095899c72087e46eb9f",
          "topics": [
            "0x8be0079c531659141344cd1fd0a4f28419497f9722a3daafe3b4186f6b6457e0",
            "0x0000000000000000000000000000000000000000000000000000000000000000",
            "0x00000000000000000000000085f17a7eb2a5b9c76530b44fd33fbcf59110a0d8"
          ],
          "data": "0x",
          "blockHash": "0x32778b29f5307f6edb29d89a578bc8d491bd748e4dfc3f272cd251359e9c6afb",
          "blockNumber": "0x174c82a",
          "transactionHash": "0x879e3795df8c1748a5ce05caf20d4ca10de6ee11857bc5ba65d9dce6abcad5f7",
          "transactionIndex": "0x2f",
          "logIndex": "0xc8",
          "removed": false
        },
        {
          "address": "0x295d678109a0abb2ab936095899c72087e46eb9f",
          "topics": [
            "0xc7f505b2f371ae2175ee4913f4499e1f2633a7b5936321eed1cdaeb6115181d2"
          ],
          "data": "0x0000000000000000000000000000000000000000000000000000000000000001",
          "blockHash": "0x32778b29f5307f6edb29d89a578bc8d491bd748e4dfc3f272cd251359e9c6afb",
          "blockNumber": "0x174c82a",
          "transactionHash": "0x879e3795df8c1748a5ce05caf20d4ca10de6ee11857bc5ba65d9dce6abcad5f7",
          "transactionIndex": "0x2f",
          "logIndex": "0xc9",
          "removed": false
        },
        {
          "address": "0x295d678109a0abb2ab936095899c72087e46eb9f",
          "topics": [
            "0x8be0079c531659141344cd1fd0a4f28419497f9722a3daafe3b4186f6b6457e0",
            "0x00000000000000000000000085f17a7eb2a5b9c76530b44fd33fbcf59110a0d8",
            "0x00000000000000000000000092bc7d2305ec97e138a5c98f6f5fd69703fe0589"
          ],
          "data": "0x",
          "blockHash": "0x32778b29f5307f6edb29d89a578bc8d491bd748e4dfc3f272cd251359e9c6afb",
          "blockNumber": "0x174c82a",
          "transactionHash": "0x879e3795df8c1748a5ce05caf20d4ca10de6ee11857bc5ba65d9dce6abcad5f7",
          "transactionIndex": "0x2f",
          "logIndex": "0xca",
          "removed": false
        },
        {
          "address": "0x0c982f176fef2be8587670ceb0019137ce9b207c",
          "topics": [
            "0x73cca62ab1b520c9715bf4e6c71e3e518c754e7148f65102f43289a7df0efea6",
            "0x000000000000000000000000295d678109a0abb2ab936095899c72087e46eb9f"
          ],
          "data": "0x",
          "blockHash": "0x32778b29f5307f6edb29d89a578bc8d491bd748e4dfc3f272cd251359e9c6afb",
          "blockNumber": "0x174c82a",
          "transactionHash": "0x879e3795df8c1748a5ce05caf20d4ca10de6ee11857bc5ba65d9dce6abcad5f7",
          "transactionIndex": "0x2f",
          "logIndex": "0xcb",
          "removed": false
        },
        {
          "address": "0x0c982f176fef2be8587670ceb0019137ce9b207c",
          "topics": [
            "0x8be0079c531659141344cd1fd0a4f28419497f9722a3daafe3b4186f6b6457e0",
            "0x00000000000000000000000085f17a7eb2a5b9c76530b44fd33fbcf59110a0d8",
            "0x00000000000000000000000092bc7d2305ec97e138a5c98f6f5fd69703fe0589"
          ],
          "data": "0x",
          "blockHash": "0x32778b29f5307f6edb29d89a578bc8d491bd748e4dfc3f272cd251359e9c6afb",
          "blockNumber": "0x174c82a",
          "transactionHash": "0x879e3795df8c1748a5ce05caf20d4ca10de6ee11857bc5ba65d9dce6abcad5f7",
          "transactionIndex": "0x2f",
          "logIndex": "0xcc",
          "removed": false
        },
        {
          "address": "0x0c0d491e99d2de2bb67348548cebcd8bf5a5d034",
          "topics": [
            "0x8be0079c531659141344cd1fd0a4f28419497f9722a3daafe3b4186f6b6457e0",
            "0x00000000000000000000000085f17a7eb2a5b9c76530b44fd33fbcf59110a0d8",
            "0x00000000000000000000000092bc7d2305ec97e138a5c98f6f5fd69703fe0589"
          ],
          "data": "0x",
          "blockHash": "0x32778b29f5307f6edb29d89a578bc8d491bd748e4dfc3f272cd251359e9c6afb",
          "blockNumber": "0x174c82a",
          "transactionHash": "0x879e3795df8c1748a5ce05caf20d4ca10de6ee11857bc5ba65d9dce6abcad5f7",
          "transactionIndex": "0x2f",
          "logIndex": "0xcd",
          "removed": false
        },
        {
          "address": "0x145f9a3c30e3f608ff92b49879f5f531ea8e71ac",
          "topics": [
            "0x1cf3b03a6cf19fa2baba4df148e9dcabedea7f8a5c07840e207e5c089be95d3e",
            "0x000000000000000000000000669b2c27928f6f6991b39629140abd5af6a2394e"
          ],
          "data": "0x",
          "blockHash": "0x32778b29f5307f6edb29d89a578bc8d491bd748e4dfc3f272cd251359e9c6afb",
          "blockNumber": "0x174c82a",
          "transactionHash": "0x879e3795df8c1748a5ce05caf20d4ca10de6ee11857bc5ba65d9dce6abcad5f7",
          "transactionIndex": "0x2f",
          "logIndex": "0xce",
          "removed": false
        },
        {
          "address": "0x145f9a3c30e3f608ff92b49879f5f531ea8e71ac",
          "topics": [
            "0xc7f505b2f371ae2175ee4913f4499e1f2633a7b5936321eed1cdaeb6115181d2"
          ],
          "data": "0x0000000000000000000000000000000000000000000000000000000000000001",
          "blockHash": "0x32778b29f5307f6edb29d89a578bc8d491bd748e4dfc3f272cd251359e9c6afb",
          "blockNumber": "0x174c82a",
          "transactionHash": "0x879e3795df8c1748a5ce05caf20d4ca10de6ee11857bc5ba65d9dce6abcad5f7",
          "transactionIndex": "0x2f",
          "logIndex": "0xcf",
          "removed": false
        },
        {
          "address": "0x85f17a7eb2a5b9c76530b44fd33fbcf59110a0d8",
          "topics": [
            "0x55b6e041bb1679bf2b32c9252ad372f3459868b982e77a0ae577d59c947e3757"
          ],
          "data": "0x0000000000000000000000000c982f176fef2be8587670ceb0019137ce9b207c000000000000000000000000295d678109a0abb2ab936095899c72087e46eb9f000000000000000000000000145f9a3c30e3f608ff92b49879f5f531ea8e71ac0000000000000000000000000c0d491e99d2de2bb67348548cebcd8bf5a5d034",
          "blockHash": "0x32778b29f5307f6edb29d89a578bc8d491bd748e4dfc3f272cd251359e9c6afb",
          "blockNumber": "0x174c82a",
          "transactionHash": "0x879e3795df8c1748a5ce05caf20d4ca10de6ee11857bc5ba65d9dce6abcad5f7",
          "transactionIndex": "0x2f",
          "logIndex": "0xd0",
          "removed": false
        }
      ],
      "logsBloom": "0x0420000000c000400000000000000000000000000001000040800000000000000000000000000000000000000000000001100000100000400000000000000000000000100000000000000004221000001401020000000040000000000004000001000800020000000000000010000800000000000000000000000000000000410000000000000000080800000000080000000000000090000008000000000000001000000000040010005000000000000000000000000000000000000040000100000010000000000010000000000000102000000004000000800000000020000000000000000080040800010004000000000000000000000000004000000800",
      "type": "0x2",
      "transactionHash": "0x879e3795df8c1748a5ce05caf20d4ca10de6ee11857bc5ba65d9dce6abcad5f7",
      "transactionIndex": "0x2f",
      "blockHash": "0x32778b29f5307f6edb29d89a578bc8d491bd748e4dfc3f272cd251359e9c6afb",
      "blockNumber": "0x174c82a",
      "gasUsed": "0x221569",
      "effectiveGasPrice": "0xf4400",
      "from": "0x92bc7d2305ec97e138a5c98f6f5fd69703fe0589",
      "to": "0x85f17a7eb2a5b9c76530b44fd33fbcf59110a0d8",
      "contractAddress": null,
      "l1BaseFeeScalar": "0x44d",
      "l1BlobBaseFee": "0x1",
      "l1BlobBaseFeeScalar": "0xa118b",
      "l1Fee": "0xf14c1bf3",
      "l1GasPrice": "0x3f724563",
      "l1GasUsed": "0xd7e"
    },
    {
      "status": "0x1",
      "cumulativeGasUsed": "0xd6d5ba",
      "logs": [
        {
          "address": "0x6f52da580a2d26b987cac8a8f2fdc8d72941af5e",
          "topics": [
            "0x8c5be1e5ebec7d5bd14f71427d1e84f3dd0314c0f7b2291e5b200ac8c7c3b925",
            "0x00000000000000000000000092bc7d2305ec97e138a5c98f6f5fd69703fe0589",
            "0x000000000000000000000000295d678109a0abb2ab936095899c72087e46eb9f"
          ],
          "data": "0x00000000000000000000000000000000000000000000000000093cafac6a8000",
          "blockHash": "0x32778b29f5307f6edb29d89a578bc8d491bd748e4dfc3f272cd251359e9c6afb",
          "blockNumber": "0x174c82a",
          "transactionHash": "0xb20fb5f2e6bc41b2172ab8c4b6879d1ff2268fc3a72aae3211a2b23c570671bc",
          "transactionIndex": "0x30",
          "logIndex": "0xd1",
          "removed": false
        }
      ],
      "logsBloom": "0x00000000000000000000000000000000000000000000000000000000000002000000000000000000000000000000000000000000100000400000000000200000000000000000000000000000000000000000000000000000000000000000000001000800000000000100000000000000000000000000000000000000000000000000000000008000000000000000000000000000000000000000000000000000020000000000040000000000000000000000000000000000000000000000000000000000000000000000000000000000000000000000000000000000000000000010000000000000000000010000000000000000000000000000000000000000",
      "type": "0x2",
      "transactionHash": "0xb20fb5f2e6bc41b2172ab8c4b6879d1ff2268fc3a72aae3211a2b23c570671bc",
      "transactionIndex": "0x30",
      "blockHash": "0x32778b29f5307f6edb29d89a578bc8d491bd748e4dfc3f272cd251359e9c6afb",
      "blockNumber": "0x174c82a",
      "gasUsed": "0xb385",
      "effectiveGasPrice": "0xf4400",
      "from": "0x92bc7d2305ec97e138a5c98f6f5fd69703fe0589",
      "to": "0x6f52da580a2d26b987cac8a8f2fdc8d72941af5e",
      "contractAddress": null,
      "l1BaseFeeScalar": "0x44d",
      "l1BlobBaseFee": "0x1",
      "l1BlobBaseFeeScalar": "0xa118b",
      "l1Fee": "0x6fc462bb",
      "l1GasPrice": "0x3f724563",
      "l1GasUsed": "0x640"
    },
    {
      "status": "0x1",
      "cumulativeGasUsed": "0xe50973",
      "logs": [
        {
          "address": "0x951eeb7a777eb4a82c4bea91eff8f173b865bb35",
          "topics": [
            "0x8c5be1e5ebec7d5bd14f71427d1e84f3dd0314c0f7b2291e5b200ac8c7c3b925",
            "0x00000000000000000000000092bc7d2305ec97e138a5c98f6f5fd69703fe0589",
            "0x000000000000000000000000295d678109a0abb2ab936095899c72087e46eb9f"
          ],
          "data": "0x00000000000000000000000000000000000000000000000000093cafac6a8000",
          "blockHash": "0x32778b29f5307f6edb29d89a578bc8d491bd748e4dfc3f272cd251359e9c6afb",
          "blockNumber": "0x174c82a",
          "transactionHash": "0xd9bf3f67c97cd015468700a864d9e75bc94706a25bf2acb4c95dbda190c095ac",
          "transactionIndex": "0x37",
          "logIndex": "0xe9",
          "removed": false
        }
      ],
      "logsBloom": "0x00000000000000000000000000000000000000000000000000000000000000000000000000000000000000000000000000000000100000400000000000200000000000000000000000000000000000000000000000000000000000000000000001000800000000000000000000000000000000000000000000000000000000000000000000000000000000000000000000000000000000000000000000010000020000000000040000000000000000000000000000000000000000000000000000000000000000000000000000000000000000000000000000080000000000000010000000000000100000010000000000000000000000000000000000000000",
      "type": "0x2",
      "transactionHash": "0xd9bf3f67c97cd015468700a864d9e75bc94706a25bf2acb4c95dbda190c095ac",
      "transactionIndex": "0x37",
      "blockHash": "0x32778b29f5307f6edb29d89a578bc8d491bd748e4dfc3f272cd251359e9c6afb",
      "blockNumber": "0x174c82a",
      "gasUsed": "0xb385",
      "effectiveGasPrice": "0xf4400",
      "from": "0x92bc7d2305ec97e138a5c98f6f5fd69703fe0589",
      "to": "0x951eeb7a777eb4a82c4bea91eff8f173b865bb35",
      "contractAddress": null,
      "l1BaseFeeScalar": "0x44d",
      "l1BlobBaseFee": "0x1",
      "l1BlobBaseFeeScalar": "0xa118b",
      "l1Fee": "0x6fc462bb",
      "l1GasPrice": "0x3f724563",
      "l1GasUsed": "0x640"
    },
    {
      "status": "0x1",
      "cumulativeGasUsed": "0x23027d",
      "logs": [
        {
          "address": "0x6f52da580a2d26b987cac8a8f2fdc8d72941af5e",
          "topics": [
            "0xddf252ad1be2c89b69c2b068fc378daa952ba7f163c4a11628f55a4df523b3ef",
            "0x00000000000000000000000092bc7d2305ec97e138a5c98f6f5fd69703fe0589",
            "0x000000000000000000000000295d678109a0abb2ab936095899c72087e46eb9f"
          ],
          "data": "0x00000000000000000000000000000000000000000000000000093cafac6a8000",
          "blockHash": "0x503aa8032c669a5fc671d3edb33e7a07fbf83a3d12c00365efa82bf87ff74eda",
          "blockNumber": "0x174c86a",
          "transactionHash": "0x0eef53962d58f3c0d606c5852a0850a18617ab92f1fb7ff6da2e0e4e1fa0b8ad",
          "transactionIndex": "0xe",
          "logIndex": "0xa",
          "removed": false
        },
        {
          "address": "0x951eeb7a777eb4a82c4bea91eff8f173b865bb35",
          "topics": [
            "0xddf252ad1be2c89b69c2b068fc378daa952ba7f163c4a11628f55a4df523b3ef",
            "0x00000000000000000000000092bc7d2305ec97e138a5c98f6f5fd69703fe0589",
            "0x000000000000000000000000295d678109a0abb2ab936095899c72087e46eb9f"
          ],
          "data": "0x00000000000000000000000000000000000000000000000000093cafac6a8000",
          "blockHash": "0x503aa8032c669a5fc671d3edb33e7a07fbf83a3d12c00365efa82bf87ff74eda",
          "blockNumber": "0x174c86a",
          "transactionHash": "0x0eef53962d58f3c0d606c5852a0850a18617ab92f1fb7ff6da2e0e4e1fa0b8ad",
          "transactionIndex": "0xe",
          "logIndex": "0xb",
          "removed": false
        },
        {
          "address": "0x0c982f176fef2be8587670ceb0019137ce9b207c",
          "topics": [
            "0xddf252ad1be2c89b69c2b068fc378daa952ba7f163c4a11628f55a4df523b3ef",
            "0x0000000000000000000000000000000000000000000000000000000000000000",
            "0x00000000000000000000000092bc7d2305ec97e138a5c98f6f5fd69703fe0589"
          ],
          "data": "0x00000000000000000000000000000000000000000000000000153ec0b081e687",
          "blockHash": "0x503aa8032c669a5fc671d3edb33e7a07fbf83a3d12c00365efa82bf87ff74eda",
          "blockNumber": "0x174c86a",
          "transactionHash": "0x0eef53962d58f3c0d606c5852a0850a18617ab92f1fb7ff6da2e0e4e1fa0b8ad",
          "transactionIndex": "0xe",
          "logIndex": "0xc",
          "removed": false
        },
        {
          "address": "0x0c982f176fef2be8587670ceb0019137ce9b207c",
          "topics": [
            "0x9d9c909296d9c674451c0c24f02cb64981eb3b727f99865939192f880a755dcb",
            "0x0000000000000000000000000000000000000000000000000000000000000000",
            "0x00000000000000000000000092bc7d2305ec97e138a5c98f6f5fd69703fe0589"
          ],
          "data": "0x00000000000000000000000000000000000000000000000000153ec0b081e687",
          "blockHash": "0x503aa8032c669a5fc671d3edb33e7a07fbf83a3d12c00365efa82bf87ff74eda",
          "blockNumber": "0x174c86a",
          "transactionHash": "0x0eef53962d58f3c0d606c5852a0850a18617ab92f1fb7ff6da2e0e4e1fa0b8ad",
          "transactionIndex": "0xe",
          "logIndex": "0xd",
          "removed": false
        },
        {
          "address": "0x295d678109a0abb2ab936095899c72087e46eb9f",
          "topics": [
            "0xc1258b6f224442b6aa30f317612f0920bb2f76d968200d28d9163ec6aee9ad00",
            "0x00000000000000000000000092bc7d2305ec97e138a5c98f6f5fd69703fe0589"
          ],
          "data": "0x00000000000000000000000000000000000000000000000000153ec0b081ea6f00000000000000000000000000000000000000000000000000000000000000600000000000000000000000000000000000000000000000000000000000000000000000000000000000000000000000000000000000000000000000000000000200000000000000000000000000000000000000000000000000093cafac6a800000000000000000000000000000000000000000000000000000093cafac6a8000",
          "blockHash": "0x503aa8032c669a5fc671d3edb33e7a07fbf83a3d12c00365efa82bf87ff74eda",
          "blockNumber": "0x174c86a",
          "transactionHash": "0x0eef53962d58f3c0d606c5852a0850a18617ab92f1fb7ff6da2e0e4e1fa0b8ad",
          "transactionIndex": "0xe",
          "logIndex": "0xe",
          "removed": false
        }
      ],
      "logsBloom": "0x00000000000000000000000000000000000000000200000000000000000002000000000000000000000000000000000000000000100000400000000000000000000200000000000000000008000000000000020000000000000000000000000001000800020000000100008000000800000000000000000000000010000000000000000000008000000000000000000000008000000000800008000000010000000000000000040010000000000000000000000000000000000000000000000000000002000000000000000000000000100000000000000000080000000020000000000000800000100800010004000000000000000000000000000000000000",
      "type": "0x2",
      "transactionHash": "0x0eef53962d58f3c0d606c5852a0850a18617ab92f1fb7ff6da2e0e4e1fa0b8ad",
      "transactionIndex": "0xe",
      "blockHash": "0x503aa8032c669a5fc671d3edb33e7a07fbf83a3d12c00365efa82bf87ff74eda",
      "blockNumber": "0x174c86a",
      "gasUsed": "0x5f06f",
      "effectiveGasPrice": "0xf4402",
      "from": "0x92bc7d2305ec97e138a5c98f6f5fd69703fe0589",
      "to": "0x295d678109a0abb2ab936095899c72087e46eb9f",
      "contractAddress": null,
      "l1BaseFeeScalar": "0x44d",
      "l1BlobBaseFee": "0x1",
      "l1BlobBaseFeeScalar": "0xa118b",
      "l1Fee": "0x6a314fa6",
      "l1GasPrice": "0x3c482b71",
      "l1GasUsed": "0x640"
    }
  ],
  "libraries": [],
  "pending": [],
  "returns": {},
  "timestamp": 1744629954,
  "chain": 84532,
  "commit": "2442977"
}