{
  "transactions": [
    {
      "hash": "0x8ddcace8b991dcf1fd73e305d4dd7b0cf54ac238cac8f786d0a491ff0dd616a5",
      "transactionType": "CREATE",
      "contractName": "Zap",
      "contractAddress": "0xbe9d7f91d72ab67763d6e1e798307f43803b64a5",
      "function": null,
      "arguments": null,
      "transaction": {
        "from": "0xe80bbcab9e20fc193ef768b68d69f363a7f9a2a1",
        "gas": "0x134297",
        "value": "0x0",
        "input": "0x6080806040523460195760015f5561102d908161001e8239f35b5f80fdfe60806040526004361015610011575f80fd5b5f3560e01c80637ba104c014610044578063f0ea37251461003f5763f98fcc751461003a575f80fd5b6105c1565b610357565b346103115760c03660031901126103115760043561006181610315565b6024359061006e82610315565b60443561007a81610315565b6064356084359160a43561008c610a5f565b6001600160a01b03851691821515806102ff575b806102ec575b6100af90610641565b6100ba841515610657565b6101286100f36100c988610abc565b986100d68a518910610641565b6100eb8730336001600160a01b038516610b8b565b863091610bd4565b9260206001600160a01b036101078a610c39565b16946040518094819263f476d14560e01b8352600483019190602083019252565b0381875afa9081156102ab57876101569261015d945f916102cd575b50610150818c89610d65565b8a610da2565b9683610c89565b604051633d7ad0b760e21b8152306004820152602081602481865afa9081156102ab575f936020926101c49286916102b0575b50604051638fcb4e5b60e01b81526001600160a01b0386166004820152602481019190915294859283919082906044820190565b03925af19081156102ab578661024661023f61027a9a610239848661023461022861021b8f7f1a11594d7924a63188cf57628ddc301d960dce0b342c6758653b4cfe90d0639b9d61025e9d61027e575b50876106d6565b516001600160a01b031690565b6001600160a01b031690565b610dda565b51610707565b97886106d6565b5260405191829160018060a01b031696339683610739565b0390a461026a60015f55565b6040519081529081906020820190565b0390f35b61029f9060203d6020116102a4575b6102978183610681565b8101906106a8565b610214565b503d61028d565b6106b7565b6102c79150843d86116102a4576102978183610681565b8b610190565b6102e6915060203d6020116102a4576102978183610681565b8c610144565b506001600160a01b0381163014156100a6565b506001600160a01b03871615156100a0565b5f80fd5b6001600160a01b0381160361031157565b9181601f840112156103115782359167ffffffffffffffff8311610311576020808501948460051b01011161031157565b346103115760a03660031901126103115760043561037481610315565b6024359061038182610315565b6044359061038e82610315565b6064359160843567ffffffffffffffff8111610311576103b2903690600401610326565b9290916103bd610a5f565b6001600160a01b0382169586151580610568575b80610555575b6103e090610641565b6103eb851515610641565b6103f483610abc565b9661040188518714610641565b5f5b88518110156104875780808a898961041e6001968383610781565b3561042e575b5050505001610403565b838361046661021b9361045b846102289761045561022861021b61047e9d61046b9d6106d6565b93610781565b359030903390610b8b565b6106d6565b87610477848c8c610781565b3591610d65565b808a8989610424565b5061049a88979694959396858588610e2e565b955f5b88518110156104e6578080888b6104b76001958b8b610781565b356104c6575b5050500161049d565b61022861021b6104de946104d9936106d6565b610c89565b80888b6104bd565b508061053d8461053761025e948b61053161027a9d61052a6102287f5b0dc12cfcc4f2a0681a9c18a65dc0e03619f8efa343e3a7265a2366598303e59b9c9f610c39565b9d8e610d65565b83610e58565b98610c89565b60405191829160018060a01b031696339689846107b5565b506001600160a01b0382163014156103d7565b506001600160a01b03811615156103d1565b90602080835192838152019201905f5b8181106105975750505090565b825184526020938401939092019160010161058a565b9060206105be92818152019061057a565b90565b346103115760c0366003190112610311576004356105de81610315565b602435906105eb82610315565b6044356105f781610315565b60643560843567ffffffffffffffff81116103115761061a903690600401610326565b9160a4359384151585036103115761027a96610635966107cc565b604051918291826105ad565b1561064857565b630e52390960e41b5f5260045ffd5b1561065e57565b631f2a200560e01b5f5260045ffd5b634e487b7160e01b5f52604160045260245ffd5b90601f8019910116810190811067ffffffffffffffff8211176106a357604052565b61066d565b90816020910312610311575190565b6040513d5f823e3d90fd5b634e487b7160e01b5f52603260045260245ffd5b80518210156106ea5760209160051b010190565b6106c2565b67ffffffffffffffff81116106a35760051b60200190565b90610711826106ef565b61071e6040519182610681565b828152809261072f601f19916106ef565b0190602036910137565b92916107566040915f93865260606020870152606086019061057a565b930152565b9161077990604092959495845260606020850152606084019061057a565b931515910152565b91908110156106ea5760051b0190565b81835290916001600160fb1b0383116103115760209260051b809284830137010190565b6040906105be949281528160208201520191610791565b969290939591946107db610a5f565b6001600160a01b038816966108789088151580610a4d575b80610a3a575b61080290610641565b61080d841515610657565b6108436108198b610abc565b9761082689518614610641565b61083b8630336001600160a01b038516610b8b565b853091610bd4565b9260206001600160a01b036108578d610c39565b16946040518095819263f476d14560e01b8352600483019190602083019252565b0381875afa80156102ab576108b3935f91610a1b575b5061089a818d87610d65565b8615610a0a57916108ab928c610f5b565b985b82610c89565b604051633d7ad0b760e21b8152306004820152602081602481855afa9081156102ab575f9260209261091a9285916109ed575b50604051638fcb4e5b60e01b81526001600160a01b038b166004820152602481019190915293849283919082906044820190565b03925af180156102ab576109d0575b505f5b845181101561097857806109426001928a6106d6565b5161094e575b0161092c565b61097361096161022861021b848a6106d6565b8861096c848d6106d6565b5191610dda565b610948565b506040519296956001600160a01b0390951694339450927f1a11594d7924a63188cf57628ddc301d960dce0b342c6758653b4cfe90d0639b92909182916109c19189908461075b565b0390a4906109ce60015f55565b565b6109e89060203d6020116102a4576102978183610681565b610929565b610a049150843d86116102a4576102978183610681565b5f6108e6565b90610a15928c610f0c565b986108ad565b610a34915060203d6020116102a4576102978183610681565b5f61088e565b506001600160a01b0388163014156107f9565b506001600160a01b03871615156107f3565b60025f5414610a6e5760025f55565b633ee5aeb560e01b5f5260045ffd5b3d15610ab7573d9067ffffffffffffffff82116106a35760405191610aac601f8201601f191660200184610681565b82523d5f602084013e565b606090565b5f8091604051602081019063154d950160e31b825260048152610ae0602482610681565b51915afa610aec610a7d565b9015610b865780518101906020818184019303126103115760208101519067ffffffffffffffff821161031157019080603f83011215610311576020820151610b34816106ef565b92610b426040519485610681565b8184526020808086019360051b8301010192831161031157604001905b828210610b6c5750505090565b602080918351610b7b81610315565b815201910190610b5f565b610faa565b6040516323b872dd60e01b60208201526001600160a01b0392831660248201529290911660448301526064808301939093529181526109ce91610bcf608483610681565b610fc8565b5f9291838093604051906020820193635d043b2960e11b8552602483015260018060a01b0316604482015230606482015260648152610c14608482610681565b51925af1610c20610a7d565b9015610b8657806020806105be935183010191016106a8565b5f809160405160208101906332f7ce0b60e21b825260048152610c5d602482610681565b51915afa610c69610a7d565b9015610b8657602081805181010312610311576020015161022881610315565b60405163095ea7b360e01b60208083019182526001600160a01b03851660248401525f604484018190529293929091610ccf85606481015b03601f198101875286610681565b84519082855af15f51903d81610d39575b501590505b610cee57505050565b60405163095ea7b360e01b60208201526001600160a01b0390931660248401525f60448401526109ce92610bcf90610d3381606481015b03601f198101835282610681565b82610fc8565b15159050610d595750610ce56001600160a01b0382163b15155b5f610ce0565b6001610ce59114610d53565b60405163095ea7b360e01b60208281019182526001600160a01b03851660248401526044830195909552929390925f90610ccf8560648101610cc1565b905f809493819460405191602083019463312d6efb60e01b865260248401526044830152606482015260648152610c14608482610681565b60405163a9059cbb60e01b60208201526001600160a01b039290921660248301526044808301939093529181526109ce91610bcf606483610681565b93929160209161075691604087526040870191610791565b905f8094610c148295610d2560405193849260208401976305e8312360e11b895260248501610e16565b5f9291838093604051906020820193636e553f6560e01b8552602483015260018060a01b0316604482015260448152610c14606482610681565b6020818303126103115780519067ffffffffffffffff821161031157019080601f83011215610311578151610ec6816106ef565b92610ed46040519485610681565b81845260208085019260051b82010192831161031157602001905b828210610efc5750505090565b8151815260209182019101610eef565b905f8094610f368295610d2560405193849260208401976344dedbc760e01b895260248501610e16565b51925af1610f42610a7d565b9015610b8657806020806105be93518301019101610e92565b905f8094610f858295610d256040519384926020840197639f493aa760e01b8952602485016107b5565b51925af1610f91610a7d565b9015610faa57806020806105be93518301019101610e92565b805115610fb957805190602001fd5b633204506f60e01b5f5260045ffd5b905f602091828151910182855af1156106b7575f513d61101757506001600160a01b0381163b155b610ff75750565b635274afe760e01b5f9081526001600160a01b0391909116600452602490fd5b60011415610ff056fea164736f6c634300081c000a",
        "nonce": "0x78",
        "chainId": "0x2105"
      },
      "additionalContracts": [],
      "isFixedGasLimit": false
    },
    {
      "hash": "0xbd9a07853d42711ee307ed8e95c78d3d482a6571a77a26f76f1fa22964017628",
      "transactionType": "CREATE",
      "contractName": "ChainlinkOracleProvider",
      "contractAddress": "0x5c6994b49db2d8d3511880a2de3742fdf421ea7b",
      "function": null,
      "arguments": [
        "0xBCF85224fc0756B9Fa45aA7892530B47e10b6433",
        "0xB88BAc61a4Ca37C43a3725912B1f472c9A5bc061",
        "86400"
      ],
      "transaction": {
        "from": "0xe80bbcab9e20fc193ef768b68d69f363a7f9a2a1",
        "gas": "0x59ba0",
        "value": "0x0",
        "input": "0x60e0346100da57601f61052138819003918201601f19168301916001600160401b038311848410176100de578084926060946040528339810103126100da57610047816100f2565b906040610056602083016100f2565b910151916001600160a01b038216156100cb5782156100bc5760805260a05260c05260405161041a9081610107823960805181818160680152610358015260a05181818160c8015281816101e00152610231015260c05181818161010e01526101a80152f35b636fd462b560e01b5f5260045ffd5b6301f86e1760e41b5f5260045ffd5b5f80fd5b634e487b7160e01b5f52604160045260245ffd5b51906001600160a01b03821682036100da5756fe6080806040526004361015610012575f80fd5b5f3560e01c908163313ce5671461020f5750806337a7b7d8146101cb5780637361e5ff14610191578063a035b1fe1461009b5763a726470514610053575f80fd5b34610097575f366003190112610097576040517f00000000000000000000000000000000000000000000000000000000000000006001600160a01b03168152602090f35b5f80fd5b34610097575f366003190112610097576100b3610356565b604051633fabe5a360e21b815260a0816004817f00000000000000000000000000000000000000000000000000000000000000006001600160a01b03165afa8015610186575f915f9161014c575b5061010c9042610335565b7f00000000000000000000000000000000000000000000000000000000000000001061013d57602090604051908152f35b630cd5fa0760e11b5f5260045ffd5b61010c9250610173915060a03d60a01161017f575b61016b81836102b3565b810190610300565b50939250509190610101565b503d610161565b6040513d5f823e3d90fd5b34610097575f3660031901126100975760206040517f00000000000000000000000000000000000000000000000000000000000000008152f35b34610097575f366003190112610097576040517f00000000000000000000000000000000000000000000000000000000000000006001600160a01b03168152602090f35b34610097575f3660031901126100975763313ce56760e01b81526020816004817f00000000000000000000000000000000000000000000000000000000000000006001600160a01b03165afa8015610186575f90610276575b60209060ff60405191168152f35b506020813d6020116102ab575b81610290602093836102b3565b81010312610097575160ff8116810361009757602090610268565b3d9150610283565b90601f8019910116810190811067ffffffffffffffff8211176102d557604052565b634e487b7160e01b5f52604160045260245ffd5b519069ffffffffffffffffffff8216820361009757565b908160a091031261009757610314816102e9565b916020820151916040810151916103326080606084015193016102e9565b90565b9190820391821161034257565b634e487b7160e01b5f52601160045260245ffd5b7f00000000000000000000000000000000000000000000000000000000000000006001600160a01b0316801561040a5760a060049160405192838092633fabe5a360e21b82525afa908115610186575f905f926103e5575b506103d7576103c0610e109142610335565b11156103c857565b63d15f73b560e01b5f5260045ffd5b62032b3d60e81b5f5260045ffd5b9050610400915060a03d60a01161017f5761016b81836102b3565b505091505f6103ae565b5056fea164736f6c634300081c000a000000000000000000000000bcf85224fc0756b9fa45aa7892530b47e10b6433000000000000000000000000b88bac61a4ca37c43a3725912b1f472c9a5bc0610000000000000000000000000000000000000000000000000000000000015180",
        "nonce": "0x79",
        "chainId": "0x2105"
      },
      "additionalContracts": [],
      "isFixedGasLimit": false
    },
    {
      "hash": "0x7f29334d772ab7facaf1d04acba7ac2c48dfe6a497cda35329c4304a204a9a19",
      "transactionType": "CREATE",
      "contractName": "ChainlinkCompositeOracleProvider",
      "contractAddress": "0xb6663339638a397e806b9df772c5f1b1a1100353",
      "function": null,
      "arguments": [
        "0xBCF85224fc0756B9Fa45aA7892530B47e10b6433",
        "[(0xFC1415403EbB0c693f9a7844b92aD2Ff24775C65, 86400, 18, false), (0xf586d0728a47229e747d824a939000Cf21dEF5A0, 86400, 18, true)]"
      ],
      "transaction": {
        "from": "0xe80bbcab9e20fc193ef768b68d69f363a7f9a2a1",
        "gas": "0xbc923",
        "value": "0x0",
        "input": "0x60a0806040523461021b57610969803803809161001c828561030f565b8339810160408282031261021b5761003382610332565b602083015190926001600160401b03821161021b570181601f8201121561021b578051906001600160401b038211610181576040519261007960208460051b018561030f565b82845260208085019360071b8301019181831161021b57602001925b8284106102a45785855f5b815181101561028257801580610266575b610257576001600160a01b036100c78284610346565b515116151580610241575b6102325760606100e28284610346565b51015115610195575b6100f58183610346565b51905f5491680100000000000000008310156101815760018301805f5583101561016d57606060036001945f805260205f209060021b01858060a01b03845116868060a01b03198254161781556020840151868201556040840151600282015501910151151560ff80198354169116179055016100a0565b634e487b7160e01b5f52603260045260245ffd5b634e487b7160e01b5f52604160045260245ffd5b600460206001600160a01b036101ab8486610346565b5151166040519283809263313ce56760e01b82525afa8015610227575f906101e7575b60ff91501660406101df8385610346565b5101526100eb565b506020813d821161021f575b816102006020938361030f565b8101031261021b575160ff8116810361021b5760ff906101ce565b5f80fd5b3d91506101f3565b6040513d5f823e3d90fd5b636fd462b560e01b5f5260045ffd5b50602061024e8284610346565b510151156100d2565b6301f86e1760e41b5f5260045ffd5b506001600160a01b036102798284610346565b515116156100b1565b8260805260405161060e908161035b82396080518181816059015261054c0152f35b60808483031261021b5760405190608082016001600160401b03811183821017610181576040526102d485610332565b82526020850151602083015260408501516040830152606085015190811515820361021b578260209260606080950152815201930192610095565b601f909101601f19168101906001600160401b0382119082101761018157604052565b51906001600160a01b038216820361021b57565b805182101561016d5760209160051b01019056fe60806040526004361015610011575f80fd5b5f3560e01c806298fa22146102bd578063313ce5671461029b578063a035b1fe1461008c5763a726470514610044575f80fd5b34610088575f366003190112610088576040517f00000000000000000000000000000000000000000000000000000000000000006001600160a01b03168152602090f35b5f80fd5b34610088575f366003190112610088576100a461054a565b5f805481805b8282106100bc57602084604051908152f35b60046100d06100ca8461031e565b506103a0565b8051604051633fabe5a360e21b81529196919260a09184919082906001600160a01b03165afa8015610221575f925f91610264575b505f8313156102555761011890426104fe565b60208701511061024657801561022c575b606086015161015f5760019261014d61014760409461015394610519565b9161050b565b9061052c565b940151915b01906100aa565b916040869296019560046020610175895161050b565b945160405163313ce56760e01b815292839182906001600160a01b03165afa80156102215760ff915f916101f3575b5016604d81116101df576001946101d161014d936101cc6101d79761014795600a0a90610519565b61052c565b90610519565b935191610158565b634e487b7160e01b5f52601160045260245ffd5b610214915060203d811161021a575b61020c818361036a565b8101906103f2565b896101a4565b503d610202565b6040513d5f823e3d90fd5b509050604084019061023e825161050b565b915191610129565b630cd5fa0760e11b5f5260045ffd5b632f38a32b60e21b5f5260045ffd5b905061028891925060a03d8111610294575b610280818361036a565b8101906104c9565b50939250509187610105565b503d610276565b34610088575f3660031901126100885760206102b561040b565b604051908152f35b34610088576020366003190112610088576004355f54811015610088576102e560809161031e565b5060018060a01b038154169060018101549060ff6003600283015492015416916040519384526020840152604083015215156060820152f35b5f54811015610356575f80805260029190911b7f290decd9548b62a8d60345a988386fc84ba6bc95484008f6362f93160ef3e5630191565b634e487b7160e01b5f52603260045260245ffd5b90601f8019910116810190811067ffffffffffffffff82111761038c57604052565b634e487b7160e01b5f52604160045260245ffd5b906040516080810181811067ffffffffffffffff82111761038c57604090815283546001600160a01b031682526001840154602083015260028401549082015260039092015460ff1615156060830152565b90816020910312610088575160ff811681036100885790565b5f5f5f545b80821061041c57505090565b909161042a6100ca8461031e565b80516001600160a01b03169182156104aa5750606081015161049c575060206004916040519283809263313ce56760e01b82525afa9081156102215760019160ff915f9161047e575b5016925b0190610410565b610496915060203d811161021a5761020c818361036a565b5f610473565b600191506040015192610477565b935050505090565b519069ffffffffffffffffffff8216820361008857565b908160a0910312610088576104dd816104b2565b916020820151916040810151916104fb6080606084015193016104b2565b90565b919082039182116101df57565b604d81116101df57600a0a90565b818102929181159184041417156101df57565b8115610536570490565b634e487b7160e01b5f52601260045260245ffd5b7f00000000000000000000000000000000000000000000000000000000000000006001600160a01b031680156105fe5760a060049160405192838092633fabe5a360e21b82525afa908115610221575f905f926105d9575b506105cb576105b4610e1091426104fe565b11156105bc57565b63d15f73b560e01b5f5260045ffd5b62032b3d60e81b5f5260045ffd5b90506105f4915060a03d60a01161029457610280818361036a565b505091505f6105a2565b5056fea164736f6c634300081c000a000000000000000000000000bcf85224fc0756b9fa45aa7892530b47e10b643300000000000000000000000000000000000000000000000000000000000000400000000000000000000000000000000000000000000000000000000000000002000000000000000000000000fc1415403ebb0c693f9a7844b92ad2ff24775c65000000000000000000000000000000000000000000000000000000000001518000000000000000000000000000000000000000000000000000000000000000120000000000000000000000000000000000000000000000000000000000000000000000000000000000000000f586d0728a47229e747d824a939000cf21def5a0000000000000000000000000000000000000000000000000000000000001518000000000000000000000000000000000000000000000000000000000000000120000000000000000000000000000000000000000000000000000000000000001",
        "nonce": "0x7a",
        "chainId": "0x2105"
      },
      "additionalContracts": [],
      "isFixedGasLimit": false
    },
    {
      "hash": "0x7c0277f8468882f2b195afb0aee685368679ca7157cb8c478e518dd068659572",
      "transactionType": "CALL",
      "contractName": "ERC1967Proxy",
      "contractAddress": "0x35da3f9ced96bef45b3d817ea9f3f7c445cdd87b",
      "function": null,
      "arguments": null,
      "transaction": {
        "from": "0xe80bbcab9e20fc193ef768b68d69f363a7f9a2a1",
        "to": "0x35da3f9ced96bef45b3d817ea9f3f7c445cdd87b",
        "gas": "0x28c12b",
        "value": "0x0",
        "input": "0xe9910c8e0000000000000000000000000000000000000000000000000000000000000020000000000000000000000000c1cba3fcea344f92d9239c08c0568f6f2f0ee45200000000000000000000000004c0599ae5a44757c0af6f9ec3b93da8976c150a00000000000000000000000000000000000000000000000000000000000000000000000000000000000000005c6994b49db2d8d3511880a2de3742fdf421ea7b000000000000000000000000000000000000000000000000000000000000014000000000000000000000000000000000000000000000000000000000000001800000000000000000000000000000000000000000000000000000000000000001000000000000000000000000b6663339638a397e806b9df772c5f1b1a110035300000000000000000000000000000000000000000000000000000000000001c000000000000000000000000000000000000000000000000000000000000002000000000000000000000000000000000000000000000000000000000000000004a035b1fe000000000000000000000000000000000000000000000000000000000000000000000000000000000000000000000000000000000000000000000004313ce567000000000000000000000000000000000000000000000000000000000000000000000000000000000000000000000000000000000000000000000004a035b1fe000000000000000000000000000000000000000000000000000000000000000000000000000000000000000000000000000000000000000000000004313ce56700000000000000000000000000000000000000000000000000000000",
        "nonce": "0x7b",
        "chainId": "0x2105"
      },
      "additionalContracts": [
        {
          "transactionType": "CREATE",
          "address": "0x4a125dad5eb85faf7b4f5c61e181ff749a6365cd",
          "initCode": "0x60a080604052610467803803809161001782856102a8565b833981016040828203126101ea5761002e826102df565b602083015190926001600160401b0382116101ea570181601f820112156101ea5780519061005b826102f3565b9261006960405194856102a8565b828452602083830101116101ea575f5b82811061029357505060205f9183010152813b15610272577fa3f0ad74e5423aebfd80d3ef4346578335a9a72aeaee59ff6cb3582b35133d5080546001600160a01b0319166001600160a01b038416908117909155604051635c60da1b60e01b8152909190602081600481865afa9081156101f6575f91610238575b50803b156102185750817f1cf3b03a6cf19fa2baba4df148e9dcabedea7f8a5c07840e207e5c089be95d3e5f80a280511561020157602060049260405193848092635c60da1b60e01b82525afa9182156101f6575f926101b1575b50905f8083602061018e95519101845af43d156101a9573d91610172836102f3565b9261018060405194856102a8565b83523d5f602085013e61030e565b505b60805260405160fa908161036d82396080518160180152f35b60609161030e565b91506020823d6020116101ee575b816101cc602093836102a8565b810103126101ea575f806101e261018e946102df565b935050610150565b5f80fd5b3d91506101bf565b6040513d5f823e3d90fd5b505034156101905763b398979f60e01b5f5260045ffd5b634c9c8ce360e01b5f9081526001600160a01b0391909116600452602490fd5b90506020813d60201161026a575b81610253602093836102a8565b810103126101ea57610264906102df565b5f6100f5565b3d9150610246565b50631933b43b60e21b5f9081526001600160a01b0391909116600452602490fd5b80602080928401015182828701015201610079565b601f909101601f19168101906001600160401b038211908210176102cb57604052565b634e487b7160e01b5f52604160045260245ffd5b51906001600160a01b03821682036101ea57565b6001600160401b0381116102cb57601f01601f191660200190565b90610332575080511561032357805190602001fd5b63d6bda27560e01b5f5260045ffd5b81511580610363575b610343575090565b639996b31560e01b5f9081526001600160a01b0391909116600452602490fd5b50803b1561033b56fe60806040819052635c60da1b60e01b81526020906004817f00000000000000000000000000000000000000000000000000000000000000006001600160a01b03165afa801560a2575f901560d1575060203d602011609c575b601f19601f820116608001906080821067ffffffffffffffff83111760885760849160405260800160ad565b60d1565b634e487b7160e01b5f52604160045260245ffd5b503d6058565b6040513d5f823e3d90fd5b602090607f19011260cd576080516001600160a01b038116810360cd5790565b5f80fd5b5f8091368280378136915af43d5f803e1560e9573d5ff35b3d5ffdfea164736f6c634300081c000a0000000000000000000000005e1e40a6062311580eb4d163fb02b6f4ac733d7c000000000000000000000000000000000000000000000000000000000000004000000000000000000000000000000000000000000000000000000000000000c44cd88b7600000000000000000000000000000000000000000000000000000000000000400000000000000000000000000000000000000000000000000000000000000080000000000000000000000000000000000000000000000000000000000000001f53656c662050656767696e67204173736574207773744554482077654554480000000000000000000000000000000000000000000000000000000000000000105350412d7773744554482d77654554480000000000000000000000000000000000000000000000000000000000000000000000000000000000000000"
        },
        {
          "transactionType": "CREATE",
          "address": "0x72e517fc570ae8213370af70d1d7d5da1423c969",
          "initCode": "0x60806040523461033b57610857803803806100198161033f565b92833981019060608183031261033b5780516001600160a01b038116919082900361033b5760208101516001600160401b03811161033b578361005d918301610364565b60408201519093906001600160401b03811161033b5761007d9201610364565b5f80546001600160a01b03191690921790915581516001600160401b03811161024e57600154600181811c91168015610331575b602082101461023057601f81116102ce575b50602092601f821160011461026d57928192935f92610262575b50508160011b915f199060031b1c1916176001555b80516001600160401b03811161024e57600254600181811c91168015610244575b602082101461023057601f81116101cd575b50602091601f821160011461016d579181925f92610162575b50508160011b915f199060031b1c1916176002555b60405161048990816103ce8239f35b015190505f8061013e565b601f1982169260025f52805f20915f5b8581106101b55750836001951061019d575b505050811b01600255610153565b01515f1960f88460031b161c191690555f808061018f565b9192602060018192868501518155019401920161017d565b60025f527f405787fa12a823e0f2b7631cc41b3ba8828b3321ca811111fa75cd3aa3bb5ace601f830160051c81019160208410610226575b601f0160051c01905b81811061021b5750610125565b5f815560010161020e565b9091508190610205565b634e487b7160e01b5f52602260045260245ffd5b90607f1690610113565b634e487b7160e01b5f52604160045260245ffd5b015190505f806100dd565b601f1982169360015f52805f20915f5b8681106102b6575083600195961061029e575b505050811b016001556100f2565b01515f1960f88460031b161c191690555f8080610290565b9192602060018192868501518155019401920161027d565b60015f527fb10e2d527612073b26eecdfd717e6a320cf44b4afac2b0732d9fcbe2b7fa0cf6601f830160051c81019160208410610327575b601f0160051c01905b81811061031c57506100c3565b5f815560010161030f565b9091508190610306565b90607f16906100b1565b5f80fd5b6040519190601f01601f191682016001600160401b0381118382101761024e57604052565b81601f8201121561033b578051906001600160401b03821161024e57610393601f8301601f191660200161033f565b928284526020838301011161033b575f5b8281106103b857505060205f918301015290565b806020809284010151828287010152016103a456fe6080806040526004361015610012575f80fd5b5f3560e01c9081632b513601146102ea575080633ba0b9a9146101fd578063675f0fcf146101585780637dc0d1d01461013157639929031a14610053575f80fd5b3461012d575f36600319011261012d576040515f60025461007381610388565b808452906001811690811561010957506001146100ab575b6100a78361009b818503826103c0565b604051918291826103f6565b0390f35b60025f9081527f405787fa12a823e0f2b7631cc41b3ba8828b3321ca811111fa75cd3aa3bb5ace939250905b8082106100ef5750909150810160200161009b61008b565b9192600181602092548385880101520191019092916100d7565b60ff191660208086019190915291151560051b8401909101915061009b905061008b565b5f80fd5b3461012d575f36600319011261012d575f546040516001600160a01b039091168152602090f35b3461012d575f36600319011261012d576040515f60015461017881610388565b8084529060018116908115610109575060011461019f576100a78361009b818503826103c0565b60015f9081527fb10e2d527612073b26eecdfd717e6a320cf44b4afac2b0732d9fcbe2b7fa0cf6939250905b8082106101e35750909150810160200161009b61008b565b9192600181602092548385880101520191019092916101cb565b3461012d575f36600319011261012d5760018060a01b035f5416604051905f60015461022881610388565b90600181169081156102d55750600114610285575b5090825f93849303915afa61025061043d565b9015610276576020815191818082019384920101031261012d5760209051604051908152f35b6352760cdd60e01b5f5260045ffd5b60015f9081529091507fb10e2d527612073b26eecdfd717e6a320cf44b4afac2b0732d9fcbe2b7fa0cf65b8282106102c157505082018261023d565b6001816020925484880152019101906102b0565b60ff191685525080151502830190508261023d565b3461012d575f36600319011261012d5760018060a01b035f54165f60025461031181610388565b90600181169081156102d55750600114610338575090825f93849303915afa61025061043d565b60025f9081529091507f405787fa12a823e0f2b7631cc41b3ba8828b3321ca811111fa75cd3aa3bb5ace5b82821061037457505082018261023d565b600181602092548488015201910190610363565b90600182811c921680156103b6575b60208310146103a257565b634e487b7160e01b5f52602260045260245ffd5b91607f1691610397565b90601f8019910116810190811067ffffffffffffffff8211176103e257604052565b634e487b7160e01b5f52604160045260245ffd5b9190916020815282518060208301525f5b818110610427575060409293505f838284010152601f8019910116010190565b8060208092870101516040828601015201610407565b3d15610477573d9067ffffffffffffffff82116103e2576040519161046c601f8201601f1916602001846103c0565b82523d5f602084013e565b60609056fea164736f6c634300081c000a000000000000000000000000b6663339638a397e806b9df772c5f1b1a1100353000000000000000000000000000000000000000000000000000000000000006000000000000000000000000000000000000000000000000000000000000000a00000000000000000000000000000000000000000000000000000000000000004a035b1fe000000000000000000000000000000000000000000000000000000000000000000000000000000000000000000000000000000000000000000000004313ce56700000000000000000000000000000000000000000000000000000000"
        },
        {
          "transactionType": "CREATE",
          "address": "0x40a2d4244f6e1f15c87c5816ee17a34d382ee2af",
          "initCode": "0x60a080604052610467803803809161001782856102a8565b833981016040828203126101ea5761002e826102df565b602083015190926001600160401b0382116101ea570181601f820112156101ea5780519061005b826102f3565b9261006960405194856102a8565b828452602083830101116101ea575f5b82811061029357505060205f9183010152813b15610272577fa3f0ad74e5423aebfd80d3ef4346578335a9a72aeaee59ff6cb3582b35133d5080546001600160a01b0319166001600160a01b038416908117909155604051635c60da1b60e01b8152909190602081600481865afa9081156101f6575f91610238575b50803b156102185750817f1cf3b03a6cf19fa2baba4df148e9dcabedea7f8a5c07840e207e5c089be95d3e5f80a280511561020157602060049260405193848092635c60da1b60e01b82525afa9182156101f6575f926101b1575b50905f8083602061018e95519101845af43d156101a9573d91610172836102f3565b9261018060405194856102a8565b83523d5f602085013e61030e565b505b60805260405160fa908161036d82396080518160180152f35b60609161030e565b91506020823d6020116101ee575b816101cc602093836102a8565b810103126101ea575f806101e261018e946102df565b935050610150565b5f80fd5b3d91506101bf565b6040513d5f823e3d90fd5b505034156101905763b398979f60e01b5f5260045ffd5b634c9c8ce360e01b5f9081526001600160a01b0391909116600452602490fd5b90506020813d60201161026a575b81610253602093836102a8565b810103126101ea57610264906102df565b5f6100f5565b3d9150610246565b50631933b43b60e21b5f9081526001600160a01b0391909116600452602490fd5b80602080928401015182828701015201610079565b601f909101601f19168101906001600160401b038211908210176102cb57604052565b634e487b7160e01b5f52604160045260245ffd5b51906001600160a01b03821682036101ea57565b6001600160401b0381116102cb57601f01601f191660200190565b90610332575080511561032357805190602001fd5b63d6bda27560e01b5f5260045ffd5b81511580610363575b610343575090565b639996b31560e01b5f9081526001600160a01b0391909116600452602490fd5b50803b1561033b56fe60806040819052635c60da1b60e01b81526020906004817f00000000000000000000000000000000000000000000000000000000000000006001600160a01b03165afa801560a2575f901560d1575060203d602011609c575b601f19601f820116608001906080821067ffffffffffffffff83111760885760849160405260800160ad565b60d1565b634e487b7160e01b5f52604160045260245ffd5b503d6058565b6040513d5f823e3d90fd5b602090607f19011260cd576080516001600160a01b038116810360cd5790565b5f80fd5b5f8091368280378136915af43d5f803e1560e9573d5ff35b3d5ffdfea164736f6c634300081c000a000000000000000000000000ccf90334583b96ac6d3853928184f068d4eb6ac200000000000000000000000000000000000000000000000000000000000000400000000000000000000000000000000000000000000000000000000000000044e4a301160000000000000000000000000000000000000000000000000000000000000064000000000000000000000000000000000000000000000000000000000000070800000000000000000000000000000000000000000000000000000000"
        },
        {
          "transactionType": "CREATE",
          "address": "0x3b2ce8640b28655bf20f17cb7873db6057e574ca",
          "initCode": "0x60a080604052610467803803809161001782856102a8565b833981016040828203126101ea5761002e826102df565b602083015190926001600160401b0382116101ea570181601f820112156101ea5780519061005b826102f3565b9261006960405194856102a8565b828452602083830101116101ea575f5b82811061029357505060205f9183010152813b15610272577fa3f0ad74e5423aebfd80d3ef4346578335a9a72aeaee59ff6cb3582b35133d5080546001600160a01b0319166001600160a01b038416908117909155604051635c60da1b60e01b8152909190602081600481865afa9081156101f6575f91610238575b50803b156102185750817f1cf3b03a6cf19fa2baba4df148e9dcabedea7f8a5c07840e207e5c089be95d3e5f80a280511561020157602060049260405193848092635c60da1b60e01b82525afa9182156101f6575f926101b1575b50905f8083602061018e95519101845af43d156101a9573d91610172836102f3565b9261018060405194856102a8565b83523d5f602085013e61030e565b505b60805260405160fa908161036d82396080518160180152f35b60609161030e565b91506020823d6020116101ee575b816101cc602093836102a8565b810103126101ea575f806101e261018e946102df565b935050610150565b5f80fd5b3d91506101bf565b6040513d5f823e3d90fd5b505034156101905763b398979f60e01b5f5260045ffd5b634c9c8ce360e01b5f9081526001600160a01b0391909116600452602490fd5b90506020813d60201161026a575b81610253602093836102a8565b810103126101ea57610264906102df565b5f6100f5565b3d9150610246565b50631933b43b60e21b5f9081526001600160a01b0391909116600452602490fd5b80602080928401015182828701015201610079565b601f909101601f19168101906001600160401b038211908210176102cb57604052565b634e487b7160e01b5f52604160045260245ffd5b51906001600160a01b03821682036101ea57565b6001600160401b0381116102cb57601f01601f191660200190565b90610332575080511561032357805190602001fd5b63d6bda27560e01b5f5260045ffd5b81511580610363575b610343575090565b639996b31560e01b5f9081526001600160a01b0391909116600452602490fd5b50803b1561033b56fe60806040819052635c60da1b60e01b81526020906004817f00000000000000000000000000000000000000000000000000000000000000006001600160a01b03165afa801560a2575f901560d1575060203d602011609c575b601f19601f820116608001906080821067ffffffffffffffff83111760885760849160405260800160ad565b60d1565b634e487b7160e01b5f52604160045260245ffd5b503d6058565b6040513d5f823e3d90fd5b602090607f19011260cd576080516001600160a01b038116810360cd5790565b5f80fd5b5f8091368280378136915af43d5f803e1560e9573d5ff35b3d5ffdfea164736f6c634300081c000a000000000000000000000000521130d7441e615acbb5b8531afef739895fe01b000000000000000000000000000000000000000000000000000000000000004000000000000000000000000000000000000000000000000000000000000002a425a400590000000000000000000000000000000000000000000000000000000000000100000000000000000000000000000000000000000000000000000000000000016000000000000000000000000000000000000000000000000000000000000001c000000000000000000000000000000000000000000000000000000000000000000000000000000000000000004a125dad5eb85faf7b4f5c61e181ff749a6365cd0000000000000000000000000000000000000000000000000000000000000064000000000000000000000000000000000000000000000000000000000000024000000000000000000000000040a2d4244f6e1f15c87c5816ee17a34d382ee2af0000000000000000000000000000000000000000000000000000000000000002000000000000000000000000c1cba3fcea344f92d9239c08c0568f6f2f0ee45200000000000000000000000004c0599ae5a44757c0af6f9ec3b93da8976c150a0000000000000000000000000000000000000000000000000000000000000002000000000000000000000000000000000000000000000000000000000000000100000000000000000000000000000000000000000000000000000000000000010000000000000000000000000000000000000000000000000000000000000003000000000000000000000000000000000000000000000000000000000000000000000000000000000000000000000000000000000000000000000000000000000000000000000000000000000000000000000000000000000000000000000000000000000000000000000000000000000000000000000000000000000000000200000000000000000000000003d1d3b0047a24e243390bcc7d9cc44e21746cb100000000000000000000000072e517fc570ae8213370af70d1d7d5da1423c96900000000000000000000000000000000000000000000000000000000"
        },
        {
          "transactionType": "CREATE",
          "address": "0xf81d7f1b023549c76c54c9e8d588b97e96ace0f8",
          "initCode": "0x60a080604052610467803803809161001782856102a8565b833981016040828203126101ea5761002e826102df565b602083015190926001600160401b0382116101ea570181601f820112156101ea5780519061005b826102f3565b9261006960405194856102a8565b828452602083830101116101ea575f5b82811061029357505060205f9183010152813b15610272577fa3f0ad74e5423aebfd80d3ef4346578335a9a72aeaee59ff6cb3582b35133d5080546001600160a01b0319166001600160a01b038416908117909155604051635c60da1b60e01b8152909190602081600481865afa9081156101f6575f91610238575b50803b156102185750817f1cf3b03a6cf19fa2baba4df148e9dcabedea7f8a5c07840e207e5c089be95d3e5f80a280511561020157602060049260405193848092635c60da1b60e01b82525afa9182156101f6575f926101b1575b50905f8083602061018e95519101845af43d156101a9573d91610172836102f3565b9261018060405194856102a8565b83523d5f602085013e61030e565b505b60805260405160fa908161036d82396080518160180152f35b60609161030e565b91506020823d6020116101ee575b816101cc602093836102a8565b810103126101ea575f806101e261018e946102df565b935050610150565b5f80fd5b3d91506101bf565b6040513d5f823e3d90fd5b505034156101905763b398979f60e01b5f5260045ffd5b634c9c8ce360e01b5f9081526001600160a01b0391909116600452602490fd5b90506020813d60201161026a575b81610253602093836102a8565b810103126101ea57610264906102df565b5f6100f5565b3d9150610246565b50631933b43b60e21b5f9081526001600160a01b0391909116600452602490fd5b80602080928401015182828701015201610079565b601f909101601f19168101906001600160401b038211908210176102cb57604052565b634e487b7160e01b5f52604160045260245ffd5b51906001600160a01b03821682036101ea57565b6001600160401b0381116102cb57601f01601f191660200190565b90610332575080511561032357805190602001fd5b63d6bda27560e01b5f5260045ffd5b81511580610363575b610343575090565b639996b31560e01b5f9081526001600160a01b0391909116600452602490fd5b50803b1561033b56fe60806040819052635c60da1b60e01b81526020906004817f00000000000000000000000000000000000000000000000000000000000000006001600160a01b03165afa801560a2575f901560d1575060203d602011609c575b601f19601f820116608001906080821067ffffffffffffffff83111760885760849160405260800160ad565b60d1565b634e487b7160e01b5f52604160045260245ffd5b503d6058565b6040513d5f823e3d90fd5b602090607f19011260cd576080516001600160a01b038116810360cd5790565b5f80fd5b5f8091368280378136915af43d5f803e1560e9573d5ff35b3d5ffdfea164736f6c634300081c000a000000000000000000000000d2533d8837de715a3539b225d4528e847146655e00000000000000000000000000000000000000000000000000000000000000400000000000000000000000000000000000000000000000000000000000000024c4d66de80000000000000000000000004a125dad5eb85faf7b4f5c61e181ff749a6365cd00000000000000000000000000000000000000000000000000000000"
        }
      ],
      "isFixedGasLimit": false
    },
    {
      "hash": "0xc0492cfadeb3da28878e04f30dab5d9a8b373324d60f83f671cab5da4e12424b",
      "transactionType": "CALL",
      "contractName": null,
      "contractAddress": "0xc1cba3fcea344f92d9239c08c0568f6f2f0ee452",
      "function": "approve(address,uint256)",
      "arguments": [
        "0x3b2Ce8640b28655Bf20f17CB7873Db6057E574CA",
        "2700000000000000"
      ],
      "transaction": {
        "from": "0xe80bbcab9e20fc193ef768b68d69f363a7f9a2a1",
        "to": "0xc1cba3fcea344f92d9239c08c0568f6f2f0ee452",
        "gas": "0x114b7",
        "value": "0x0",
        "input": "0x095ea7b30000000000000000000000003b2ce8640b28655bf20f17cb7873db6057e574ca000000000000000000000000000000000000000000000000000997a2bce4c000",
        "nonce": "0x7c",
        "chainId": "0x2105"
      },
      "additionalContracts": [],
      "isFixedGasLimit": false
    },
    {
      "hash": "0x1808cdc07a4952d72a5507101b76125e643927dd0f44d5d732bfd7fbf5aadbdf",
      "transactionType": "CALL",
      "contractName": "TransparentUpgradeableProxy",
      "contractAddress": "0x04c0599ae5a44757c0af6f9ec3b93da8976c150a",
      "function": null,
      "arguments": null,
      "transaction": {
        "from": "0xe80bbcab9e20fc193ef768b68d69f363a7f9a2a1",
        "to": "0x04c0599ae5a44757c0af6f9ec3b93da8976c150a",
        "gas": "0x1159c",
        "value": "0x0",
        "input": "0x095ea7b30000000000000000000000003b2ce8640b28655bf20f17cb7873db6057e574ca000000000000000000000000000000000000000000000000000997a2bce4c000",
        "nonce": "0x7d",
        "chainId": "0x2105"
      },
      "additionalContracts": [],
      "isFixedGasLimit": false
    },
    {
      "hash": "0x0cf5f0830bb4fd4f11f9d1deec945db7ba59c8244ad76ee0476a69030b1ff39a",
      "transactionType": "CALL",
      "contractName": "BeaconProxy",
      "contractAddress": "0x3b2ce8640b28655bf20f17cb7873db6057e574ca",
      "function": null,
      "arguments": null,
      "transaction": {
        "from": "0xe80bbcab9e20fc193ef768b68d69f363a7f9a2a1",
        "to": "0x3b2ce8640b28655bf20f17cb7873db6057e574ca",
        "gas": "0xa673e",
        "value": "0x0",
        "input": "0x0bd06246000000000000000000000000000000000000000000000000000000000000004000000000000000000000000000000000000000000000000000000000000000000000000000000000000000000000000000000000000000000000000000000002000000000000000000000000000000000000000000000000000997a2bce4c000000000000000000000000000000000000000000000000000000997a2bce4c000",
        "nonce": "0x7e",
        "chainId": "0x2105"
      },
      "additionalContracts": [],
      "isFixedGasLimit": false
    }
  ],
  "receipts": [
    {
      "status": "0x1",
      "cumulativeGasUsed": "0x35eade9",
      "logs": [],
      "logsBloom": "0x00000000000000000000000000000000000000000000000000000000000000000000000000000000000000000000000000000000000000000000000000000000000000000000000000000000000000000000000000000000000000000000000000000000000000000000000000000000000000000000000000000000000000000000000000000000000000000000000000000000000000000000000000000000000000000000000000000000000000000000000000000000000000000000000000000000000000000000000000000000000000000000000000000000000000000000000000000000000000000000000000000000000000000000000000000000",
      "type": "0x2",
      "transactionHash": "0x8ddcace8b991dcf1fd73e305d4dd7b0cf54ac238cac8f786d0a491ff0dd616a5",
      "transactionIndex": "0xc8",
      "blockHash": "0xb027b4ed70126f674ba8aa7ebc28dfa5ef5fc8e6fd6b091447bdd32854b916e9",
      "blockNumber": "0x1b82fb7",
      "gasUsed": "0xed0c3",
      "effectiveGasPrice": "0xf6a0b",
      "from": "0xe80bbcab9e20fc193ef768b68d69f363a7f9a2a1",
      "to": null,
      "contractAddress": "0xbe9d7f91d72ab67763d6e1e798307f43803b64a5",
      "l1BaseFeeScalar": "0x8dd",
      "l1BlobBaseFee": "0x8390c2c1",
      "l1BlobBaseFeeScalar": "0x101c12",
      "l1Fee": "0x577e0190f00",
      "l1GasPrice": "0x1bbd729e",
      "l1GasUsed": "0xa017"
    },
    {
      "status": "0x1",
      "cumulativeGasUsed": "0x362fe3d",
      "logs": [],
      "logsBloom": "0x00000000000000000000000000000000000000000000000000000000000000000000000000000000000000000000000000000000000000000000000000000000000000000000000000000000000000000000000000000000000000000000000000000000000000000000000000000000000000000000000000000000000000000000000000000000000000000000000000000000000000000000000000000000000000000000000000000000000000000000000000000000000000000000000000000000000000000000000000000000000000000000000000000000000000000000000000000000000000000000000000000000000000000000000000000000",
      "type": "0x2",
      "transactionHash": "0xbd9a07853d42711ee307ed8e95c78d3d482a6571a77a26f76f1fa22964017628",
      "transactionIndex": "0xc9",
      "blockHash": "0xb027b4ed70126f674ba8aa7ebc28dfa5ef5fc8e6fd6b091447bdd32854b916e9",
      "blockNumber": "0x1b82fb7",
      "gasUsed": "0x45054",
      "effectiveGasPrice": "0xf6a0b",
      "from": "0xe80bbcab9e20fc193ef768b68d69f363a7f9a2a1",
      "to": null,
      "contractAddress": "0x5c6994b49db2d8d3511880a2de3742fdf421ea7b",
      "l1BaseFeeScalar": "0x8dd",
      "l1BlobBaseFee": "0x8390c2c1",
      "l1BlobBaseFeeScalar": "0x101c12",
      "l1Fee": "0x1b760187a13",
      "l1GasPrice": "0x1bbd729e",
      "l1GasUsed": "0x323f"
    },
    {
      "status": "0x1",
      "cumulativeGasUsed": "0x36c0f1d",
      "logs": [],
      "logsBloom": "0x00000000000000000000000000000000000000000000000000000000000000000000000000000000000000000000000000000000000000000000000000000000000000000000000000000000000000000000000000000000000000000000000000000000000000000000000000000000000000000000000000000000000000000000000000000000000000000000000000000000000000000000000000000000000000000000000000000000000000000000000000000000000000000000000000000000000000000000000000000000000000000000000000000000000000000000000000000000000000000000000000000000000000000000000000000000",
      "type": "0x2",
      "transactionHash": "0x7f29334d772ab7facaf1d04acba7ac2c48dfe6a497cda35329c4304a204a9a19",
      "transactionIndex": "0xca",
      "blockHash": "0xb027b4ed70126f674ba8aa7ebc28dfa5ef5fc8e6fd6b091447bdd32854b916e9",
      "blockNumber": "0x1b82fb7",
      "gasUsed": "0x910e0",
      "effectiveGasPrice": "0xf6a0b",
      "from": "0xe80bbcab9e20fc193ef768b68d69f363a7f9a2a1",
      "to": null,
      "contractAddress": "0xb6663339638a397e806b9df772c5f1b1a1100353",
      "l1BaseFeeScalar": "0x8dd",
      "l1BlobBaseFee": "0x8390c2c1",
      "l1BlobBaseFeeScalar": "0x101c12",
      "l1Fee": "0x3959171d621",
      "l1GasPrice": "0x1bbd729e",
      "l1GasUsed": "0x68ee"
    },
    {
      "status": "0x1",
      "cumulativeGasUsed": "0x389908b",
      "logs": [
        {
          "address": "0x4a125dad5eb85faf7b4f5c61e181ff749a6365cd",
          "topics": [
            "0x1cf3b03a6cf19fa2baba4df148e9dcabedea7f8a5c07840e207e5c089be95d3e",
            "0x0000000000000000000000005e1e40a6062311580eb4d163fb02b6f4ac733d7c"
          ],
          "data": "0x",
          "blockHash": "0xb027b4ed70126f674ba8aa7ebc28dfa5ef5fc8e6fd6b091447bdd32854b916e9",
          "blockNumber": "0x1b82fb7",
          "transactionHash": "0x7c0277f8468882f2b195afb0aee685368679ca7157cb8c478e518dd068659572",
          "transactionIndex": "0xcb",
          "logIndex": "0x1be",
          "removed": false
        },
        {
          "address": "0x4a125dad5eb85faf7b4f5c61e181ff749a6365cd",
          "topics": [
            "0x8be0079c531659141344cd1fd0a4f28419497f9722a3daafe3b4186f6b6457e0",
            "0x0000000000000000000000000000000000000000000000000000000000000000",
            "0x00000000000000000000000035da3f9ced96bef45b3d817ea9f3f7c445cdd87b"
          ],
          "data": "0x",
          "blockHash": "0xb027b4ed70126f674ba8aa7ebc28dfa5ef5fc8e6fd6b091447bdd32854b916e9",
          "blockNumber": "0x1b82fb7",
          "transactionHash": "0x7c0277f8468882f2b195afb0aee685368679ca7157cb8c478e518dd068659572",
          "transactionIndex": "0xcb",
          "logIndex": "0x1bf",
          "removed": false
        },
        {
          "address": "0x4a125dad5eb85faf7b4f5c61e181ff749a6365cd",
          "topics": [
            "0xc7f505b2f371ae2175ee4913f4499e1f2633a7b5936321eed1cdaeb6115181d2"
          ],
          "data": "0x0000000000000000000000000000000000000000000000000000000000000001",
          "blockHash": "0xb027b4ed70126f674ba8aa7ebc28dfa5ef5fc8e6fd6b091447bdd32854b916e9",
          "blockNumber": "0x1b82fb7",
          "transactionHash": "0x7c0277f8468882f2b195afb0aee685368679ca7157cb8c478e518dd068659572",
          "transactionIndex": "0xcb",
          "logIndex": "0x1c0",
          "removed": false
        },
        {
          "address": "0x40a2d4244f6e1f15c87c5816ee17a34d382ee2af",
          "topics": [
            "0x1cf3b03a6cf19fa2baba4df148e9dcabedea7f8a5c07840e207e5c089be95d3e",
            "0x000000000000000000000000ccf90334583b96ac6d3853928184f068d4eb6ac2"
          ],
          "data": "0x",
          "blockHash": "0xb027b4ed70126f674ba8aa7ebc28dfa5ef5fc8e6fd6b091447bdd32854b916e9",
          "blockNumber": "0x1b82fb7",
          "transactionHash": "0x7c0277f8468882f2b195afb0aee685368679ca7157cb8c478e518dd068659572",
          "transactionIndex": "0xcb",
          "logIndex": "0x1c1",
          "removed": false
        },
        {
          "address": "0x40a2d4244f6e1f15c87c5816ee17a34d382ee2af",
          "topics": [
            "0x8be0079c531659141344cd1fd0a4f28419497f9722a3daafe3b4186f6b6457e0",
            "0x0000000000000000000000000000000000000000000000000000000000000000",
            "0x00000000000000000000000035da3f9ced96bef45b3d817ea9f3f7c445cdd87b"
          ],
          "data": "0x",
          "blockHash": "0xb027b4ed70126f674ba8aa7ebc28dfa5ef5fc8e6fd6b091447bdd32854b916e9",
          "blockNumber": "0x1b82fb7",
          "transactionHash": "0x7c0277f8468882f2b195afb0aee685368679ca7157cb8c478e518dd068659572",
          "transactionIndex": "0xcb",
          "logIndex": "0x1c2",
          "removed": false
        },
        {
          "address": "0x40a2d4244f6e1f15c87c5816ee17a34d382ee2af",
          "topics": [
            "0x7a62cf7b9006cf6d98e74e54f87f7921ebbab2259658cb564284f4ce348cfbbe"
          ],
          "data": "0x00000000000000000000000000000000000000000000000000000000000000000000000000000000000000000000000000000000000000000000000000000708",
          "blockHash": "0xb027b4ed70126f674ba8aa7ebc28dfa5ef5fc8e6fd6b091447bdd32854b916e9",
          "blockNumber": "0x1b82fb7",
          "transactionHash": "0x7c0277f8468882f2b195afb0aee685368679ca7157cb8c478e518dd068659572",
          "transactionIndex": "0xcb",
          "logIndex": "0x1c3",
          "removed": false
        },
        {
          "address": "0x40a2d4244f6e1f15c87c5816ee17a34d382ee2af",
          "topics": [
            "0xc7f505b2f371ae2175ee4913f4499e1f2633a7b5936321eed1cdaeb6115181d2"
          ],
          "data": "0x0000000000000000000000000000000000000000000000000000000000000001",
          "blockHash": "0xb027b4ed70126f674ba8aa7ebc28dfa5ef5fc8e6fd6b091447bdd32854b916e9",
          "blockNumber": "0x1b82fb7",
          "transactionHash": "0x7c0277f8468882f2b195afb0aee685368679ca7157cb8c478e518dd068659572",
          "transactionIndex": "0xcb",
          "logIndex": "0x1c4",
          "removed": false
        },
        {
          "address": "0x3b2ce8640b28655bf20f17cb7873db6057e574ca",
          "topics": [
            "0x1cf3b03a6cf19fa2baba4df148e9dcabedea7f8a5c07840e207e5c089be95d3e",
            "0x000000000000000000000000521130d7441e615acbb5b8531afef739895fe01b"
          ],
          "data": "0x",
          "blockHash": "0xb027b4ed70126f674ba8aa7ebc28dfa5ef5fc8e6fd6b091447bdd32854b916e9",
          "blockNumber": "0x1b82fb7",
          "transactionHash": "0x7c0277f8468882f2b195afb0aee685368679ca7157cb8c478e518dd068659572",
          "transactionIndex": "0xcb",
          "logIndex": "0x1c5",
          "removed": false
        },
        {
          "address": "0x3b2ce8640b28655bf20f17cb7873db6057e574ca",
          "topics": [
            "0x8be0079c531659141344cd1fd0a4f28419497f9722a3daafe3b4186f6b6457e0",
            "0x0000000000000000000000000000000000000000000000000000000000000000",
            "0x00000000000000000000000035da3f9ced96bef45b3d817ea9f3f7c445cdd87b"
          ],
          "data": "0x",
          "blockHash": "0xb027b4ed70126f674ba8aa7ebc28dfa5ef5fc8e6fd6b091447bdd32854b916e9",
          "blockNumber": "0x1b82fb7",
          "transactionHash": "0x7c0277f8468882f2b195afb0aee685368679ca7157cb8c478e518dd068659572",
          "transactionIndex": "0xcb",
          "logIndex": "0x1c6",
          "removed": false
        },
        {
          "address": "0x3b2ce8640b28655bf20f17cb7873db6057e574ca",
          "topics": [
            "0xc7f505b2f371ae2175ee4913f4499e1f2633a7b5936321eed1cdaeb6115181d2"
          ],
          "data": "0x0000000000000000000000000000000000000000000000000000000000000001",
          "blockHash": "0xb027b4ed70126f674ba8aa7ebc28dfa5ef5fc8e6fd6b091447bdd32854b916e9",
          "blockNumber": "0x1b82fb7",
          "transactionHash": "0x7c0277f8468882f2b195afb0aee685368679ca7157cb8c478e518dd068659572",
          "transactionIndex": "0xcb",
          "logIndex": "0x1c7",
          "removed": false
        },
        {
          "address": "0x3b2ce8640b28655bf20f17cb7873db6057e574ca",
          "topics": [
            "0x8be0079c531659141344cd1fd0a4f28419497f9722a3daafe3b4186f6b6457e0",
            "0x00000000000000000000000035da3f9ced96bef45b3d817ea9f3f7c445cdd87b",
            "0x000000000000000000000000e80bbcab9e20fc193ef768b68d69f363a7f9a2a1"
          ],
          "data": "0x",
          "blockHash": "0xb027b4ed70126f674ba8aa7ebc28dfa5ef5fc8e6fd6b091447bdd32854b916e9",
          "blockNumber": "0x1b82fb7",
          "transactionHash": "0x7c0277f8468882f2b195afb0aee685368679ca7157cb8c478e518dd068659572",
          "transactionIndex": "0xcb",
          "logIndex": "0x1c8",
          "removed": false
        },
        {
          "address": "0x4a125dad5eb85faf7b4f5c61e181ff749a6365cd",
          "topics": [
            "0x73cca62ab1b520c9715bf4e6c71e3e518c754e7148f65102f43289a7df0efea6",
            "0x0000000000000000000000003b2ce8640b28655bf20f17cb7873db6057e574ca"
          ],
          "data": "0x",
          "blockHash": "0xb027b4ed70126f674ba8aa7ebc28dfa5ef5fc8e6fd6b091447bdd32854b916e9",
          "blockNumber": "0x1b82fb7",
          "transactionHash": "0x7c0277f8468882f2b195afb0aee685368679ca7157cb8c478e518dd068659572",
          "transactionIndex": "0xcb",
          "logIndex": "0x1c9",
          "removed": false
        },
        {
          "address": "0x4a125dad5eb85faf7b4f5c61e181ff749a6365cd",
          "topics": [
            "0x8be0079c531659141344cd1fd0a4f28419497f9722a3daafe3b4186f6b6457e0",
            "0x00000000000000000000000035da3f9ced96bef45b3d817ea9f3f7c445cdd87b",
            "0x000000000000000000000000e80bbcab9e20fc193ef768b68d69f363a7f9a2a1"
          ],
          "data": "0x",
          "blockHash": "0xb027b4ed70126f674ba8aa7ebc28dfa5ef5fc8e6fd6b091447bdd32854b916e9",
          "blockNumber": "0x1b82fb7",
          "transactionHash": "0x7c0277f8468882f2b195afb0aee685368679ca7157cb8c478e518dd068659572",
          "transactionIndex": "0xcb",
          "logIndex": "0x1ca",
          "removed": false
        },
        {
          "address": "0x40a2d4244f6e1f15c87c5816ee17a34d382ee2af",
          "topics": [
            "0x8be0079c531659141344cd1fd0a4f28419497f9722a3daafe3b4186f6b6457e0",
            "0x00000000000000000000000035da3f9ced96bef45b3d817ea9f3f7c445cdd87b",
            "0x000000000000000000000000e80bbcab9e20fc193ef768b68d69f363a7f9a2a1"
          ],
          "data": "0x",
          "blockHash": "0xb027b4ed70126f674ba8aa7ebc28dfa5ef5fc8e6fd6b091447bdd32854b916e9",
          "blockNumber": "0x1b82fb7",
          "transactionHash": "0x7c0277f8468882f2b195afb0aee685368679ca7157cb8c478e518dd068659572",
          "transactionIndex": "0xcb",
          "logIndex": "0x1cb",
          "removed": false
        },
        {
          "address": "0xf81d7f1b023549c76c54c9e8d588b97e96ace0f8",
          "topics": [
            "0x1cf3b03a6cf19fa2baba4df148e9dcabedea7f8a5c07840e207e5c089be95d3e",
            "0x000000000000000000000000d2533d8837de715a3539b225d4528e847146655e"
          ],
          "data": "0x",
          "blockHash": "0xb027b4ed70126f674ba8aa7ebc28dfa5ef5fc8e6fd6b091447bdd32854b916e9",
          "blockNumber": "0x1b82fb7",
          "transactionHash": "0x7c0277f8468882f2b195afb0aee685368679ca7157cb8c478e518dd068659572",
          "transactionIndex": "0xcb",
          "logIndex": "0x1cc",
          "removed": false
        },
        {
          "address": "0xf81d7f1b023549c76c54c9e8d588b97e96ace0f8",
          "topics": [
            "0xc7f505b2f371ae2175ee4913f4499e1f2633a7b5936321eed1cdaeb6115181d2"
          ],
          "data": "0x0000000000000000000000000000000000000000000000000000000000000001",
          "blockHash": "0xb027b4ed70126f674ba8aa7ebc28dfa5ef5fc8e6fd6b091447bdd32854b916e9",
          "blockNumber": "0x1b82fb7",
          "transactionHash": "0x7c0277f8468882f2b195afb0aee685368679ca7157cb8c478e518dd068659572",
          "transactionIndex": "0xcb",
          "logIndex": "0x1cd",
          "removed": false
        },
        {
          "address": "0x35da3f9ced96bef45b3d817ea9f3f7c445cdd87b",
          "topics": [
            "0x55b6e041bb1679bf2b32c9252ad372f3459868b982e77a0ae577d59c947e3757"
          ],
          "data": "0x0000000000000000000000004a125dad5eb85faf7b4f5c61e181ff749a6365cd0000000000000000000000003b2ce8640b28655bf20f17cb7873db6057e574ca000000000000000000000000f81d7f1b023549c76c54c9e8d588b97e96ace0f800000000000000000000000040a2d4244f6e1f15c87c5816ee17a34d382ee2af",
          "blockHash": "0xb027b4ed70126f674ba8aa7ebc28dfa5ef5fc8e6fd6b091447bdd32854b916e9",
          "blockNumber": "0x1b82fb7",
          "transactionHash": "0x7c0277f8468882f2b195afb0aee685368679ca7157cb8c478e518dd068659572",
          "transactionIndex": "0xcb",
          "logIndex": "0x1ce",
          "removed": false
        }
      ],
      "logsBloom": "0x0000000000c000400008000000040000000000000000000200800001000040001000010000000010002000000000000000500000080000000000000000000000100000100020000000000014001000000001000000000040000000000000000000100000020000000000008000000920000200000000000000000000100c00400010000200000008000800000000080000000000000080000000000080000000000000000000000000004000000000000000000000000200000010000040000001000000000004000000000000000008000000000004000002800000000020000000004000000000000000000000000000000000000800000000000004000000",
      "type": "0x2",
      "transactionHash": "0x7c0277f8468882f2b195afb0aee685368679ca7157cb8c478e518dd068659572",
      "transactionIndex": "0xcb",
      "blockHash": "0xb027b4ed70126f674ba8aa7ebc28dfa5ef5fc8e6fd6b091447bdd32854b916e9",
      "blockNumber": "0x1b82fb7",
      "gasUsed": "0x1d816e",
      "effectiveGasPrice": "0xf6a0b",
      "from": "0xe80bbcab9e20fc193ef768b68d69f363a7f9a2a1",
      "to": "0x35da3f9ced96bef45b3d817ea9f3f7c445cdd87b",
      "contractAddress": null,
      "l1BaseFeeScalar": "0x8dd",
      "l1BlobBaseFee": "0x8390c2c1",
      "l1BlobBaseFeeScalar": "0x101c12",
      "l1Fee": "0x6f96dd6d25",
      "l1GasPrice": "0x1bbd729e",
      "l1GasUsed": "0xcc2"
    },
    {
      "status": "0x1",
      "cumulativeGasUsed": "0x38a58e2",
      "logs": [
        {
          "address": "0xc1cba3fcea344f92d9239c08c0568f6f2f0ee452",
          "topics": [
            "0x8c5be1e5ebec7d5bd14f71427d1e84f3dd0314c0f7b2291e5b200ac8c7c3b925",
            "0x000000000000000000000000e80bbcab9e20fc193ef768b68d69f363a7f9a2a1",
            "0x0000000000000000000000003b2ce8640b28655bf20f17cb7873db6057e574ca"
          ],
          "data": "0x000000000000000000000000000000000000000000000000000997a2bce4c000",
          "blockHash": "0xb027b4ed70126f674ba8aa7ebc28dfa5ef5fc8e6fd6b091447bdd32854b916e9",
          "blockNumber": "0x1b82fb7",
          "transactionHash": "0xc0492cfadeb3da28878e04f30dab5d9a8b373324d60f83f671cab5da4e12424b",
          "transactionIndex": "0xcc",
          "logIndex": "0x1cf",
          "removed": false
        }
      ],
      "logsBloom": "0x00000000000000000000000000000000000000000000000000000000000000000000000000000000002000000000000000000000000000000000000000200000000000000000000000000000400000000000000000000000000000000000000000100000000000000000000000000000000000000000000000000000000000000000000200000000000000000000000000000000000000000000000000000000020000000000000000000000000000000000000000000000000000000000000040000000000004000000000000000000000000000000000000000000000000000010004000000000000000000000000000000080000000000000000004000000",
      "type": "0x2",
      "transactionHash": "0xc0492cfadeb3da28878e04f30dab5d9a8b373324d60f83f671cab5da4e12424b",
      "transactionIndex": "0xcc",
      "blockHash": "0xb027b4ed70126f674ba8aa7ebc28dfa5ef5fc8e6fd6b091447bdd32854b916e9",
      "blockNumber": "0x1b82fb7",
      "gasUsed": "0xc857",
      "effectiveGasPrice": "0xf6a0b",
      "from": "0xe80bbcab9e20fc193ef768b68d69f363a7f9a2a1",
      "to": "0xc1cba3fcea344f92d9239c08c0568f6f2f0ee452",
      "contractAddress": null,
      "l1BaseFeeScalar": "0x8dd",
      "l1BlobBaseFee": "0x8390c2c1",
      "l1BlobBaseFeeScalar": "0x101c12",
      "l1Fee": "0x36a6e3d466",
      "l1GasPrice": "0x1bbd729e",
      "l1GasUsed": "0x640"
    },
    {
      "status": "0x1",
      "cumulativeGasUsed": "0x38b21df",
      "logs": [
        {
          "address": "0x04c0599ae5a44757c0af6f9ec3b93da8976c150a",
          "topics": [
            "0x8c5be1e5ebec7d5bd14f71427d1e84f3dd0314c0f7b2291e5b200ac8c7c3b925",
            "0x000000000000000000000000e80bbcab9e20fc193ef768b68d69f363a7f9a2a1",
            "0x0000000000000000000000003b2ce8640b28655bf20f17cb7873db6057e574ca"
          ],
          "data": "0x000000000000000000000000000000000000000000000000000997a2bce4c000",
          "blockHash": "0xb027b4ed70126f674ba8aa7ebc28dfa5ef5fc8e6fd6b091447bdd32854b916e9",
          "blockNumber": "0x1b82fb7",
          "transactionHash": "0x1808cdc07a4952d72a5507101b76125e643927dd0f44d5d732bfd7fbf5aadbdf",
          "transactionIndex": "0xcd",
          "logIndex": "0x1d0",
          "removed": false
        }
      ],
      "logsBloom": "0x00000000000000000000000000000000000000000000000000000000000000104000000000000000002000000000000000000000000000000000000000200000000000000000000000000000000000000000000000000000000000000000000000100000000000000000000000000000000000000000000000000000000000000000000200000000000000000000000100000000000000000000000000000000020000000000000000000000000000000000000000000000000000000000000000000000000004000000000000000000000000000000000000000000000000000010004000000000000000000000000000000000000000000000000004000000",
      "type": "0x2",
      "transactionHash": "0x1808cdc07a4952d72a5507101b76125e643927dd0f44d5d732bfd7fbf5aadbdf",
      "transactionIndex": "0xcd",
      "blockHash": "0xb027b4ed70126f674ba8aa7ebc28dfa5ef5fc8e6fd6b091447bdd32854b916e9",
      "blockNumber": "0x1b82fb7",
      "gasUsed": "0xc8fd",
      "effectiveGasPrice": "0xf6a0b",
      "from": "0xe80bbcab9e20fc193ef768b68d69f363a7f9a2a1",
      "to": "0x04c0599ae5a44757c0af6f9ec3b93da8976c150a",
      "contractAddress": null,
      "l1BaseFeeScalar": "0x8dd",
      "l1BlobBaseFee": "0x8390c2c1",
      "l1BlobBaseFeeScalar": "0x101c12",
      "l1Fee": "0x36a6e3d466",
      "l1GasPrice": "0x1bbd729e",
      "l1GasUsed": "0x640"
    },
    {
      "status": "0x1",
      "cumulativeGasUsed": "0x392aa03",
      "logs": [
        {
          "address": "0xc1cba3fcea344f92d9239c08c0568f6f2f0ee452",
          "topics": [
            "0x8c5be1e5ebec7d5bd14f71427d1e84f3dd0314c0f7b2291e5b200ac8c7c3b925",
            "0x000000000000000000000000e80bbcab9e20fc193ef768b68d69f363a7f9a2a1",
            "0x0000000000000000000000003b2ce8640b28655bf20f17cb7873db6057e574ca"
          ],
          "data": "0x0000000000000000000000000000000000000000000000000000000000000000",
          "blockHash": "0xb027b4ed70126f674ba8aa7ebc28dfa5ef5fc8e6fd6b091447bdd32854b916e9",
          "blockNumber": "0x1b82fb7",
          "transactionHash": "0x0cf5f0830bb4fd4f11f9d1deec945db7ba59c8244ad76ee0476a69030b1ff39a",
          "transactionIndex": "0xce",
          "logIndex": "0x1d1",
          "removed": false
        },
        {
          "address": "0xc1cba3fcea344f92d9239c08c0568f6f2f0ee452",
          "topics": [
            "0xddf252ad1be2c89b69c2b068fc378daa952ba7f163c4a11628f55a4df523b3ef",
            "0x000000000000000000000000e80bbcab9e20fc193ef768b68d69f363a7f9a2a1",
            "0x0000000000000000000000003b2ce8640b28655bf20f17cb7873db6057e574ca"
          ],
          "data": "0x000000000000000000000000000000000000000000000000000997a2bce4c000",
          "blockHash": "0xb027b4ed70126f674ba8aa7ebc28dfa5ef5fc8e6fd6b091447bdd32854b916e9",
          "blockNumber": "0x1b82fb7",
          "transactionHash": "0x0cf5f0830bb4fd4f11f9d1deec945db7ba59c8244ad76ee0476a69030b1ff39a",
          "transactionIndex": "0xce",
          "logIndex": "0x1d2",
          "removed": false
        },
        {
          "address": "0x04c0599ae5a44757c0af6f9ec3b93da8976c150a",
          "topics": [
            "0xddf252ad1be2c89b69c2b068fc378daa952ba7f163c4a11628f55a4df523b3ef",
            "0x000000000000000000000000e80bbcab9e20fc193ef768b68d69f363a7f9a2a1",
            "0x0000000000000000000000003b2ce8640b28655bf20f17cb7873db6057e574ca"
          ],
          "data": "0x000000000000000000000000000000000000000000000000000997a2bce4c000",
          "blockHash": "0xb027b4ed70126f674ba8aa7ebc28dfa5ef5fc8e6fd6b091447bdd32854b916e9",
          "blockNumber": "0x1b82fb7",
          "transactionHash": "0x0cf5f0830bb4fd4f11f9d1deec945db7ba59c8244ad76ee0476a69030b1ff39a",
          "transactionIndex": "0xce",
          "logIndex": "0x1d3",
          "removed": false
        },
        {
          "address": "0x4a125dad5eb85faf7b4f5c61e181ff749a6365cd",
          "topics": [
            "0xddf252ad1be2c89b69c2b068fc378daa952ba7f163c4a11628f55a4df523b3ef",
            "0x0000000000000000000000000000000000000000000000000000000000000000",
            "0x000000000000000000000000e80bbcab9e20fc193ef768b68d69f363a7f9a2a1"
          ],
          "data": "0x0000000000000000000000000000000000000000000000000013cf3c9962830a",
          "blockHash": "0xb027b4ed70126f674ba8aa7ebc28dfa5ef5fc8e6fd6b091447bdd32854b916e9",
          "blockNumber": "0x1b82fb7",
          "transactionHash": "0x0cf5f0830bb4fd4f11f9d1deec945db7ba59c8244ad76ee0476a69030b1ff39a",
          "transactionIndex": "0xce",
          "logIndex": "0x1d4",
          "removed": false
        },
        {
          "address": "0x4a125dad5eb85faf7b4f5c61e181ff749a6365cd",
          "topics": [
            "0x9d9c909296d9c674451c0c24f02cb64981eb3b727f99865939192f880a755dcb",
            "0x0000000000000000000000000000000000000000000000000000000000000000",
            "0x000000000000000000000000e80bbcab9e20fc193ef768b68d69f363a7f9a2a1"
          ],
          "data": "0x0000000000000000000000000000000000000000000000000013cf3c9962830a",
          "blockHash": "0xb027b4ed70126f674ba8aa7ebc28dfa5ef5fc8e6fd6b091447bdd32854b916e9",
          "blockNumber": "0x1b82fb7",
          "transactionHash": "0x0cf5f0830bb4fd4f11f9d1deec945db7ba59c8244ad76ee0476a69030b1ff39a",
          "transactionIndex": "0xce",
          "logIndex": "0x1d5",
          "removed": false
        },
        {
          "address": "0x3b2ce8640b28655bf20f17cb7873db6057e574ca",
          "topics": [
            "0xc1258b6f224442b6aa30f317612f0920bb2f76d968200d28d9163ec6aee9ad00",
            "0x000000000000000000000000e80bbcab9e20fc193ef768b68d69f363a7f9a2a1"
          ],
          "data": "0x0000000000000000000000000000000000000000000000000013cf3c996286f2000000000000000000000000000000000000000000000000000000000000006000000000000000000000000000000000000000000000000000000000000000000000000000000000000000000000000000000000000000000000000000000002000000000000000000000000000000000000000000000000000997a2bce4c000000000000000000000000000000000000000000000000000000997a2bce4c000",
          "blockHash": "0xb027b4ed70126f674ba8aa7ebc28dfa5ef5fc8e6fd6b091447bdd32854b916e9",
          "blockNumber": "0x1b82fb7",
          "transactionHash": "0x0cf5f0830bb4fd4f11f9d1deec945db7ba59c8244ad76ee0476a69030b1ff39a",
          "transactionIndex": "0xce",
          "logIndex": "0x1d6",
          "removed": false
        }
      ],
      "logsBloom": "0x00000000000000000000000000040000000000000200000000000000000000104000010000000000002000000000000000000000000000000000000000200000000200000000000000000008400000000000000000000000000000000000000000100000020000000000008000000800000000000000000000000010100000000010000200000000000000000000000100008000000000800000000080000000020000000000000000000000000000000000000000000000000000000000000040000002000004000000000000000000000000000000000002000000000020000010004000800000000000000000000000000080000000000000000004000000",
      "type": "0x2",
      "transactionHash": "0x0cf5f0830bb4fd4f11f9d1deec945db7ba59c8244ad76ee0476a69030b1ff39a",
      "transactionIndex": "0xce",
      "blockHash": "0xb027b4ed70126f674ba8aa7ebc28dfa5ef5fc8e6fd6b091447bdd32854b916e9",
      "blockNumber": "0x1b82fb7",
      "gasUsed": "0x78824",
      "effectiveGasPrice": "0xf6a0b",
      "from": "0xe80bbcab9e20fc193ef768b68d69f363a7f9a2a1",
      "to": "0x3b2ce8640b28655bf20f17cb7873db6057e574ca",
      "contractAddress": null,
      "l1BaseFeeScalar": "0x8dd",
      "l1BlobBaseFee": "0x8390c2c1",
      "l1BlobBaseFeeScalar": "0x101c12",
      "l1Fee": "0x36a6e3d466",
      "l1GasPrice": "0x1bbd729e",
      "l1GasUsed": "0x640"
    }
  ],
  "libraries": [],
  "pending": [],
  "returns": {},
  "timestamp": 1744485597,
  "chain": 8453,
  "commit": "fc4560e"
}