{
  "transactions": [
    {
      "hash": "0xe863bc7a6e69dc9ceeb46b6c6d5c6bb9d2dfedf7e5fc0f8195424b8baffcb250",
      "transactionType": "CREATE",
      "contractName": "ChainlinkOracleProvider",
      "contractAddress": "0xf5c522d1a0bc22cee8edc279171dac511f08391d",
      "function": null,
      "arguments": [
        "0xBCF85224fc0756B9Fa45aA7892530B47e10b6433",
        "0xB88BAc61a4Ca37C43a3725912B1f472c9A5bc061",
        "86400"
      ],
      "transaction": {
        "from": "0xe80bbcab9e20fc193ef768b68d69f363a7f9a2a1",
        "gas": "0x59ba0",
        "value": "0x0",
        "input": "0x60e0346100da57601f61052138819003918201601f19168301916001600160401b038311848410176100de578084926060946040528339810103126100da57610047816100f2565b906040610056602083016100f2565b910151916001600160a01b038216156100cb5782156100bc5760805260a05260c05260405161041a9081610107823960805181818160680152610358015260a05181818160c8015281816101e00152610231015260c05181818161010e01526101a80152f35b636fd462b560e01b5f5260045ffd5b6301f86e1760e41b5f5260045ffd5b5f80fd5b634e487b7160e01b5f52604160045260245ffd5b51906001600160a01b03821682036100da5756fe6080806040526004361015610012575f80fd5b5f3560e01c908163313ce5671461020f5750806337a7b7d8146101cb5780637361e5ff14610191578063a035b1fe1461009b5763a726470514610053575f80fd5b34610097575f366003190112610097576040517f00000000000000000000000000000000000000000000000000000000000000006001600160a01b03168152602090f35b5f80fd5b34610097575f366003190112610097576100b3610356565b604051633fabe5a360e21b815260a0816004817f00000000000000000000000000000000000000000000000000000000000000006001600160a01b03165afa8015610186575f915f9161014c575b5061010c9042610335565b7f00000000000000000000000000000000000000000000000000000000000000001061013d57602090604051908152f35b630cd5fa0760e11b5f5260045ffd5b61010c9250610173915060a03d60a01161017f575b61016b81836102b3565b810190610300565b50939250509190610101565b503d610161565b6040513d5f823e3d90fd5b34610097575f3660031901126100975760206040517f00000000000000000000000000000000000000000000000000000000000000008152f35b34610097575f366003190112610097576040517f00000000000000000000000000000000000000000000000000000000000000006001600160a01b03168152602090f35b34610097575f3660031901126100975763313ce56760e01b81526020816004817f00000000000000000000000000000000000000000000000000000000000000006001600160a01b03165afa8015610186575f90610276575b60209060ff60405191168152f35b506020813d6020116102ab575b81610290602093836102b3565b81010312610097575160ff8116810361009757602090610268565b3d9150610283565b90601f8019910116810190811067ffffffffffffffff8211176102d557604052565b634e487b7160e01b5f52604160045260245ffd5b519069ffffffffffffffffffff8216820361009757565b908160a091031261009757610314816102e9565b916020820151916040810151916103326080606084015193016102e9565b90565b9190820391821161034257565b634e487b7160e01b5f52601160045260245ffd5b7f00000000000000000000000000000000000000000000000000000000000000006001600160a01b0316801561040a5760a060049160405192838092633fabe5a360e21b82525afa908115610186575f905f926103e5575b506103d7576103c0610e109142610335565b11156103c857565b63d15f73b560e01b5f5260045ffd5b62032b3d60e81b5f5260045ffd5b9050610400915060a03d60a01161017f5761016b81836102b3565b505091505f6103ae565b5056fea164736f6c634300081c000a000000000000000000000000bcf85224fc0756b9fa45aa7892530b47e10b6433000000000000000000000000b88bac61a4ca37c43a3725912b1f472c9a5bc0610000000000000000000000000000000000000000000000000000000000015180",
        "nonce": "0xd6",
        "chainId": "0x2105"
      },
      "additionalContracts": [],
      "isFixedGasLimit": false
    },
    {
      "hash": "0xf5dc0958431024d7b03adba218c2780910714efccfc28be76336499a57c9464f",
      "transactionType": "CREATE",
      "contractName": "ChainlinkCompositeOracleProvider",
      "contractAddress": "0x2ce14406cd37f3e1e376af4061ba0b0e8e4edea7",
      "function": null,
      "arguments": [
        "0xBCF85224fc0756B9Fa45aA7892530B47e10b6433",
        "[(0xFC1415403EbB0c693f9a7844b92aD2Ff24775C65, 86400, 18, false), (0xf586d0728a47229e747d824a939000Cf21dEF5A0, 86400, 18, true)]"
      ],
      "transaction": {
        "from": "0xe80bbcab9e20fc193ef768b68d69f363a7f9a2a1",
        "gas": "0xbc923",
        "value": "0x0",
        "input": "0x60a0806040523461021b57610969803803809161001c828561030f565b8339810160408282031261021b5761003382610332565b602083015190926001600160401b03821161021b570181601f8201121561021b578051906001600160401b038211610181576040519261007960208460051b018561030f565b82845260208085019360071b8301019181831161021b57602001925b8284106102a45785855f5b815181101561028257801580610266575b610257576001600160a01b036100c78284610346565b515116151580610241575b6102325760606100e28284610346565b51015115610195575b6100f58183610346565b51905f5491680100000000000000008310156101815760018301805f5583101561016d57606060036001945f805260205f209060021b01858060a01b03845116868060a01b03198254161781556020840151868201556040840151600282015501910151151560ff80198354169116179055016100a0565b634e487b7160e01b5f52603260045260245ffd5b634e487b7160e01b5f52604160045260245ffd5b600460206001600160a01b036101ab8486610346565b5151166040519283809263313ce56760e01b82525afa8015610227575f906101e7575b60ff91501660406101df8385610346565b5101526100eb565b506020813d821161021f575b816102006020938361030f565b8101031261021b575160ff8116810361021b5760ff906101ce565b5f80fd5b3d91506101f3565b6040513d5f823e3d90fd5b636fd462b560e01b5f5260045ffd5b50602061024e8284610346565b510151156100d2565b6301f86e1760e41b5f5260045ffd5b506001600160a01b036102798284610346565b515116156100b1565b8260805260405161060e908161035b82396080518181816059015261054c0152f35b60808483031261021b5760405190608082016001600160401b03811183821017610181576040526102d485610332565b82526020850151602083015260408501516040830152606085015190811515820361021b578260209260606080950152815201930192610095565b601f909101601f19168101906001600160401b0382119082101761018157604052565b51906001600160a01b038216820361021b57565b805182101561016d5760209160051b01019056fe60806040526004361015610011575f80fd5b5f3560e01c806298fa22146102bd578063313ce5671461029b578063a035b1fe1461008c5763a726470514610044575f80fd5b34610088575f366003190112610088576040517f00000000000000000000000000000000000000000000000000000000000000006001600160a01b03168152602090f35b5f80fd5b34610088575f366003190112610088576100a461054a565b5f805481805b8282106100bc57602084604051908152f35b60046100d06100ca8461031e565b506103a0565b8051604051633fabe5a360e21b81529196919260a09184919082906001600160a01b03165afa8015610221575f925f91610264575b505f8313156102555761011890426104fe565b60208701511061024657801561022c575b606086015161015f5760019261014d61014760409461015394610519565b9161050b565b9061052c565b940151915b01906100aa565b916040869296019560046020610175895161050b565b945160405163313ce56760e01b815292839182906001600160a01b03165afa80156102215760ff915f916101f3575b5016604d81116101df576001946101d161014d936101cc6101d79761014795600a0a90610519565b61052c565b90610519565b935191610158565b634e487b7160e01b5f52601160045260245ffd5b610214915060203d811161021a575b61020c818361036a565b8101906103f2565b896101a4565b503d610202565b6040513d5f823e3d90fd5b509050604084019061023e825161050b565b915191610129565b630cd5fa0760e11b5f5260045ffd5b632f38a32b60e21b5f5260045ffd5b905061028891925060a03d8111610294575b610280818361036a565b8101906104c9565b50939250509187610105565b503d610276565b34610088575f3660031901126100885760206102b561040b565b604051908152f35b34610088576020366003190112610088576004355f54811015610088576102e560809161031e565b5060018060a01b038154169060018101549060ff6003600283015492015416916040519384526020840152604083015215156060820152f35b5f54811015610356575f80805260029190911b7f290decd9548b62a8d60345a988386fc84ba6bc95484008f6362f93160ef3e5630191565b634e487b7160e01b5f52603260045260245ffd5b90601f8019910116810190811067ffffffffffffffff82111761038c57604052565b634e487b7160e01b5f52604160045260245ffd5b906040516080810181811067ffffffffffffffff82111761038c57604090815283546001600160a01b031682526001840154602083015260028401549082015260039092015460ff1615156060830152565b90816020910312610088575160ff811681036100885790565b5f5f5f545b80821061041c57505090565b909161042a6100ca8461031e565b80516001600160a01b03169182156104aa5750606081015161049c575060206004916040519283809263313ce56760e01b82525afa9081156102215760019160ff915f9161047e575b5016925b0190610410565b610496915060203d811161021a5761020c818361036a565b5f610473565b600191506040015192610477565b935050505090565b519069ffffffffffffffffffff8216820361008857565b908160a0910312610088576104dd816104b2565b916020820151916040810151916104fb6080606084015193016104b2565b90565b919082039182116101df57565b604d81116101df57600a0a90565b818102929181159184041417156101df57565b8115610536570490565b634e487b7160e01b5f52601260045260245ffd5b7f00000000000000000000000000000000000000000000000000000000000000006001600160a01b031680156105fe5760a060049160405192838092633fabe5a360e21b82525afa908115610221575f905f926105d9575b506105cb576105b4610e1091426104fe565b11156105bc57565b63d15f73b560e01b5f5260045ffd5b62032b3d60e81b5f5260045ffd5b90506105f4915060a03d60a01161029457610280818361036a565b505091505f6105a2565b5056fea164736f6c634300081c000a000000000000000000000000bcf85224fc0756b9fa45aa7892530b47e10b643300000000000000000000000000000000000000000000000000000000000000400000000000000000000000000000000000000000000000000000000000000002000000000000000000000000fc1415403ebb0c693f9a7844b92ad2ff24775c65000000000000000000000000000000000000000000000000000000000001518000000000000000000000000000000000000000000000000000000000000000120000000000000000000000000000000000000000000000000000000000000000000000000000000000000000f586d0728a47229e747d824a939000cf21def5a0000000000000000000000000000000000000000000000000000000000001518000000000000000000000000000000000000000000000000000000000000000120000000000000000000000000000000000000000000000000000000000000001",
        "nonce": "0xd7",
        "chainId": "0x2105"
      },
      "additionalContracts": [],
      "isFixedGasLimit": false
    },
    {
      "hash": "0xb8f50867be0230ce147ff9b563e633cc5e19fd298e4d2dfba6514edf0d6960d8",
      "transactionType": "CALL",
      "contractName": "ERC1967Proxy",
      "contractAddress": "0x35da3f9ced96bef45b3d817ea9f3f7c445cdd87b",
      "function": null,
      "arguments": null,
      "transaction": {
        "from": "0xe80bbcab9e20fc193ef768b68d69f363a7f9a2a1",
        "to": "0x35da3f9ced96bef45b3d817ea9f3f7c445cdd87b",
        "gas": "0x2ff32b",
        "value": "0x0",
        "input": "0xe9910c8e0000000000000000000000000000000000000000000000000000000000000020000000000000000000000000c1cba3fcea344f92d9239c08c0568f6f2f0ee45200000000000000000000000004c0599ae5a44757c0af6f9ec3b93da8976c150a0000000000000000000000000000000000000000000000000000000000000001000000000000000000000000f5c522d1a0bc22cee8edc279171dac511f08391d0000000000000000000000000000000000000000000000000000000000000140000000000000000000000000000000000000000000000000000000000000018000000000000000000000000000000000000000000000000000000000000000010000000000000000000000002ce14406cd37f3e1e376af4061ba0b0e8e4edea700000000000000000000000000000000000000000000000000000000000001c000000000000000000000000000000000000000000000000000000000000002000000000000000000000000000000000000000000000000000000000000000004a035b1fe000000000000000000000000000000000000000000000000000000000000000000000000000000000000000000000000000000000000000000000004313ce567000000000000000000000000000000000000000000000000000000000000000000000000000000000000000000000000000000000000000000000004a035b1fe000000000000000000000000000000000000000000000000000000000000000000000000000000000000000000000000000000000000000000000004313ce56700000000000000000000000000000000000000000000000000000000",
        "nonce": "0xd8",
        "chainId": "0x2105"
      },
      "additionalContracts": [
        {
          "transactionType": "CREATE",
          "address": "0xcf8cfd252ecc2aa3bd3e87ea06b16d47f20e20e0",
          "initCode": "0x60a080604052610467803803809161001782856102a8565b833981016040828203126101ea5761002e826102df565b602083015190926001600160401b0382116101ea570181601f820112156101ea5780519061005b826102f3565b9261006960405194856102a8565b828452602083830101116101ea575f5b82811061029357505060205f9183010152813b15610272577fa3f0ad74e5423aebfd80d3ef4346578335a9a72aeaee59ff6cb3582b35133d5080546001600160a01b0319166001600160a01b038416908117909155604051635c60da1b60e01b8152909190602081600481865afa9081156101f6575f91610238575b50803b156102185750817f1cf3b03a6cf19fa2baba4df148e9dcabedea7f8a5c07840e207e5c089be95d3e5f80a280511561020157602060049260405193848092635c60da1b60e01b82525afa9182156101f6575f926101b1575b50905f8083602061018e95519101845af43d156101a9573d91610172836102f3565b9261018060405194856102a8565b83523d5f602085013e61030e565b505b60805260405160fa908161036d82396080518160180152f35b60609161030e565b91506020823d6020116101ee575b816101cc602093836102a8565b810103126101ea575f806101e261018e946102df565b935050610150565b5f80fd5b3d91506101bf565b6040513d5f823e3d90fd5b505034156101905763b398979f60e01b5f5260045ffd5b634c9c8ce360e01b5f9081526001600160a01b0391909116600452602490fd5b90506020813d60201161026a575b81610253602093836102a8565b810103126101ea57610264906102df565b5f6100f5565b3d9150610246565b50631933b43b60e21b5f9081526001600160a01b0391909116600452602490fd5b80602080928401015182828701015201610079565b601f909101601f19168101906001600160401b038211908210176102cb57604052565b634e487b7160e01b5f52604160045260245ffd5b51906001600160a01b03821682036101ea57565b6001600160401b0381116102cb57601f01601f191660200190565b90610332575080511561032357805190602001fd5b63d6bda27560e01b5f5260045ffd5b81511580610363575b610343575090565b639996b31560e01b5f9081526001600160a01b0391909116600452602490fd5b50803b1561033b56fe60806040819052635c60da1b60e01b81526020906004817f00000000000000000000000000000000000000000000000000000000000000006001600160a01b03165afa801560a2575f901560d1575060203d602011609c575b601f19601f820116608001906080821067ffffffffffffffff83111760885760849160405260800160ad565b60d1565b634e487b7160e01b5f52604160045260245ffd5b503d6058565b6040513d5f823e3d90fd5b602090607f19011260cd576080516001600160a01b038116810360cd5790565b5f80fd5b5f8091368280378136915af43d5f803e1560e9573d5ff35b3d5ffdfea164736f6c634300081c000a0000000000000000000000005e1e40a6062311580eb4d163fb02b6f4ac733d7c000000000000000000000000000000000000000000000000000000000000004000000000000000000000000000000000000000000000000000000000000000c44cd88b7600000000000000000000000000000000000000000000000000000000000000400000000000000000000000000000000000000000000000000000000000000080000000000000000000000000000000000000000000000000000000000000001f53656c662050656767696e67204173736574207773744554482077654554480000000000000000000000000000000000000000000000000000000000000000105350412d7773744554482d77654554480000000000000000000000000000000000000000000000000000000000000000000000000000000000000000"
        },
        {
          "transactionType": "CREATE",
          "address": "0xdd93bd8a6228a468da298fc1a6c18dcb725997a1",
          "initCode": "0x60806040523461033b57610857803803806100198161033f565b92833981019060608183031261033b5780516001600160a01b038116919082900361033b5760208101516001600160401b03811161033b578361005d918301610364565b60408201519093906001600160401b03811161033b5761007d9201610364565b5f80546001600160a01b03191690921790915581516001600160401b03811161024e57600154600181811c91168015610331575b602082101461023057601f81116102ce575b50602092601f821160011461026d57928192935f92610262575b50508160011b915f199060031b1c1916176001555b80516001600160401b03811161024e57600254600181811c91168015610244575b602082101461023057601f81116101cd575b50602091601f821160011461016d579181925f92610162575b50508160011b915f199060031b1c1916176002555b60405161048990816103ce8239f35b015190505f8061013e565b601f1982169260025f52805f20915f5b8581106101b55750836001951061019d575b505050811b01600255610153565b01515f1960f88460031b161c191690555f808061018f565b9192602060018192868501518155019401920161017d565b60025f527f405787fa12a823e0f2b7631cc41b3ba8828b3321ca811111fa75cd3aa3bb5ace601f830160051c81019160208410610226575b601f0160051c01905b81811061021b5750610125565b5f815560010161020e565b9091508190610205565b634e487b7160e01b5f52602260045260245ffd5b90607f1690610113565b634e487b7160e01b5f52604160045260245ffd5b015190505f806100dd565b601f1982169360015f52805f20915f5b8681106102b6575083600195961061029e575b505050811b016001556100f2565b01515f1960f88460031b161c191690555f8080610290565b9192602060018192868501518155019401920161027d565b60015f527fb10e2d527612073b26eecdfd717e6a320cf44b4afac2b0732d9fcbe2b7fa0cf6601f830160051c81019160208410610327575b601f0160051c01905b81811061031c57506100c3565b5f815560010161030f565b9091508190610306565b90607f16906100b1565b5f80fd5b6040519190601f01601f191682016001600160401b0381118382101761024e57604052565b81601f8201121561033b578051906001600160401b03821161024e57610393601f8301601f191660200161033f565b928284526020838301011161033b575f5b8281106103b857505060205f918301015290565b806020809284010151828287010152016103a456fe6080806040526004361015610012575f80fd5b5f3560e01c9081632b513601146102ea575080633ba0b9a9146101fd578063675f0fcf146101585780637dc0d1d01461013157639929031a14610053575f80fd5b3461012d575f36600319011261012d576040515f60025461007381610388565b808452906001811690811561010957506001146100ab575b6100a78361009b818503826103c0565b604051918291826103f6565b0390f35b60025f9081527f405787fa12a823e0f2b7631cc41b3ba8828b3321ca811111fa75cd3aa3bb5ace939250905b8082106100ef5750909150810160200161009b61008b565b9192600181602092548385880101520191019092916100d7565b60ff191660208086019190915291151560051b8401909101915061009b905061008b565b5f80fd5b3461012d575f36600319011261012d575f546040516001600160a01b039091168152602090f35b3461012d575f36600319011261012d576040515f60015461017881610388565b8084529060018116908115610109575060011461019f576100a78361009b818503826103c0565b60015f9081527fb10e2d527612073b26eecdfd717e6a320cf44b4afac2b0732d9fcbe2b7fa0cf6939250905b8082106101e35750909150810160200161009b61008b565b9192600181602092548385880101520191019092916101cb565b3461012d575f36600319011261012d5760018060a01b035f5416604051905f60015461022881610388565b90600181169081156102d55750600114610285575b5090825f93849303915afa61025061043d565b9015610276576020815191818082019384920101031261012d5760209051604051908152f35b6352760cdd60e01b5f5260045ffd5b60015f9081529091507fb10e2d527612073b26eecdfd717e6a320cf44b4afac2b0732d9fcbe2b7fa0cf65b8282106102c157505082018261023d565b6001816020925484880152019101906102b0565b60ff191685525080151502830190508261023d565b3461012d575f36600319011261012d5760018060a01b035f54165f60025461031181610388565b90600181169081156102d55750600114610338575090825f93849303915afa61025061043d565b60025f9081529091507f405787fa12a823e0f2b7631cc41b3ba8828b3321ca811111fa75cd3aa3bb5ace5b82821061037457505082018261023d565b600181602092548488015201910190610363565b90600182811c921680156103b6575b60208310146103a257565b634e487b7160e01b5f52602260045260245ffd5b91607f1691610397565b90601f8019910116810190811067ffffffffffffffff8211176103e257604052565b634e487b7160e01b5f52604160045260245ffd5b9190916020815282518060208301525f5b818110610427575060409293505f838284010152601f8019910116010190565b8060208092870101516040828601015201610407565b3d15610477573d9067ffffffffffffffff82116103e2576040519161046c601f8201601f1916602001846103c0565b82523d5f602084013e565b60609056fea164736f6c634300081c000a000000000000000000000000f5c522d1a0bc22cee8edc279171dac511f08391d000000000000000000000000000000000000000000000000000000000000006000000000000000000000000000000000000000000000000000000000000000a00000000000000000000000000000000000000000000000000000000000000004a035b1fe000000000000000000000000000000000000000000000000000000000000000000000000000000000000000000000000000000000000000000000004313ce56700000000000000000000000000000000000000000000000000000000"
        },
        {
          "transactionType": "CREATE",
          "address": "0x72fbb41772bd3cd3eebf9ed1ef59faf449937af2",
          "initCode": "0x60806040523461033b57610857803803806100198161033f565b92833981019060608183031261033b5780516001600160a01b038116919082900361033b5760208101516001600160401b03811161033b578361005d918301610364565b60408201519093906001600160401b03811161033b5761007d9201610364565b5f80546001600160a01b03191690921790915581516001600160401b03811161024e57600154600181811c91168015610331575b602082101461023057601f81116102ce575b50602092601f821160011461026d57928192935f92610262575b50508160011b915f199060031b1c1916176001555b80516001600160401b03811161024e57600254600181811c91168015610244575b602082101461023057601f81116101cd575b50602091601f821160011461016d579181925f92610162575b50508160011b915f199060031b1c1916176002555b60405161048990816103ce8239f35b015190505f8061013e565b601f1982169260025f52805f20915f5b8581106101b55750836001951061019d575b505050811b01600255610153565b01515f1960f88460031b161c191690555f808061018f565b9192602060018192868501518155019401920161017d565b60025f527f405787fa12a823e0f2b7631cc41b3ba8828b3321ca811111fa75cd3aa3bb5ace601f830160051c81019160208410610226575b601f0160051c01905b81811061021b5750610125565b5f815560010161020e565b9091508190610205565b634e487b7160e01b5f52602260045260245ffd5b90607f1690610113565b634e487b7160e01b5f52604160045260245ffd5b015190505f806100dd565b601f1982169360015f52805f20915f5b8681106102b6575083600195961061029e575b505050811b016001556100f2565b01515f1960f88460031b161c191690555f8080610290565b9192602060018192868501518155019401920161027d565b60015f527fb10e2d527612073b26eecdfd717e6a320cf44b4afac2b0732d9fcbe2b7fa0cf6601f830160051c81019160208410610327575b601f0160051c01905b81811061031c57506100c3565b5f815560010161030f565b9091508190610306565b90607f16906100b1565b5f80fd5b6040519190601f01601f191682016001600160401b0381118382101761024e57604052565b81601f8201121561033b578051906001600160401b03821161024e57610393601f8301601f191660200161033f565b928284526020838301011161033b575f5b8281106103b857505060205f918301015290565b806020809284010151828287010152016103a456fe6080806040526004361015610012575f80fd5b5f3560e01c9081632b513601146102ea575080633ba0b9a9146101fd578063675f0fcf146101585780637dc0d1d01461013157639929031a14610053575f80fd5b3461012d575f36600319011261012d576040515f60025461007381610388565b808452906001811690811561010957506001146100ab575b6100a78361009b818503826103c0565b604051918291826103f6565b0390f35b60025f9081527f405787fa12a823e0f2b7631cc41b3ba8828b3321ca811111fa75cd3aa3bb5ace939250905b8082106100ef5750909150810160200161009b61008b565b9192600181602092548385880101520191019092916100d7565b60ff191660208086019190915291151560051b8401909101915061009b905061008b565b5f80fd5b3461012d575f36600319011261012d575f546040516001600160a01b039091168152602090f35b3461012d575f36600319011261012d576040515f60015461017881610388565b8084529060018116908115610109575060011461019f576100a78361009b818503826103c0565b60015f9081527fb10e2d527612073b26eecdfd717e6a320cf44b4afac2b0732d9fcbe2b7fa0cf6939250905b8082106101e35750909150810160200161009b61008b565b9192600181602092548385880101520191019092916101cb565b3461012d575f36600319011261012d5760018060a01b035f5416604051905f60015461022881610388565b90600181169081156102d55750600114610285575b5090825f93849303915afa61025061043d565b9015610276576020815191818082019384920101031261012d5760209051604051908152f35b6352760cdd60e01b5f5260045ffd5b60015f9081529091507fb10e2d527612073b26eecdfd717e6a320cf44b4afac2b0732d9fcbe2b7fa0cf65b8282106102c157505082018261023d565b6001816020925484880152019101906102b0565b60ff191685525080151502830190508261023d565b3461012d575f36600319011261012d5760018060a01b035f54165f60025461031181610388565b90600181169081156102d55750600114610338575090825f93849303915afa61025061043d565b60025f9081529091507f405787fa12a823e0f2b7631cc41b3ba8828b3321ca811111fa75cd3aa3bb5ace5b82821061037457505082018261023d565b600181602092548488015201910190610363565b90600182811c921680156103b6575b60208310146103a257565b634e487b7160e01b5f52602260045260245ffd5b91607f1691610397565b90601f8019910116810190811067ffffffffffffffff8211176103e257604052565b634e487b7160e01b5f52604160045260245ffd5b9190916020815282518060208301525f5b818110610427575060409293505f838284010152601f8019910116010190565b8060208092870101516040828601015201610407565b3d15610477573d9067ffffffffffffffff82116103e2576040519161046c601f8201601f1916602001846103c0565b82523d5f602084013e565b60609056fea164736f6c634300081c000a0000000000000000000000002ce14406cd37f3e1e376af4061ba0b0e8e4edea7000000000000000000000000000000000000000000000000000000000000006000000000000000000000000000000000000000000000000000000000000000a00000000000000000000000000000000000000000000000000000000000000004a035b1fe000000000000000000000000000000000000000000000000000000000000000000000000000000000000000000000000000000000000000000000004313ce56700000000000000000000000000000000000000000000000000000000"
        },
        {
          "transactionType": "CREATE",
          "address": "0x899881714ed3df17da2e204e2f7f00968050e903",
          "initCode": "0x60a080604052610467803803809161001782856102a8565b833981016040828203126101ea5761002e826102df565b602083015190926001600160401b0382116101ea570181601f820112156101ea5780519061005b826102f3565b9261006960405194856102a8565b828452602083830101116101ea575f5b82811061029357505060205f9183010152813b15610272577fa3f0ad74e5423aebfd80d3ef4346578335a9a72aeaee59ff6cb3582b35133d5080546001600160a01b0319166001600160a01b038416908117909155604051635c60da1b60e01b8152909190602081600481865afa9081156101f6575f91610238575b50803b156102185750817f1cf3b03a6cf19fa2baba4df148e9dcabedea7f8a5c07840e207e5c089be95d3e5f80a280511561020157602060049260405193848092635c60da1b60e01b82525afa9182156101f6575f926101b1575b50905f8083602061018e95519101845af43d156101a9573d91610172836102f3565b9261018060405194856102a8565b83523d5f602085013e61030e565b505b60805260405160fa908161036d82396080518160180152f35b60609161030e565b91506020823d6020116101ee575b816101cc602093836102a8565b810103126101ea575f806101e261018e946102df565b935050610150565b5f80fd5b3d91506101bf565b6040513d5f823e3d90fd5b505034156101905763b398979f60e01b5f5260045ffd5b634c9c8ce360e01b5f9081526001600160a01b0391909116600452602490fd5b90506020813d60201161026a575b81610253602093836102a8565b810103126101ea57610264906102df565b5f6100f5565b3d9150610246565b50631933b43b60e21b5f9081526001600160a01b0391909116600452602490fd5b80602080928401015182828701015201610079565b601f909101601f19168101906001600160401b038211908210176102cb57604052565b634e487b7160e01b5f52604160045260245ffd5b51906001600160a01b03821682036101ea57565b6001600160401b0381116102cb57601f01601f191660200190565b90610332575080511561032357805190602001fd5b63d6bda27560e01b5f5260045ffd5b81511580610363575b610343575090565b639996b31560e01b5f9081526001600160a01b0391909116600452602490fd5b50803b1561033b56fe60806040819052635c60da1b60e01b81526020906004817f00000000000000000000000000000000000000000000000000000000000000006001600160a01b03165afa801560a2575f901560d1575060203d602011609c575b601f19601f820116608001906080821067ffffffffffffffff83111760885760849160405260800160ad565b60d1565b634e487b7160e01b5f52604160045260245ffd5b503d6058565b6040513d5f823e3d90fd5b602090607f19011260cd576080516001600160a01b038116810360cd5790565b5f80fd5b5f8091368280378136915af43d5f803e1560e9573d5ff35b3d5ffdfea164736f6c634300081c000a000000000000000000000000ccf90334583b96ac6d3853928184f068d4eb6ac200000000000000000000000000000000000000000000000000000000000000400000000000000000000000000000000000000000000000000000000000000044e4a301160000000000000000000000000000000000000000000000000000000000000064000000000000000000000000000000000000000000000000000000000000070800000000000000000000000000000000000000000000000000000000"
        },
        {
          "transactionType": "CREATE",
          "address": "0x4cde3396854ba268d4d1ad4fd9125035f05a0a03",
          "initCode": "0x60a080604052610467803803809161001782856102a8565b833981016040828203126101ea5761002e826102df565b602083015190926001600160401b0382116101ea570181601f820112156101ea5780519061005b826102f3565b9261006960405194856102a8565b828452602083830101116101ea575f5b82811061029357505060205f9183010152813b15610272577fa3f0ad74e5423aebfd80d3ef4346578335a9a72aeaee59ff6cb3582b35133d5080546001600160a01b0319166001600160a01b038416908117909155604051635c60da1b60e01b8152909190602081600481865afa9081156101f6575f91610238575b50803b156102185750817f1cf3b03a6cf19fa2baba4df148e9dcabedea7f8a5c07840e207e5c089be95d3e5f80a280511561020157602060049260405193848092635c60da1b60e01b82525afa9182156101f6575f926101b1575b50905f8083602061018e95519101845af43d156101a9573d91610172836102f3565b9261018060405194856102a8565b83523d5f602085013e61030e565b505b60805260405160fa908161036d82396080518160180152f35b60609161030e565b91506020823d6020116101ee575b816101cc602093836102a8565b810103126101ea575f806101e261018e946102df565b935050610150565b5f80fd5b3d91506101bf565b6040513d5f823e3d90fd5b505034156101905763b398979f60e01b5f5260045ffd5b634c9c8ce360e01b5f9081526001600160a01b0391909116600452602490fd5b90506020813d60201161026a575b81610253602093836102a8565b810103126101ea57610264906102df565b5f6100f5565b3d9150610246565b50631933b43b60e21b5f9081526001600160a01b0391909116600452602490fd5b80602080928401015182828701015201610079565b601f909101601f19168101906001600160401b038211908210176102cb57604052565b634e487b7160e01b5f52604160045260245ffd5b51906001600160a01b03821682036101ea57565b6001600160401b0381116102cb57601f01601f191660200190565b90610332575080511561032357805190602001fd5b63d6bda27560e01b5f5260045ffd5b81511580610363575b610343575090565b639996b31560e01b5f9081526001600160a01b0391909116600452602490fd5b50803b1561033b56fe60806040819052635c60da1b60e01b81526020906004817f00000000000000000000000000000000000000000000000000000000000000006001600160a01b03165afa801560a2575f901560d1575060203d602011609c575b601f19601f820116608001906080821067ffffffffffffffff83111760885760849160405260800160ad565b60d1565b634e487b7160e01b5f52604160045260245ffd5b503d6058565b6040513d5f823e3d90fd5b602090607f19011260cd576080516001600160a01b038116810360cd5790565b5f80fd5b5f8091368280378136915af43d5f803e1560e9573d5ff35b3d5ffdfea164736f6c634300081c000a000000000000000000000000521130d7441e615acbb5b8531afef739895fe01b000000000000000000000000000000000000000000000000000000000000004000000000000000000000000000000000000000000000000000000000000002a425a400590000000000000000000000000000000000000000000000000000000000000100000000000000000000000000000000000000000000000000000000000000016000000000000000000000000000000000000000000000000000000000000001c00000000000000000000000000000000000000000000000000000000000000000000000000000000000000000cf8cfd252ecc2aa3bd3e87ea06b16d47f20e20e000000000000000000000000000000000000000000000000000000000000000640000000000000000000000000000000000000000000000000000000000000240000000000000000000000000899881714ed3df17da2e204e2f7f00968050e9030000000000000000000000000000000000000000000000000000000000000002000000000000000000000000c1cba3fcea344f92d9239c08c0568f6f2f0ee45200000000000000000000000004c0599ae5a44757c0af6f9ec3b93da8976c150a00000000000000000000000000000000000000000000000000000000000000020000000000000000000000000000000000000000000000000000000000000001000000000000000000000000000000000000000000000000000000000000000100000000000000000000000000000000000000000000000000000000000000030000000000000000000000000000000000000000000000000000000000000000000000000000000000000000000000000000000000000000000000000000000000000000000000000000000000000000000000000000000000000000000000000000000000000000000000000000000000000000000000000000000000000002000000000000000000000000dd93bd8a6228a468da298fc1a6c18dcb725997a100000000000000000000000072fbb41772bd3cd3eebf9ed1ef59faf449937af200000000000000000000000000000000000000000000000000000000"
        },
        {
          "transactionType": "CREATE",
          "address": "0xd628f04b67ffed935e8afcf944d0791abe345972",
          "initCode": "0x60a080604052610467803803809161001782856102a8565b833981016040828203126101ea5761002e826102df565b602083015190926001600160401b0382116101ea570181601f820112156101ea5780519061005b826102f3565b9261006960405194856102a8565b828452602083830101116101ea575f5b82811061029357505060205f9183010152813b15610272577fa3f0ad74e5423aebfd80d3ef4346578335a9a72aeaee59ff6cb3582b35133d5080546001600160a01b0319166001600160a01b038416908117909155604051635c60da1b60e01b8152909190602081600481865afa9081156101f6575f91610238575b50803b156102185750817f1cf3b03a6cf19fa2baba4df148e9dcabedea7f8a5c07840e207e5c089be95d3e5f80a280511561020157602060049260405193848092635c60da1b60e01b82525afa9182156101f6575f926101b1575b50905f8083602061018e95519101845af43d156101a9573d91610172836102f3565b9261018060405194856102a8565b83523d5f602085013e61030e565b505b60805260405160fa908161036d82396080518160180152f35b60609161030e565b91506020823d6020116101ee575b816101cc602093836102a8565b810103126101ea575f806101e261018e946102df565b935050610150565b5f80fd5b3d91506101bf565b6040513d5f823e3d90fd5b505034156101905763b398979f60e01b5f5260045ffd5b634c9c8ce360e01b5f9081526001600160a01b0391909116600452602490fd5b90506020813d60201161026a575b81610253602093836102a8565b810103126101ea57610264906102df565b5f6100f5565b3d9150610246565b50631933b43b60e21b5f9081526001600160a01b0391909116600452602490fd5b80602080928401015182828701015201610079565b601f909101601f19168101906001600160401b038211908210176102cb57604052565b634e487b7160e01b5f52604160045260245ffd5b51906001600160a01b03821682036101ea57565b6001600160401b0381116102cb57601f01601f191660200190565b90610332575080511561032357805190602001fd5b63d6bda27560e01b5f5260045ffd5b81511580610363575b610343575090565b639996b31560e01b5f9081526001600160a01b0391909116600452602490fd5b50803b1561033b56fe60806040819052635c60da1b60e01b81526020906004817f00000000000000000000000000000000000000000000000000000000000000006001600160a01b03165afa801560a2575f901560d1575060203d602011609c575b601f19601f820116608001906080821067ffffffffffffffff83111760885760849160405260800160ad565b60d1565b634e487b7160e01b5f52604160045260245ffd5b503d6058565b6040513d5f823e3d90fd5b602090607f19011260cd576080516001600160a01b038116810360cd5790565b5f80fd5b5f8091368280378136915af43d5f803e1560e9573d5ff35b3d5ffdfea164736f6c634300081c000a000000000000000000000000d2533d8837de715a3539b225d4528e847146655e00000000000000000000000000000000000000000000000000000000000000400000000000000000000000000000000000000000000000000000000000000024c4d66de8000000000000000000000000cf8cfd252ecc2aa3bd3e87ea06b16d47f20e20e000000000000000000000000000000000000000000000000000000000"
        }
      ],
      "isFixedGasLimit": false
    },
    {
      "hash": "0xc9bcfc3d511167dff6f49d11666de444e740b035133cb3f07f1fa68a96d7be74",
      "transactionType": "CALL",
      "contractName": null,
      "contractAddress": "0xc1cba3fcea344f92d9239c08c0568f6f2f0ee452",
      "function": "approve(address,uint256)",
      "arguments": [
        "0x4cdE3396854Ba268d4D1AD4fD9125035f05a0A03",
        "2500000000000000"
      ],
      "transaction": {
        "from": "0xe80bbcab9e20fc193ef768b68d69f363a7f9a2a1",
        "to": "0xc1cba3fcea344f92d9239c08c0568f6f2f0ee452",
        "gas": "0x114b7",
        "value": "0x0",
        "input": "0x095ea7b30000000000000000000000004cde3396854ba268d4d1ad4fd9125035f05a0a030000000000000000000000000000000000000000000000000008e1bc9bf04000",
        "nonce": "0xd9",
        "chainId": "0x2105"
      },
      "additionalContracts": [],
      "isFixedGasLimit": false
    },
    {
      "hash": "0x8ed0d71754168011a2fc2115e171b7300849bc077f2b4085532a1f006c9f8b62",
      "transactionType": "CALL",
      "contractName": "TransparentUpgradeableProxy",
      "contractAddress": "0x04c0599ae5a44757c0af6f9ec3b93da8976c150a",
      "function": null,
      "arguments": null,
      "transaction": {
        "from": "0xe80bbcab9e20fc193ef768b68d69f363a7f9a2a1",
        "to": "0x04c0599ae5a44757c0af6f9ec3b93da8976c150a",
        "gas": "0x1159c",
        "value": "0x0",
        "input": "0x095ea7b30000000000000000000000004cde3396854ba268d4d1ad4fd9125035f05a0a030000000000000000000000000000000000000000000000000008e1bc9bf04000",
        "nonce": "0xda",
        "chainId": "0x2105"
      },
      "additionalContracts": [],
      "isFixedGasLimit": false
    },
    {
      "hash": "0x0c891d07e4c1f6e555534fba303dd36954b0a58148ea21ca415133e830f7349c",
      "transactionType": "CALL",
      "contractName": "BeaconProxy",
      "contractAddress": "0x4cde3396854ba268d4d1ad4fd9125035f05a0a03",
      "function": null,
      "arguments": null,
      "transaction": {
        "from": "0xe80bbcab9e20fc193ef768b68d69f363a7f9a2a1",
        "to": "0x4cde3396854ba268d4d1ad4fd9125035f05a0a03",
        "gas": "0xc4d0c",
        "value": "0x0",
        "input": "0x0bd062460000000000000000000000000000000000000000000000000000000000000040000000000000000000000000000000000000000000000000000000000000000000000000000000000000000000000000000000000000000000000000000000020000000000000000000000000000000000000000000000000008e1bc9bf040000000000000000000000000000000000000000000000000000008e1bc9bf04000",
        "nonce": "0xdb",
        "chainId": "0x2105"
      },
      "additionalContracts": [],
      "isFixedGasLimit": false
    },
    {
      "hash": "0x4fc4dc29bddd821d74a8a6fa57a3f483dfe978b09c61feb37c65c07b379c765c",
      "transactionType": "CREATE",
      "contractName": "ChainlinkCompositeOracleProvider",
      "contractAddress": "0x9cf3d901f5821f58425f98cbca8e6df916abc2d3",
      "function": null,
      "arguments": [
        "0xBCF85224fc0756B9Fa45aA7892530B47e10b6433",
        "[(0xf586d0728a47229e747d824a939000Cf21dEF5A0, 86400, 18, true)]"
      ],
      "transaction": {
        "from": "0xe80bbcab9e20fc193ef768b68d69f363a7f9a2a1",
        "gas": "0xa35e2",
        "value": "0x0",
        "input": "0x60a0806040523461021b57610969803803809161001c828561030f565b8339810160408282031261021b5761003382610332565b602083015190926001600160401b03821161021b570181601f8201121561021b578051906001600160401b038211610181576040519261007960208460051b018561030f565b82845260208085019360071b8301019181831161021b57602001925b8284106102a45785855f5b815181101561028257801580610266575b610257576001600160a01b036100c78284610346565b515116151580610241575b6102325760606100e28284610346565b51015115610195575b6100f58183610346565b51905f5491680100000000000000008310156101815760018301805f5583101561016d57606060036001945f805260205f209060021b01858060a01b03845116868060a01b03198254161781556020840151868201556040840151600282015501910151151560ff80198354169116179055016100a0565b634e487b7160e01b5f52603260045260245ffd5b634e487b7160e01b5f52604160045260245ffd5b600460206001600160a01b036101ab8486610346565b5151166040519283809263313ce56760e01b82525afa8015610227575f906101e7575b60ff91501660406101df8385610346565b5101526100eb565b506020813d821161021f575b816102006020938361030f565b8101031261021b575160ff8116810361021b5760ff906101ce565b5f80fd5b3d91506101f3565b6040513d5f823e3d90fd5b636fd462b560e01b5f5260045ffd5b50602061024e8284610346565b510151156100d2565b6301f86e1760e41b5f5260045ffd5b506001600160a01b036102798284610346565b515116156100b1565b8260805260405161060e908161035b82396080518181816059015261054c0152f35b60808483031261021b5760405190608082016001600160401b03811183821017610181576040526102d485610332565b82526020850151602083015260408501516040830152606085015190811515820361021b578260209260606080950152815201930192610095565b601f909101601f19168101906001600160401b0382119082101761018157604052565b51906001600160a01b038216820361021b57565b805182101561016d5760209160051b01019056fe60806040526004361015610011575f80fd5b5f3560e01c806298fa22146102bd578063313ce5671461029b578063a035b1fe1461008c5763a726470514610044575f80fd5b34610088575f366003190112610088576040517f00000000000000000000000000000000000000000000000000000000000000006001600160a01b03168152602090f35b5f80fd5b34610088575f366003190112610088576100a461054a565b5f805481805b8282106100bc57602084604051908152f35b60046100d06100ca8461031e565b506103a0565b8051604051633fabe5a360e21b81529196919260a09184919082906001600160a01b03165afa8015610221575f925f91610264575b505f8313156102555761011890426104fe565b60208701511061024657801561022c575b606086015161015f5760019261014d61014760409461015394610519565b9161050b565b9061052c565b940151915b01906100aa565b916040869296019560046020610175895161050b565b945160405163313ce56760e01b815292839182906001600160a01b03165afa80156102215760ff915f916101f3575b5016604d81116101df576001946101d161014d936101cc6101d79761014795600a0a90610519565b61052c565b90610519565b935191610158565b634e487b7160e01b5f52601160045260245ffd5b610214915060203d811161021a575b61020c818361036a565b8101906103f2565b896101a4565b503d610202565b6040513d5f823e3d90fd5b509050604084019061023e825161050b565b915191610129565b630cd5fa0760e11b5f5260045ffd5b632f38a32b60e21b5f5260045ffd5b905061028891925060a03d8111610294575b610280818361036a565b8101906104c9565b50939250509187610105565b503d610276565b34610088575f3660031901126100885760206102b561040b565b604051908152f35b34610088576020366003190112610088576004355f54811015610088576102e560809161031e565b5060018060a01b038154169060018101549060ff6003600283015492015416916040519384526020840152604083015215156060820152f35b5f54811015610356575f80805260029190911b7f290decd9548b62a8d60345a988386fc84ba6bc95484008f6362f93160ef3e5630191565b634e487b7160e01b5f52603260045260245ffd5b90601f8019910116810190811067ffffffffffffffff82111761038c57604052565b634e487b7160e01b5f52604160045260245ffd5b906040516080810181811067ffffffffffffffff82111761038c57604090815283546001600160a01b031682526001840154602083015260028401549082015260039092015460ff1615156060830152565b90816020910312610088575160ff811681036100885790565b5f5f5f545b80821061041c57505090565b909161042a6100ca8461031e565b80516001600160a01b03169182156104aa5750606081015161049c575060206004916040519283809263313ce56760e01b82525afa9081156102215760019160ff915f9161047e575b5016925b0190610410565b610496915060203d811161021a5761020c818361036a565b5f610473565b600191506040015192610477565b935050505090565b519069ffffffffffffffffffff8216820361008857565b908160a0910312610088576104dd816104b2565b916020820151916040810151916104fb6080606084015193016104b2565b90565b919082039182116101df57565b604d81116101df57600a0a90565b818102929181159184041417156101df57565b8115610536570490565b634e487b7160e01b5f52601260045260245ffd5b7f00000000000000000000000000000000000000000000000000000000000000006001600160a01b031680156105fe5760a060049160405192838092633fabe5a360e21b82525afa908115610221575f905f926105d9575b506105cb576105b4610e1091426104fe565b11156105bc57565b63d15f73b560e01b5f5260045ffd5b62032b3d60e81b5f5260045ffd5b90506105f4915060a03d60a01161029457610280818361036a565b505091505f6105a2565b5056fea164736f6c634300081c000a000000000000000000000000bcf85224fc0756b9fa45aa7892530b47e10b643300000000000000000000000000000000000000000000000000000000000000400000000000000000000000000000000000000000000000000000000000000001000000000000000000000000f586d0728a47229e747d824a939000cf21def5a0000000000000000000000000000000000000000000000000000000000001518000000000000000000000000000000000000000000000000000000000000000120000000000000000000000000000000000000000000000000000000000000001",
        "nonce": "0xdc",
        "chainId": "0x2105"
      },
      "additionalContracts": [],
      "isFixedGasLimit": false
    },
    {
      "hash": "0x8331c0708464d168261e073012dc5f9f01c1ece68ecc24f129427e30043cbacd",
      "transactionType": "CALL",
      "contractName": "ERC1967Proxy",
      "contractAddress": "0x35da3f9ced96bef45b3d817ea9f3f7c445cdd87b",
      "function": null,
      "arguments": null,
      "transaction": {
        "from": "0xe80bbcab9e20fc193ef768b68d69f363a7f9a2a1",
        "to": "0x35da3f9ced96bef45b3d817ea9f3f7c445cdd87b",
        "gas": "0x3248d6",
        "value": "0x0",
        "input": "0xe9910c8e00000000000000000000000000000000000000000000000000000000000000200000000000000000000000004200000000000000000000000000000000000006000000000000000000000000c1cba3fcea344f92d9239c08c0568f6f2f0ee45200000000000000000000000000000000000000000000000000000000000000010000000000000000000000009cf3d901f5821f58425f98cbca8e6df916abc2d3000000000000000000000000000000000000000000000000000000000000014000000000000000000000000000000000000000000000000000000000000001800000000000000000000000000000000000000000000000000000000000000001000000000000000000000000f5c522d1a0bc22cee8edc279171dac511f08391d00000000000000000000000000000000000000000000000000000000000001c000000000000000000000000000000000000000000000000000000000000002000000000000000000000000000000000000000000000000000000000000000004a035b1fe000000000000000000000000000000000000000000000000000000000000000000000000000000000000000000000000000000000000000000000004313ce567000000000000000000000000000000000000000000000000000000000000000000000000000000000000000000000000000000000000000000000004a035b1fe000000000000000000000000000000000000000000000000000000000000000000000000000000000000000000000000000000000000000000000004313ce56700000000000000000000000000000000000000000000000000000000",
        "nonce": "0xdd",
        "chainId": "0x2105"
      },
      "additionalContracts": [
        {
          "transactionType": "CREATE",
          "address": "0xc9271ceaf8fec24ec2ce0e838f0ccad255ba30e3",
          "initCode": "0x60a080604052610467803803809161001782856102a8565b833981016040828203126101ea5761002e826102df565b602083015190926001600160401b0382116101ea570181601f820112156101ea5780519061005b826102f3565b9261006960405194856102a8565b828452602083830101116101ea575f5b82811061029357505060205f9183010152813b15610272577fa3f0ad74e5423aebfd80d3ef4346578335a9a72aeaee59ff6cb3582b35133d5080546001600160a01b0319166001600160a01b038416908117909155604051635c60da1b60e01b8152909190602081600481865afa9081156101f6575f91610238575b50803b156102185750817f1cf3b03a6cf19fa2baba4df148e9dcabedea7f8a5c07840e207e5c089be95d3e5f80a280511561020157602060049260405193848092635c60da1b60e01b82525afa9182156101f6575f926101b1575b50905f8083602061018e95519101845af43d156101a9573d91610172836102f3565b9261018060405194856102a8565b83523d5f602085013e61030e565b505b60805260405160fa908161036d82396080518160180152f35b60609161030e565b91506020823d6020116101ee575b816101cc602093836102a8565b810103126101ea575f806101e261018e946102df565b935050610150565b5f80fd5b3d91506101bf565b6040513d5f823e3d90fd5b505034156101905763b398979f60e01b5f5260045ffd5b634c9c8ce360e01b5f9081526001600160a01b0391909116600452602490fd5b90506020813d60201161026a575b81610253602093836102a8565b810103126101ea57610264906102df565b5f6100f5565b3d9150610246565b50631933b43b60e21b5f9081526001600160a01b0391909116600452602490fd5b80602080928401015182828701015201610079565b601f909101601f19168101906001600160401b038211908210176102cb57604052565b634e487b7160e01b5f52604160045260245ffd5b51906001600160a01b03821682036101ea57565b6001600160401b0381116102cb57601f01601f191660200190565b90610332575080511561032357805190602001fd5b63d6bda27560e01b5f5260045ffd5b81511580610363575b610343575090565b639996b31560e01b5f9081526001600160a01b0391909116600452602490fd5b50803b1561033b56fe60806040819052635c60da1b60e01b81526020906004817f00000000000000000000000000000000000000000000000000000000000000006001600160a01b03165afa801560a2575f901560d1575060203d602011609c575b601f19601f820116608001906080821067ffffffffffffffff83111760885760849160405260800160ad565b60d1565b634e487b7160e01b5f52604160045260245ffd5b503d6058565b6040513d5f823e3d90fd5b602090607f19011260cd576080516001600160a01b038116810360cd5790565b5f80fd5b5f8091368280378136915af43d5f803e1560e9573d5ff35b3d5ffdfea164736f6c634300081c000a0000000000000000000000005e1e40a6062311580eb4d163fb02b6f4ac733d7c000000000000000000000000000000000000000000000000000000000000004000000000000000000000000000000000000000000000000000000000000000c44cd88b7600000000000000000000000000000000000000000000000000000000000000400000000000000000000000000000000000000000000000000000000000000080000000000000000000000000000000000000000000000000000000000000001e53656c662050656767696e672041737365742057455448207773744554480000000000000000000000000000000000000000000000000000000000000000000f5350412d574554482d777374455448000000000000000000000000000000000000000000000000000000000000000000000000000000000000000000"
        },
        {
          "transactionType": "CREATE",
          "address": "0xbd38bb41e2fbbbf4f36ab8ef9f24d510fff3bc4d",
          "initCode": "0x60806040523461033b57610857803803806100198161033f565b92833981019060608183031261033b5780516001600160a01b038116919082900361033b5760208101516001600160401b03811161033b578361005d918301610364565b60408201519093906001600160401b03811161033b5761007d9201610364565b5f80546001600160a01b03191690921790915581516001600160401b03811161024e57600154600181811c91168015610331575b602082101461023057601f81116102ce575b50602092601f821160011461026d57928192935f92610262575b50508160011b915f199060031b1c1916176001555b80516001600160401b03811161024e57600254600181811c91168015610244575b602082101461023057601f81116101cd575b50602091601f821160011461016d579181925f92610162575b50508160011b915f199060031b1c1916176002555b60405161048990816103ce8239f35b015190505f8061013e565b601f1982169260025f52805f20915f5b8581106101b55750836001951061019d575b505050811b01600255610153565b01515f1960f88460031b161c191690555f808061018f565b9192602060018192868501518155019401920161017d565b60025f527f405787fa12a823e0f2b7631cc41b3ba8828b3321ca811111fa75cd3aa3bb5ace601f830160051c81019160208410610226575b601f0160051c01905b81811061021b5750610125565b5f815560010161020e565b9091508190610205565b634e487b7160e01b5f52602260045260245ffd5b90607f1690610113565b634e487b7160e01b5f52604160045260245ffd5b015190505f806100dd565b601f1982169360015f52805f20915f5b8681106102b6575083600195961061029e575b505050811b016001556100f2565b01515f1960f88460031b161c191690555f8080610290565b9192602060018192868501518155019401920161027d565b60015f527fb10e2d527612073b26eecdfd717e6a320cf44b4afac2b0732d9fcbe2b7fa0cf6601f830160051c81019160208410610327575b601f0160051c01905b81811061031c57506100c3565b5f815560010161030f565b9091508190610306565b90607f16906100b1565b5f80fd5b6040519190601f01601f191682016001600160401b0381118382101761024e57604052565b81601f8201121561033b578051906001600160401b03821161024e57610393601f8301601f191660200161033f565b928284526020838301011161033b575f5b8281106103b857505060205f918301015290565b806020809284010151828287010152016103a456fe6080806040526004361015610012575f80fd5b5f3560e01c9081632b513601146102ea575080633ba0b9a9146101fd578063675f0fcf146101585780637dc0d1d01461013157639929031a14610053575f80fd5b3461012d575f36600319011261012d576040515f60025461007381610388565b808452906001811690811561010957506001146100ab575b6100a78361009b818503826103c0565b604051918291826103f6565b0390f35b60025f9081527f405787fa12a823e0f2b7631cc41b3ba8828b3321ca811111fa75cd3aa3bb5ace939250905b8082106100ef5750909150810160200161009b61008b565b9192600181602092548385880101520191019092916100d7565b60ff191660208086019190915291151560051b8401909101915061009b905061008b565b5f80fd5b3461012d575f36600319011261012d575f546040516001600160a01b039091168152602090f35b3461012d575f36600319011261012d576040515f60015461017881610388565b8084529060018116908115610109575060011461019f576100a78361009b818503826103c0565b60015f9081527fb10e2d527612073b26eecdfd717e6a320cf44b4afac2b0732d9fcbe2b7fa0cf6939250905b8082106101e35750909150810160200161009b61008b565b9192600181602092548385880101520191019092916101cb565b3461012d575f36600319011261012d5760018060a01b035f5416604051905f60015461022881610388565b90600181169081156102d55750600114610285575b5090825f93849303915afa61025061043d565b9015610276576020815191818082019384920101031261012d5760209051604051908152f35b6352760cdd60e01b5f5260045ffd5b60015f9081529091507fb10e2d527612073b26eecdfd717e6a320cf44b4afac2b0732d9fcbe2b7fa0cf65b8282106102c157505082018261023d565b6001816020925484880152019101906102b0565b60ff191685525080151502830190508261023d565b3461012d575f36600319011261012d5760018060a01b035f54165f60025461031181610388565b90600181169081156102d55750600114610338575090825f93849303915afa61025061043d565b60025f9081529091507f405787fa12a823e0f2b7631cc41b3ba8828b3321ca811111fa75cd3aa3bb5ace5b82821061037457505082018261023d565b600181602092548488015201910190610363565b90600182811c921680156103b6575b60208310146103a257565b634e487b7160e01b5f52602260045260245ffd5b91607f1691610397565b90601f8019910116810190811067ffffffffffffffff8211176103e257604052565b634e487b7160e01b5f52604160045260245ffd5b9190916020815282518060208301525f5b818110610427575060409293505f838284010152601f8019910116010190565b8060208092870101516040828601015201610407565b3d15610477573d9067ffffffffffffffff82116103e2576040519161046c601f8201601f1916602001846103c0565b82523d5f602084013e565b60609056fea164736f6c634300081c000a0000000000000000000000009cf3d901f5821f58425f98cbca8e6df916abc2d3000000000000000000000000000000000000000000000000000000000000006000000000000000000000000000000000000000000000000000000000000000a00000000000000000000000000000000000000000000000000000000000000004a035b1fe000000000000000000000000000000000000000000000000000000000000000000000000000000000000000000000000000000000000000000000004313ce56700000000000000000000000000000000000000000000000000000000"
        },
        {
          "transactionType": "CREATE",
          "address": "0xe1b35d5aa57f961f351301386e14289418bdca15",
          "initCode": "0x60806040523461033b57610857803803806100198161033f565b92833981019060608183031261033b5780516001600160a01b038116919082900361033b5760208101516001600160401b03811161033b578361005d918301610364565b60408201519093906001600160401b03811161033b5761007d9201610364565b5f80546001600160a01b03191690921790915581516001600160401b03811161024e57600154600181811c91168015610331575b602082101461023057601f81116102ce575b50602092601f821160011461026d57928192935f92610262575b50508160011b915f199060031b1c1916176001555b80516001600160401b03811161024e57600254600181811c91168015610244575b602082101461023057601f81116101cd575b50602091601f821160011461016d579181925f92610162575b50508160011b915f199060031b1c1916176002555b60405161048990816103ce8239f35b015190505f8061013e565b601f1982169260025f52805f20915f5b8581106101b55750836001951061019d575b505050811b01600255610153565b01515f1960f88460031b161c191690555f808061018f565b9192602060018192868501518155019401920161017d565b60025f527f405787fa12a823e0f2b7631cc41b3ba8828b3321ca811111fa75cd3aa3bb5ace601f830160051c81019160208410610226575b601f0160051c01905b81811061021b5750610125565b5f815560010161020e565b9091508190610205565b634e487b7160e01b5f52602260045260245ffd5b90607f1690610113565b634e487b7160e01b5f52604160045260245ffd5b015190505f806100dd565b601f1982169360015f52805f20915f5b8681106102b6575083600195961061029e575b505050811b016001556100f2565b01515f1960f88460031b161c191690555f8080610290565b9192602060018192868501518155019401920161027d565b60015f527fb10e2d527612073b26eecdfd717e6a320cf44b4afac2b0732d9fcbe2b7fa0cf6601f830160051c81019160208410610327575b601f0160051c01905b81811061031c57506100c3565b5f815560010161030f565b9091508190610306565b90607f16906100b1565b5f80fd5b6040519190601f01601f191682016001600160401b0381118382101761024e57604052565b81601f8201121561033b578051906001600160401b03821161024e57610393601f8301601f191660200161033f565b928284526020838301011161033b575f5b8281106103b857505060205f918301015290565b806020809284010151828287010152016103a456fe6080806040526004361015610012575f80fd5b5f3560e01c9081632b513601146102ea575080633ba0b9a9146101fd578063675f0fcf146101585780637dc0d1d01461013157639929031a14610053575f80fd5b3461012d575f36600319011261012d576040515f60025461007381610388565b808452906001811690811561010957506001146100ab575b6100a78361009b818503826103c0565b604051918291826103f6565b0390f35b60025f9081527f405787fa12a823e0f2b7631cc41b3ba8828b3321ca811111fa75cd3aa3bb5ace939250905b8082106100ef5750909150810160200161009b61008b565b9192600181602092548385880101520191019092916100d7565b60ff191660208086019190915291151560051b8401909101915061009b905061008b565b5f80fd5b3461012d575f36600319011261012d575f546040516001600160a01b039091168152602090f35b3461012d575f36600319011261012d576040515f60015461017881610388565b8084529060018116908115610109575060011461019f576100a78361009b818503826103c0565b60015f9081527fb10e2d527612073b26eecdfd717e6a320cf44b4afac2b0732d9fcbe2b7fa0cf6939250905b8082106101e35750909150810160200161009b61008b565b9192600181602092548385880101520191019092916101cb565b3461012d575f36600319011261012d5760018060a01b035f5416604051905f60015461022881610388565b90600181169081156102d55750600114610285575b5090825f93849303915afa61025061043d565b9015610276576020815191818082019384920101031261012d5760209051604051908152f35b6352760cdd60e01b5f5260045ffd5b60015f9081529091507fb10e2d527612073b26eecdfd717e6a320cf44b4afac2b0732d9fcbe2b7fa0cf65b8282106102c157505082018261023d565b6001816020925484880152019101906102b0565b60ff191685525080151502830190508261023d565b3461012d575f36600319011261012d5760018060a01b035f54165f60025461031181610388565b90600181169081156102d55750600114610338575090825f93849303915afa61025061043d565b60025f9081529091507f405787fa12a823e0f2b7631cc41b3ba8828b3321ca811111fa75cd3aa3bb5ace5b82821061037457505082018261023d565b600181602092548488015201910190610363565b90600182811c921680156103b6575b60208310146103a257565b634e487b7160e01b5f52602260045260245ffd5b91607f1691610397565b90601f8019910116810190811067ffffffffffffffff8211176103e257604052565b634e487b7160e01b5f52604160045260245ffd5b9190916020815282518060208301525f5b818110610427575060409293505f838284010152601f8019910116010190565b8060208092870101516040828601015201610407565b3d15610477573d9067ffffffffffffffff82116103e2576040519161046c601f8201601f1916602001846103c0565b82523d5f602084013e565b60609056fea164736f6c634300081c000a000000000000000000000000f5c522d1a0bc22cee8edc279171dac511f08391d000000000000000000000000000000000000000000000000000000000000006000000000000000000000000000000000000000000000000000000000000000a00000000000000000000000000000000000000000000000000000000000000004a035b1fe000000000000000000000000000000000000000000000000000000000000000000000000000000000000000000000000000000000000000000000004313ce56700000000000000000000000000000000000000000000000000000000"
        },
        {
          "transactionType": "CREATE",
          "address": "0xcc51d754f36bb31f14d8ed4a16b9aa5a4d2f18a1",
          "initCode": "0x60a080604052610467803803809161001782856102a8565b833981016040828203126101ea5761002e826102df565b602083015190926001600160401b0382116101ea570181601f820112156101ea5780519061005b826102f3565b9261006960405194856102a8565b828452602083830101116101ea575f5b82811061029357505060205f9183010152813b15610272577fa3f0ad74e5423aebfd80d3ef4346578335a9a72aeaee59ff6cb3582b35133d5080546001600160a01b0319166001600160a01b038416908117909155604051635c60da1b60e01b8152909190602081600481865afa9081156101f6575f91610238575b50803b156102185750817f1cf3b03a6cf19fa2baba4df148e9dcabedea7f8a5c07840e207e5c089be95d3e5f80a280511561020157602060049260405193848092635c60da1b60e01b82525afa9182156101f6575f926101b1575b50905f8083602061018e95519101845af43d156101a9573d91610172836102f3565b9261018060405194856102a8565b83523d5f602085013e61030e565b505b60805260405160fa908161036d82396080518160180152f35b60609161030e565b91506020823d6020116101ee575b816101cc602093836102a8565b810103126101ea575f806101e261018e946102df565b935050610150565b5f80fd5b3d91506101bf565b6040513d5f823e3d90fd5b505034156101905763b398979f60e01b5f5260045ffd5b634c9c8ce360e01b5f9081526001600160a01b0391909116600452602490fd5b90506020813d60201161026a575b81610253602093836102a8565b810103126101ea57610264906102df565b5f6100f5565b3d9150610246565b50631933b43b60e21b5f9081526001600160a01b0391909116600452602490fd5b80602080928401015182828701015201610079565b601f909101601f19168101906001600160401b038211908210176102cb57604052565b634e487b7160e01b5f52604160045260245ffd5b51906001600160a01b03821682036101ea57565b6001600160401b0381116102cb57601f01601f191660200190565b90610332575080511561032357805190602001fd5b63d6bda27560e01b5f5260045ffd5b81511580610363575b610343575090565b639996b31560e01b5f9081526001600160a01b0391909116600452602490fd5b50803b1561033b56fe60806040819052635c60da1b60e01b81526020906004817f00000000000000000000000000000000000000000000000000000000000000006001600160a01b03165afa801560a2575f901560d1575060203d602011609c575b601f19601f820116608001906080821067ffffffffffffffff83111760885760849160405260800160ad565b60d1565b634e487b7160e01b5f52604160045260245ffd5b503d6058565b6040513d5f823e3d90fd5b602090607f19011260cd576080516001600160a01b038116810360cd5790565b5f80fd5b5f8091368280378136915af43d5f803e1560e9573d5ff35b3d5ffdfea164736f6c634300081c000a000000000000000000000000ccf90334583b96ac6d3853928184f068d4eb6ac200000000000000000000000000000000000000000000000000000000000000400000000000000000000000000000000000000000000000000000000000000044e4a301160000000000000000000000000000000000000000000000000000000000000064000000000000000000000000000000000000000000000000000000000000070800000000000000000000000000000000000000000000000000000000"
        },
        {
          "transactionType": "CREATE",
          "address": "0x2407f46cfb35930866e796bbc7f564311daf809b",
          "initCode": "0x60a080604052610467803803809161001782856102a8565b833981016040828203126101ea5761002e826102df565b602083015190926001600160401b0382116101ea570181601f820112156101ea5780519061005b826102f3565b9261006960405194856102a8565b828452602083830101116101ea575f5b82811061029357505060205f9183010152813b15610272577fa3f0ad74e5423aebfd80d3ef4346578335a9a72aeaee59ff6cb3582b35133d5080546001600160a01b0319166001600160a01b038416908117909155604051635c60da1b60e01b8152909190602081600481865afa9081156101f6575f91610238575b50803b156102185750817f1cf3b03a6cf19fa2baba4df148e9dcabedea7f8a5c07840e207e5c089be95d3e5f80a280511561020157602060049260405193848092635c60da1b60e01b82525afa9182156101f6575f926101b1575b50905f8083602061018e95519101845af43d156101a9573d91610172836102f3565b9261018060405194856102a8565b83523d5f602085013e61030e565b505b60805260405160fa908161036d82396080518160180152f35b60609161030e565b91506020823d6020116101ee575b816101cc602093836102a8565b810103126101ea575f806101e261018e946102df565b935050610150565b5f80fd5b3d91506101bf565b6040513d5f823e3d90fd5b505034156101905763b398979f60e01b5f5260045ffd5b634c9c8ce360e01b5f9081526001600160a01b0391909116600452602490fd5b90506020813d60201161026a575b81610253602093836102a8565b810103126101ea57610264906102df565b5f6100f5565b3d9150610246565b50631933b43b60e21b5f9081526001600160a01b0391909116600452602490fd5b80602080928401015182828701015201610079565b601f909101601f19168101906001600160401b038211908210176102cb57604052565b634e487b7160e01b5f52604160045260245ffd5b51906001600160a01b03821682036101ea57565b6001600160401b0381116102cb57601f01601f191660200190565b90610332575080511561032357805190602001fd5b63d6bda27560e01b5f5260045ffd5b81511580610363575b610343575090565b639996b31560e01b5f9081526001600160a01b0391909116600452602490fd5b50803b1561033b56fe60806040819052635c60da1b60e01b81526020906004817f00000000000000000000000000000000000000000000000000000000000000006001600160a01b03165afa801560a2575f901560d1575060203d602011609c575b601f19601f820116608001906080821067ffffffffffffffff83111760885760849160405260800160ad565b60d1565b634e487b7160e01b5f52604160045260245ffd5b503d6058565b6040513d5f823e3d90fd5b602090607f19011260cd576080516001600160a01b038116810360cd5790565b5f80fd5b5f8091368280378136915af43d5f803e1560e9573d5ff35b3d5ffdfea164736f6c634300081c000a000000000000000000000000521130d7441e615acbb5b8531afef739895fe01b000000000000000000000000000000000000000000000000000000000000004000000000000000000000000000000000000000000000000000000000000002a425a400590000000000000000000000000000000000000000000000000000000000000100000000000000000000000000000000000000000000000000000000000000016000000000000000000000000000000000000000000000000000000000000001c00000000000000000000000000000000000000000000000000000000000000000000000000000000000000000c9271ceaf8fec24ec2ce0e838f0ccad255ba30e300000000000000000000000000000000000000000000000000000000000000640000000000000000000000000000000000000000000000000000000000000240000000000000000000000000cc51d754f36bb31f14d8ed4a16b9aa5a4d2f18a100000000000000000000000000000000000000000000000000000000000000020000000000000000000000004200000000000000000000000000000000000006000000000000000000000000c1cba3fcea344f92d9239c08c0568f6f2f0ee45200000000000000000000000000000000000000000000000000000000000000020000000000000000000000000000000000000000000000000000000000000001000000000000000000000000000000000000000000000000000000000000000100000000000000000000000000000000000000000000000000000000000000030000000000000000000000000000000000000000000000000000000000000000000000000000000000000000000000000000000000000000000000000000000000000000000000000000000000000000000000000000000000000000000000000000000000000000000000000000000000000000000000000000000000000002000000000000000000000000bd38bb41e2fbbbf4f36ab8ef9f24d510fff3bc4d000000000000000000000000e1b35d5aa57f961f351301386e14289418bdca1500000000000000000000000000000000000000000000000000000000"
        },
        {
          "transactionType": "CREATE",
          "address": "0x8453aabff7d2a7b91953b62820806ee7ab88864a",
          "initCode": "0x60a080604052610467803803809161001782856102a8565b833981016040828203126101ea5761002e826102df565b602083015190926001600160401b0382116101ea570181601f820112156101ea5780519061005b826102f3565b9261006960405194856102a8565b828452602083830101116101ea575f5b82811061029357505060205f9183010152813b15610272577fa3f0ad74e5423aebfd80d3ef4346578335a9a72aeaee59ff6cb3582b35133d5080546001600160a01b0319166001600160a01b038416908117909155604051635c60da1b60e01b8152909190602081600481865afa9081156101f6575f91610238575b50803b156102185750817f1cf3b03a6cf19fa2baba4df148e9dcabedea7f8a5c07840e207e5c089be95d3e5f80a280511561020157602060049260405193848092635c60da1b60e01b82525afa9182156101f6575f926101b1575b50905f8083602061018e95519101845af43d156101a9573d91610172836102f3565b9261018060405194856102a8565b83523d5f602085013e61030e565b505b60805260405160fa908161036d82396080518160180152f35b60609161030e565b91506020823d6020116101ee575b816101cc602093836102a8565b810103126101ea575f806101e261018e946102df565b935050610150565b5f80fd5b3d91506101bf565b6040513d5f823e3d90fd5b505034156101905763b398979f60e01b5f5260045ffd5b634c9c8ce360e01b5f9081526001600160a01b0391909116600452602490fd5b90506020813d60201161026a575b81610253602093836102a8565b810103126101ea57610264906102df565b5f6100f5565b3d9150610246565b50631933b43b60e21b5f9081526001600160a01b0391909116600452602490fd5b80602080928401015182828701015201610079565b601f909101601f19168101906001600160401b038211908210176102cb57604052565b634e487b7160e01b5f52604160045260245ffd5b51906001600160a01b03821682036101ea57565b6001600160401b0381116102cb57601f01601f191660200190565b90610332575080511561032357805190602001fd5b63d6bda27560e01b5f5260045ffd5b81511580610363575b610343575090565b639996b31560e01b5f9081526001600160a01b0391909116600452602490fd5b50803b1561033b56fe60806040819052635c60da1b60e01b81526020906004817f00000000000000000000000000000000000000000000000000000000000000006001600160a01b03165afa801560a2575f901560d1575060203d602011609c575b601f19601f820116608001906080821067ffffffffffffffff83111760885760849160405260800160ad565b60d1565b634e487b7160e01b5f52604160045260245ffd5b503d6058565b6040513d5f823e3d90fd5b602090607f19011260cd576080516001600160a01b038116810360cd5790565b5f80fd5b5f8091368280378136915af43d5f803e1560e9573d5ff35b3d5ffdfea164736f6c634300081c000a000000000000000000000000d2533d8837de715a3539b225d4528e847146655e00000000000000000000000000000000000000000000000000000000000000400000000000000000000000000000000000000000000000000000000000000024c4d66de8000000000000000000000000c9271ceaf8fec24ec2ce0e838f0ccad255ba30e300000000000000000000000000000000000000000000000000000000"
        }
      ],
      "isFixedGasLimit": false
    },
    {
      "hash": "0x91b4d3bcfc60e6c50f51502e480e103786bdb68f003a6dba677815f05e083ce7",
      "transactionType": "CALL",
      "contractName": "WETH9",
      "contractAddress": "0x4200000000000000000000000000000000000006",
      "function": "approve(address,uint256)",
      "arguments": [
        "0x2407f46cFB35930866E796bBc7F564311daF809b",
        "2500000000000000"
      ],
      "transaction": {
        "from": "0xe80bbcab9e20fc193ef768b68d69f363a7f9a2a1",
        "to": "0x4200000000000000000000000000000000000006",
        "gas": "0xf85b",
        "value": "0x0",
        "input": "0x095ea7b30000000000000000000000002407f46cfb35930866e796bbc7f564311daf809b0000000000000000000000000000000000000000000000000008e1bc9bf04000",
        "nonce": "0xde",
        "chainId": "0x2105"
      },
      "additionalContracts": [],
      "isFixedGasLimit": false
    },
    {
      "hash": "0x86943f5090e4a497bd7832fcab4e6a3934aeb8310adff8a030a5bc9801a42ea1",
      "transactionType": "CALL",
      "contractName": null,
      "contractAddress": "0xc1cba3fcea344f92d9239c08c0568f6f2f0ee452",
      "function": "approve(address,uint256)",
      "arguments": [
        "0x2407f46cFB35930866E796bBc7F564311daF809b",
        "2500000000000000"
      ],
      "transaction": {
        "from": "0xe80bbcab9e20fc193ef768b68d69f363a7f9a2a1",
        "to": "0xc1cba3fcea344f92d9239c08c0568f6f2f0ee452",
        "gas": "0x114b7",
        "value": "0x0",
        "input": "0x095ea7b30000000000000000000000002407f46cfb35930866e796bbc7f564311daf809b0000000000000000000000000000000000000000000000000008e1bc9bf04000",
        "nonce": "0xdf",
        "chainId": "0x2105"
      },
      "additionalContracts": [],
      "isFixedGasLimit": false
    },
    {
      "hash": "0x86acbf88912c3e62f5143f933dd896c3cfee5516805c717a0081fa82035cfa53",
      "transactionType": "CALL",
      "contractName": "BeaconProxy",
      "contractAddress": "0x2407f46cfb35930866e796bbc7f564311daf809b",
      "function": null,
      "arguments": null,
      "transaction": {
        "from": "0xe80bbcab9e20fc193ef768b68d69f363a7f9a2a1",
        "to": "0x2407f46cfb35930866e796bbc7f564311daf809b",
        "gas": "0xb302c",
        "value": "0x0",
        "input": "0x0bd062460000000000000000000000000000000000000000000000000000000000000040000000000000000000000000000000000000000000000000000000000000000000000000000000000000000000000000000000000000000000000000000000020000000000000000000000000000000000000000000000000008e1bc9bf040000000000000000000000000000000000000000000000000000008e1bc9bf04000",
        "nonce": "0xe0",
        "chainId": "0x2105"
      },
      "additionalContracts": [],
      "isFixedGasLimit": false
    }
  ],
  "receipts": [
    {
      "status": "0x1",
      "cumulativeGasUsed": "0x37afdb9",
      "logs": [],
      "logsBloom": "0x00000000000000000000000000000000000000000000000000000000000000000000000000000000000000000000000000000000000000000000000000000000000000000000000000000000000000000000000000000000000000000000000000000000000000000000000000000000000000000000000000000000000000000000000000000000000000000000000000000000000000000000000000000000000000000000000000000000000000000000000000000000000000000000000000000000000000000000000000000000000000000000000000000000000000000000000000000000000000000000000000000000000000000000000000000000",
      "type": "0x2",
      "transactionHash": "0xe863bc7a6e69dc9ceeb46b6c6d5c6bb9d2dfedf7e5fc0f8195424b8baffcb250",
      "transactionIndex": "0xf3",
      "blockHash": "0xd1c5cc1b4cee4723de941c9881b899d7501146935c34010eb83c52175f8ca8fe",
      "blockNumber": "0x1c27fa5",
      "gasUsed": "0x45054",
      "effectiveGasPrice": "0x77beef",
      "from": "0xe80bbcab9e20fc193ef768b68d69f363a7f9a2a1",
      "to": null,
      "contractAddress": "0xf5c522d1a0bc22cee8edc279171dac511f08391d",
      "l1BaseFeeScalar": "0x8dd",
      "l1BlobBaseFee": "0x19ac964ba",
      "l1BlobBaseFeeScalar": "0x101c12",
      "l1Fee": "0x558b5f42ef3",
      "l1GasPrice": "0x2e808f0a",
      "l1GasUsed": "0x324c"
    },
    {
      "status": "0x1",
      "cumulativeGasUsed": "0x3840e99",
      "logs": [],
      "logsBloom": "0x00000000000000000000000000000000000000000000000000000000000000000000000000000000000000000000000000000000000000000000000000000000000000000000000000000000000000000000000000000000000000000000000000000000000000000000000000000000000000000000000000000000000000000000000000000000000000000000000000000000000000000000000000000000000000000000000000000000000000000000000000000000000000000000000000000000000000000000000000000000000000000000000000000000000000000000000000000000000000000000000000000000000000000000000000000000",
      "type": "0x2",
      "transactionHash": "0xf5dc0958431024d7b03adba218c2780910714efccfc28be76336499a57c9464f",
      "transactionIndex": "0xf4",
      "blockHash": "0xd1c5cc1b4cee4723de941c9881b899d7501146935c34010eb83c52175f8ca8fe",
      "blockNumber": "0x1c27fa5",
      "gasUsed": "0x910e0",
      "effectiveGasPrice": "0x77beef",
      "from": "0xe80bbcab9e20fc193ef768b68d69f363a7f9a2a1",
      "to": null,
      "contractAddress": "0x2ce14406cd37f3e1e376af4061ba0b0e8e4edea7",
      "l1BaseFeeScalar": "0x8dd",
      "l1BlobBaseFee": "0x19ac964ba",
      "l1BlobBaseFeeScalar": "0x101c12",
      "l1Fee": "0xb28cb5b7caa",
      "l1GasPrice": "0x2e808f0a",
      "l1GasUsed": "0x68fc"
    },
    {
      "status": "0x1",
      "cumulativeGasUsed": "0x3a6c599",
      "logs": [
        {
          "address": "0xcf8cfd252ecc2aa3bd3e87ea06b16d47f20e20e0",
          "topics": [
            "0x1cf3b03a6cf19fa2baba4df148e9dcabedea7f8a5c07840e207e5c089be95d3e",
            "0x0000000000000000000000005e1e40a6062311580eb4d163fb02b6f4ac733d7c"
          ],
          "data": "0x",
          "blockHash": "0xd1c5cc1b4cee4723de941c9881b899d7501146935c34010eb83c52175f8ca8fe",
          "blockNumber": "0x1c27fa5",
          "transactionHash": "0xb8f50867be0230ce147ff9b563e633cc5e19fd298e4d2dfba6514edf0d6960d8",
          "transactionIndex": "0xf5",
          "logIndex": "0x2ad",
          "removed": false
        },
        {
          "address": "0xcf8cfd252ecc2aa3bd3e87ea06b16d47f20e20e0",
          "topics": [
            "0x8be0079c531659141344cd1fd0a4f28419497f9722a3daafe3b4186f6b6457e0",
            "0x0000000000000000000000000000000000000000000000000000000000000000",
            "0x00000000000000000000000035da3f9ced96bef45b3d817ea9f3f7c445cdd87b"
          ],
          "data": "0x",
          "blockHash": "0xd1c5cc1b4cee4723de941c9881b899d7501146935c34010eb83c52175f8ca8fe",
          "blockNumber": "0x1c27fa5",
          "transactionHash": "0xb8f50867be0230ce147ff9b563e633cc5e19fd298e4d2dfba6514edf0d6960d8",
          "transactionIndex": "0xf5",
          "logIndex": "0x2ae",
          "removed": false
        },
        {
          "address": "0xcf8cfd252ecc2aa3bd3e87ea06b16d47f20e20e0",
          "topics": [
            "0xc7f505b2f371ae2175ee4913f4499e1f2633a7b5936321eed1cdaeb6115181d2"
          ],
          "data": "0x0000000000000000000000000000000000000000000000000000000000000001",
          "blockHash": "0xd1c5cc1b4cee4723de941c9881b899d7501146935c34010eb83c52175f8ca8fe",
          "blockNumber": "0x1c27fa5",
          "transactionHash": "0xb8f50867be0230ce147ff9b563e633cc5e19fd298e4d2dfba6514edf0d6960d8",
          "transactionIndex": "0xf5",
          "logIndex": "0x2af",
          "removed": false
        },
        {
          "address": "0x899881714ed3df17da2e204e2f7f00968050e903",
          "topics": [
            "0x1cf3b03a6cf19fa2baba4df148e9dcabedea7f8a5c07840e207e5c089be95d3e",
            "0x000000000000000000000000ccf90334583b96ac6d3853928184f068d4eb6ac2"
          ],
          "data": "0x",
          "blockHash": "0xd1c5cc1b4cee4723de941c9881b899d7501146935c34010eb83c52175f8ca8fe",
          "blockNumber": "0x1c27fa5",
          "transactionHash": "0xb8f50867be0230ce147ff9b563e633cc5e19fd298e4d2dfba6514edf0d6960d8",
          "transactionIndex": "0xf5",
          "logIndex": "0x2b0",
          "removed": false
        },
        {
          "address": "0x899881714ed3df17da2e204e2f7f00968050e903",
          "topics": [
            "0x8be0079c531659141344cd1fd0a4f28419497f9722a3daafe3b4186f6b6457e0",
            "0x0000000000000000000000000000000000000000000000000000000000000000",
            "0x00000000000000000000000035da3f9ced96bef45b3d817ea9f3f7c445cdd87b"
          ],
          "data": "0x",
          "blockHash": "0xd1c5cc1b4cee4723de941c9881b899d7501146935c34010eb83c52175f8ca8fe",
          "blockNumber": "0x1c27fa5",
          "transactionHash": "0xb8f50867be0230ce147ff9b563e633cc5e19fd298e4d2dfba6514edf0d6960d8",
          "transactionIndex": "0xf5",
          "logIndex": "0x2b1",
          "removed": false
        },
        {
          "address": "0x899881714ed3df17da2e204e2f7f00968050e903",
          "topics": [
            "0x7a62cf7b9006cf6d98e74e54f87f7921ebbab2259658cb564284f4ce348cfbbe"
          ],
          "data": "0x00000000000000000000000000000000000000000000000000000000000000000000000000000000000000000000000000000000000000000000000000000708",
          "blockHash": "0xd1c5cc1b4cee4723de941c9881b899d7501146935c34010eb83c52175f8ca8fe",
          "blockNumber": "0x1c27fa5",
          "transactionHash": "0xb8f50867be0230ce147ff9b563e633cc5e19fd298e4d2dfba6514edf0d6960d8",
          "transactionIndex": "0xf5",
          "logIndex": "0x2b2",
          "removed": false
        },
        {
          "address": "0x899881714ed3df17da2e204e2f7f00968050e903",
          "topics": [
            "0xc7f505b2f371ae2175ee4913f4499e1f2633a7b5936321eed1cdaeb6115181d2"
          ],
          "data": "0x0000000000000000000000000000000000000000000000000000000000000001",
          "blockHash": "0xd1c5cc1b4cee4723de941c9881b899d7501146935c34010eb83c52175f8ca8fe",
          "blockNumber": "0x1c27fa5",
          "transactionHash": "0xb8f50867be0230ce147ff9b563e633cc5e19fd298e4d2dfba6514edf0d6960d8",
          "transactionIndex": "0xf5",
          "logIndex": "0x2b3",
          "removed": false
        },
        {
          "address": "0x4cde3396854ba268d4d1ad4fd9125035f05a0a03",
          "topics": [
            "0x1cf3b03a6cf19fa2baba4df148e9dcabedea7f8a5c07840e207e5c089be95d3e",
            "0x000000000000000000000000521130d7441e615acbb5b8531afef739895fe01b"
          ],
          "data": "0x",
          "blockHash": "0xd1c5cc1b4cee4723de941c9881b899d7501146935c34010eb83c52175f8ca8fe",
          "blockNumber": "0x1c27fa5",
          "transactionHash": "0xb8f50867be0230ce147ff9b563e633cc5e19fd298e4d2dfba6514edf0d6960d8",
          "transactionIndex": "0xf5",
          "logIndex": "0x2b4",
          "removed": false
        },
        {
          "address": "0x4cde3396854ba268d4d1ad4fd9125035f05a0a03",
          "topics": [
            "0x8be0079c531659141344cd1fd0a4f28419497f9722a3daafe3b4186f6b6457e0",
            "0x0000000000000000000000000000000000000000000000000000000000000000",
            "0x00000000000000000000000035da3f9ced96bef45b3d817ea9f3f7c445cdd87b"
          ],
          "data": "0x",
          "blockHash": "0xd1c5cc1b4cee4723de941c9881b899d7501146935c34010eb83c52175f8ca8fe",
          "blockNumber": "0x1c27fa5",
          "transactionHash": "0xb8f50867be0230ce147ff9b563e633cc5e19fd298e4d2dfba6514edf0d6960d8",
          "transactionIndex": "0xf5",
          "logIndex": "0x2b5",
          "removed": false
        },
        {
          "address": "0x4cde3396854ba268d4d1ad4fd9125035f05a0a03",
          "topics": [
            "0xc7f505b2f371ae2175ee4913f4499e1f2633a7b5936321eed1cdaeb6115181d2"
          ],
          "data": "0x0000000000000000000000000000000000000000000000000000000000000001",
          "blockHash": "0xd1c5cc1b4cee4723de941c9881b899d7501146935c34010eb83c52175f8ca8fe",
          "blockNumber": "0x1c27fa5",
          "transactionHash": "0xb8f50867be0230ce147ff9b563e633cc5e19fd298e4d2dfba6514edf0d6960d8",
          "transactionIndex": "0xf5",
          "logIndex": "0x2b6",
          "removed": false
        },
        {
          "address": "0x4cde3396854ba268d4d1ad4fd9125035f05a0a03",
          "topics": [
            "0x8be0079c531659141344cd1fd0a4f28419497f9722a3daafe3b4186f6b6457e0",
            "0x00000000000000000000000035da3f9ced96bef45b3d817ea9f3f7c445cdd87b",
            "0x000000000000000000000000e80bbcab9e20fc193ef768b68d69f363a7f9a2a1"
          ],
          "data": "0x",
          "blockHash": "0xd1c5cc1b4cee4723de941c9881b899d7501146935c34010eb83c52175f8ca8fe",
          "blockNumber": "0x1c27fa5",
          "transactionHash": "0xb8f50867be0230ce147ff9b563e633cc5e19fd298e4d2dfba6514edf0d6960d8",
          "transactionIndex": "0xf5",
          "logIndex": "0x2b7",
          "removed": false
        },
        {
          "address": "0xcf8cfd252ecc2aa3bd3e87ea06b16d47f20e20e0",
          "topics": [
            "0x73cca62ab1b520c9715bf4e6c71e3e518c754e7148f65102f43289a7df0efea6",
            "0x0000000000000000000000004cde3396854ba268d4d1ad4fd9125035f05a0a03"
          ],
          "data": "0x",
          "blockHash": "0xd1c5cc1b4cee4723de941c9881b899d7501146935c34010eb83c52175f8ca8fe",
          "blockNumber": "0x1c27fa5",
          "transactionHash": "0xb8f50867be0230ce147ff9b563e633cc5e19fd298e4d2dfba6514edf0d6960d8",
          "transactionIndex": "0xf5",
          "logIndex": "0x2b8",
          "removed": false
        },
        {
          "address": "0xcf8cfd252ecc2aa3bd3e87ea06b16d47f20e20e0",
          "topics": [
            "0x8be0079c531659141344cd1fd0a4f28419497f9722a3daafe3b4186f6b6457e0",
            "0x00000000000000000000000035da3f9ced96bef45b3d817ea9f3f7c445cdd87b",
            "0x000000000000000000000000e80bbcab9e20fc193ef768b68d69f363a7f9a2a1"
          ],
          "data": "0x",
          "blockHash": "0xd1c5cc1b4cee4723de941c9881b899d7501146935c34010eb83c52175f8ca8fe",
          "blockNumber": "0x1c27fa5",
          "transactionHash": "0xb8f50867be0230ce147ff9b563e633cc5e19fd298e4d2dfba6514edf0d6960d8",
          "transactionIndex": "0xf5",
          "logIndex": "0x2b9",
          "removed": false
        },
        {
          "address": "0x899881714ed3df17da2e204e2f7f00968050e903",
          "topics": [
            "0x8be0079c531659141344cd1fd0a4f28419497f9722a3daafe3b4186f6b6457e0",
            "0x00000000000000000000000035da3f9ced96bef45b3d817ea9f3f7c445cdd87b",
            "0x000000000000000000000000e80bbcab9e20fc193ef768b68d69f363a7f9a2a1"
          ],
          "data": "0x",
          "blockHash": "0xd1c5cc1b4cee4723de941c9881b899d7501146935c34010eb83c52175f8ca8fe",
          "blockNumber": "0x1c27fa5",
          "transactionHash": "0xb8f50867be0230ce147ff9b563e633cc5e19fd298e4d2dfba6514edf0d6960d8",
          "transactionIndex": "0xf5",
          "logIndex": "0x2ba",
          "removed": false
        },
        {
          "address": "0xd628f04b67ffed935e8afcf944d0791abe345972",
          "topics": [
            "0x1cf3b03a6cf19fa2baba4df148e9dcabedea7f8a5c07840e207e5c089be95d3e",
            "0x000000000000000000000000d2533d8837de715a3539b225d4528e847146655e"
          ],
          "data": "0x",
          "blockHash": "0xd1c5cc1b4cee4723de941c9881b899d7501146935c34010eb83c52175f8ca8fe",
          "blockNumber": "0x1c27fa5",
          "transactionHash": "0xb8f50867be0230ce147ff9b563e633cc5e19fd298e4d2dfba6514edf0d6960d8",
          "transactionIndex": "0xf5",
          "logIndex": "0x2bb",
          "removed": false
        },
        {
          "address": "0xd628f04b67ffed935e8afcf944d0791abe345972",
          "topics": [
            "0xc7f505b2f371ae2175ee4913f4499e1f2633a7b5936321eed1cdaeb6115181d2"
          ],
          "data": "0x0000000000000000000000000000000000000000000000000000000000000001",
          "blockHash": "0xd1c5cc1b4cee4723de941c9881b899d7501146935c34010eb83c52175f8ca8fe",
          "blockNumber": "0x1c27fa5",
          "transactionHash": "0xb8f50867be0230ce147ff9b563e633cc5e19fd298e4d2dfba6514edf0d6960d8",
          "transactionIndex": "0xf5",
          "logIndex": "0x2bc",
          "removed": false
        },
        {
          "address": "0x35da3f9ced96bef45b3d817ea9f3f7c445cdd87b",
          "topics": [
            "0x55b6e041bb1679bf2b32c9252ad372f3459868b982e77a0ae577d59c947e3757"
          ],
          "data": "0x000000000000000000000000cf8cfd252ecc2aa3bd3e87ea06b16d47f20e20e00000000000000000000000004cde3396854ba268d4d1ad4fd9125035f05a0a03000000000000000000000000d628f04b67ffed935e8afcf944d0791abe345972000000000000000000000000899881714ed3df17da2e204e2f7f00968050e903",
          "blockHash": "0xd1c5cc1b4cee4723de941c9881b899d7501146935c34010eb83c52175f8ca8fe",
          "blockNumber": "0x1c27fa5",
          "transactionHash": "0xb8f50867be0230ce147ff9b563e633cc5e19fd298e4d2dfba6514edf0d6960d8",
          "transactionIndex": "0xf5",
          "logIndex": "0x2bd",
          "removed": false
        }
      ],
      "logsBloom": "0x0000100000c000400008000000000000000000000000000000800000000040001000000000000010000000000800000000500100080000000000000100000000100100100020000000000814001000000001020000000040000000000000000000000000020000000000008000000920000200000000000000000000000c00400000000000010008000800000000080000000000000080000000002000000000100000000000000000004000000000000000000000000200000000000042000020000000000004000000000000000008000000000004000000800000000020002000004000000000000000000400000000000000000000000000000004040000",
      "type": "0x2",
      "transactionHash": "0xb8f50867be0230ce147ff9b563e633cc5e19fd298e4d2dfba6514edf0d6960d8",
      "transactionIndex": "0xf5",
      "blockHash": "0xd1c5cc1b4cee4723de941c9881b899d7501146935c34010eb83c52175f8ca8fe",
      "blockNumber": "0x1c27fa5",
      "gasUsed": "0x22b700",
      "effectiveGasPrice": "0x77beef",
      "from": "0xe80bbcab9e20fc193ef768b68d69f363a7f9a2a1",
      "to": "0x35da3f9ced96bef45b3d817ea9f3f7c445cdd87b",
      "contractAddress": null,
      "l1BaseFeeScalar": "0x8dd",
      "l1BlobBaseFee": "0x19ac964ba",
      "l1BlobBaseFeeScalar": "0x101c12",
      "l1Fee": "0x16ae71eb239",
      "l1GasPrice": "0x2e808f0a",
      "l1GasUsed": "0xd56"
    },
    {
      "status": "0x1",
      "cumulativeGasUsed": "0x3a78df0",
      "logs": [
        {
          "address": "0xc1cba3fcea344f92d9239c08c0568f6f2f0ee452",
          "topics": [
            "0x8c5be1e5ebec7d5bd14f71427d1e84f3dd0314c0f7b2291e5b200ac8c7c3b925",
            "0x000000000000000000000000e80bbcab9e20fc193ef768b68d69f363a7f9a2a1",
            "0x0000000000000000000000004cde3396854ba268d4d1ad4fd9125035f05a0a03"
          ],
          "data": "0x0000000000000000000000000000000000000000000000000008e1bc9bf04000",
          "blockHash": "0xd1c5cc1b4cee4723de941c9881b899d7501146935c34010eb83c52175f8ca8fe",
          "blockNumber": "0x1c27fa5",
          "transactionHash": "0xc9bcfc3d511167dff6f49d11666de444e740b035133cb3f07f1fa68a96d7be74",
          "transactionIndex": "0xf6",
          "logIndex": "0x2be",
          "removed": false
        }
      ],
      "logsBloom": "0x00000000000000000000000000000000000000000000000000000000000000000000000000000000000000000000000000000100000000000000000000200000000000000000000000000000400000000000020000000000000000000000000000000000000000000000000000000000000000000000000000000000000000000000000000000000000000000000000000000000000000000000000000000000120000000000000000000000000000000000000000000000000000000000000040000000000004000000000000000000000000000000000000000000000000000010004000000000000000000000000000000080000000000000000004000000",
      "type": "0x2",
      "transactionHash": "0xc9bcfc3d511167dff6f49d11666de444e740b035133cb3f07f1fa68a96d7be74",
      "transactionIndex": "0xf6",
      "blockHash": "0xd1c5cc1b4cee4723de941c9881b899d7501146935c34010eb83c52175f8ca8fe",
      "blockNumber": "0x1c27fa5",
      "gasUsed": "0xc857",
      "effectiveGasPrice": "0x77beef",
      "from": "0xe80bbcab9e20fc193ef768b68d69f363a7f9a2a1",
      "to": "0xc1cba3fcea344f92d9239c08c0568f6f2f0ee452",
      "contractAddress": null,
      "l1BaseFeeScalar": "0x8dd",
      "l1BlobBaseFee": "0x19ac964ba",
      "l1BlobBaseFeeScalar": "0x101c12",
      "l1Fee": "0xaa121e9e5d",
      "l1GasPrice": "0x2e808f0a",
      "l1GasUsed": "0x640"
    },
    {
      "status": "0x1",
      "cumulativeGasUsed": "0x3a856ed",
      "logs": [
        {
          "address": "0x04c0599ae5a44757c0af6f9ec3b93da8976c150a",
          "topics": [
            "0x8c5be1e5ebec7d5bd14f71427d1e84f3dd0314c0f7b2291e5b200ac8c7c3b925",
            "0x000000000000000000000000e80bbcab9e20fc193ef768b68d69f363a7f9a2a1",
            "0x0000000000000000000000004cde3396854ba268d4d1ad4fd9125035f05a0a03"
          ],
          "data": "0x0000000000000000000000000000000000000000000000000008e1bc9bf04000",
          "blockHash": "0xd1c5cc1b4cee4723de941c9881b899d7501146935c34010eb83c52175f8ca8fe",
          "blockNumber": "0x1c27fa5",
          "transactionHash": "0x8ed0d71754168011a2fc2115e171b7300849bc077f2b4085532a1f006c9f8b62",
          "transactionIndex": "0xf7",
          "logIndex": "0x2bf",
          "removed": false
        }
      ],
      "logsBloom": "0x00000000000000000000000000000000000000000000000000000000000000104000000000000000000000000000000000000100000000000000000000200000000000000000000000000000000000000000020000000000000000000000000000000000000000000000000000000000000000000000000000000000000000000000000000000000000000000000000100000000000000000000000000000000120000000000000000000000000000000000000000000000000000000000000000000000000004000000000000000000000000000000000000000000000000000010004000000000000000000000000000000000000000000000000004000000",
      "type": "0x2",
      "transactionHash": "0x8ed0d71754168011a2fc2115e171b7300849bc077f2b4085532a1f006c9f8b62",
      "transactionIndex": "0xf7",
      "blockHash": "0xd1c5cc1b4cee4723de941c9881b899d7501146935c34010eb83c52175f8ca8fe",
      "blockNumber": "0x1c27fa5",
      "gasUsed": "0xc8fd",
      "effectiveGasPrice": "0x77beef",
      "from": "0xe80bbcab9e20fc193ef768b68d69f363a7f9a2a1",
      "to": "0x04c0599ae5a44757c0af6f9ec3b93da8976c150a",
      "contractAddress": null,
      "l1BaseFeeScalar": "0x8dd",
      "l1BlobBaseFee": "0x19ac964ba",
      "l1BlobBaseFeeScalar": "0x101c12",
      "l1Fee": "0xaa121e9e5d",
      "l1GasPrice": "0x2e808f0a",
      "l1GasUsed": "0x640"
    },
    {
      "status": "0x1",
      "cumulativeGasUsed": "0x3b0c01f",
      "logs": [
        {
          "address": "0xc1cba3fcea344f92d9239c08c0568f6f2f0ee452",
          "topics": [
            "0x8c5be1e5ebec7d5bd14f71427d1e84f3dd0314c0f7b2291e5b200ac8c7c3b925",
            "0x000000000000000000000000e80bbcab9e20fc193ef768b68d69f363a7f9a2a1",
            "0x0000000000000000000000004cde3396854ba268d4d1ad4fd9125035f05a0a03"
          ],
          "data": "0x0000000000000000000000000000000000000000000000000000000000000000",
          "blockHash": "0xd1c5cc1b4cee4723de941c9881b899d7501146935c34010eb83c52175f8ca8fe",
          "blockNumber": "0x1c27fa5",
          "transactionHash": "0x0c891d07e4c1f6e555534fba303dd36954b0a58148ea21ca415133e830f7349c",
          "transactionIndex": "0xf8",
          "logIndex": "0x2c0",
          "removed": false
        },
        {
          "address": "0xc1cba3fcea344f92d9239c08c0568f6f2f0ee452",
          "topics": [
            "0xddf252ad1be2c89b69c2b068fc378daa952ba7f163c4a11628f55a4df523b3ef",
            "0x000000000000000000000000e80bbcab9e20fc193ef768b68d69f363a7f9a2a1",
            "0x0000000000000000000000004cde3396854ba268d4d1ad4fd9125035f05a0a03"
          ],
          "data": "0x0000000000000000000000000000000000000000000000000008e1bc9bf04000",
          "blockHash": "0xd1c5cc1b4cee4723de941c9881b899d7501146935c34010eb83c52175f8ca8fe",
          "blockNumber": "0x1c27fa5",
          "transactionHash": "0x0c891d07e4c1f6e555534fba303dd36954b0a58148ea21ca415133e830f7349c",
          "transactionIndex": "0xf8",
          "logIndex": "0x2c1",
          "removed": false
        },
        {
          "address": "0x04c0599ae5a44757c0af6f9ec3b93da8976c150a",
          "topics": [
            "0xddf252ad1be2c89b69c2b068fc378daa952ba7f163c4a11628f55a4df523b3ef",
            "0x000000000000000000000000e80bbcab9e20fc193ef768b68d69f363a7f9a2a1",
            "0x0000000000000000000000004cde3396854ba268d4d1ad4fd9125035f05a0a03"
          ],
          "data": "0x0000000000000000000000000000000000000000000000000008e1bc9bf04000",
          "blockHash": "0xd1c5cc1b4cee4723de941c9881b899d7501146935c34010eb83c52175f8ca8fe",
          "blockNumber": "0x1c27fa5",
          "transactionHash": "0x0c891d07e4c1f6e555534fba303dd36954b0a58148ea21ca415133e830f7349c",
          "transactionIndex": "0xf8",
          "logIndex": "0x2c2",
          "removed": false
        },
        {
          "address": "0xcf8cfd252ecc2aa3bd3e87ea06b16d47f20e20e0",
          "topics": [
            "0xddf252ad1be2c89b69c2b068fc378daa952ba7f163c4a11628f55a4df523b3ef",
            "0x0000000000000000000000000000000000000000000000000000000000000000",
            "0x000000000000000000000000e80bbcab9e20fc193ef768b68d69f363a7f9a2a1"
          ],
          "data": "0x000000000000000000000000000000000000000000000000001424dfa0063887",
          "blockHash": "0xd1c5cc1b4cee4723de941c9881b899d7501146935c34010eb83c52175f8ca8fe",
          "blockNumber": "0x1c27fa5",
          "transactionHash": "0x0c891d07e4c1f6e555534fba303dd36954b0a58148ea21ca415133e830f7349c",
          "transactionIndex": "0xf8",
          "logIndex": "0x2c3",
          "removed": false
        },
        {
          "address": "0xcf8cfd252ecc2aa3bd3e87ea06b16d47f20e20e0",
          "topics": [
            "0x9d9c909296d9c674451c0c24f02cb64981eb3b727f99865939192f880a755dcb",
            "0x0000000000000000000000000000000000000000000000000000000000000000",
            "0x000000000000000000000000e80bbcab9e20fc193ef768b68d69f363a7f9a2a1"
          ],
          "data": "0x000000000000000000000000000000000000000000000000001424dfa0063887",
          "blockHash": "0xd1c5cc1b4cee4723de941c9881b899d7501146935c34010eb83c52175f8ca8fe",
          "blockNumber": "0x1c27fa5",
          "transactionHash": "0x0c891d07e4c1f6e555534fba303dd36954b0a58148ea21ca415133e830f7349c",
          "transactionIndex": "0xf8",
          "logIndex": "0x2c4",
          "removed": false
        },
        {
          "address": "0x4cde3396854ba268d4d1ad4fd9125035f05a0a03",
          "topics": [
            "0xc1258b6f224442b6aa30f317612f0920bb2f76d968200d28d9163ec6aee9ad00",
            "0x000000000000000000000000e80bbcab9e20fc193ef768b68d69f363a7f9a2a1"
          ],
          "data": "0x000000000000000000000000000000000000000000000000001424dfa0063c6f0000000000000000000000000000000000000000000000000000000000000060000000000000000000000000000000000000000000000000000000000000000000000000000000000000000000000000000000000000000000000000000000020000000000000000000000000000000000000000000000000008e1bc9bf040000000000000000000000000000000000000000000000000000008e1bc9bf04000",
          "blockHash": "0xd1c5cc1b4cee4723de941c9881b899d7501146935c34010eb83c52175f8ca8fe",
          "blockNumber": "0x1c27fa5",
          "transactionHash": "0x0c891d07e4c1f6e555534fba303dd36954b0a58148ea21ca415133e830f7349c",
          "transactionIndex": "0xf8",
          "logIndex": "0x2c5",
          "removed": false
        }
      ],
      "logsBloom": "0x00000000000000000000000000000000000000000200000000000000000000104000000000000000000000000000000000000100000000000000000100200000000300000000000000000808400000000000020000000000000000000000000000000000020000000000008000000800000000000000000000000010000000000000000000000000000000000000000100008000000000800000002000000000120000000000000000000000000000000000000000000000000000000000000040000002000004000000000000000000000000000000000000000000000020002010004000800000000000000400000000000080000000000000000004000000",
      "type": "0x2",
      "transactionHash": "0x0c891d07e4c1f6e555534fba303dd36954b0a58148ea21ca415133e830f7349c",
      "transactionIndex": "0xf8",
      "blockHash": "0xd1c5cc1b4cee4723de941c9881b899d7501146935c34010eb83c52175f8ca8fe",
      "blockNumber": "0x1c27fa5",
      "gasUsed": "0x86932",
      "effectiveGasPrice": "0x77beef",
      "from": "0xe80bbcab9e20fc193ef768b68d69f363a7f9a2a1",
      "to": "0x4cde3396854ba268d4d1ad4fd9125035f05a0a03",
      "contractAddress": null,
      "l1BaseFeeScalar": "0x8dd",
      "l1BlobBaseFee": "0x19ac964ba",
      "l1BlobBaseFeeScalar": "0x101c12",
      "l1Fee": "0xaa121e9e5d",
      "l1GasPrice": "0x2e808f0a",
      "l1GasUsed": "0x640"
    },
    {
      "status": "0x1",
      "cumulativeGasUsed": "0x3b89acd",
      "logs": [],
      "logsBloom": "0x00000000000000000000000000000000000000000000000000000000000000000000000000000000000000000000000000000000000000000000000000000000000000000000000000000000000000000000000000000000000000000000000000000000000000000000000000000000000000000000000000000000000000000000000000000000000000000000000000000000000000000000000000000000000000000000000000000000000000000000000000000000000000000000000000000000000000000000000000000000000000000000000000000000000000000000000000000000000000000000000000000000000000000000000000000000",
      "type": "0x2",
      "transactionHash": "0x4fc4dc29bddd821d74a8a6fa57a3f483dfe978b09c61feb37c65c07b379c765c",
      "transactionIndex": "0xf9",
      "blockHash": "0xd1c5cc1b4cee4723de941c9881b899d7501146935c34010eb83c52175f8ca8fe",
      "blockNumber": "0x1c27fa5",
      "gasUsed": "0x7daae",
      "effectiveGasPrice": "0x77beef",
      "from": "0xe80bbcab9e20fc193ef768b68d69f363a7f9a2a1",
      "to": null,
      "contractAddress": "0x9cf3d901f5821f58425f98cbca8e6df916abc2d3",
      "l1BaseFeeScalar": "0x8dd",
      "l1BlobBaseFee": "0x19ac964ba",
      "l1BlobBaseFeeScalar": "0x101c12",
      "l1Fee": "0xafe1d775c94",
      "l1GasPrice": "0x2e808f0a",
      "l1GasUsed": "0x676a"
    },
    {
      "status": "0x1",
      "cumulativeGasUsed": "0x46243b6",
      "logs": [
        {
          "address": "0xc9271ceaf8fec24ec2ce0e838f0ccad255ba30e3",
          "topics": [
            "0x1cf3b03a6cf19fa2baba4df148e9dcabedea7f8a5c07840e207e5c089be95d3e",
            "0x0000000000000000000000005e1e40a6062311580eb4d163fb02b6f4ac733d7c"
          ],
          "data": "0x",
          "blockHash": "0xb0bbb376e0e596bfcae3794a09d4cb08f967b885fafb2f74fa75c2a25f5a6e03",
          "blockNumber": "0x1c27fa6",
          "transactionHash": "0x8331c0708464d168261e073012dc5f9f01c1ece68ecc24f129427e30043cbacd",
          "transactionIndex": "0x15a",
          "logIndex": "0x5ae",
          "removed": false
        },
        {
          "address": "0xc9271ceaf8fec24ec2ce0e838f0ccad255ba30e3",
          "topics": [
            "0x8be0079c531659141344cd1fd0a4f28419497f9722a3daafe3b4186f6b6457e0",
            "0x0000000000000000000000000000000000000000000000000000000000000000",
            "0x00000000000000000000000035da3f9ced96bef45b3d817ea9f3f7c445cdd87b"
          ],
          "data": "0x",
          "blockHash": "0xb0bbb376e0e596bfcae3794a09d4cb08f967b885fafb2f74fa75c2a25f5a6e03",
          "blockNumber": "0x1c27fa6",
          "transactionHash": "0x8331c0708464d168261e073012dc5f9f01c1ece68ecc24f129427e30043cbacd",
          "transactionIndex": "0x15a",
          "logIndex": "0x5af",
          "removed": false
        },
        {
          "address": "0xc9271ceaf8fec24ec2ce0e838f0ccad255ba30e3",
          "topics": [
            "0xc7f505b2f371ae2175ee4913f4499e1f2633a7b5936321eed1cdaeb6115181d2"
          ],
          "data": "0x0000000000000000000000000000000000000000000000000000000000000001",
          "blockHash": "0xb0bbb376e0e596bfcae3794a09d4cb08f967b885fafb2f74fa75c2a25f5a6e03",
          "blockNumber": "0x1c27fa6",
          "transactionHash": "0x8331c0708464d168261e073012dc5f9f01c1ece68ecc24f129427e30043cbacd",
          "transactionIndex": "0x15a",
          "logIndex": "0x5b0",
          "removed": false
        },
        {
          "address": "0xcc51d754f36bb31f14d8ed4a16b9aa5a4d2f18a1",
          "topics": [
            "0x1cf3b03a6cf19fa2baba4df148e9dcabedea7f8a5c07840e207e5c089be95d3e",
            "0x000000000000000000000000ccf90334583b96ac6d3853928184f068d4eb6ac2"
          ],
          "data": "0x",
          "blockHash": "0xb0bbb376e0e596bfcae3794a09d4cb08f967b885fafb2f74fa75c2a25f5a6e03",
          "blockNumber": "0x1c27fa6",
          "transactionHash": "0x8331c0708464d168261e073012dc5f9f01c1ece68ecc24f129427e30043cbacd",
          "transactionIndex": "0x15a",
          "logIndex": "0x5b1",
          "removed": false
        },
        {
          "address": "0xcc51d754f36bb31f14d8ed4a16b9aa5a4d2f18a1",
          "topics": [
            "0x8be0079c531659141344cd1fd0a4f28419497f9722a3daafe3b4186f6b6457e0",
            "0x0000000000000000000000000000000000000000000000000000000000000000",
            "0x00000000000000000000000035da3f9ced96bef45b3d817ea9f3f7c445cdd87b"
          ],
          "data": "0x",
          "blockHash": "0xb0bbb376e0e596bfcae3794a09d4cb08f967b885fafb2f74fa75c2a25f5a6e03",
          "blockNumber": "0x1c27fa6",
          "transactionHash": "0x8331c0708464d168261e073012dc5f9f01c1ece68ecc24f129427e30043cbacd",
          "transactionIndex": "0x15a",
          "logIndex": "0x5b2",
          "removed": false
        },
        {
          "address": "0xcc51d754f36bb31f14d8ed4a16b9aa5a4d2f18a1",
          "topics": [
            "0x7a62cf7b9006cf6d98e74e54f87f7921ebbab2259658cb564284f4ce348cfbbe"
          ],
          "data": "0x00000000000000000000000000000000000000000000000000000000000000000000000000000000000000000000000000000000000000000000000000000708",
          "blockHash": "0xb0bbb376e0e596bfcae3794a09d4cb08f967b885fafb2f74fa75c2a25f5a6e03",
          "blockNumber": "0x1c27fa6",
          "transactionHash": "0x8331c0708464d168261e073012dc5f9f01c1ece68ecc24f129427e30043cbacd",
          "transactionIndex": "0x15a",
          "logIndex": "0x5b3",
          "removed": false
        },
        {
          "address": "0xcc51d754f36bb31f14d8ed4a16b9aa5a4d2f18a1",
          "topics": [
            "0xc7f505b2f371ae2175ee4913f4499e1f2633a7b5936321eed1cdaeb6115181d2"
          ],
          "data": "0x0000000000000000000000000000000000000000000000000000000000000001",
          "blockHash": "0xb0bbb376e0e596bfcae3794a09d4cb08f967b885fafb2f74fa75c2a25f5a6e03",
          "blockNumber": "0x1c27fa6",
          "transactionHash": "0x8331c0708464d168261e073012dc5f9f01c1ece68ecc24f129427e30043cbacd",
          "transactionIndex": "0x15a",
          "logIndex": "0x5b4",
          "removed": false
        },
        {
          "address": "0x2407f46cfb35930866e796bbc7f564311daf809b",
          "topics": [
            "0x1cf3b03a6cf19fa2baba4df148e9dcabedea7f8a5c07840e207e5c089be95d3e",
            "0x000000000000000000000000521130d7441e615acbb5b8531afef739895fe01b"
          ],
          "data": "0x",
          "blockHash": "0xb0bbb376e0e596bfcae3794a09d4cb08f967b885fafb2f74fa75c2a25f5a6e03",
          "blockNumber": "0x1c27fa6",
          "transactionHash": "0x8331c0708464d168261e073012dc5f9f01c1ece68ecc24f129427e30043cbacd",
          "transactionIndex": "0x15a",
          "logIndex": "0x5b5",
          "removed": false
        },
        {
          "address": "0x2407f46cfb35930866e796bbc7f564311daf809b",
          "topics": [
            "0x8be0079c531659141344cd1fd0a4f28419497f9722a3daafe3b4186f6b6457e0",
            "0x0000000000000000000000000000000000000000000000000000000000000000",
            "0x00000000000000000000000035da3f9ced96bef45b3d817ea9f3f7c445cdd87b"
          ],
          "data": "0x",
          "blockHash": "0xb0bbb376e0e596bfcae3794a09d4cb08f967b885fafb2f74fa75c2a25f5a6e03",
          "blockNumber": "0x1c27fa6",
          "transactionHash": "0x8331c0708464d168261e073012dc5f9f01c1ece68ecc24f129427e30043cbacd",
          "transactionIndex": "0x15a",
          "logIndex": "0x5b6",
          "removed": false
        },
        {
          "address": "0x2407f46cfb35930866e796bbc7f564311daf809b",
          "topics": [
            "0xc7f505b2f371ae2175ee4913f4499e1f2633a7b5936321eed1cdaeb6115181d2"
          ],
          "data": "0x0000000000000000000000000000000000000000000000000000000000000001",
          "blockHash": "0xb0bbb376e0e596bfcae3794a09d4cb08f967b885fafb2f74fa75c2a25f5a6e03",
          "blockNumber": "0x1c27fa6",
          "transactionHash": "0x8331c0708464d168261e073012dc5f9f01c1ece68ecc24f129427e30043cbacd",
          "transactionIndex": "0x15a",
          "logIndex": "0x5b7",
          "removed": false
        },
        {
          "address": "0x2407f46cfb35930866e796bbc7f564311daf809b",
          "topics": [
            "0x8be0079c531659141344cd1fd0a4f28419497f9722a3daafe3b4186f6b6457e0",
            "0x00000000000000000000000035da3f9ced96bef45b3d817ea9f3f7c445cdd87b",
            "0x000000000000000000000000e80bbcab9e20fc193ef768b68d69f363a7f9a2a1"
          ],
          "data": "0x",
          "blockHash": "0xb0bbb376e0e596bfcae3794a09d4cb08f967b885fafb2f74fa75c2a25f5a6e03",
          "blockNumber": "0x1c27fa6",
          "transactionHash": "0x8331c0708464d168261e073012dc5f9f01c1ece68ecc24f129427e30043cbacd",
          "transactionIndex": "0x15a",
          "logIndex": "0x5b8",
          "removed": false
        },
        {
          "address": "0xc9271ceaf8fec24ec2ce0e838f0ccad255ba30e3",
          "topics": [
            "0x73cca62ab1b520c9715bf4e6c71e3e518c754e7148f65102f43289a7df0efea6",
            "0x0000000000000000000000002407f46cfb35930866e796bbc7f564311daf809b"
          ],
          "data": "0x",
          "blockHash": "0xb0bbb376e0e596bfcae3794a09d4cb08f967b885fafb2f74fa75c2a25f5a6e03",
          "blockNumber": "0x1c27fa6",
          "transactionHash": "0x8331c0708464d168261e073012dc5f9f01c1ece68ecc24f129427e30043cbacd",
          "transactionIndex": "0x15a",
          "logIndex": "0x5b9",
          "removed": false
        },
        {
          "address": "0xc9271ceaf8fec24ec2ce0e838f0ccad255ba30e3",
          "topics": [
            "0x8be0079c531659141344cd1fd0a4f28419497f9722a3daafe3b4186f6b6457e0",
            "0x00000000000000000000000035da3f9ced96bef45b3d817ea9f3f7c445cdd87b",
            "0x000000000000000000000000e80bbcab9e20fc193ef768b68d69f363a7f9a2a1"
          ],
          "data": "0x",
          "blockHash": "0xb0bbb376e0e596bfcae3794a09d4cb08f967b885fafb2f74fa75c2a25f5a6e03",
          "blockNumber": "0x1c27fa6",
          "transactionHash": "0x8331c0708464d168261e073012dc5f9f01c1ece68ecc24f129427e30043cbacd",
          "transactionIndex": "0x15a",
          "logIndex": "0x5ba",
          "removed": false
        },
        {
          "address": "0xcc51d754f36bb31f14d8ed4a16b9aa5a4d2f18a1",
          "topics": [
            "0x8be0079c531659141344cd1fd0a4f28419497f9722a3daafe3b4186f6b6457e0",
            "0x00000000000000000000000035da3f9ced96bef45b3d817ea9f3f7c445cdd87b",
            "0x000000000000000000000000e80bbcab9e20fc193ef768b68d69f363a7f9a2a1"
          ],
          "data": "0x",
          "blockHash": "0xb0bbb376e0e596bfcae3794a09d4cb08f967b885fafb2f74fa75c2a25f5a6e03",
          "blockNumber": "0x1c27fa6",
          "transactionHash": "0x8331c0708464d168261e073012dc5f9f01c1ece68ecc24f129427e30043cbacd",
          "transactionIndex": "0x15a",
          "logIndex": "0x5bb",
          "removed": false
        },
        {
          "address": "0x8453aabff7d2a7b91953b62820806ee7ab88864a",
          "topics": [
            "0x1cf3b03a6cf19fa2baba4df148e9dcabedea7f8a5c07840e207e5c089be95d3e",
            "0x000000000000000000000000d2533d8837de715a3539b225d4528e847146655e"
          ],
          "data": "0x",
          "blockHash": "0xb0bbb376e0e596bfcae3794a09d4cb08f967b885fafb2f74fa75c2a25f5a6e03",
          "blockNumber": "0x1c27fa6",
          "transactionHash": "0x8331c0708464d168261e073012dc5f9f01c1ece68ecc24f129427e30043cbacd",
          "transactionIndex": "0x15a",
          "logIndex": "0x5bc",
          "removed": false
        },
        {
          "address": "0x8453aabff7d2a7b91953b62820806ee7ab88864a",
          "topics": [
            "0xc7f505b2f371ae2175ee4913f4499e1f2633a7b5936321eed1cdaeb6115181d2"
          ],
          "data": "0x0000000000000000000000000000000000000000000000000000000000000001",
          "blockHash": "0xb0bbb376e0e596bfcae3794a09d4cb08f967b885fafb2f74fa75c2a25f5a6e03",
          "blockNumber": "0x1c27fa6",
          "transactionHash": "0x8331c0708464d168261e073012dc5f9f01c1ece68ecc24f129427e30043cbacd",
          "transactionIndex": "0x15a",
          "logIndex": "0x5bd",
          "removed": false
        },
        {
          "address": "0x35da3f9ced96bef45b3d817ea9f3f7c445cdd87b",
          "topics": [
            "0x55b6e041bb1679bf2b32c9252ad372f3459868b982e77a0ae577d59c947e3757"
          ],
          "data": "0x000000000000000000000000c9271ceaf8fec24ec2ce0e838f0ccad255ba30e30000000000000000000000002407f46cfb35930866e796bbc7f564311daf809b0000000000000000000000008453aabff7d2a7b91953b62820806ee7ab88864a000000000000000000000000cc51d754f36bb31f14d8ed4a16b9aa5a4d2f18a1",
          "blockHash": "0xb0bbb376e0e596bfcae3794a09d4cb08f967b885fafb2f74fa75c2a25f5a6e03",
          "blockNumber": "0x1c27fa6",
          "transactionHash": "0x8331c0708464d168261e073012dc5f9f01c1ece68ecc24f129427e30043cbacd",
          "transactionIndex": "0x15a",
          "logIndex": "0x5be",
          "removed": false
        }
      ],
      "logsBloom": "0x0000000000c000400008000000008000000000000000000000800000000040001000000000000010000000000000000000500010080000000000000200000000100000100020200000000014001000000001000000000040001000000000000000000000020000000000008000000920000210000000000000000000000c00400000000000000008000800000000080000000000000090000000000000000400000000000000002000004000000400000000000000000200000000000040000000000000000004000000008100000008000000000004000008800000000028000000004000000000000000000000000080000000000000000000000004000000",
      "type": "0x2",
      "transactionHash": "0x8331c0708464d168261e073012dc5f9f01c1ece68ecc24f129427e30043cbacd",
      "transactionIndex": "0x15a",
      "blockHash": "0xb0bbb376e0e596bfcae3794a09d4cb08f967b885fafb2f74fa75c2a25f5a6e03",
      "blockNumber": "0x1c27fa6",
      "gasUsed": "0x2261f1",
      "effectiveGasPrice": "0x77db3c",
      "from": "0xe80bbcab9e20fc193ef768b68d69f363a7f9a2a1",
      "to": "0x35da3f9ced96bef45b3d817ea9f3f7c445cdd87b",
      "contractAddress": null,
      "l1BaseFeeScalar": "0x8dd",
      "l1BlobBaseFee": "0x19ac964ba",
      "l1BlobBaseFeeScalar": "0x101c12",
      "l1Fee": "0x159d4c37230",
      "l1GasPrice": "0x2e808f0a",
      "l1GasUsed": "0xcb5"
    },
    {
      "status": "0x1",
      "cumulativeGasUsed": "0x462f785",
      "logs": [
        {
          "address": "0x4200000000000000000000000000000000000006",
          "topics": [
            "0x8c5be1e5ebec7d5bd14f71427d1e84f3dd0314c0f7b2291e5b200ac8c7c3b925",
            "0x000000000000000000000000e80bbcab9e20fc193ef768b68d69f363a7f9a2a1",
            "0x0000000000000000000000002407f46cfb35930866e796bbc7f564311daf809b"
          ],
          "data": "0x0000000000000000000000000000000000000000000000000008e1bc9bf04000",
          "blockHash": "0xb0bbb376e0e596bfcae3794a09d4cb08f967b885fafb2f74fa75c2a25f5a6e03",
          "blockNumber": "0x1c27fa6",
          "transactionHash": "0x91b4d3bcfc60e6c50f51502e480e103786bdb68f003a6dba677815f05e083ce7",
          "transactionIndex": "0x15b",
          "logIndex": "0x5bf",
          "removed": false
        }
      ],
      "logsBloom": "0x00000000000000000000000000000000000000000000000000040000000000000000000000000000000000100000000000000000000000000000000200200000000000000000000000000000000000000000000000000000000000000000000000000000000000000000000000000000000000000000000000000000000000000000000000000000000000000000000000000000002000000000000000000000020000000000002000000000000000000000000000000000000000000000000000000000000004000000000000000000000000000000000008000000000000000010004000000000000000000000000000000000000000000000000004000000",
      "type": "0x2",
      "transactionHash": "0x91b4d3bcfc60e6c50f51502e480e103786bdb68f003a6dba677815f05e083ce7",
      "transactionIndex": "0x15b",
      "blockHash": "0xb0bbb376e0e596bfcae3794a09d4cb08f967b885fafb2f74fa75c2a25f5a6e03",
      "blockNumber": "0x1c27fa6",
      "gasUsed": "0xb3cf",
      "effectiveGasPrice": "0x77db3c",
      "from": "0xe80bbcab9e20fc193ef768b68d69f363a7f9a2a1",
      "to": "0x4200000000000000000000000000000000000006",
      "contractAddress": null,
      "l1BaseFeeScalar": "0x8dd",
      "l1BlobBaseFee": "0x19ac964ba",
      "l1BlobBaseFeeScalar": "0x101c12",
      "l1Fee": "0xaa121e9e5d",
      "l1GasPrice": "0x2e808f0a",
      "l1GasUsed": "0x640"
    },
    {
      "status": "0x1",
      "cumulativeGasUsed": "0x463bfdc",
      "logs": [
        {
          "address": "0xc1cba3fcea344f92d9239c08c0568f6f2f0ee452",
          "topics": [
            "0x8c5be1e5ebec7d5bd14f71427d1e84f3dd0314c0f7b2291e5b200ac8c7c3b925",
            "0x000000000000000000000000e80bbcab9e20fc193ef768b68d69f363a7f9a2a1",
            "0x0000000000000000000000002407f46cfb35930866e796bbc7f564311daf809b"
          ],
          "data": "0x0000000000000000000000000000000000000000000000000008e1bc9bf04000",
          "blockHash": "0xb0bbb376e0e596bfcae3794a09d4cb08f967b885fafb2f74fa75c2a25f5a6e03",
          "blockNumber": "0x1c27fa6",
          "transactionHash": "0x86943f5090e4a497bd7832fcab4e6a3934aeb8310adff8a030a5bc9801a42ea1",
          "transactionIndex": "0x15c",
          "logIndex": "0x5c0",
          "removed": false
        }
      ],
      "logsBloom": "0x00000000000000000000000000000000000000000000000000000000000000000000000000000000000000000000000000000000000000000000000200200000000000000000000000000000400000000000000000000000000000000000000000000000000000000000000000000000000000000000000000000000000000000000000000000000000000000000000000000000000000000000000000000000020000000000002000000000000000000000000000000000000000000000000040000000000004000000000000000000000000000000000008000000000000000010004000000000000000000000000000000080000000000000000004000000",
      "type": "0x2",
      "transactionHash": "0x86943f5090e4a497bd7832fcab4e6a3934aeb8310adff8a030a5bc9801a42ea1",
      "transactionIndex": "0x15c",
      "blockHash": "0xb0bbb376e0e596bfcae3794a09d4cb08f967b885fafb2f74fa75c2a25f5a6e03",
      "blockNumber": "0x1c27fa6",
      "gasUsed": "0xc857",
      "effectiveGasPrice": "0x77db3c",
      "from": "0xe80bbcab9e20fc193ef768b68d69f363a7f9a2a1",
      "to": "0xc1cba3fcea344f92d9239c08c0568f6f2f0ee452",
      "contractAddress": null,
      "l1BaseFeeScalar": "0x8dd",
      "l1BlobBaseFee": "0x19ac964ba",
      "l1BlobBaseFeeScalar": "0x101c12",
      "l1Fee": "0xaa121e9e5d",
      "l1GasPrice": "0x2e808f0a",
      "l1GasUsed": "0x640"
    },
    {
      "status": "0x1",
      "cumulativeGasUsed": "0x46b6645",
      "logs": [
        {
          "address": "0x4200000000000000000000000000000000000006",
          "topics": [
            "0xddf252ad1be2c89b69c2b068fc378daa952ba7f163c4a11628f55a4df523b3ef",
            "0x000000000000000000000000e80bbcab9e20fc193ef768b68d69f363a7f9a2a1",
            "0x0000000000000000000000002407f46cfb35930866e796bbc7f564311daf809b"
          ],
          "data": "0x0000000000000000000000000000000000000000000000000008e1bc9bf04000",
          "blockHash": "0xb0bbb376e0e596bfcae3794a09d4cb08f967b885fafb2f74fa75c2a25f5a6e03",
          "blockNumber": "0x1c27fa6",
          "transactionHash": "0x86acbf88912c3e62f5143f933dd896c3cfee5516805c717a0081fa82035cfa53",
          "transactionIndex": "0x15d",
          "logIndex": "0x5c1",
          "removed": false
        },
        {
          "address": "0xc1cba3fcea344f92d9239c08c0568f6f2f0ee452",
          "topics": [
            "0x8c5be1e5ebec7d5bd14f71427d1e84f3dd0314c0f7b2291e5b200ac8c7c3b925",
            "0x000000000000000000000000e80bbcab9e20fc193ef768b68d69f363a7f9a2a1",
            "0x0000000000000000000000002407f46cfb35930866e796bbc7f564311daf809b"
          ],
          "data": "0x0000000000000000000000000000000000000000000000000000000000000000",
          "blockHash": "0xb0bbb376e0e596bfcae3794a09d4cb08f967b885fafb2f74fa75c2a25f5a6e03",
          "blockNumber": "0x1c27fa6",
          "transactionHash": "0x86acbf88912c3e62f5143f933dd896c3cfee5516805c717a0081fa82035cfa53",
          "transactionIndex": "0x15d",
          "logIndex": "0x5c2",
          "removed": false
        },
        {
          "address": "0xc1cba3fcea344f92d9239c08c0568f6f2f0ee452",
          "topics": [
            "0xddf252ad1be2c89b69c2b068fc378daa952ba7f163c4a11628f55a4df523b3ef",
            "0x000000000000000000000000e80bbcab9e20fc193ef768b68d69f363a7f9a2a1",
            "0x0000000000000000000000002407f46cfb35930866e796bbc7f564311daf809b"
          ],
          "data": "0x0000000000000000000000000000000000000000000000000008e1bc9bf04000",
          "blockHash": "0xb0bbb376e0e596bfcae3794a09d4cb08f967b885fafb2f74fa75c2a25f5a6e03",
          "blockNumber": "0x1c27fa6",
          "transactionHash": "0x86acbf88912c3e62f5143f933dd896c3cfee5516805c717a0081fa82035cfa53",
          "transactionIndex": "0x15d",
          "logIndex": "0x5c3",
          "removed": false
        },
        {
          "address": "0xc9271ceaf8fec24ec2ce0e838f0ccad255ba30e3",
          "topics": [
            "0xddf252ad1be2c89b69c2b068fc378daa952ba7f163c4a11628f55a4df523b3ef",
            "0x0000000000000000000000000000000000000000000000000000000000000000",
            "0x000000000000000000000000e80bbcab9e20fc193ef768b68d69f363a7f9a2a1"
          ],
          "data": "0x00000000000000000000000000000000000000000000000000138e9f725e0a67",
          "blockHash": "0xb0bbb376e0e596bfcae3794a09d4cb08f967b885fafb2f74fa75c2a25f5a6e03",
          "blockNumber": "0x1c27fa6",
          "transactionHash": "0x86acbf88912c3e62f5143f933dd896c3cfee5516805c717a0081fa82035cfa53",
          "transactionIndex": "0x15d",
          "logIndex": "0x5c4",
          "removed": false
        },
        {
          "address": "0xc9271ceaf8fec24ec2ce0e838f0ccad255ba30e3",
          "topics": [
            "0x9d9c909296d9c674451c0c24f02cb64981eb3b727f99865939192f880a755dcb",
            "0x0000000000000000000000000000000000000000000000000000000000000000",
            "0x000000000000000000000000e80bbcab9e20fc193ef768b68d69f363a7f9a2a1"
          ],
          "data": "0x00000000000000000000000000000000000000000000000000138e9f725e0a67",
          "blockHash": "0xb0bbb376e0e596bfcae3794a09d4cb08f967b885fafb2f74fa75c2a25f5a6e03",
          "blockNumber": "0x1c27fa6",
          "transactionHash": "0x86acbf88912c3e62f5143f933dd896c3cfee5516805c717a0081fa82035cfa53",
          "transactionIndex": "0x15d",
          "logIndex": "0x5c5",
          "removed": false
        },
        {
          "address": "0x2407f46cfb35930866e796bbc7f564311daf809b",
          "topics": [
            "0xc1258b6f224442b6aa30f317612f0920bb2f76d968200d28d9163ec6aee9ad00",
            "0x000000000000000000000000e80bbcab9e20fc193ef768b68d69f363a7f9a2a1"
          ],
          "data": "0x00000000000000000000000000000000000000000000000000138e9f725e0e4f0000000000000000000000000000000000000000000000000000000000000060000000000000000000000000000000000000000000000000000000000000000000000000000000000000000000000000000000000000000000000000000000020000000000000000000000000000000000000000000000000008e1bc9bf040000000000000000000000000000000000000000000000000000008e1bc9bf04000",
          "blockHash": "0xb0bbb376e0e596bfcae3794a09d4cb08f967b885fafb2f74fa75c2a25f5a6e03",
          "blockNumber": "0x1c27fa6",
          "transactionHash": "0x86acbf88912c3e62f5143f933dd896c3cfee5516805c717a0081fa82035cfa53",
          "transactionIndex": "0x15d",
          "logIndex": "0x5c6",
          "removed": false
        }
      ],
      "logsBloom": "0x00000000000000000000000000008000000000000200000000040000000000000000000000000000000000100000000000000000000000000000000200200000000200000000000000000008400000000000000000000000001000000000000000000000020000000000008000000800000010000000000000000010000000000000000000000000000000000000000000008000002000800000000000000400020000000000002000000000000000000000000000000000000000000000000040000002000004000000000000000000000000000000000008000000000028000010004000800000000000000000000080000080000000000000000004000000",
      "type": "0x2",
      "transactionHash": "0x86acbf88912c3e62f5143f933dd896c3cfee5516805c717a0081fa82035cfa53",
      "transactionIndex": "0x15d",
      "blockHash": "0xb0bbb376e0e596bfcae3794a09d4cb08f967b885fafb2f74fa75c2a25f5a6e03",
      "blockNumber": "0x1c27fa6",
      "gasUsed": "0x7a669",
      "effectiveGasPrice": "0x77db3c",
      "from": "0xe80bbcab9e20fc193ef768b68d69f363a7f9a2a1",
      "to": "0x2407f46cfb35930866e796bbc7f564311daf809b",
      "contractAddress": null,
      "l1BaseFeeScalar": "0x8dd",
      "l1BlobBaseFee": "0x19ac964ba",
      "l1BlobBaseFeeScalar": "0x101c12",
      "l1Fee": "0xaa121e9e5d",
      "l1GasPrice": "0x2e808f0a",
      "l1GasUsed": "0x640"
    }
  ],
  "libraries": [],
  "pending": [],
  "returns": {},
  "timestamp": 1745837359,
  "chain": 8453,
  "commit": "2dffd61"
}